{
  "address": "0x785a0893F1657c5bB1106E250695b7a25815ad3a",
  "abi": [
    {
      "inputs": [
        {
          "internalType": "address",
          "name": "_oracle",
          "type": "address"
        },
        {
          "internalType": "address",
          "name": "_usdt",
          "type": "address"
        },
        {
          "internalType": "address",
          "name": "_SaleToken",
          "type": "address"
        },
        {
          "internalType": "uint256",
          "name": "_MinTokenTobuy",
          "type": "uint256"
        },
        {
          "internalType": "uint256",
          "name": "_totalTokenSupply",
          "type": "uint256"
        }
      ],
      "stateMutability": "nonpayable",
      "type": "constructor"
    },
    {
      "inputs": [],
      "name": "CapExceeded",
      "type": "error"
    },
    {
      "inputs": [],
      "name": "EnforcedPause",
      "type": "error"
    },
    {
      "inputs": [],
      "name": "ExpectedPause",
      "type": "error"
    },
    {
      "inputs": [],
      "name": "LockedStakeExists",
      "type": "error"
    },
    {
      "inputs": [
        {
          "internalType": "address",
          "name": "owner",
          "type": "address"
        }
      ],
      "name": "OwnableInvalidOwner",
      "type": "error"
    },
    {
      "inputs": [
        {
          "internalType": "address",
          "name": "account",
          "type": "address"
        }
      ],
      "name": "OwnableUnauthorizedAccount",
      "type": "error"
    },
    {
      "inputs": [],
      "name": "ReentrancyGuardReentrantCall",
      "type": "error"
    },
    {
      "inputs": [],
      "name": "RewardLimitExceeded",
      "type": "error"
    },
    {
      "inputs": [],
      "name": "StakingInactive",
      "type": "error"
    },
    {
      "inputs": [],
      "name": "TransferFailed",
      "type": "error"
    },
    {
      "inputs": [],
      "name": "ZeroAmount",
      "type": "error"
    },
    {
      "anonymous": false,
      "inputs": [
        {
          "indexed": false,
          "internalType": "address",
          "name": "previousOracle",
          "type": "address"
        },
        {
          "indexed": false,
          "internalType": "address",
          "name": "newOracle",
          "type": "address"
        },
        {
          "indexed": false,
          "internalType": "uint256",
          "name": "timestamp",
          "type": "uint256"
        }
      ],
      "name": "OracleUpdated",
      "type": "event"
    },
    {
      "anonymous": false,
      "inputs": [
        {
          "indexed": true,
          "internalType": "address",
          "name": "previousOwner",
          "type": "address"
        },
        {
          "indexed": true,
          "internalType": "address",
          "name": "newOwner",
          "type": "address"
        }
      ],
      "name": "OwnershipTransferred",
      "type": "event"
    },
    {
      "anonymous": false,
      "inputs": [
        {
          "indexed": false,
          "internalType": "address",
          "name": "account",
          "type": "address"
        }
      ],
      "name": "Paused",
      "type": "event"
    },
    {
      "anonymous": false,
      "inputs": [
        {
          "indexed": true,
          "internalType": "uint256",
          "name": "_id",
          "type": "uint256"
        },
        {
          "indexed": false,
          "internalType": "uint256",
          "name": "_totalTokens",
          "type": "uint256"
        },
        {
          "indexed": false,
          "internalType": "uint256",
          "name": "_startTime",
          "type": "uint256"
        },
        {
          "indexed": false,
          "internalType": "uint256",
          "name": "_endTime",
          "type": "uint256"
        }
      ],
      "name": "PresaleCreated",
      "type": "event"
    },
    {
      "anonymous": false,
      "inputs": [
        {
          "indexed": false,
          "internalType": "uint256",
          "name": "presaleId",
          "type": "uint256"
        },
        {
          "indexed": false,
          "internalType": "uint256",
          "name": "endTime",
          "type": "uint256"
        }
      ],
      "name": "PresaleEnded",
      "type": "event"
    },
    {
      "anonymous": false,
      "inputs": [
        {
          "indexed": true,
          "internalType": "uint256",
          "name": "id",
          "type": "uint256"
        },
        {
          "indexed": false,
          "internalType": "uint256",
          "name": "timestamp",
          "type": "uint256"
        }
      ],
      "name": "PresalePaused",
      "type": "event"
    },
    {
      "anonymous": false,
      "inputs": [
        {
          "indexed": false,
          "internalType": "uint256",
          "name": "presaleId",
          "type": "uint256"
        },
        {
          "indexed": false,
          "internalType": "uint256",
          "name": "cap",
          "type": "uint256"
        },
        {
          "indexed": false,
          "internalType": "uint256",
          "name": "price",
          "type": "uint256"
        },
        {
          "indexed": false,
          "internalType": "uint256",
          "name": "startTime",
          "type": "uint256"
        },
        {
          "indexed": false,
          "internalType": "uint256",
          "name": "endTime",
          "type": "uint256"
        }
      ],
      "name": "PresaleStarted",
      "type": "event"
    },
    {
      "anonymous": false,
      "inputs": [
        {
          "indexed": true,
          "internalType": "uint256",
          "name": "id",
          "type": "uint256"
        },
        {
          "indexed": false,
          "internalType": "uint256",
          "name": "timestamp",
          "type": "uint256"
        }
      ],
      "name": "PresaleUnpaused",
      "type": "event"
    },
    {
      "anonymous": false,
      "inputs": [
        {
          "indexed": false,
          "internalType": "uint256",
          "name": "previousPercentage",
          "type": "uint256"
        },
        {
          "indexed": false,
          "internalType": "uint256",
          "name": "newPercentage",
          "type": "uint256"
        },
        {
          "indexed": false,
          "internalType": "uint256",
          "name": "timestamp",
          "type": "uint256"
        }
      ],
      "name": "ReferralPercentageUpdated",
      "type": "event"
    },
    {
      "anonymous": false,
      "inputs": [
        {
          "indexed": true,
          "internalType": "address",
          "name": "referrer",
          "type": "address"
        },
        {
          "indexed": true,
          "internalType": "address",
          "name": "referee",
          "type": "address"
        },
        {
          "indexed": false,
          "internalType": "uint256",
          "name": "timestamp",
          "type": "uint256"
        }
      ],
      "name": "ReferralRecorded",
      "type": "event"
    },
    {
      "anonymous": false,
      "inputs": [
        {
          "indexed": true,
          "internalType": "address",
          "name": "referrer",
          "type": "address"
        },
        {
          "indexed": true,
          "internalType": "address",
          "name": "referee",
          "type": "address"
        },
        {
          "indexed": false,
          "internalType": "uint256",
          "name": "referrerReward",
          "type": "uint256"
        },
        {
          "indexed": false,
          "internalType": "uint256",
          "name": "refereeReward",
          "type": "uint256"
        },
        {
          "indexed": false,
          "internalType": "uint256",
          "name": "timestamp",
          "type": "uint256"
        }
      ],
      "name": "ReferralRewardsAdded",
      "type": "event"
    },
    {
      "anonymous": false,
      "inputs": [
        {
          "indexed": true,
          "internalType": "address",
          "name": "user",
          "type": "address"
        },
        {
          "indexed": false,
          "internalType": "uint256",
          "name": "amount",
          "type": "uint256"
        },
        {
          "indexed": false,
          "internalType": "uint256",
          "name": "timestamp",
          "type": "uint256"
        }
      ],
      "name": "ReferralRewardsClaimed",
      "type": "event"
    },
    {
      "anonymous": false,
      "inputs": [
        {
          "indexed": true,
          "internalType": "address",
          "name": "user",
          "type": "address"
        },
        {
          "indexed": false,
          "internalType": "uint256",
          "name": "stakedAmount",
          "type": "uint256"
        },
        {
          "indexed": false,
          "internalType": "uint256",
          "name": "rewardAmount",
          "type": "uint256"
        },
        {
          "indexed": false,
          "internalType": "uint256",
          "name": "timestamp",
          "type": "uint256"
        }
      ],
      "name": "StakeWithdrawn",
      "type": "event"
    },
    {
      "anonymous": false,
      "inputs": [
        {
          "indexed": false,
          "internalType": "uint256",
          "name": "previousCap",
          "type": "uint256"
        },
        {
          "indexed": false,
          "internalType": "uint256",
          "name": "newCap",
          "type": "uint256"
        },
        {
          "indexed": false,
          "internalType": "uint256",
          "name": "timestamp",
          "type": "uint256"
        }
      ],
      "name": "StakingCapUpdated",
      "type": "event"
    },
    {
      "anonymous": false,
      "inputs": [
        {
          "indexed": false,
          "internalType": "bool",
          "name": "isActive",
          "type": "bool"
        },
        {
          "indexed": false,
          "internalType": "uint256",
          "name": "timestamp",
          "type": "uint256"
        }
      ],
      "name": "StakingStatusChanged",
      "type": "event"
    },
    {
      "anonymous": false,
      "inputs": [
        {
          "indexed": true,
          "internalType": "address",
          "name": "user",
          "type": "address"
        },
        {
          "indexed": true,
          "internalType": "uint256",
          "name": "id",
          "type": "uint256"
        },
        {
          "indexed": true,
          "internalType": "address",
          "name": "purchaseToken",
          "type": "address"
        },
        {
          "indexed": false,
          "internalType": "uint256",
          "name": "tokensBought",
          "type": "uint256"
        },
        {
          "indexed": false,
          "internalType": "uint256",
          "name": "amountPaid",
          "type": "uint256"
        },
        {
          "indexed": false,
          "internalType": "uint256",
          "name": "timestamp",
          "type": "uint256"
        }
      ],
      "name": "TokensBought",
      "type": "event"
    },
    {
      "anonymous": false,
      "inputs": [
        {
          "indexed": true,
          "internalType": "address",
          "name": "user",
          "type": "address"
        },
        {
          "indexed": true,
          "internalType": "uint256",
          "name": "id",
          "type": "uint256"
        },
        {
          "indexed": false,
          "internalType": "uint256",
          "name": "amount",
          "type": "uint256"
        },
        {
          "indexed": false,
          "internalType": "uint256",
          "name": "timestamp",
          "type": "uint256"
        }
      ],
      "name": "TokensClaimedWithTimestamp",
      "type": "event"
    },
    {
      "anonymous": false,
      "inputs": [
        {
          "indexed": true,
          "internalType": "address",
          "name": "token",
          "type": "address"
        },
        {
          "indexed": false,
          "internalType": "uint256",
          "name": "amount",
          "type": "uint256"
        },
        {
          "indexed": false,
          "internalType": "uint256",
          "name": "timestamp",
          "type": "uint256"
        }
      ],
      "name": "TokensPreFunded",
      "type": "event"
    },
    {
      "anonymous": false,
      "inputs": [
        {
          "indexed": true,
          "internalType": "address",
          "name": "user",
          "type": "address"
        },
        {
          "indexed": false,
          "internalType": "uint256",
          "name": "amount",
          "type": "uint256"
        },
        {
          "indexed": false,
          "internalType": "uint256",
          "name": "stakingTime",
          "type": "uint256"
        },
        {
          "indexed": false,
          "internalType": "uint256",
          "name": "unlockTime",
          "type": "uint256"
        }
      ],
      "name": "TokensStaked",
      "type": "event"
    },
    {
      "anonymous": false,
      "inputs": [
        {
          "indexed": false,
          "internalType": "address",
          "name": "account",
          "type": "address"
        }
      ],
      "name": "Unpaused",
      "type": "event"
    },
    {
      "inputs": [
        {
          "internalType": "address",
          "name": "_newTokenAddress",
          "type": "address"
        }
      ],
      "name": "ChangeTokentoSell",
      "outputs": [],
      "stateMutability": "nonpayable",
      "type": "function"
    },
    {
      "inputs": [],
      "name": "ETH_MULTIPLIER",
      "outputs": [
        {
          "internalType": "uint256",
          "name": "",
          "type": "uint256"
        }
      ],
      "stateMutability": "view",
      "type": "function"
    },
    {
      "inputs": [
        {
          "internalType": "uint256",
          "name": "_newMinAmount",
          "type": "uint256"
        }
      ],
      "name": "EditMinTokenToBuy",
      "outputs": [],
      "stateMutability": "nonpayable",
      "type": "function"
    },
    {
      "inputs": [
        {
          "internalType": "address",
          "name": "_user",
          "type": "address"
        },
        {
          "internalType": "bool",
          "name": "_status",
          "type": "bool"
        }
      ],
      "name": "ExcludeAccouctFromMinBuy",
      "outputs": [],
      "stateMutability": "nonpayable",
      "type": "function"
    },
    {
      "inputs": [],
      "name": "MINIMUM_PURCHASE_FOR_REFERRAL",
      "outputs": [
        {
          "internalType": "uint256",
          "name": "",
          "type": "uint256"
        }
      ],
      "stateMutability": "view",
      "type": "function"
    },
    {
      "inputs": [],
      "name": "MinTokenTobuy",
      "outputs": [
        {
          "internalType": "uint256",
          "name": "",
          "type": "uint256"
        }
      ],
      "stateMutability": "view",
      "type": "function"
    },
    {
      "inputs": [],
      "name": "STAKING_APY",
      "outputs": [
        {
          "internalType": "uint256",
          "name": "",
          "type": "uint256"
        }
      ],
      "stateMutability": "view",
      "type": "function"
    },
    {
      "inputs": [],
      "name": "SaleToken",
      "outputs": [
        {
          "internalType": "address",
          "name": "",
          "type": "address"
        }
      ],
      "stateMutability": "view",
      "type": "function"
    },
    {
      "inputs": [],
      "name": "TotalUSDTRaised",
      "outputs": [
        {
          "internalType": "uint256",
          "name": "",
          "type": "uint256"
        }
      ],
      "stateMutability": "view",
      "type": "function"
    },
    {
      "inputs": [],
      "name": "USDTInterface",
      "outputs": [
        {
          "internalType": "contract IERC20Metadata",
          "name": "",
          "type": "address"
        }
      ],
      "stateMutability": "view",
      "type": "function"
    },
    {
      "inputs": [],
      "name": "USDT_MULTIPLIER",
      "outputs": [
        {
          "internalType": "uint256",
          "name": "",
          "type": "uint256"
        }
      ],
      "stateMutability": "view",
      "type": "function"
    },
    {
      "inputs": [],
      "name": "WithdrawAllContractFunds",
      "outputs": [],
      "stateMutability": "nonpayable",
      "type": "function"
    },
    {
      "inputs": [
        {
          "internalType": "address",
          "name": "_token",
          "type": "address"
        }
      ],
      "name": "WithdrawAllTokens",
      "outputs": [],
      "stateMutability": "nonpayable",
      "type": "function"
    },
    {
      "inputs": [
        {
          "internalType": "address",
          "name": "referrer",
          "type": "address"
        },
        {
          "internalType": "bool",
          "name": "shouldStake",
          "type": "bool"
        }
      ],
      "name": "buyWithEth",
      "outputs": [
        {
          "internalType": "bool",
          "name": "",
          "type": "bool"
        }
      ],
      "stateMutability": "payable",
      "type": "function"
    },
    {
      "inputs": [
        {
          "internalType": "uint256",
          "name": "usdAmount",
          "type": "uint256"
        },
        {
          "internalType": "address",
          "name": "referrer",
          "type": "address"
        },
        {
          "internalType": "bool",
          "name": "shouldStake",
          "type": "bool"
        }
      ],
      "name": "buyWithUSDT",
      "outputs": [
        {
          "internalType": "bool",
          "name": "",
          "type": "bool"
        }
      ],
      "stateMutability": "nonpayable",
      "type": "function"
    },
    {
      "inputs": [],
      "name": "calculateBaseReservedTokens",
      "outputs": [
        {
          "internalType": "uint256",
          "name": "",
          "type": "uint256"
        }
      ],
      "stateMutability": "view",
      "type": "function"
    },
    {
      "inputs": [
        {
          "internalType": "uint256",
          "name": "desiredTokens",
          "type": "uint256"
        },
        {
          "internalType": "uint256",
          "name": "usdtAmount",
          "type": "uint256"
        }
      ],
      "name": "calculatePriceForTokens",
      "outputs": [
        {
          "internalType": "uint256",
          "name": "",
          "type": "uint256"
        }
      ],
      "stateMutability": "pure",
      "type": "function"
    },
    {
      "inputs": [],
      "name": "calculateTotalReservedTokens",
      "outputs": [
        {
          "internalType": "uint256",
          "name": "",
          "type": "uint256"
        }
      ],
      "stateMutability": "view",
      "type": "function"
    },
    {
      "inputs": [
        {
          "internalType": "address",
          "name": "_referrer",
          "type": "address"
        },
        {
          "internalType": "address",
          "name": "_referee",
          "type": "address"
        }
      ],
      "name": "canBeReferred",
      "outputs": [
        {
          "internalType": "bool",
          "name": "isEligible",
          "type": "bool"
        },
        {
          "internalType": "uint8",
          "name": "reason",
          "type": "uint8"
        }
      ],
      "stateMutability": "view",
      "type": "function"
    },
    {
      "inputs": [
        {
          "internalType": "address",
          "name": "_user",
          "type": "address"
        }
      ],
      "name": "canReferOthers",
      "outputs": [
        {
          "internalType": "bool",
          "name": "",
          "type": "bool"
        }
      ],
      "stateMutability": "view",
      "type": "function"
    },
    {
      "inputs": [
        {
          "internalType": "address",
          "name": "_wallet",
          "type": "address"
        }
      ],
      "name": "changeFundWallet",
      "outputs": [],
      "stateMutability": "nonpayable",
      "type": "function"
    },
    {
      "inputs": [
        {
          "internalType": "address",
          "name": "_newAddress",
          "type": "address"
        }
      ],
      "name": "changeUSDTToken",
      "outputs": [],
      "stateMutability": "nonpayable",
      "type": "function"
    },
    {
      "inputs": [
        {
          "internalType": "uint256",
          "name": "_id",
          "type": "uint256"
        }
      ],
      "name": "claimAmount",
      "outputs": [
        {
          "internalType": "bool",
          "name": "",
          "type": "bool"
        }
      ],
      "stateMutability": "nonpayable",
      "type": "function"
    },
    {
      "inputs": [
        {
          "internalType": "uint256[]",
          "name": "_ids",
          "type": "uint256[]"
        }
      ],
      "name": "claimMultiple",
      "outputs": [
        {
          "internalType": "bool",
          "name": "",
          "type": "bool"
        }
      ],
      "stateMutability": "nonpayable",
      "type": "function"
    },
    {
      "inputs": [],
      "name": "claimReferralRewards",
      "outputs": [
        {
          "internalType": "bool",
          "name": "",
          "type": "bool"
        }
      ],
      "stateMutability": "nonpayable",
      "type": "function"
    },
    {
      "inputs": [
        {
          "internalType": "address",
          "name": "user",
          "type": "address"
        },
        {
          "internalType": "uint256",
          "name": "_id",
          "type": "uint256"
        }
      ],
      "name": "claimableAmount",
      "outputs": [
        {
          "internalType": "uint256",
          "name": "",
          "type": "uint256"
        }
      ],
      "stateMutability": "view",
      "type": "function"
    },
    {
      "inputs": [
        {
          "internalType": "uint256",
          "name": "_price",
          "type": "uint256"
        },
        {
          "internalType": "uint256",
          "name": "_nextStagePrice",
          "type": "uint256"
        },
        {
          "internalType": "uint256",
          "name": "_tokensToSell",
          "type": "uint256"
        },
        {
          "internalType": "uint256",
          "name": "_UsdtHardcap",
          "type": "uint256"
        }
      ],
      "name": "createPresale",
      "outputs": [],
      "stateMutability": "nonpayable",
      "type": "function"
    },
    {
      "inputs": [
        {
          "internalType": "uint256",
          "name": "_id",
          "type": "uint256"
        },
        {
          "internalType": "bool",
          "name": "_status",
          "type": "bool"
        }
      ],
      "name": "enableClaim",
      "outputs": [],
      "stateMutability": "nonpayable",
      "type": "function"
    },
    {
      "inputs": [],
      "name": "endPresale",
      "outputs": [],
      "stateMutability": "nonpayable",
      "type": "function"
    },
    {
      "inputs": [
        {
          "internalType": "uint256",
          "name": "_id",
          "type": "uint256"
        },
        {
          "internalType": "uint256",
          "name": "amount",
          "type": "uint256"
        }
      ],
      "name": "ethBuyHelper",
      "outputs": [
        {
          "internalType": "uint256",
          "name": "ethAmount",
          "type": "uint256"
        }
      ],
      "stateMutability": "view",
      "type": "function"
    },
    {
      "inputs": [
        {
          "internalType": "uint256",
          "name": "_id",
          "type": "uint256"
        },
        {
          "internalType": "uint256",
          "name": "amount",
          "type": "uint256"
        }
      ],
      "name": "ethToTokens",
      "outputs": [
        {
          "internalType": "uint256",
          "name": "_tokens",
          "type": "uint256"
        }
      ],
      "stateMutability": "view",
      "type": "function"
    },
    {
      "inputs": [],
      "name": "fundReceiver",
      "outputs": [
        {
          "internalType": "address",
          "name": "",
          "type": "address"
        }
      ],
      "stateMutability": "view",
      "type": "function"
    },
    {
      "inputs": [
        {
          "internalType": "address",
          "name": "_user",
          "type": "address"
        }
      ],
      "name": "getClaimableReferralRewards",
      "outputs": [
        {
          "internalType": "uint256",
          "name": "",
          "type": "uint256"
        }
      ],
      "stateMutability": "view",
      "type": "function"
    },
    {
      "inputs": [],
      "name": "getLatestPrice",
      "outputs": [
        {
          "internalType": "uint256",
          "name": "",
          "type": "uint256"
        }
      ],
      "stateMutability": "view",
      "type": "function"
    },
    {
      "inputs": [
        {
          "internalType": "address",
          "name": "_user",
          "type": "address"
        }
      ],
      "name": "getReferralChain",
      "outputs": [
        {
          "internalType": "address[]",
          "name": "",
          "type": "address[]"
        }
      ],
      "stateMutability": "view",
      "type": "function"
    },
    {
      "inputs": [],
      "name": "getReferralProgramStats",
      "outputs": [
        {
          "internalType": "uint256",
          "name": "currentPercentage",
          "type": "uint256"
        },
        {
          "internalType": "uint256",
          "name": "totalRewardsIssued",
          "type": "uint256"
        },
        {
          "internalType": "uint256",
          "name": "maxRewards",
          "type": "uint256"
        },
        {
          "internalType": "uint256",
          "name": "remainingRewards",
          "type": "uint256"
        },
        {
          "internalType": "uint256",
          "name": "nextPercentageChangeAllowed",
          "type": "uint256"
        }
      ],
      "stateMutability": "view",
      "type": "function"
    },
    {
      "inputs": [],
      "name": "getStakingAvailability",
      "outputs": [
        {
          "internalType": "bool",
          "name": "_canStake",
          "type": "bool"
        },
        {
          "internalType": "uint256",
          "name": "_remainingCapacity",
          "type": "uint256"
        },
        {
          "internalType": "uint256",
          "name": "_percentFilled",
          "type": "uint256"
        }
      ],
      "stateMutability": "view",
      "type": "function"
    },
    {
      "inputs": [],
      "name": "getStakingStats",
      "outputs": [
        {
          "internalType": "uint256",
          "name": "_totalStaked",
          "type": "uint256"
        },
        {
          "internalType": "uint256",
          "name": "_stakingCap",
          "type": "uint256"
        },
        {
          "internalType": "uint256",
          "name": "_stakingAPY",
          "type": "uint256"
        },
        {
          "internalType": "bool",
          "name": "_isActive",
          "type": "bool"
        },
        {
          "internalType": "uint256",
          "name": "_maxRewards",
          "type": "uint256"
        },
        {
          "internalType": "uint256",
          "name": "_totalRewardsCommitted",
          "type": "uint256"
        },
        {
          "internalType": "uint256",
          "name": "_remainingRewards",
          "type": "uint256"
        }
      ],
      "stateMutability": "view",
      "type": "function"
    },
    {
      "inputs": [
        {
          "internalType": "address",
          "name": "_user",
          "type": "address"
        }
      ],
      "name": "getUserCollectedReferrals",
      "outputs": [
        {
          "internalType": "uint256",
          "name": "",
          "type": "uint256"
        }
      ],
      "stateMutability": "view",
      "type": "function"
    },
    {
      "inputs": [
        {
          "internalType": "address",
          "name": "_user",
          "type": "address"
        }
      ],
      "name": "getUserReferralInfo",
      "outputs": [
        {
          "internalType": "address",
          "name": "referrer",
          "type": "address"
        },
        {
          "internalType": "uint256",
          "name": "totalRewards",
          "type": "uint256"
        },
        {
          "internalType": "uint256",
          "name": "claimedRewards",
          "type": "uint256"
        },
        {
          "internalType": "uint256",
          "name": "pendingRewards",
          "type": "uint256"
        },
        {
          "internalType": "bool",
          "name": "isQualifiedReferrer",
          "type": "bool"
        },
        {
          "internalType": "uint256",
          "name": "referralCount",
          "type": "uint256"
        }
      ],
      "stateMutability": "view",
      "type": "function"
    },
    {
      "inputs": [
        {
          "internalType": "address",
          "name": "_user",
          "type": "address"
        }
      ],
      "name": "getUserStakingInfo",
      "outputs": [
        {
          "internalType": "uint256",
          "name": "stakedAmount",
          "type": "uint256"
        },
        {
          "internalType": "uint256",
          "name": "stakingTime",
          "type": "uint256"
        },
        {
          "internalType": "uint256",
          "name": "unlockTime",
          "type": "uint256"
        },
        {
          "internalType": "bool",
          "name": "isLocked",
          "type": "bool"
        },
        {
          "internalType": "bool",
          "name": "hasWithdrawn",
          "type": "bool"
        },
        {
          "internalType": "uint256",
          "name": "potentialReward",
          "type": "uint256"
        },
        {
          "internalType": "uint256",
          "name": "totalClaimable",
          "type": "uint256"
        }
      ],
      "stateMutability": "view",
      "type": "function"
    },
    {
      "inputs": [
        {
          "internalType": "address",
          "name": "",
          "type": "address"
        }
      ],
      "name": "hasQualifiedPurchase",
      "outputs": [
        {
          "internalType": "bool",
          "name": "",
          "type": "bool"
        }
      ],
      "stateMutability": "view",
      "type": "function"
    },
    {
      "inputs": [
        {
          "internalType": "address",
          "name": "",
          "type": "address"
        }
      ],
      "name": "hasUsedReferral",
      "outputs": [
        {
          "internalType": "bool",
          "name": "",
          "type": "bool"
        }
      ],
      "stateMutability": "view",
      "type": "function"
    },
    {
      "inputs": [
        {
          "internalType": "address",
          "name": "",
          "type": "address"
        }
      ],
      "name": "isAdmin",
      "outputs": [
        {
          "internalType": "bool",
          "name": "",
          "type": "bool"
        }
      ],
      "stateMutability": "view",
      "type": "function"
    },
    {
      "inputs": [
        {
          "internalType": "address",
          "name": "",
          "type": "address"
        }
      ],
      "name": "isExcludeMinToken",
      "outputs": [
        {
          "internalType": "bool",
          "name": "",
          "type": "bool"
        }
      ],
      "stateMutability": "view",
      "type": "function"
    },
    {
      "inputs": [],
      "name": "isTokenPreFunded",
      "outputs": [
        {
          "internalType": "bool",
          "name": "",
          "type": "bool"
        }
      ],
      "stateMutability": "view",
      "type": "function"
    },
    {
      "inputs": [],
      "name": "maxReferralRewards",
      "outputs": [
        {
          "internalType": "uint256",
          "name": "",
          "type": "uint256"
        }
      ],
      "stateMutability": "view",
      "type": "function"
    },
    {
      "inputs": [],
      "name": "maxStakingRewards",
      "outputs": [
        {
          "internalType": "uint256",
          "name": "",
          "type": "uint256"
        }
      ],
      "stateMutability": "view",
      "type": "function"
    },
    {
      "inputs": [],
      "name": "oracle",
      "outputs": [
        {
          "internalType": "address",
          "name": "",
          "type": "address"
        }
      ],
      "stateMutability": "view",
      "type": "function"
    },
    {
      "inputs": [],
      "name": "owner",
      "outputs": [
        {
          "internalType": "address",
          "name": "",
          "type": "address"
        }
      ],
      "stateMutability": "view",
      "type": "function"
    },
    {
      "inputs": [
        {
          "internalType": "uint256",
          "name": "_id",
          "type": "uint256"
        }
      ],
      "name": "pausePresale",
      "outputs": [],
      "stateMutability": "nonpayable",
      "type": "function"
    },
    {
      "inputs": [
        {
          "internalType": "uint256",
          "name": "",
          "type": "uint256"
        }
      ],
      "name": "paused",
      "outputs": [
        {
          "internalType": "bool",
          "name": "",
          "type": "bool"
        }
      ],
      "stateMutability": "view",
      "type": "function"
    },
    {
      "inputs": [],
      "name": "paused",
      "outputs": [
        {
          "internalType": "bool",
          "name": "",
          "type": "bool"
        }
      ],
      "stateMutability": "view",
      "type": "function"
    },
    {
      "inputs": [],
      "name": "preFundContract",
      "outputs": [],
      "stateMutability": "nonpayable",
      "type": "function"
    },
    {
      "inputs": [
        {
          "internalType": "uint256",
          "name": "",
          "type": "uint256"
        }
      ],
      "name": "presale",
      "outputs": [
        {
          "internalType": "uint256",
          "name": "startTime",
          "type": "uint256"
        },
        {
          "internalType": "uint256",
          "name": "endTime",
          "type": "uint256"
        },
        {
          "internalType": "uint256",
          "name": "price",
          "type": "uint256"
        },
        {
          "internalType": "uint256",
          "name": "nextStagePrice",
          "type": "uint256"
        },
        {
          "internalType": "uint256",
          "name": "Sold",
          "type": "uint256"
        },
        {
          "internalType": "uint256",
          "name": "tokensToSell",
          "type": "uint256"
        },
        {
          "internalType": "uint256",
          "name": "UsdtHardcap",
          "type": "uint256"
        },
        {
          "internalType": "uint256",
          "name": "amountRaised",
          "type": "uint256"
        },
        {
          "internalType": "bool",
          "name": "Active",
          "type": "bool"
        },
        {
          "internalType": "bool",
          "name": "isEnableClaim",
          "type": "bool"
        }
      ],
      "stateMutability": "view",
      "type": "function"
    },
    {
      "inputs": [],
      "name": "presaleId",
      "outputs": [
        {
          "internalType": "uint256",
          "name": "",
          "type": "uint256"
        }
      ],
      "stateMutability": "view",
      "type": "function"
    },
    {
      "inputs": [],
      "name": "presaleTokens",
      "outputs": [
        {
          "internalType": "uint256",
          "name": "",
          "type": "uint256"
        }
      ],
      "stateMutability": "view",
      "type": "function"
    },
    {
      "inputs": [
        {
          "internalType": "address",
          "name": "_user",
          "type": "address"
        },
        {
          "internalType": "uint256",
          "name": "_tokenAmount",
          "type": "uint256"
        }
      ],
      "name": "processReferralRewards",
      "outputs": [],
      "stateMutability": "nonpayable",
      "type": "function"
    },
    {
      "inputs": [
        {
          "internalType": "address",
          "name": "_referrer",
          "type": "address"
        }
      ],
      "name": "recordReferral",
      "outputs": [],
      "stateMutability": "nonpayable",
      "type": "function"
    },
    {
      "inputs": [
        {
          "internalType": "address",
          "name": "",
          "type": "address"
        }
      ],
      "name": "referralData",
      "outputs": [
        {
          "internalType": "address",
          "name": "referrer",
          "type": "address"
        },
        {
          "internalType": "uint256",
          "name": "totalReferralRewards",
          "type": "uint256"
        },
        {
          "internalType": "uint256",
          "name": "claimedReferralRewards",
          "type": "uint256"
        },
        {
          "internalType": "bool",
          "name": "hasReferred",
          "type": "bool"
        },
        {
          "internalType": "uint256",
          "name": "referralCount",
          "type": "uint256"
        }
      ],
      "stateMutability": "view",
      "type": "function"
    },
    {
      "inputs": [],
      "name": "referralPercentageChangeTimeLock",
      "outputs": [
        {
          "internalType": "uint256",
          "name": "",
          "type": "uint256"
        }
      ],
      "stateMutability": "view",
      "type": "function"
    },
    {
      "inputs": [],
      "name": "referralRewardPercentage",
      "outputs": [
        {
          "internalType": "uint8",
          "name": "",
          "type": "uint8"
        }
      ],
      "stateMutability": "view",
      "type": "function"
    },
    {
      "inputs": [],
      "name": "renounceOwnership",
      "outputs": [],
      "stateMutability": "nonpayable",
      "type": "function"
    },
    {
      "inputs": [
        {
          "internalType": "address",
          "name": "_token",
          "type": "address"
        },
        {
          "internalType": "uint256",
          "name": "_amount",
          "type": "uint256"
        },
        {
          "internalType": "address",
          "name": "_recipient",
          "type": "address"
        }
      ],
      "name": "safeWithdraw",
      "outputs": [],
      "stateMutability": "nonpayable",
      "type": "function"
    },
    {
      "inputs": [
        {
          "internalType": "bool",
          "name": "_intent",
          "type": "bool"
        }
      ],
      "name": "setStakingIntent",
      "outputs": [],
      "stateMutability": "nonpayable",
      "type": "function"
    },
    {
      "inputs": [
        {
          "internalType": "bool",
          "name": "_status",
          "type": "bool"
        }
      ],
      "name": "setStakingStatus",
      "outputs": [],
      "stateMutability": "nonpayable",
      "type": "function"
    },
    {
      "inputs": [
        {
          "internalType": "uint256",
          "name": "_amount",
          "type": "uint256"
        }
      ],
      "name": "stakeTokens",
      "outputs": [],
      "stateMutability": "nonpayable",
      "type": "function"
    },
    {
      "inputs": [],
      "name": "stakingActive",
      "outputs": [
        {
          "internalType": "bool",
          "name": "",
          "type": "bool"
        }
      ],
      "stateMutability": "view",
      "type": "function"
    },
    {
      "inputs": [],
      "name": "stakingCap",
      "outputs": [
        {
          "internalType": "uint256",
          "name": "",
          "type": "uint256"
        }
      ],
      "stateMutability": "view",
      "type": "function"
    },
    {
      "inputs": [],
      "name": "startPresale",
      "outputs": [],
      "stateMutability": "nonpayable",
      "type": "function"
    },
    {
      "inputs": [],
      "name": "totalReferralRewardsIssued",
      "outputs": [
        {
          "internalType": "uint256",
          "name": "",
          "type": "uint256"
        }
      ],
      "stateMutability": "view",
      "type": "function"
    },
    {
      "inputs": [],
      "name": "totalStaked",
      "outputs": [
        {
          "internalType": "uint256",
          "name": "",
          "type": "uint256"
        }
      ],
      "stateMutability": "view",
      "type": "function"
    },
    {
      "inputs": [],
      "name": "totalStakingRewardsIssued",
      "outputs": [
        {
          "internalType": "uint256",
          "name": "",
          "type": "uint256"
        }
      ],
      "stateMutability": "view",
      "type": "function"
    },
    {
      "inputs": [],
      "name": "totalTokenSupply",
      "outputs": [
        {
          "internalType": "uint256",
          "name": "",
          "type": "uint256"
        }
      ],
      "stateMutability": "view",
      "type": "function"
    },
    {
      "inputs": [
        {
          "internalType": "address",
          "name": "newOwner",
          "type": "address"
        }
      ],
      "name": "transferOwnership",
      "outputs": [],
      "stateMutability": "nonpayable",
      "type": "function"
    },
    {
      "inputs": [
        {
          "internalType": "uint256",
          "name": "_id",
          "type": "uint256"
        }
      ],
      "name": "unPausePresale",
      "outputs": [],
      "stateMutability": "nonpayable",
      "type": "function"
    },
    {
      "inputs": [
        {
          "internalType": "uint256",
          "name": "_totalSupply",
          "type": "uint256"
        }
      ],
      "name": "updateMaxReferralRewards",
      "outputs": [],
      "stateMutability": "nonpayable",
      "type": "function"
    },
    {
      "inputs": [
        {
          "internalType": "uint256",
          "name": "_id",
          "type": "uint256"
        },
        {
          "internalType": "uint256",
          "name": "_price",
          "type": "uint256"
        },
        {
          "internalType": "uint256",
          "name": "_nextStagePrice",
          "type": "uint256"
        },
        {
          "internalType": "uint256",
          "name": "_tokensToSell",
          "type": "uint256"
        },
        {
          "internalType": "uint256",
          "name": "_Hardcap",
          "type": "uint256"
        }
      ],
      "name": "updatePresale",
      "outputs": [],
      "stateMutability": "nonpayable",
      "type": "function"
    },
    {
      "inputs": [
        {
          "internalType": "uint8",
          "name": "_percentage",
          "type": "uint8"
        }
      ],
      "name": "updateReferralRewardPercentage",
      "outputs": [],
      "stateMutability": "nonpayable",
      "type": "function"
    },
    {
      "inputs": [
        {
          "internalType": "uint256",
          "name": "_newCap",
          "type": "uint256"
        }
      ],
      "name": "updateStakingCap",
      "outputs": [],
      "stateMutability": "nonpayable",
      "type": "function"
    },
    {
      "inputs": [],
      "name": "usdt",
      "outputs": [
        {
          "internalType": "address",
          "name": "",
          "type": "address"
        }
      ],
      "stateMutability": "view",
      "type": "function"
    },
    {
      "inputs": [
        {
          "internalType": "uint256",
          "name": "_id",
          "type": "uint256"
        },
        {
          "internalType": "uint256",
          "name": "amount",
          "type": "uint256"
        }
      ],
      "name": "usdtBuyHelper",
      "outputs": [
        {
          "internalType": "uint256",
          "name": "usdPrice",
          "type": "uint256"
        }
      ],
      "stateMutability": "view",
      "type": "function"
    },
    {
      "inputs": [
        {
          "internalType": "uint256",
          "name": "_id",
          "type": "uint256"
        },
        {
          "internalType": "uint256",
          "name": "amount",
          "type": "uint256"
        }
      ],
      "name": "usdtToTokens",
      "outputs": [
        {
          "internalType": "uint256",
          "name": "_tokens",
          "type": "uint256"
        }
      ],
      "stateMutability": "view",
      "type": "function"
    },
    {
      "inputs": [
        {
          "internalType": "address",
          "name": "",
          "type": "address"
        },
        {
          "internalType": "uint256",
          "name": "",
          "type": "uint256"
        }
      ],
      "name": "userClaimData",
      "outputs": [
        {
          "internalType": "uint256",
          "name": "claimAt",
          "type": "uint256"
        },
        {
          "internalType": "uint256",
          "name": "totalAmount",
          "type": "uint256"
        },
        {
          "internalType": "uint256",
          "name": "claimedAmount",
          "type": "uint256"
        }
      ],
      "stateMutability": "view",
      "type": "function"
    },
    {
      "inputs": [
        {
          "internalType": "address",
          "name": "",
          "type": "address"
        }
      ],
      "name": "userStakes",
      "outputs": [
        {
          "internalType": "uint256",
          "name": "stakedAmount",
          "type": "uint256"
        },
        {
          "internalType": "uint256",
          "name": "stakingTimestamp",
          "type": "uint256"
        },
        {
          "internalType": "uint256",
          "name": "unlockTimestamp",
          "type": "uint256"
        },
        {
          "internalType": "bool",
          "name": "hasWithdrawn",
          "type": "bool"
        }
      ],
      "stateMutability": "view",
      "type": "function"
    },
    {
      "inputs": [
        {
          "internalType": "address",
          "name": "",
          "type": "address"
        }
      ],
      "name": "userStakingIntent",
      "outputs": [
        {
          "internalType": "bool",
          "name": "",
          "type": "bool"
        }
      ],
      "stateMutability": "view",
      "type": "function"
    },
    {
      "inputs": [
        {
          "internalType": "address",
          "name": "",
          "type": "address"
        }
      ],
      "name": "users",
      "outputs": [
        {
          "internalType": "uint256",
          "name": "TotalBoughtTokens",
          "type": "uint256"
        },
        {
          "internalType": "uint256",
          "name": "TotalPaid",
          "type": "uint256"
        },
        {
          "internalType": "uint256",
          "name": "TotalCollectedReferral",
          "type": "uint256"
        },
        {
          "internalType": "address",
          "name": "referrer",
          "type": "address"
        }
      ],
      "stateMutability": "view",
      "type": "function"
    },
    {
      "inputs": [],
      "name": "withdrawStake",
      "outputs": [],
      "stateMutability": "nonpayable",
      "type": "function"
    }
  ],
  "transactionHash": "0xfb1114bf112dc51fcb7bf38e75686116bef356347e33707b5e11dae47e210bae",
  "args": [
    "0x1A26d803C2e796601794f8C5609549643832702C",
    "0x69304c4900EB9f3d2e412465Db1275A50B96d036",
    "0xFfd1531235CBc96d5232afb4774A427753D9b4E7",
    "10000000000000000000",
    "100000000000000000000000000000"
  ],
  "numDeployments": 1,
  "solcInputHash": "c266126edb5dd565c87f767d641cca69",
  "bytecode": "0x6080604052600f805460ff199081169091556017805490911660141790553480156200002a57600080fd5b5060405162005ca038038062005ca08339810160408190526200004d916200036f565b600160005584848484848484848484848484848433806200008957604051631e4fbdf760e01b8152600060048201526024015b60405180910390fd5b6200009481620000e0565b50620000a4858585858562000132565b50504260195550506b158a89942e0e3e7c97cc0000601f5550506020805460ff19166001179055506200041b9c50505050505050505050505050565b600180546001600160a01b038381166001600160a01b0319831681179093556040519116919082907f8be0079c531659141344cd1fd0a4f28419497f9722a3daafe3b4186f6b6457e090600090a35050565b6001600160a01b038516620001785760405162461bcd60e51b815260206004820152600b60248201526a5a65726f206f7261636c6560a81b604482015260640162000080565b6001600160a01b038416620001bc5760405162461bcd60e51b815260206004820152600960248201526816995c9bc81554d11560ba1b604482015260640162000080565b6001600160a01b038316620002015760405162461bcd60e51b815260206004820152600a6024820152692d32b937903a37b5b2b760b11b604482015260640162000080565b600082116200023e5760405162461bcd60e51b81526020600482015260086024820152672d32b9379036b4b760c11b604482015260640162000080565b600081116200027e5760405162461bcd60e51b815260206004820152600b60248201526a5a65726f20737570706c7960a81b604482015260640162000080565b601080546001600160a01b038088166001600160a01b031992831617909255600480548684169083161790556005849055600f805492871661010002610100600160a81b031990931692909217909155670de0b6b3a7640000600a55620f4240600955600b805490911633179055600781905560646200030082601e620003cc565b6200030c9190620003f8565b600c5560646200031e826005620003cc565b6200032a9190620003f8565b600d5560646200033c826014620003cc565b620003489190620003f8565b600e555050505050565b80516001600160a01b03811681146200036a57600080fd5b919050565b600080600080600060a086880312156200038857600080fd5b620003938662000352565b9450620003a36020870162000352565b9350620003b36040870162000352565b6060870151608090970151959894975095949392505050565b8082028115828204841417620003f257634e487b7160e01b600052601160045260246000fd5b92915050565b6000826200041657634e487b7160e01b600052601260045260246000fd5b500490565b615875806200042b6000396000f3fe6080604052600436106104ca5760003560e01c80638093360811610276578063bed9d8611161014f578063d6fd1c52116100c1578063e6ab143411610085578063e6ab143414611117578063f2fde38b146111d7578063f309fed9146111f7578063f597573f14611217578063fb4aa0a11461123c578063fe9f676e1461125c57600080fd5b8063d6fd1c5214611073578063d8ae8c8b14611088578063d9f02a25146110c1578063dce29da8146110e1578063e18e84f91461110157600080fd5b8063c9c6b55611610113578063c9c6b55614610efd578063cc9fe9d314610f88578063cd1704a814610fba578063d01608c114610fda578063d099850a14610ffa578063d35527121461101a57600080fd5b8063bed9d86114610e13578063beea7cde14610e28578063c1dd608414610e3d578063c8b8232114610e87578063c8fa624f14610ec457600080fd5b80639752f3cb116101e8578063a87430ba116101ac578063a87430ba14610cd1578063a9c85ced14610d45578063aef6e26714610d5b578063b04c734614610d7b578063b2932c8d14610ddd578063b8bec6a014610df357600080fd5b80639752f3cb14610c45578063a0f9c0aa14610c65578063a33a16d814610c85578063a43be57b14610ca2578063a6ac4b3514610cb757600080fd5b80638da5cb5b1161023a5780638da5cb5b14610b3f5780638da7ad2314610b5d5780638e15f47314610bc45780639051cce914610bd957806390c4223014610bf9578063920a253e14610c1957600080fd5b80638093360814610a7c578063817b1cd214610ad3578063833cde5214610ae95780638561c31514610b095780638d79e66d14610b2957600080fd5b806348bf4fcf116103a85780636913b1621161031a578063715018a6116102de578063715018a6146109c7578063718a1962146109dc5780637547c7a3146109fc57806379b8d93814610a1c5780637dc0d1d014610a3c5780637fa36f0e14610a5c57600080fd5b80636913b1621461092d5780636b5526a3146109425780636ca95246146109575780636e22e8bd146109875780636fb4adff146109a757600080fd5b8063553ff7f51161036c578063553ff7f5146108575780635632bce6146108775780635c975abb146108a75780636667864d146108c6578063670988a8146108f357806368e94be81461090d57600080fd5b806348bf4fcf146107b057806348ff1a39146107c65780634a6413f7146107e65780635503cd6114610806578063552a2d141461084157600080fd5b80631ed0c954116104415780632bfcaac2116104055780632bfcaac21461070e5780632f48ab7d14610724578063397643631461075c57806344c370d3146107725780634517c8a31461078857806345aac3241461079b57600080fd5b80631ed0c954146106585780632127fe041461068857806323b221a0146106a857806324d7806c146106c85780632bef560f146106f857600080fd5b806309b5a33a1161049357806309b5a33a146105835780630a09815c146105b35780630fbfcf37146105c95780630fcc4f57146105e9578063112f62dc146106095780631ca8b6cb1461064257600080fd5b8062dde10e146104cf5780630248c7201461051457806303fcd9ac1461053757806304c98b2b1461055957806305eaab4b1461056e575b600080fd5b3480156104db57600080fd5b506104ff6104ea3660046151d6565b60116020526000908152604090205460ff1681565b60405190151581526020015b60405180910390f35b34801561052057600080fd5b5061052961127c565b60405190815260200161050b565b34801561054357600080fd5b50610557610552366004615219565b6112ba565b005b34801561056557600080fd5b506105576112ed565b34801561057a57600080fd5b506104ff61131f565b34801561058f57600080fd5b506104ff61059e366004615250565b601c6020526000908152604090205460ff1681565b3480156105bf57600080fd5b50610529600c5481565b3480156105d557600080fd5b506105576105e436600461526b565b611669565b3480156105f557600080fd5b506105576106043660046151d6565b6116cb565b34801561061557600080fd5b50610629610624366004615290565b611765565b60408051921515835260ff90911660208301520161050b565b34801561064e57600080fd5b5061052960075481565b34801561066457600080fd5b506104ff610673366004615250565b60146020526000908152604090205460ff1681565b34801561069457600080fd5b506105296106a33660046152c3565b611898565b3480156106b457600080fd5b506104ff6106c33660046151d6565b61199b565b3480156106d457600080fd5b506104ff6106e3366004615250565b60156020526000908152604090205460ff1681565b34801561070457600080fd5b50610529600d5481565b34801561071a57600080fd5b5061052960185481565b34801561073057600080fd5b50600354610744906001600160a01b031681565b6040516001600160a01b03909116815260200161050b565b34801561076857600080fd5b50610529600a5481565b34801561077e57600080fd5b50610529601f5481565b6104ff610796366004615219565b611cc5565b3480156107a757600080fd5b50601854610529565b3480156107bc57600080fd5b5061052960095481565b3480156107d257600080fd5b506104ff6107e13660046152e5565b61213b565b3480156107f257600080fd5b506105576108013660046151d6565b612744565b34801561081257600080fd5b50610557610821366004615325565b336000908152602360205260409020805460ff1916911515919091179055565b34801561084d57600080fd5b5061052960195481565b34801561086357600080fd5b50610529610872366004615250565b612824565b34801561088357600080fd5b506104ff610892366004615250565b601b6020526000908152604090205460ff1681565b3480156108b357600080fd5b50600154600160a01b900460ff166104ff565b3480156108d257600080fd5b506108e66108e1366004615250565b612890565b60405161050b9190615342565b3480156108ff57600080fd5b50600f546104ff9060ff1681565b34801561091957600080fd5b506105576109283660046151d6565b6129d7565b34801561093957600080fd5b50610557612a43565b34801561094e57600080fd5b50600e54610529565b34801561096357600080fd5b506104ff610972366004615250565b60236020526000908152604090205460ff1681565b34801561099357600080fd5b506105576109a2366004615250565b612c03565b3480156109b357600080fd5b506105576109c2366004615250565b612f5f565b3480156109d357600080fd5b50610557612faf565b3480156109e857600080fd5b506105296109f73660046152c3565b612fc3565b348015610a0857600080fd5b50610557610a173660046151d6565b613013565b348015610a2857600080fd5b50610529610a3736600461538f565b613219565b348015610a4857600080fd5b50600254610744906001600160a01b031681565b348015610a6857600080fd5b50610557610a77366004615250565b61332b565b348015610a8857600080fd5b50610a9c610a97366004615250565b613620565b6040805197885260208801969096529486019390935290151560608501521515608084015260a083015260c082015260e00161050b565b348015610adf57600080fd5b50610529601e5481565b348015610af557600080fd5b50600454610744906001600160a01b031681565b348015610b1557600080fd5b50610557610b24366004615250565b6136c1565b348015610b3557600080fd5b5061052960055481565b348015610b4b57600080fd5b506001546001600160a01b0316610744565b348015610b6957600080fd5b50610ba2610b78366004615250565b60226020526000908152604090208054600182015460028301546003909301549192909160ff1684565b604080519485526020850193909352918301521515606082015260800161050b565b348015610bd057600080fd5b50610529613717565b348015610be557600080fd5b506104ff610bf43660046153b9565b6137ae565b348015610c0557600080fd5b50610557610c1436600461543d565b61386e565b348015610c2557600080fd5b50601754610c339060ff1681565b60405160ff909116815260200161050b565b348015610c5157600080fd5b50610557610c6036600461545a565b61397e565b348015610c7157600080fd5b50610557610c8036600461538f565b613a5b565b348015610c9157600080fd5b50610529683635c9adc5dea0000081565b348015610cae57600080fd5b50610557613bb8565b348015610cc357600080fd5b506020546104ff9060ff1681565b348015610cdd57600080fd5b50610d1c610cec366004615250565b6016602052600090815260409020805460018201546002830154600490930154919290916001600160a01b031684565b604080519485526020850193909352918301526001600160a01b0316606082015260800161050b565b348015610d5157600080fd5b5061052960215481565b348015610d6757600080fd5b50610557610d76366004615495565b613c41565b348015610d8757600080fd5b50610dc2610d9636600461538f565b601360209081526000928352604080842090915290825290208054600182015460029092015490919083565b6040805193845260208401929092529082015260600161050b565b348015610de957600080fd5b5061052960065481565b348015610dff57600080fd5b50610557610e0e366004615325565b613de9565b348015610e1f57600080fd5b50610557613e3e565b348015610e3457600080fd5b50610557614108565b348015610e4957600080fd5b50610e52614174565b604080519788526020880196909652948601939093529015156060850152608084015260a083015260c082015260e00161050b565b348015610e9357600080fd5b50610e9c6141cd565b604080519586526020860194909452928401919091526060830152608082015260a00161050b565b348015610ed057600080fd5b50610529610edf366004615250565b6001600160a01b031660009081526016602052604090206002015490565b348015610f0957600080fd5b50610f54610f18366004615250565b601a60205260009081526040902080546001820154600283015460038401546004909401546001600160a01b03909316939192909160ff169085565b604080516001600160a01b03909616865260208601949094529284019190915215156060830152608082015260a00161050b565b348015610f9457600080fd5b50610f9d614209565b60408051931515845260208401929092529082015260600161050b565b348015610fc657600080fd5b50610557610fd53660046151d6565b61427a565b348015610fe657600080fd5b50610557610ff53660046151d6565b6142c2565b34801561100657600080fd5b506105576110153660046154d1565b61438e565b34801561102657600080fd5b5061103a611035366004615250565b614576565b604080516001600160a01b03909716875260208701959095529385019290925260608401521515608083015260a082015260c00161050b565b34801561107f57600080fd5b5061052960c881565b34801561109457600080fd5b506104ff6110a3366004615250565b6001600160a01b03166000908152601b602052604090205460ff1690565b3480156110cd57600080fd5b506105576110dc366004615250565b614625565b3480156110ed57600080fd5b506105296110fc3660046152c3565b614675565b34801561110d57600080fd5b5061052960085481565b34801561112357600080fd5b506111896111323660046151d6565b60126020526000908152604090208054600182015460028301546003840154600485015460058601546006870154600788015460089098015496979596949593949293919290919060ff808216916101009004168a565b604080519a8b5260208b0199909952978901969096526060880194909452608087019290925260a086015260c085015260e0840152151561010083015215156101208201526101400161050b565b3480156111e357600080fd5b506105576111f2366004615250565b614754565b34801561120357600080fd5b506105296112123660046152c3565b61478f565b34801561122357600080fd5b50600f546107449061010090046001600160a01b031681565b34801561124857600080fd5b50600b54610744906001600160a01b031681565b34801561126857600080fd5b506105296112773660046152c3565b6147e4565b60185460009081606461129060c882615519565b601e5461129d919061552c565b6112a79190615543565b90506112b38183615519565b9250505090565b6112c26148a7565b6001600160a01b03919091166000908152601460205260409020805460ff1916911515919091179055565b6112f56148a7565b6008805460009081526012602052604080822042905582548252902001805460ff19166001179055565b60006113296148d4565b600880546000908152601260205260409020015460ff16158061135f575060085460009081526012602052604090206001015415155b6113a75760405162461bcd60e51b815260206004820152601460248201527350726573616c65207374696c6c2061637469766560601b60448201526064015b60405180910390fd5b6008805460009081526012602052604090200154610100900460ff166114065760405162461bcd60e51b815260206004820152601460248201527310db185a5b5a5b99c81b9bdd08195b98589b195960621b604482015260640161139e565b600061141133612824565b9050600081116114595760405162461bcd60e51b81526020600482015260136024820152724e6f207265776172647320746f20636c61696d60681b604482015260640161139e565b600480546040516370a0823160e01b815230928101929092526001600160a01b0316906370a0823190602401602060405180830381865afa1580156114a2573d6000803e3d6000fd5b505050506040513d601f19601f820116820180604052508101906114c69190615565565b8111156115155760405162461bcd60e51b815260206004820152601d60248201527f4e6f7420656e6f75676820746f6b656e7320696e20636f6e7472616374000000604482015260640161139e565b336000908152601a602052604081206002018054839290611537908490615519565b9091555050336000908152601660205260408120600201805483929061155e908490615519565b90915550506004805460405163a9059cbb60e01b81523392810192909252602482018390526001600160a01b03169063a9059cbb906044016020604051808303816000875af11580156115b5573d6000803e3d6000fd5b505050506040513d601f19601f820116820180604052508101906115d9919061557e565b61161d5760405162461bcd60e51b8152602060048201526015602482015274151bdad95b881d1c985b9cd9995c8819985a5b1959605a1b604482015260640161139e565b6040805182815242602082015233917fea940d727b98f74071145844b731b12fccfc03b1e58a738235234c176a43e299910160405180910390a260019150506116666001600055565b90565b8160008111801561167c57506008548111155b6116985760405162461bcd60e51b815260040161139e9061559b565b6116a06148a7565b5060009182526012602052604090912060080180549115156101000261ff0019909216919091179055565b6116d36148a7565b601e5481101561171a5760405162461bcd60e51b815260206004820152601260248201527110995b1bddc81d1bdd185b081cdd185ad95960721b604482015260640161139e565b601f8054908290556040805182815260208101849052428183015290517f69184c671db9747cef69bb2ee0e6ce0dfeec4b4562bf75185241b8927ab000f39181900360600190a15050565b6001600160a01b0381166000908152601c6020526040812054819060ff16156117945750600090506001611891565b826001600160a01b0316846001600160a01b0316036117b95750600090506002611891565b6001600160a01b0384166000908152601b602052604090205460ff166117e55750600090506003611891565b6001600160a01b038481166000908152601a60205260409020548185169116036118155750600090506002611891565b6001600160a01b038085166000908152601a6020526040902054165b6001600160a01b0381161561188757836001600160a01b0316816001600160a01b03160361186757600060029250925050611891565b6001600160a01b039081166000908152601a602052604090205416611831565b6001600092509250505b9250929050565b6000826000811180156118ad57506008548111155b6118c95760405162461bcd60e51b815260040161139e9061559b565b6000848152601260205260408120600201546118e5908561552c565b9050600460009054906101000a90046001600160a01b03166001600160a01b031663313ce5676040518163ffffffff1660e01b8152600401602060405180830381865afa15801561193a573d6000803e3d6000fd5b505050506040513d601f19601f8201168201806040525081019061195e91906155bf565b61196990600a6156c0565b611971613717565b61197b919061552c565b600a54611988908361552c565b6119929190615543565b95945050505050565b6000816000811180156119b057506008548111155b6119cc5760405162461bcd60e51b815260040161139e9061559b565b60006119d83385613219565b905060008111611a1d5760405162461bcd60e51b815260206004820152601060248201526f4e6f7468696e6720746f20636c61696d60801b604482015260640161139e565b6004546001600160a01b0316611a655760405162461bcd60e51b815260206004820152600d60248201526c151bdad95b881b9bdd081cd95d609a1b604482015260640161139e565b600480546040516370a0823160e01b815230928101929092526001600160a01b0316906370a0823190602401602060405180830381865afa158015611aae573d6000803e3d6000fd5b505050506040513d601f19601f82011682018060405250810190611ad29190615565565b811115611b165760405162461bcd60e51b8152602060048201526012602482015271496e73756666696369656e742066756e647360701b604482015260640161139e565b600084815260126020526040902060080154610100900460ff16611b705760405162461bcd60e51b815260206004820152601160248201527010db185a5b5a5b99c8191a5cd8589b1959607a1b604482015260640161139e565b33600090815260136020908152604080832087845290915281204281556002018054839290611ba0908490615519565b90915550503360009081526023602052604090205460ff1615611be357611bc733826148fe565b336000908152602360205260409020805460ff19169055611c7f565b6004805460405163a9059cbb60e01b81523392810192909252602482018390526000916001600160a01b039091169063a9059cbb906044016020604051808303816000875af1158015611c3a573d6000803e3d6000fd5b505050506040513d601f19601f82011682018060405250810190611c5e919061557e565b905080611c7d5760405162461bcd60e51b815260040161139e906156cf565b505b60408051828152426020820152859133917fc259a362e59c3fd12f739a3baa0fe06c78d12af06ec0eec656fca929a2b2ee84910160405180910390a35060019392505050565b6000600854600081118015611cdc57506008548111155b611cf85760405162461bcd60e51b815260040161139e9061559b565b600854611d058134612fc3565b6000828152601260205260409020544210801590611d34575060008281526012602052604090206008015460ff165b611d6f5760405162461bcd60e51b815260206004820152600c60248201526b496e76616c69642074696d6560a01b604482015260640161139e565b600081118015611da1575060008281526012602052604090206004810154600590910154611d9d91906156f8565b8111155b611dde5760405162461bcd60e51b815260206004820152600e60248201526d125b9d985b1a5908185b5bdd5b9d60921b604482015260640161139e565b611de66148d4565b600f5460ff16611e295760405162461bcd60e51b815260206004820152600e60248201526d139bdd081c1c994b599d5b99195960921b604482015260640161139e565b600a54600090611e39908061552c565b600954611e44613717565b611e4e903461552c565b611e58919061552c565b611e629190615543565b6008546000908152601260205260409020600681015460079091015491925090611e8d908390615519565b1115611ecb5760405162461bcd60e51b815260206004820152600d60248201526c12185c9918d85c081b1a5b5a5d609a1b604482015260640161139e565b60085460009081526011602052604090205460ff1615611f1e5760405162461bcd60e51b815260206004820152600e60248201526d141c995cd85b19481c185d5cd95960921b604482015260640161139e565b600880546000908152601260205260409020015460ff16611f745760405162461bcd60e51b815260206004820152601060248201526f496e6163746976652070726573616c6560801b604482015260640161139e565b6001600160a01b03871615611fd557863b63ffffffff1615611fcc5760405162461bcd60e51b815260206004820152601160248201527021b7b73a3930b1ba103932b332b93932b960791b604482015260640161139e565b611fd587612c03565b6000611fe36008548361478f565b3360009081526014602052604090205490915060ff16612044576005548110156120445760405162461bcd60e51b8152602060048201526012602482015271135a5b88185b5bdd5b9d081b9bdd081b595d60721b604482015260640161139e565b60085460009081526012602052604081206004018054839290612068908490615519565b909155505060085460009081526012602052604081206007018054849290612091908490615519565b9250508190555081600660008282546120aa9190615519565b909155506120bb905081838a614ba1565b6120c58188614c30565b600b546120db906001600160a01b031634614d0b565b60085460408051838152346020820152428183015290516000929133917f4d8aead3491b7eba4b5c7a65fc17e493b9e63f9e433522fc5f6a85a168fc9d369181900360600190a46001955050506121326001600055565b50505092915050565b600060085460008111801561215257506008548111155b61216e5760405162461bcd60e51b815260040161139e9061559b565b60085461217b818761478f565b60008281526012602052604090205442108015906121aa575060008281526012602052604090206008015460ff165b6121e55760405162461bcd60e51b815260206004820152600c60248201526b496e76616c69642074696d6560a01b604482015260640161139e565b60008111801561221757506000828152601260205260409020600481015460059091015461221391906156f8565b8111155b6122545760405162461bcd60e51b815260206004820152600e60248201526d125b9d985b1a5908185b5bdd5b9d60921b604482015260640161139e565b61225c6148d4565b600f5460ff1661229f5760405162461bcd60e51b815260206004820152600e60248201526d139bdd081c1c994b599d5b99195960921b604482015260640161139e565b60085460009081526011602052604090205460ff16156122f25760405162461bcd60e51b815260206004820152600e60248201526d141c995cd85b19481c185d5cd95960921b604482015260640161139e565b600880546000908152601260205260409020015460ff166123485760405162461bcd60e51b815260206004820152601060248201526f496e6163746976652070726573616c6560801b604482015260640161139e565b6008546000908152601260205260409020600681015460079091015461236f908990615519565b11156123ad5760405162461bcd60e51b815260206004820152600d60248201526c12185c9918d85c081b1a5b5a5d609a1b604482015260640161139e565b6001600160a01b0386161561240e57853b63ffffffff16156124055760405162461bcd60e51b815260206004820152601160248201527021b7b73a3930b1ba103932b332b93932b960791b604482015260640161139e565b61240e86612c03565b600061241c6008548961478f565b90508060126000600854815260200190815260200160002060040160008282546124469190615519565b9091555050600854600090815260126020526040812060070180548a929061246f908490615519565b9250508190555087600660008282546124889190615519565b90915550503360009081526014602052604090205460ff166124eb576005548110156124eb5760405162461bcd60e51b8152602060048201526012602482015271135a5b88185b5bdd5b9d081b9bdd081b595d60721b604482015260640161139e565b600f5460009061010090046001600160a01b031663dd62ed3e336040516001600160e01b031960e084901b1681526001600160a01b039091166004820152306024820152604401602060405180830381865afa15801561254f573d6000803e3d6000fd5b505050506040513d601f19601f820116820180604052508101906125739190615565565b9050808911156125be5760405162461bcd60e51b8152602060048201526016602482015275496e73756666696369656e7420616c6c6f77616e636560501b604482015260640161139e565b600f5460009061010090046001600160a01b031633600b546040516001600160a01b03928316602482015291166044820152606481018c905260840160408051601f198184030181529181526020820180516001600160e01b03166323b872dd60e01b1790525161262f919061570b565b6000604051808303816000865af19150503d806000811461266c576040519150601f19603f3d011682016040523d82523d6000602084013e612671565b606091505b50509050806126b95760405162461bcd60e51b81526020600482015260146024820152731554d115081d1c985b9cd9995c8819985a5b195960621b604482015260640161139e565b6126c4838b8b614ba1565b6126ce8389614c30565b600f5460085460408051868152602081018e905242918101919091526101009092046001600160a01b03169133907f4d8aead3491b7eba4b5c7a65fc17e493b9e63f9e433522fc5f6a85a168fc9d369060600160405180910390a46001965050505061273a6001600055565b5050509392505050565b8060008111801561275757506008548111155b6127735760405162461bcd60e51b815260040161139e9061559b565b61277b6148a7565b60008281526011602052604090205460ff16156127cb5760405162461bcd60e51b815260206004820152600e60248201526d105b1c9958591e481c185d5cd95960921b604482015260640161139e565b60008281526011602052604090819020805460ff191660011790555182907f927e6cd2dce24f32508868820cdc35f09d9de0f4b44e945114110125196fba9f906128189042815260200190565b60405180910390a25050565b6001600160a01b038082166000908152601a60209081526040808320815160a0810183528154909516855260018101549285018390526002810154918501829052600381015460ff1615156060860152600401546080850152919291612889916156f8565b9392505050565b60606000825b6001600160a01b038181166000908152601a602052604090205416156128e757816128c08161573a565b6001600160a01b039283166000908152601a60205260409020549093509091169050612896565b60006128f4836001615519565b67ffffffffffffffff81111561290c5761290c615753565b604051908082528060200260200182016040528015612935578160200160208202803683370190505b509050848160008151811061294c5761294c615769565b6001600160a01b039092166020928302919091019091015284915060015b8381116129ce576001600160a01b039283166000908152601a6020526040902054825193169283908390839081106129a4576129a4615769565b6001600160a01b0390921660209283029190910190910152806129c68161573a565b91505061296a565b50949350505050565b6129df6148a7565b60008111612a265760405162461bcd60e51b8152602060048201526014602482015273496e76616c696420746f74616c20737570706c7960601b604482015260640161139e565b6064612a3382600561552c565b612a3d9190615543565b600d5550565b612a4b6148a7565b600f5460ff1615612a8f5760405162461bcd60e51b815260206004820152600e60248201526d105b1c9958591e48199d5b99195960921b604482015260640161139e565b6004546001600160a01b0316612ad75760405162461bcd60e51b815260206004820152600d60248201526c151bdad95b881b9bdd081cd95d609a1b604482015260640161139e565b6000600e54600d54600c54612aec9190615519565b612af69190615519565b600480546040516370a0823160e01b815230928101929092529192506000916001600160a01b0316906370a0823190602401602060405180830381865afa158015612b45573d6000803e3d6000fd5b505050506040513d601f19601f82011682018060405250810190612b699190615565565b905081811015612bb25760405162461bcd60e51b8152602060048201526014602482015273496e73756666696369656e742062616c616e636560601b604482015260640161139e565b600f805460ff19166001179055600454604080518381524260208201526001600160a01b03909216917fa87af714d03c932d084d64774397d6d857ba204899b9d02dc2a79c9a5aec207e9101612818565b6001600160a01b03811615801590612c2457506001600160a01b0381163314155b612c635760405162461bcd60e51b815260206004820152601060248201526f24b73b30b634b2103932b332b93932b960811b604482015260640161139e565b336000908152601c602052604090205460ff1615612cb65760405162461bcd60e51b815260206004820152601060248201526f105b1c9958591e481c9959995c9c995960821b604482015260640161139e565b6001600160a01b0381166000908152601b602052604090205460ff16612d155760405162461bcd60e51b81526020600482015260146024820152732ab738bab0b634b334b2b2103932b332b93932b960611b604482015260640161139e565b6001600160a01b038181166000908152601a602052604090205433911603612d735760405162461bcd60e51b815260206004820152601160248201527010da5c98dd5b185c881c9959995c9c985b607a1b604482015260640161139e565b6001600160a01b038082166000908152601a6020526040902054165b6001600160a01b03811615612e0757336001600160a01b03821603612de75760405162461bcd60e51b815260206004820152600e60248201526d21b4b931bab630b91031b430b4b760911b604482015260640161139e565b6001600160a01b039081166000908152601a602052604090205416612d8f565b336000908152601a6020818152604080842080546001600160a01b0388166001600160a01b0319918216811790925560168452828620600490810180549092168317909155601c8452828620805460ff199081166001908117909255928752949093529084206003810180549092169093179055810180549192612e8a8361573a565b90915550506001600160a01b0383166000908152601d6020908152604080832033845290915290205460ff16612f1a576001600160a01b03831660008181526016602090815260408083206003018054600181810183559185528385200180546001600160a01b03191633908117909155948452601d8352818420948452939091529020805460ff191690911790555b60405142815233906001600160a01b038516907ff36afc48438e7a543cc47977b2ea45ca912bc74fd7e92126efea2f47c961eb7d9060200160405180910390a3505050565b612f676148a7565b6001600160a01b038116612f8d5760405162461bcd60e51b815260040161139e9061577f565b600b80546001600160a01b0319166001600160a01b0392909216919091179055565b612fb76148a7565b612fc16000614de1565b565b600080600a54600a54612fd6919061552c565b600954612fe1613717565b612feb908661552c565b612ff5919061552c565b612fff9190615543565b905061300b848261478f565b949350505050565b61301b6148d4565b60205460ff1661303e57604051637bf6f57360e01b815260040160405180910390fd5b8060000361305f57604051631f2a200560e01b815260040160405180910390fd5b601f5481601e546130709190615519565b111561308f5760405163a4875a4960e01b815260040160405180910390fd5b6000606461309e60c88461552c565b6130a89190615543565b90506130b3600e5490565b816021546130c19190615519565b11156130fe5760405162461bcd60e51b815260206004820152600c60248201526b14995dd85c99081b1a5b5a5d60a21b604482015260640161139e565b81601e60008282546131109190615519565b9250508190555080602160008282546131299190615519565b9091555050601f54601e541061317f576020805460ff19168155604080516000815242928101929092527fb7d83b7e094cfcfa7dd295e685a79a100995b6110e9708b6c36d9242b3945450910160405180910390a15b3360009081526022602052604090208054158015906131a35750600381015460ff16155b156131f55780600201544210156131eb5760405162461bcd60e51b815260206004820152600c60248201526b4c6f636b6564207374616b6560a01b604482015260640161139e565b6131f53382614e33565b613200338483614f83565b61320a3384615000565b50506132166001600055565b50565b60008160008111801561322e57506008548111155b61324a5760405162461bcd60e51b815260040161139e9061559b565b6001600160a01b03841660009081526013602090815260408083208684528252918290208251606081018452815481526001820154928101839052600290910154928101929092526132d15760405162461bcd60e51b815260206004820152601060248201526f4e6f7468696e6720746f20636c61696d60801b604482015260640161139e565b6000816040015182602001516132e791906156f8565b9050600081116119925760405162461bcd60e51b815260206004820152600f60248201526e105b1c9958591e4818db185a5b5959608a1b604482015260640161139e565b6133336148a7565b6004546001600160a01b03908116908216036134ce57600061335361127c565b6040516370a0823160e01b81523060048201529091506000906001600160a01b038416906370a0823190602401602060405180830381865afa15801561339d573d6000803e3d6000fd5b505050506040513d601f19601f820116820180604052508101906133c19190615565565b905060008282116133d35760006133dd565b6133dd83836156f8565b90506000811161342f5760405162461bcd60e51b815260206004820152601f60248201527f4e6f20746f6b656e7320617661696c61626c6520746f20776974686472617700604482015260640161139e565b600b5460405163a9059cbb60e01b81526001600160a01b0391821660048201526024810183905260009186169063a9059cbb906044016020604051808303816000875af1158015613484573d6000803e3d6000fd5b505050506040513d601f19601f820116820180604052508101906134a8919061557e565b9050806134c75760405162461bcd60e51b815260040161139e906156cf565b5050505050565b6040516370a0823160e01b81523060048201526000906001600160a01b038316906370a0823190602401602060405180830381865afa158015613515573d6000803e3d6000fd5b505050506040513d601f19601f820116820180604052508101906135399190615565565b9050600081116135835760405162461bcd60e51b81526020600482015260156024820152744e6f20746f6b656e7320746f20776974686472617760581b604482015260640161139e565b600b5460405163a9059cbb60e01b81526001600160a01b0391821660048201526024810183905260009184169063a9059cbb906044016020604051808303816000875af11580156135d8573d6000803e3d6000fd5b505050506040513d601f19601f820116820180604052508101906135fc919061557e565b90508061361b5760405162461bcd60e51b815260040161139e906156cf565b505050565b6001600160a01b03811660009081526022602052604081206002810154815483928392839283928392839242919091109083906064906136629060c89061552c565b61366c9190615543565b83546001850154600286015460038701549394509192909190859060ff1685816136a257885461369d908890615519565b6136a5565b60005b9950995099509950995099509950505050919395979092949650565b6136c96148a7565b6001600160a01b0381166136ef5760405162461bcd60e51b815260040161139e9061577f565b600f80546001600160a01b0390921661010002610100600160a81b0319909216919091179055565b600080601060009054906101000a90046001600160a01b03166001600160a01b031663feaf968c6040518163ffffffff1660e01b815260040160a060405180830381865afa15801561376d573d6000803e3d6000fd5b505050506040513d601f19601f8201168201806040525081019061379191906157bf565b505050915050806402540be4006137a8919061580f565b92915050565b6000816137eb5760405162461bcd60e51b815260206004820152600b60248201526a456d70747920617272617960a81b604482015260640161139e565b60005b828110156138645761381784848381811061380b5761380b615769565b9050602002013561199b565b6138525760405162461bcd60e51b815260206004820152600c60248201526b10db185a5b4819985a5b195960a21b604482015260640161139e565b8061385c8161573a565b9150506137ee565b5060019392505050565b6138766148a7565b60008160ff1611801561388d575060148160ff1611155b6138ce5760405162461bcd60e51b8152602060048201526012602482015271496e76616c69642070657263656e7461676560701b604482015260640161139e565b6019544210156139125760405162461bcd60e51b815260206004820152600f60248201526e54696d656c6f636b2061637469766560881b604482015260640161139e565b61391f4262015180615519565b6019556017546040805160ff928316815291831660208301524282820152517f05de795d533c83a69716d09a7d87c97b9ace14242301047692a6ccc1b8f3d14c9181900360600190a16017805460ff191660ff92909216919091179055565b8460008111801561399157506008548111155b6139ad5760405162461bcd60e51b815260040161139e9061559b565b6139b56148a7565b600085116139f25760405162461bcd60e51b815260206004820152600a6024820152695a65726f20707269636560b01b604482015260640161139e565b60008311613a305760405162461bcd60e51b815260206004820152600b60248201526a5a65726f20746f6b656e7360a81b604482015260640161139e565b5060009485526012602052604090942060028101939093556003830191909155600582015560060155565b683635c9adc5dea000008110613bb4576001600160a01b038083166000908152601b60209081526040808320805460ff19166001179055601a90915290205416801561361b57601754600090606490613ab79060ff168561552c565b613ac19190615543565b90506000613ad082600261552c565b9050600d5481601854613ae39190615519565b116134c7576001600160a01b0383166000908152601a602052604081206001018054849290613b13908490615519565b90915550506001600160a01b0385166000908152601a602052604081206001018054849290613b43908490615519565b925050819055508060186000828254613b5c9190615519565b90915550506040805183815260208101849052428183015290516001600160a01b0387811692908616917f5660d47451868f1bb42f832a92e54d7670a64411d1074b64dfab5bec5f29c2319181900360600190a35050505b5050565b613bc06148a7565b600880546000908152601260205260409020015460ff16613c165760405162461bcd60e51b815260206004820152601060248201526f416c726561647920696e61637469766560801b604482015260640161139e565b600880546000908152601260205260408082204260019091015582548252902001805460ff19169055565b613c496148a7565b6001600160a01b038116613c6f5760405162461bcd60e51b815260040161139e9061577f565b6004546001600160a01b0390811690841603613d4d576000613c8f61127c565b6040516370a0823160e01b81523060048201529091506000906001600160a01b038616906370a0823190602401602060405180830381865afa158015613cd9573d6000803e3d6000fd5b505050506040513d601f19601f82011682018060405250810190613cfd9190615565565b905081613d0a85836156f8565b1015613d4a5760405162461bcd60e51b815260206004820152600f60248201526e526573657276656420746f6b656e7360881b604482015260640161139e565b50505b60405163a9059cbb60e01b81526001600160a01b038281166004830152602482018490526000919085169063a9059cbb906044016020604051808303816000875af1158015613da0573d6000803e3d6000fd5b505050506040513d601f19601f82011682018060405250810190613dc4919061557e565b905080613de35760405162461bcd60e51b815260040161139e906156cf565b50505050565b613df16148a7565b6020805460ff191682151590811782556040805191825242928201929092527fb7d83b7e094cfcfa7dd295e685a79a100995b6110e9708b6c36d9242b3945450910160405180910390a150565b613e466148d4565b3360009081526022602052604090208054613e945760405162461bcd60e51b815260206004820152600e60248201526d139bc81cdd185ad948199bdd5b9960921b604482015260640161139e565b600381015460ff1615613edd5760405162461bcd60e51b815260206004820152601160248201527020b63932b0b23c903bb4ba34323930bbb760791b604482015260640161139e565b8060020154421015613f205760405162461bcd60e51b815260206004820152600c60248201526b14dd1a5b1b081b1bd8dad95960a21b604482015260640161139e565b805460006064613f3160c88461552c565b613f3b9190615543565b90506000613f498284615519565b60038501805460ff19166001179055601e54909150613f699084906156f8565b601e55600480546040516370a0823160e01b815230928101929092526001600160a01b0316906370a0823190602401602060405180830381865afa158015613fb5573d6000803e3d6000fd5b505050506040513d601f19601f82011682018060405250810190613fd99190615565565b81111561401d5760405162461bcd60e51b8152602060048201526012602482015271496e73756666696369656e742066756e647360701b604482015260640161139e565b6004805460405163a9059cbb60e01b81523392810192909252602482018390526000916001600160a01b039091169063a9059cbb906044016020604051808303816000875af1158015614074573d6000803e3d6000fd5b505050506040513d601f19601f82011682018060405250810190614098919061557e565b9050806140b75760405162461bcd60e51b815260040161139e906156cf565b60408051858152602081018590524281830152905133917f88d1c46373223a4f1f60db2badc985b05ec9c2b2eab4537f0f8e1291b78b6e37919081900360600190a25050505050612fc16001600055565b6141106148a7565b478061415e5760405162461bcd60e51b815260206004820152601a60248201527f4e6f204554482062616c616e636520746f207769746864726177000000000000604482015260640161139e565b600b54613216906001600160a01b031682614d0b565b6000806000806000806000601e54601f5460c8602060009054906101000a900460ff166141a0600e5490565b602154806141ad600e5490565b6141b791906156f8565b959d949c50929a50909850965094509092509050565b601754601854600d54600092839283928392839260ff909116916141f182826156f8565b60195460ff9094169992985090965094509092509050565b60205460009081908190819060ff1680156142275750601f54601e54105b90506000601e54601f541161423d57600061424d565b601e54601f5461424d91906156f8565b90506000601f54601e546064614263919061552c565b61426d9190615543565b9296919550919350915050565b6142826148a7565b600081116142bd5760405162461bcd60e51b81526020600482015260086024820152672d32b9379036b4b760c11b604482015260640161139e565b600555565b806000811180156142d557506008548111155b6142f15760405162461bcd60e51b815260040161139e9061559b565b6142f96148a7565b60008281526011602052604090205460ff166143445760405162461bcd60e51b815260206004820152600a602482015269139bdd081c185d5cd95960b21b604482015260640161139e565b60008281526011602052604090819020805460ff191690555182907ff608654a6d8e1785594639dd55babb61d7ae157382015f904a24224e50333b1d906128189042815260200190565b6143966148a7565b600084116143d35760405162461bcd60e51b815260206004820152600a6024820152695a65726f20707269636560b01b604482015260640161139e565b600082116144115760405162461bcd60e51b815260206004820152600b60248201526a5a65726f20746f6b656e7360a81b604482015260640161139e565b600880546000908152601260205260409020015460ff16156144635760405162461bcd60e51b815260206004820152600b60248201526a53616c652061637469766560a81b604482015260640161139e565b600880549060006144738361573a565b909155505060408051610140810182526000808252602080830182815283850189815260608086018a81526080870186815260a088018b815260c089018b815260e08a01898152610100808c018b81526101208d018c8152600880548e5260128d528f8e209e518f559a5160018f0155985160028e0155955160038d0155935160048c0155915160058b01555160068a015551600789015590519684018054935161ffff1990941697151561ff001916979097179215150291909117909455548451878152918201839052938101919091527f6a00651728a92841411081673eaa4eddbed06d102a590e050c22def40d4dd0b8910160405180910390a250505050565b6001600160a01b038082166000908152601a60209081526040808320815160a081018352815490951680865260018201549386018490526002820154928601839052600382015460ff16151560608701526004909101546080860152929384938493849384938493909290916145ec81836156f8565b6001600160a01b039b909b166000908152601b602052604090205460809490940151929b919a909950975060ff90921695509350915050565b61462d6148a7565b6001600160a01b0381166146535760405162461bcd60e51b815260040161139e9061577f565b600480546001600160a01b0319166001600160a01b0392909216919091179055565b60008083116146d75760405162461bcd60e51b815260206004820152602860248201527f4465736972656420746f6b656e73206d7573742062652067726561746572207460448201526768616e207a65726f60c01b606482015260840161139e565b600082116147355760405162461bcd60e51b815260206004820152602560248201527f5553445420616d6f756e74206d7573742062652067726561746572207468616e604482015264207a65726f60d81b606482015260840161139e565b60008361474a84670de0b6b3a764000061552c565b61300b9190615543565b61475c6148a7565b6001600160a01b03811661478657604051631e4fbdf760e01b81526000600482015260240161139e565b61321681614de1565b6000826000811180156147a457506008548111155b6147c05760405162461bcd60e51b815260040161139e9061559b565b60008481526012602052604090206002015461474a84670de0b6b3a764000061552c565b6000826000811180156147f957506008548111155b6148155760405162461bcd60e51b815260040161139e9061559b565b600480546040805163313ce56760e01b815290516001600160a01b039092169263313ce5679282820192602092908290030181865afa15801561485c573d6000803e3d6000fd5b505050506040513d601f19601f8201168201806040525081019061488091906155bf565b61488b90600a6156c0565b60008581526012602052604090206002015461474a908561552c565b6001546001600160a01b03163314612fc15760405163118cdaa760e01b815233600482015260240161139e565b6002600054036148f757604051633ee5aeb560e01b815260040160405180910390fd5b6002600055565b60205460ff166149435760405162461bcd60e51b815260206004820152601060248201526f5374616b696e6720696e61637469766560801b604482015260640161139e565b600081116149815760405162461bcd60e51b815260206004820152600b60248201526a16995c9bc8185b5bdd5b9d60aa1b604482015260640161139e565b601f5481601e546149929190615519565b11156149cf5760405162461bcd60e51b815260206004820152600c60248201526b10d85c08195e18d95959195960a21b604482015260640161139e565b600060646149de60c88461552c565b6149e89190615543565b90506149f3600e5490565b81602154614a019190615519565b1115614a3e5760405162461bcd60e51b815260206004820152600c60248201526b14995dd85c99081b1a5b5a5d60a21b604482015260640161139e565b81601e6000828254614a509190615519565b925050819055508060216000828254614a699190615519565b9091555050601f54601e5410614abf576020805460ff19168155604080516000815242928101929092527fb7d83b7e094cfcfa7dd295e685a79a100995b6110e9708b6c36d9242b3945450910160405180910390a15b6001600160a01b0383166000908152602260205260409020805415801590614aec5750600381015460ff16155b15614b965780600201544210614b1657614b068482614e33565b614b11848483614f83565b613de3565b82816000016000828254614b2a9190615519565b90915550614b3e9050426301e13380615519565b6002820181905560408051858152426020820152908101919091526001600160a01b038516907f0fc5b1bac0416800b42a669229a346b6e5a15db3896339dbdc5fa376e1e4570a9060600160405180910390a2613de3565b613de3848483614f83565b3360009081526016602052604081208054859290614bc0908490615519565b90915550503360009081526016602052604081206001018054849290614be7908490615519565b9091555050683635c9adc5dea000008310614c1757336000908152601b60205260409020805460ff191660011790555b6001600160a01b0381161561361b5761361b3384613a5b565b8015614c4057613bb433836148fe565b336000908152601360209081526040808320600854845290915290206001015415614c9f57336000908152601360209081526040808320600854845290915281206001018054849290614c94908490615519565b90915550613bb49050565b604051806060016040528060008152602001838152602001600081525060136000614cc73390565b6001600160a01b0316815260208082019290925260409081016000908120600854825283528190208351815591830151600183015591909101516002909101555050565b80471015614d495760405162461bcd60e51b815260206004820152600b60248201526a4c6f772062616c616e636560a81b604482015260640161139e565b6000826001600160a01b03168260405160006040518083038185875af1925050503d8060008114614d96576040519150601f19603f3d011682016040523d82523d6000602084013e614d9b565b606091505b505090508061361b5760405162461bcd60e51b81526020600482015260126024820152711155120814185e5b595b9d0819985a5b195960721b604482015260640161139e565b600180546001600160a01b038381166001600160a01b0319831681179093556040519116919082907f8be0079c531659141344cd1fd0a4f28419497f9722a3daafe3b4186f6b6457e090600090a35050565b805460006064614e4460c88461552c565b614e4e9190615543565b60038401805460ff191660011790556004549091506000906001600160a01b031663a9059cbb86614e7f8587615519565b6040516001600160e01b031960e085901b1681526001600160a01b03909216600483015260248201526044016020604051808303816000875af1158015614eca573d6000803e3d6000fd5b505050506040513d601f19601f82011682018060405250810190614eee919061557e565b905080614f315760405162461bcd60e51b815260206004820152601160248201527015da5d1a191c985dd85b0819985a5b1959607a1b604482015260640161139e565b6040805184815260208101849052428183015290516001600160a01b038716917f88d1c46373223a4f1f60db2badc985b05ec9c2b2eab4537f0f8e1291b78b6e37919081900360600190a25050505050565b8181554260018201819055614f9c906301e13380615519565b6002820181905560038201805460ff1916905560408051848152426020820152908101919091526001600160a01b038416907f0fc5b1bac0416800b42a669229a346b6e5a15db3896339dbdc5fa376e1e4570a9060600160405180910390a2505050565b600480546040516370a0823160e01b815230928101929092526000916001600160a01b03909116906370a0823190602401602060405180830381865afa15801561504e573d6000803e3d6000fd5b505050506040513d601f19601f820116820180604052508101906150729190615565565b600480546040516323b872dd60e01b81526001600160a01b0387811693820193909352306024820152604481018690529293506000929116906323b872dd906064016020604051808303816000875af11580156150d3573d6000803e3d6000fd5b505050506040513d601f19601f820116820180604052508101906150f7919061557e565b9050806151165760405162461bcd60e51b815260040161139e906156cf565b600480546040516370a0823160e01b815230928101929092526000916001600160a01b03909116906370a0823190602401602060405180830381865afa158015615164573d6000803e3d6000fd5b505050506040513d601f19601f820116820180604052508101906151889190615565565b90506151948484615519565b8110156134c75760405162461bcd60e51b815260206004820152601060248201526f125b98dbdc9c9958dd08185b5bdd5b9d60821b604482015260640161139e565b6000602082840312156151e857600080fd5b5035919050565b80356001600160a01b038116811461520657600080fd5b919050565b801515811461321657600080fd5b6000806040838503121561522c57600080fd5b615235836151ef565b915060208301356152458161520b565b809150509250929050565b60006020828403121561526257600080fd5b612889826151ef565b6000806040838503121561527e57600080fd5b8235915060208301356152458161520b565b600080604083850312156152a357600080fd5b6152ac836151ef565b91506152ba602084016151ef565b90509250929050565b600080604083850312156152d657600080fd5b50508035926020909101359150565b6000806000606084860312156152fa57600080fd5b8335925061530a602085016151ef565b9150604084013561531a8161520b565b809150509250925092565b60006020828403121561533757600080fd5b81356128898161520b565b6020808252825182820181905260009190848201906040850190845b818110156153835783516001600160a01b03168352928401929184019160010161535e565b50909695505050505050565b600080604083850312156153a257600080fd5b6153ab836151ef565b946020939093013593505050565b600080602083850312156153cc57600080fd5b823567ffffffffffffffff808211156153e457600080fd5b818501915085601f8301126153f857600080fd5b81358181111561540757600080fd5b8660208260051b850101111561541c57600080fd5b60209290920196919550909350505050565b60ff8116811461321657600080fd5b60006020828403121561544f57600080fd5b81356128898161542e565b600080600080600060a0868803121561547257600080fd5b505083359560208501359550604085013594606081013594506080013592509050565b6000806000606084860312156154aa57600080fd5b6154b3846151ef565b9250602084013591506154c8604085016151ef565b90509250925092565b600080600080608085870312156154e757600080fd5b5050823594602084013594506040840135936060013592509050565b634e487b7160e01b600052601160045260246000fd5b808201808211156137a8576137a8615503565b80820281158282048414176137a8576137a8615503565b60008261556057634e487b7160e01b600052601260045260246000fd5b500490565b60006020828403121561557757600080fd5b5051919050565b60006020828403121561559057600080fd5b81516128898161520b565b6020808252600a9082015269125b9d985b1a5908125160b21b604082015260600190565b6000602082840312156155d157600080fd5b81516128898161542e565b600181815b808511156156175781600019048211156155fd576155fd615503565b8085161561560a57918102915b93841c93908002906155e1565b509250929050565b60008261562e575060016137a8565b8161563b575060006137a8565b8160018114615651576002811461565b57615677565b60019150506137a8565b60ff84111561566c5761566c615503565b50506001821b6137a8565b5060208310610133831016604e8410600b841016171561569a575081810a6137a8565b6156a483836155dc565b80600019048211156156b8576156b8615503565b029392505050565b600061288960ff84168361561f565b6020808252600f908201526e151c985b9cd9995c8819985a5b1959608a1b604082015260600190565b818103818111156137a8576137a8615503565b6000825160005b8181101561572c5760208186018101518583015201615712565b506000920191825250919050565b60006001820161574c5761574c615503565b5060010190565b634e487b7160e01b600052604160045260246000fd5b634e487b7160e01b600052603260045260246000fd5b6020808252600c908201526b5a65726f206164647265737360a01b604082015260600190565b805169ffffffffffffffffffff8116811461520657600080fd5b600080600080600060a086880312156157d757600080fd5b6157e0866157a5565b9450602086015193506040860151925060608601519150615803608087016157a5565b90509295509295909350565b80820260008212600160ff1b8414161561582b5761582b615503565b81810583148215176137a8576137a861550356fea26469706673582212201063c8928beeeec06f5eef9eb1ac0ac7ea2a7da1efff25c378b7b9d2942c9c6e64736f6c63430008140033",
  "libraries": {
    "SaleUtils": "0xaE1F3dD927d290D535547818e4600f45F6E15297"
  },
  "devdoc": {
    "details": "All tokens (presale, referral, staking) must be sent to the contract before starting Token Allocation: - 30% for presale (30,000,000,000 tokens) - 5% for referral rewards (5,000,000,000 tokens) - 20% for staking rewards (20,000,000,000 tokens) Total: 55% of total supply must be transferred to this contract",
    "errors": {
      "EnforcedPause()": [
        {
          "details": "The operation failed because the contract is paused."
        }
      ],
      "ExpectedPause()": [
        {
          "details": "The operation failed because the contract is not paused."
        }
      ],
      "OwnableInvalidOwner(address)": [
        {
          "details": "The owner is not a valid owner account. (eg. `address(0)`)"
        }
      ],
      "OwnableUnauthorizedAccount(address)": [
        {
          "details": "The caller account is not authorized to perform an operation."
        }
      ],
      "ReentrancyGuardReentrantCall()": [
        {
          "details": "Unauthorized reentrant call."
        }
      ]
    },
    "events": {
      "Paused(address)": {
        "details": "Emitted when the pause is triggered by `account`."
      },
      "Unpaused(address)": {
        "details": "Emitted when the pause is lifted by `account`."
      }
    },
    "kind": "dev",
    "methods": {
      "ChangeTokentoSell(address)": {
        "details": "Update the sale token address"
      },
      "EditMinTokenToBuy(uint256)": {
        "details": "Update minimum token purchase amount"
      },
      "ExcludeAccouctFromMinBuy(address,bool)": {
        "details": "Exclude account from minimum buy requirement"
      },
      "WithdrawAllContractFunds()": {
        "details": "Withdraw all ETH balance from contract"
      },
      "WithdrawAllTokens(address)": {
        "details": "Override withdraw all tokens to account for staking rewards"
      },
      "buyWithEth(address,bool)": {
        "details": "Buy into a presale using ETH with option for immediate staking"
      },
      "buyWithUSDT(uint256,address,bool)": {
        "details": "Buy into a presale using USDT with option for immediate staking"
      },
      "calculateBaseReservedTokens()": {
        "details": "Override the base calculation to include referral rewards"
      },
      "calculatePriceForTokens(uint256,uint256)": {
        "details": "Calculate price for given tokens"
      },
      "calculateTotalReservedTokens()": {
        "details": "Calculate total reserved tokens across all systems (referrals and staking)",
        "returns": {
          "_0": "Total reserved tokens that can't be withdrawn"
        }
      },
      "canBeReferred(address,address)": {
        "details": "Check if a user can be referred by a specific referrer"
      },
      "canReferOthers(address)": {
        "details": "Check if a user has a valid referral link to share"
      },
      "changeFundWallet(address)": {
        "details": "Change fund receiving wallet"
      },
      "changeUSDTToken(address)": {
        "details": "Change USDT token address"
      },
      "claimAmount(uint256)": {
        "details": "Claim function to handle only non-staked tokens"
      },
      "claimMultiple(uint256[])": {
        "details": "To claim tokens from multiple presales"
      },
      "claimReferralRewards()": {
        "details": "Claim referral rewards"
      },
      "claimableAmount(address,uint256)": {
        "details": "Helper funtion to get claimable tokens for a given presale"
      },
      "constructor": {
        "details": "Constructor sets up the contract parameters",
        "params": {
          "_MinTokenTobuy": "Minimum tokens that can be purchased",
          "_SaleToken": "Sale token address",
          "_oracle": "Chainlink oracle for ETH price feed",
          "_totalTokenSupply": "Total token supply (100,000,000,000)",
          "_usdt": "USDT token address"
        }
      },
      "createPresale(uint256,uint256,uint256,uint256)": {
        "details": "Create a new presale"
      },
      "enableClaim(uint256,bool)": {
        "details": "Enable claiming for a presale"
      },
      "endPresale()": {
        "details": "End the presale"
      },
      "ethBuyHelper(uint256,uint256)": {
        "details": "Helper funtion to get ETH price for given amount"
      },
      "ethToTokens(uint256,uint256)": {
        "details": "Helper funtion to get tokens for eth amount"
      },
      "getClaimableReferralRewards(address)": {
        "details": "Get claimable referral rewards for a user",
        "params": {
          "_user": "Address of the user"
        }
      },
      "getLatestPrice()": {
        "details": "Get the latest ETH price from Chainlink"
      },
      "getReferralChain(address)": {
        "details": "Get the entire referral chain for a user"
      },
      "getReferralProgramStats()": {
        "details": "Get referral program stats"
      },
      "getStakingAvailability()": {
        "details": "Quick check if staking is available and capacity info"
      },
      "getStakingStats()": {
        "details": "Get staking program statistics"
      },
      "getUserCollectedReferrals(address)": {
        "details": "Get user's total collected referral rewards"
      },
      "getUserReferralInfo(address)": {
        "details": "Get user referral info for frontend"
      },
      "getUserStakingInfo(address)": {
        "details": "Get user staking information"
      },
      "maxStakingRewards()": {
        "details": "Public getter for max staking rewards"
      },
      "owner()": {
        "details": "Returns the address of the current owner."
      },
      "pausePresale(uint256)": {
        "details": "Pause a presale"
      },
      "paused()": {
        "details": "Returns true if the contract is paused, and false otherwise."
      },
      "preFundContract()": {
        "details": "Pre-fund the contract with tokens for presale, referrals, and staking"
      },
      "processReferralRewards(address,uint256)": {
        "details": "Process referral rewards after a successful purchase",
        "params": {
          "_tokenAmount": "Amount of tokens purchased",
          "_user": "Address of the user who made a purchase"
        }
      },
      "recordReferral(address)": {
        "details": "Records a valid referral relationship",
        "params": {
          "_referrer": "Address of the referrer"
        }
      },
      "renounceOwnership()": {
        "details": "Leaves the contract without owner. It will not be possible to call `onlyOwner` functions. Can only be called by the current owner. NOTE: Renouncing ownership will leave the contract without an owner, thereby disabling any functionality that is only available to the owner."
      },
      "safeWithdraw(address,uint256,address)": {
        "details": "Safe withdrawal function for accumulated tokens",
        "params": {
          "_amount": "Amount to withdraw",
          "_recipient": "Recipient address",
          "_token": "Token address"
        }
      },
      "setStakingIntent(bool)": {
        "details": "Set staking intent for a user",
        "params": {
          "_intent": "Whether to stake tokens upon claim"
        }
      },
      "setStakingStatus(bool)": {
        "details": "Toggle staking status (active/inactive)"
      },
      "stakeTokens(uint256)": {
        "details": "Stake tokens with 1-year lock and 200% APY"
      },
      "startPresale()": {
        "details": "Start the presale"
      },
      "transferOwnership(address)": {
        "details": "Transfers ownership of the contract to a new account (`newOwner`). Can only be called by the current owner."
      },
      "unPausePresale(uint256)": {
        "details": "Unpause a presale"
      },
      "updateMaxReferralRewards(uint256)": {
        "details": "Update the maximum referral rewards (5% of total supply)",
        "params": {
          "_totalSupply": "The total token supply to calculate 5% from"
        }
      },
      "updatePresale(uint256,uint256,uint256,uint256,uint256)": {
        "details": "Update presale parameters"
      },
      "updateReferralRewardPercentage(uint8)": {
        "details": "Change referral reward percentage with timelock protection",
        "params": {
          "_percentage": "New percentage (1-20)"
        }
      },
      "updateStakingCap(uint256)": {
        "details": "Update staking cap"
      },
      "usdtBuyHelper(uint256,uint256)": {
        "details": "Helper funtion to get USDT price for given amount"
      },
      "usdtToTokens(uint256,uint256)": {
        "details": "Helper funtion to get tokens for given usdt amount"
      },
      "withdrawStake()": {
        "details": "Withdraw staked tokens and rewards after lock period"
      }
    },
    "title": "PreSale and Staking Contract",
    "version": 1
  },
  "userdoc": {
    "kind": "user",
    "methods": {},
    "notice": "This contract handles token presale, referral rewards, and staking functionality",
    "version": 1
  },
  "storageLayout": {
    "storage": [
      {
        "astId": 1098,
        "contract": "contracts/Sale.sol:Sale",
        "label": "_status",
        "offset": 0,
        "slot": "0",
        "type": "t_uint256"
      },
      {
        "astId": 54,
        "contract": "contracts/Sale.sol:Sale",
        "label": "_owner",
        "offset": 0,
        "slot": "1",
        "type": "t_address"
      },
      {
        "astId": 988,
        "contract": "contracts/Sale.sol:Sale",
        "label": "_paused",
        "offset": 20,
        "slot": "1",
        "type": "t_bool"
      },
      {
        "astId": 2799,
        "contract": "contracts/Sale.sol:Sale",
        "label": "oracle",
        "offset": 0,
        "slot": "2",
        "type": "t_address"
      },
      {
        "astId": 2801,
        "contract": "contracts/Sale.sol:Sale",
        "label": "usdt",
        "offset": 0,
        "slot": "3",
        "type": "t_address"
      },
      {
        "astId": 2803,
        "contract": "contracts/Sale.sol:Sale",
        "label": "SaleToken",
        "offset": 0,
        "slot": "4",
        "type": "t_address"
      },
      {
        "astId": 2805,
        "contract": "contracts/Sale.sol:Sale",
        "label": "MinTokenTobuy",
        "offset": 0,
        "slot": "5",
        "type": "t_uint256"
      },
      {
        "astId": 2807,
        "contract": "contracts/Sale.sol:Sale",
        "label": "TotalUSDTRaised",
        "offset": 0,
        "slot": "6",
        "type": "t_uint256"
      },
      {
        "astId": 2809,
        "contract": "contracts/Sale.sol:Sale",
        "label": "totalTokenSupply",
        "offset": 0,
        "slot": "7",
        "type": "t_uint256"
      },
      {
        "astId": 2811,
        "contract": "contracts/Sale.sol:Sale",
        "label": "presaleId",
        "offset": 0,
        "slot": "8",
        "type": "t_uint256"
      },
      {
        "astId": 2813,
        "contract": "contracts/Sale.sol:Sale",
        "label": "USDT_MULTIPLIER",
        "offset": 0,
        "slot": "9",
        "type": "t_uint256"
      },
      {
        "astId": 2815,
        "contract": "contracts/Sale.sol:Sale",
        "label": "ETH_MULTIPLIER",
        "offset": 0,
        "slot": "10",
        "type": "t_uint256"
      },
      {
        "astId": 2817,
        "contract": "contracts/Sale.sol:Sale",
        "label": "fundReceiver",
        "offset": 0,
        "slot": "11",
        "type": "t_address"
      },
      {
        "astId": 2819,
        "contract": "contracts/Sale.sol:Sale",
        "label": "presaleTokens",
        "offset": 0,
        "slot": "12",
        "type": "t_uint256"
      },
      {
        "astId": 2821,
        "contract": "contracts/Sale.sol:Sale",
        "label": "maxReferralRewards",
        "offset": 0,
        "slot": "13",
        "type": "t_uint256"
      },
      {
        "astId": 2823,
        "contract": "contracts/Sale.sol:Sale",
        "label": "_maxStakingRewards",
        "offset": 0,
        "slot": "14",
        "type": "t_uint256"
      },
      {
        "astId": 2826,
        "contract": "contracts/Sale.sol:Sale",
        "label": "isTokenPreFunded",
        "offset": 0,
        "slot": "15",
        "type": "t_bool"
      },
      {
        "astId": 2829,
        "contract": "contracts/Sale.sol:Sale",
        "label": "USDTInterface",
        "offset": 1,
        "slot": "15",
        "type": "t_contract(IERC20Metadata)949"
      },
      {
        "astId": 2832,
        "contract": "contracts/Sale.sol:Sale",
        "label": "aggregatorInterface",
        "offset": 0,
        "slot": "16",
        "type": "t_contract(Aggregator)2790"
      },
      {
        "astId": 2836,
        "contract": "contracts/Sale.sol:Sale",
        "label": "paused",
        "offset": 0,
        "slot": "17",
        "type": "t_mapping(t_uint256,t_bool)"
      },
      {
        "astId": 2841,
        "contract": "contracts/Sale.sol:Sale",
        "label": "presale",
        "offset": 0,
        "slot": "18",
        "type": "t_mapping(t_uint256,t_struct(Presale)5076_storage)"
      },
      {
        "astId": 2848,
        "contract": "contracts/Sale.sol:Sale",
        "label": "userClaimData",
        "offset": 0,
        "slot": "19",
        "type": "t_mapping(t_address,t_mapping(t_uint256,t_struct(ClaimData)5083_storage))"
      },
      {
        "astId": 2852,
        "contract": "contracts/Sale.sol:Sale",
        "label": "isExcludeMinToken",
        "offset": 0,
        "slot": "20",
        "type": "t_mapping(t_address,t_bool)"
      },
      {
        "astId": 2856,
        "contract": "contracts/Sale.sol:Sale",
        "label": "isAdmin",
        "offset": 0,
        "slot": "21",
        "type": "t_mapping(t_address,t_bool)"
      },
      {
        "astId": 2861,
        "contract": "contracts/Sale.sol:Sale",
        "label": "users",
        "offset": 0,
        "slot": "22",
        "type": "t_mapping(t_address,t_struct(User)5055_storage)"
      },
      {
        "astId": 1176,
        "contract": "contracts/Sale.sol:Sale",
        "label": "referralRewardPercentage",
        "offset": 0,
        "slot": "23",
        "type": "t_uint8"
      },
      {
        "astId": 1178,
        "contract": "contracts/Sale.sol:Sale",
        "label": "totalReferralRewardsIssued",
        "offset": 0,
        "slot": "24",
        "type": "t_uint256"
      },
      {
        "astId": 1180,
        "contract": "contracts/Sale.sol:Sale",
        "label": "referralPercentageChangeTimeLock",
        "offset": 0,
        "slot": "25",
        "type": "t_uint256"
      },
      {
        "astId": 1185,
        "contract": "contracts/Sale.sol:Sale",
        "label": "referralData",
        "offset": 0,
        "slot": "26",
        "type": "t_mapping(t_address,t_struct(ReferralData)5094_storage)"
      },
      {
        "astId": 1189,
        "contract": "contracts/Sale.sol:Sale",
        "label": "hasQualifiedPurchase",
        "offset": 0,
        "slot": "27",
        "type": "t_mapping(t_address,t_bool)"
      },
      {
        "astId": 1193,
        "contract": "contracts/Sale.sol:Sale",
        "label": "hasUsedReferral",
        "offset": 0,
        "slot": "28",
        "type": "t_mapping(t_address,t_bool)"
      },
      {
        "astId": 1199,
        "contract": "contracts/Sale.sol:Sale",
        "label": "referredUserExists",
        "offset": 0,
        "slot": "29",
        "type": "t_mapping(t_address,t_mapping(t_address,t_bool))"
      },
      {
        "astId": 3982,
        "contract": "contracts/Sale.sol:Sale",
        "label": "totalStaked",
        "offset": 0,
        "slot": "30",
        "type": "t_uint256"
      },
      {
        "astId": 3984,
        "contract": "contracts/Sale.sol:Sale",
        "label": "stakingCap",
        "offset": 0,
        "slot": "31",
        "type": "t_uint256"
      },
      {
        "astId": 3986,
        "contract": "contracts/Sale.sol:Sale",
        "label": "stakingActive",
        "offset": 0,
        "slot": "32",
        "type": "t_bool"
      },
      {
        "astId": 3988,
        "contract": "contracts/Sale.sol:Sale",
        "label": "totalStakingRewardsIssued",
        "offset": 0,
        "slot": "33",
        "type": "t_uint256"
      },
      {
        "astId": 3993,
        "contract": "contracts/Sale.sol:Sale",
        "label": "userStakes",
        "offset": 0,
        "slot": "34",
        "type": "t_mapping(t_address,t_struct(StakeInfo)5103_storage)"
      },
      {
        "astId": 3997,
        "contract": "contracts/Sale.sol:Sale",
        "label": "userStakingIntent",
        "offset": 0,
        "slot": "35",
        "type": "t_mapping(t_address,t_bool)"
      }
    ],
    "types": {
      "t_address": {
        "encoding": "inplace",
        "label": "address",
        "numberOfBytes": "20"
      },
      "t_array(t_address)dyn_storage": {
        "base": "t_address",
        "encoding": "dynamic_array",
        "label": "address[]",
        "numberOfBytes": "32"
      },
      "t_bool": {
        "encoding": "inplace",
        "label": "bool",
        "numberOfBytes": "1"
      },
      "t_contract(Aggregator)2790": {
        "encoding": "inplace",
        "label": "contract Aggregator",
        "numberOfBytes": "20"
      },
      "t_contract(IERC20Metadata)949": {
        "encoding": "inplace",
        "label": "contract IERC20Metadata",
        "numberOfBytes": "20"
      },
      "t_mapping(t_address,t_bool)": {
        "encoding": "mapping",
        "key": "t_address",
        "label": "mapping(address => bool)",
        "numberOfBytes": "32",
        "value": "t_bool"
      },
      "t_mapping(t_address,t_mapping(t_address,t_bool))": {
        "encoding": "mapping",
        "key": "t_address",
        "label": "mapping(address => mapping(address => bool))",
        "numberOfBytes": "32",
        "value": "t_mapping(t_address,t_bool)"
      },
      "t_mapping(t_address,t_mapping(t_uint256,t_struct(ClaimData)5083_storage))": {
        "encoding": "mapping",
        "key": "t_address",
        "label": "mapping(address => mapping(uint256 => struct ISaleStructs.ClaimData))",
        "numberOfBytes": "32",
        "value": "t_mapping(t_uint256,t_struct(ClaimData)5083_storage)"
      },
      "t_mapping(t_address,t_struct(ReferralData)5094_storage)": {
        "encoding": "mapping",
        "key": "t_address",
        "label": "mapping(address => struct ISaleStructs.ReferralData)",
        "numberOfBytes": "32",
        "value": "t_struct(ReferralData)5094_storage"
      },
      "t_mapping(t_address,t_struct(StakeInfo)5103_storage)": {
        "encoding": "mapping",
        "key": "t_address",
        "label": "mapping(address => struct ISaleStructs.StakeInfo)",
        "numberOfBytes": "32",
        "value": "t_struct(StakeInfo)5103_storage"
      },
      "t_mapping(t_address,t_struct(User)5055_storage)": {
        "encoding": "mapping",
        "key": "t_address",
        "label": "mapping(address => struct ISaleStructs.User)",
        "numberOfBytes": "32",
        "value": "t_struct(User)5055_storage"
      },
      "t_mapping(t_uint256,t_bool)": {
        "encoding": "mapping",
        "key": "t_uint256",
        "label": "mapping(uint256 => bool)",
        "numberOfBytes": "32",
        "value": "t_bool"
      },
      "t_mapping(t_uint256,t_struct(ClaimData)5083_storage)": {
        "encoding": "mapping",
        "key": "t_uint256",
        "label": "mapping(uint256 => struct ISaleStructs.ClaimData)",
        "numberOfBytes": "32",
        "value": "t_struct(ClaimData)5083_storage"
      },
      "t_mapping(t_uint256,t_struct(Presale)5076_storage)": {
        "encoding": "mapping",
        "key": "t_uint256",
        "label": "mapping(uint256 => struct ISaleStructs.Presale)",
        "numberOfBytes": "32",
        "value": "t_struct(Presale)5076_storage"
      },
      "t_struct(ClaimData)5083_storage": {
        "encoding": "inplace",
        "label": "struct ISaleStructs.ClaimData",
        "members": [
          {
            "astId": 5078,
            "contract": "contracts/Sale.sol:Sale",
            "label": "claimAt",
            "offset": 0,
            "slot": "0",
            "type": "t_uint256"
          },
          {
            "astId": 5080,
            "contract": "contracts/Sale.sol:Sale",
            "label": "totalAmount",
            "offset": 0,
            "slot": "1",
            "type": "t_uint256"
          },
          {
            "astId": 5082,
            "contract": "contracts/Sale.sol:Sale",
            "label": "claimedAmount",
            "offset": 0,
            "slot": "2",
            "type": "t_uint256"
          }
        ],
        "numberOfBytes": "96"
      },
      "t_struct(Presale)5076_storage": {
        "encoding": "inplace",
        "label": "struct ISaleStructs.Presale",
        "members": [
          {
            "astId": 5057,
            "contract": "contracts/Sale.sol:Sale",
            "label": "startTime",
            "offset": 0,
            "slot": "0",
            "type": "t_uint256"
          },
          {
            "astId": 5059,
            "contract": "contracts/Sale.sol:Sale",
            "label": "endTime",
            "offset": 0,
            "slot": "1",
            "type": "t_uint256"
          },
          {
            "astId": 5061,
            "contract": "contracts/Sale.sol:Sale",
            "label": "price",
            "offset": 0,
            "slot": "2",
            "type": "t_uint256"
          },
          {
            "astId": 5063,
            "contract": "contracts/Sale.sol:Sale",
            "label": "nextStagePrice",
            "offset": 0,
            "slot": "3",
            "type": "t_uint256"
          },
          {
            "astId": 5065,
            "contract": "contracts/Sale.sol:Sale",
            "label": "Sold",
            "offset": 0,
            "slot": "4",
            "type": "t_uint256"
          },
          {
            "astId": 5067,
            "contract": "contracts/Sale.sol:Sale",
            "label": "tokensToSell",
            "offset": 0,
            "slot": "5",
            "type": "t_uint256"
          },
          {
            "astId": 5069,
            "contract": "contracts/Sale.sol:Sale",
            "label": "UsdtHardcap",
            "offset": 0,
            "slot": "6",
            "type": "t_uint256"
          },
          {
            "astId": 5071,
            "contract": "contracts/Sale.sol:Sale",
            "label": "amountRaised",
            "offset": 0,
            "slot": "7",
            "type": "t_uint256"
          },
          {
            "astId": 5073,
            "contract": "contracts/Sale.sol:Sale",
            "label": "Active",
            "offset": 0,
            "slot": "8",
            "type": "t_bool"
          },
          {
            "astId": 5075,
            "contract": "contracts/Sale.sol:Sale",
            "label": "isEnableClaim",
            "offset": 1,
            "slot": "8",
            "type": "t_bool"
          }
        ],
        "numberOfBytes": "288"
      },
      "t_struct(ReferralData)5094_storage": {
        "encoding": "inplace",
        "label": "struct ISaleStructs.ReferralData",
        "members": [
          {
            "astId": 5085,
            "contract": "contracts/Sale.sol:Sale",
            "label": "referrer",
            "offset": 0,
            "slot": "0",
            "type": "t_address"
          },
          {
            "astId": 5087,
            "contract": "contracts/Sale.sol:Sale",
            "label": "totalReferralRewards",
            "offset": 0,
            "slot": "1",
            "type": "t_uint256"
          },
          {
            "astId": 5089,
            "contract": "contracts/Sale.sol:Sale",
            "label": "claimedReferralRewards",
            "offset": 0,
            "slot": "2",
            "type": "t_uint256"
          },
          {
            "astId": 5091,
            "contract": "contracts/Sale.sol:Sale",
            "label": "hasReferred",
            "offset": 0,
            "slot": "3",
            "type": "t_bool"
          },
          {
            "astId": 5093,
            "contract": "contracts/Sale.sol:Sale",
            "label": "referralCount",
            "offset": 0,
            "slot": "4",
            "type": "t_uint256"
          }
        ],
        "numberOfBytes": "160"
      },
      "t_struct(StakeInfo)5103_storage": {
        "encoding": "inplace",
        "label": "struct ISaleStructs.StakeInfo",
        "members": [
          {
            "astId": 5096,
            "contract": "contracts/Sale.sol:Sale",
            "label": "stakedAmount",
            "offset": 0,
            "slot": "0",
            "type": "t_uint256"
          },
          {
            "astId": 5098,
            "contract": "contracts/Sale.sol:Sale",
            "label": "stakingTimestamp",
            "offset": 0,
            "slot": "1",
            "type": "t_uint256"
          },
          {
            "astId": 5100,
            "contract": "contracts/Sale.sol:Sale",
            "label": "unlockTimestamp",
            "offset": 0,
            "slot": "2",
            "type": "t_uint256"
          },
          {
            "astId": 5102,
            "contract": "contracts/Sale.sol:Sale",
            "label": "hasWithdrawn",
            "offset": 0,
            "slot": "3",
            "type": "t_bool"
          }
        ],
        "numberOfBytes": "128"
      },
      "t_struct(User)5055_storage": {
        "encoding": "inplace",
        "label": "struct ISaleStructs.User",
        "members": [
          {
            "astId": 5045,
            "contract": "contracts/Sale.sol:Sale",
            "label": "TotalBoughtTokens",
            "offset": 0,
            "slot": "0",
            "type": "t_uint256"
          },
          {
            "astId": 5047,
            "contract": "contracts/Sale.sol:Sale",
            "label": "TotalPaid",
            "offset": 0,
            "slot": "1",
            "type": "t_uint256"
          },
          {
            "astId": 5049,
            "contract": "contracts/Sale.sol:Sale",
            "label": "TotalCollectedReferral",
            "offset": 0,
            "slot": "2",
            "type": "t_uint256"
          },
          {
            "astId": 5052,
            "contract": "contracts/Sale.sol:Sale",
            "label": "referredUsers",
            "offset": 0,
            "slot": "3",
            "type": "t_array(t_address)dyn_storage"
          },
          {
            "astId": 5054,
            "contract": "contracts/Sale.sol:Sale",
            "label": "referrer",
            "offset": 0,
            "slot": "4",
            "type": "t_address"
          }
        ],
        "numberOfBytes": "160"
      },
      "t_uint256": {
        "encoding": "inplace",
        "label": "uint256",
        "numberOfBytes": "32"
      },
      "t_uint8": {
        "encoding": "inplace",
        "label": "uint8",
        "numberOfBytes": "1"
      }
    }
  }
}