{
  "address": "0x7ee92910EEd8328955ec4b5D9767Df52276F25B6",
  "abi": [
    {
      "inputs": [
        {
          "internalType": "address",
          "name": "_oracle",
          "type": "address"
        },
        {
          "internalType": "address",
          "name": "_usdt",
          "type": "address"
        },
        {
          "internalType": "address",
          "name": "_SaleToken",
          "type": "address"
        },
        {
          "internalType": "uint256",
          "name": "_MinTokenTobuy",
          "type": "uint256"
        },
        {
          "internalType": "uint256",
          "name": "_totalTokenSupply",
          "type": "uint256"
        }
      ],
      "stateMutability": "nonpayable",
      "type": "constructor"
    },
    {
      "anonymous": false,
      "inputs": [
        {
          "indexed": true,
          "internalType": "address",
          "name": "previousOwner",
          "type": "address"
        },
        {
          "indexed": true,
          "internalType": "address",
          "name": "newOwner",
          "type": "address"
        }
      ],
      "name": "OwnershipTransferred",
      "type": "event"
    },
    {
      "anonymous": false,
      "inputs": [
        {
          "indexed": true,
          "internalType": "uint256",
          "name": "_id",
          "type": "uint256"
        },
        {
          "indexed": false,
          "internalType": "uint256",
          "name": "_totalTokens",
          "type": "uint256"
        },
        {
          "indexed": false,
          "internalType": "uint256",
          "name": "_startTime",
          "type": "uint256"
        },
        {
          "indexed": false,
          "internalType": "uint256",
          "name": "_endTime",
          "type": "uint256"
        }
      ],
      "name": "PresaleCreated",
      "type": "event"
    },
    {
      "anonymous": false,
      "inputs": [
        {
          "indexed": true,
          "internalType": "uint256",
          "name": "id",
          "type": "uint256"
        },
        {
          "indexed": false,
          "internalType": "uint256",
          "name": "timestamp",
          "type": "uint256"
        }
      ],
      "name": "PresalePaused",
      "type": "event"
    },
    {
      "anonymous": false,
      "inputs": [
        {
          "indexed": true,
          "internalType": "address",
          "name": "prevValue",
          "type": "address"
        },
        {
          "indexed": true,
          "internalType": "address",
          "name": "newValue",
          "type": "address"
        },
        {
          "indexed": false,
          "internalType": "uint256",
          "name": "timestamp",
          "type": "uint256"
        }
      ],
      "name": "PresaleTokenAddressUpdated",
      "type": "event"
    },
    {
      "anonymous": false,
      "inputs": [
        {
          "indexed": true,
          "internalType": "uint256",
          "name": "id",
          "type": "uint256"
        },
        {
          "indexed": false,
          "internalType": "uint256",
          "name": "timestamp",
          "type": "uint256"
        }
      ],
      "name": "PresaleUnpaused",
      "type": "event"
    },
    {
      "anonymous": false,
      "inputs": [
        {
          "indexed": true,
          "internalType": "bytes32",
          "name": "key",
          "type": "bytes32"
        },
        {
          "indexed": false,
          "internalType": "uint256",
          "name": "prevValue",
          "type": "uint256"
        },
        {
          "indexed": false,
          "internalType": "uint256",
          "name": "newValue",
          "type": "uint256"
        },
        {
          "indexed": false,
          "internalType": "uint256",
          "name": "timestamp",
          "type": "uint256"
        }
      ],
      "name": "PresaleUpdated",
      "type": "event"
    },
    {
      "anonymous": false,
      "inputs": [
        {
          "indexed": false,
          "internalType": "uint256",
          "name": "previousPercentage",
          "type": "uint256"
        },
        {
          "indexed": false,
          "internalType": "uint256",
          "name": "newPercentage",
          "type": "uint256"
        },
        {
          "indexed": false,
          "internalType": "uint256",
          "name": "timestamp",
          "type": "uint256"
        }
      ],
      "name": "ReferralPercentageUpdated",
      "type": "event"
    },
    {
      "anonymous": false,
      "inputs": [
        {
          "indexed": true,
          "internalType": "address",
          "name": "referrer",
          "type": "address"
        },
        {
          "indexed": true,
          "internalType": "address",
          "name": "referee",
          "type": "address"
        },
        {
          "indexed": false,
          "internalType": "uint256",
          "name": "timestamp",
          "type": "uint256"
        }
      ],
      "name": "ReferralRecorded",
      "type": "event"
    },
    {
      "anonymous": false,
      "inputs": [
        {
          "indexed": true,
          "internalType": "address",
          "name": "referrer",
          "type": "address"
        },
        {
          "indexed": true,
          "internalType": "address",
          "name": "referee",
          "type": "address"
        },
        {
          "indexed": false,
          "internalType": "uint256",
          "name": "referrerReward",
          "type": "uint256"
        },
        {
          "indexed": false,
          "internalType": "uint256",
          "name": "refereeReward",
          "type": "uint256"
        },
        {
          "indexed": false,
          "internalType": "uint256",
          "name": "timestamp",
          "type": "uint256"
        }
      ],
      "name": "ReferralRewardsAdded",
      "type": "event"
    },
    {
      "anonymous": false,
      "inputs": [
        {
          "indexed": true,
          "internalType": "address",
          "name": "user",
          "type": "address"
        },
        {
          "indexed": false,
          "internalType": "uint256",
          "name": "amount",
          "type": "uint256"
        },
        {
          "indexed": false,
          "internalType": "uint256",
          "name": "timestamp",
          "type": "uint256"
        }
      ],
      "name": "ReferralRewardsClaimed",
      "type": "event"
    },
    {
      "anonymous": false,
      "inputs": [
        {
          "indexed": true,
          "internalType": "address",
          "name": "user",
          "type": "address"
        },
        {
          "indexed": false,
          "internalType": "uint256",
          "name": "stakedAmount",
          "type": "uint256"
        },
        {
          "indexed": false,
          "internalType": "uint256",
          "name": "rewardAmount",
          "type": "uint256"
        },
        {
          "indexed": false,
          "internalType": "uint256",
          "name": "timestamp",
          "type": "uint256"
        }
      ],
      "name": "StakeWithdrawn",
      "type": "event"
    },
    {
      "anonymous": false,
      "inputs": [
        {
          "indexed": false,
          "internalType": "uint256",
          "name": "previousCap",
          "type": "uint256"
        },
        {
          "indexed": false,
          "internalType": "uint256",
          "name": "newCap",
          "type": "uint256"
        },
        {
          "indexed": false,
          "internalType": "uint256",
          "name": "timestamp",
          "type": "uint256"
        }
      ],
      "name": "StakingCapUpdated",
      "type": "event"
    },
    {
      "anonymous": false,
      "inputs": [
        {
          "indexed": false,
          "internalType": "bool",
          "name": "isActive",
          "type": "bool"
        },
        {
          "indexed": false,
          "internalType": "uint256",
          "name": "timestamp",
          "type": "uint256"
        }
      ],
      "name": "StakingStatusChanged",
      "type": "event"
    },
    {
      "anonymous": false,
      "inputs": [
        {
          "indexed": true,
          "internalType": "address",
          "name": "user",
          "type": "address"
        },
        {
          "indexed": true,
          "internalType": "uint256",
          "name": "id",
          "type": "uint256"
        },
        {
          "indexed": true,
          "internalType": "address",
          "name": "purchaseToken",
          "type": "address"
        },
        {
          "indexed": false,
          "internalType": "uint256",
          "name": "tokensBought",
          "type": "uint256"
        },
        {
          "indexed": false,
          "internalType": "uint256",
          "name": "amountPaid",
          "type": "uint256"
        },
        {
          "indexed": false,
          "internalType": "uint256",
          "name": "timestamp",
          "type": "uint256"
        }
      ],
      "name": "TokensBought",
      "type": "event"
    },
    {
      "anonymous": false,
      "inputs": [
        {
          "indexed": true,
          "internalType": "address",
          "name": "user",
          "type": "address"
        },
        {
          "indexed": true,
          "internalType": "uint256",
          "name": "id",
          "type": "uint256"
        },
        {
          "indexed": false,
          "internalType": "uint256",
          "name": "amount",
          "type": "uint256"
        },
        {
          "indexed": false,
          "internalType": "uint256",
          "name": "timestamp",
          "type": "uint256"
        }
      ],
      "name": "TokensClaimed",
      "type": "event"
    },
    {
      "anonymous": false,
      "inputs": [
        {
          "indexed": true,
          "internalType": "address",
          "name": "token",
          "type": "address"
        },
        {
          "indexed": false,
          "internalType": "uint256",
          "name": "amount",
          "type": "uint256"
        },
        {
          "indexed": false,
          "internalType": "uint256",
          "name": "timestamp",
          "type": "uint256"
        }
      ],
      "name": "TokensPreFunded",
      "type": "event"
    },
    {
      "anonymous": false,
      "inputs": [
        {
          "indexed": true,
          "internalType": "address",
          "name": "user",
          "type": "address"
        },
        {
          "indexed": false,
          "internalType": "uint256",
          "name": "amount",
          "type": "uint256"
        },
        {
          "indexed": false,
          "internalType": "uint256",
          "name": "stakingTime",
          "type": "uint256"
        },
        {
          "indexed": false,
          "internalType": "uint256",
          "name": "unlockTime",
          "type": "uint256"
        }
      ],
      "name": "TokensStaked",
      "type": "event"
    },
    {
      "inputs": [
        {
          "internalType": "address",
          "name": "_token",
          "type": "address"
        }
      ],
      "name": "ChangeTokenToSell",
      "outputs": [],
      "stateMutability": "nonpayable",
      "type": "function"
    },
    {
      "inputs": [],
      "name": "DAYS_PER_YEAR",
      "outputs": [
        {
          "internalType": "uint256",
          "name": "",
          "type": "uint256"
        }
      ],
      "stateMutability": "view",
      "type": "function"
    },
    {
      "inputs": [],
      "name": "ETH_MULTIPLIER",
      "outputs": [
        {
          "internalType": "uint256",
          "name": "",
          "type": "uint256"
        }
      ],
      "stateMutability": "view",
      "type": "function"
    },
    {
      "inputs": [
        {
          "internalType": "uint256",
          "name": "_amount",
          "type": "uint256"
        }
      ],
      "name": "EditMinTokenToBuy",
      "outputs": [],
      "stateMutability": "nonpayable",
      "type": "function"
    },
    {
      "inputs": [
        {
          "internalType": "address",
          "name": "_user",
          "type": "address"
        },
        {
          "internalType": "bool",
          "name": "_status",
          "type": "bool"
        }
      ],
      "name": "ExcludeAccouctFromMinBuy",
      "outputs": [],
      "stateMutability": "nonpayable",
      "type": "function"
    },
    {
      "inputs": [],
      "name": "MAX_REFERRAL_PERCENTAGE",
      "outputs": [
        {
          "internalType": "uint256",
          "name": "",
          "type": "uint256"
        }
      ],
      "stateMutability": "view",
      "type": "function"
    },
    {
      "inputs": [],
      "name": "MINIMUM_PURCHASE_FOR_REFERRAL",
      "outputs": [
        {
          "internalType": "uint256",
          "name": "",
          "type": "uint256"
        }
      ],
      "stateMutability": "view",
      "type": "function"
    },
    {
      "inputs": [],
      "name": "MinTokenTobuy",
      "outputs": [
        {
          "internalType": "uint256",
          "name": "",
          "type": "uint256"
        }
      ],
      "stateMutability": "view",
      "type": "function"
    },
    {
      "inputs": [],
      "name": "PERCENT_DENOMINATOR",
      "outputs": [
        {
          "internalType": "uint256",
          "name": "",
          "type": "uint256"
        }
      ],
      "stateMutability": "view",
      "type": "function"
    },
    {
      "inputs": [],
      "name": "PRESALE_ALLOCATION_PERCENT",
      "outputs": [
        {
          "internalType": "uint256",
          "name": "",
          "type": "uint256"
        }
      ],
      "stateMutability": "view",
      "type": "function"
    },
    {
      "inputs": [],
      "name": "REFERRAL_ALLOCATION_PERCENT",
      "outputs": [
        {
          "internalType": "uint256",
          "name": "",
          "type": "uint256"
        }
      ],
      "stateMutability": "view",
      "type": "function"
    },
    {
      "inputs": [],
      "name": "REFERRAL_CHANGE_TIMELOCK",
      "outputs": [
        {
          "internalType": "uint256",
          "name": "",
          "type": "uint256"
        }
      ],
      "stateMutability": "view",
      "type": "function"
    },
    {
      "inputs": [],
      "name": "REFERRAL_DENOMINATOR",
      "outputs": [
        {
          "internalType": "uint256",
          "name": "",
          "type": "uint256"
        }
      ],
      "stateMutability": "view",
      "type": "function"
    },
    {
      "inputs": [],
      "name": "SECONDS_PER_DAY",
      "outputs": [
        {
          "internalType": "uint256",
          "name": "",
          "type": "uint256"
        }
      ],
      "stateMutability": "view",
      "type": "function"
    },
    {
      "inputs": [],
      "name": "STAKING_ALLOCATION_PERCENT",
      "outputs": [
        {
          "internalType": "uint256",
          "name": "",
          "type": "uint256"
        }
      ],
      "stateMutability": "view",
      "type": "function"
    },
    {
      "inputs": [],
      "name": "STAKING_APY",
      "outputs": [
        {
          "internalType": "uint256",
          "name": "",
          "type": "uint256"
        }
      ],
      "stateMutability": "view",
      "type": "function"
    },
    {
      "inputs": [],
      "name": "STAKING_LOCK_PERIOD",
      "outputs": [
        {
          "internalType": "uint256",
          "name": "",
          "type": "uint256"
        }
      ],
      "stateMutability": "view",
      "type": "function"
    },
    {
      "inputs": [],
      "name": "SaleToken",
      "outputs": [
        {
          "internalType": "address",
          "name": "",
          "type": "address"
        }
      ],
      "stateMutability": "view",
      "type": "function"
    },
    {
      "inputs": [],
      "name": "TOKEN_DECIMALS",
      "outputs": [
        {
          "internalType": "uint256",
          "name": "",
          "type": "uint256"
        }
      ],
      "stateMutability": "view",
      "type": "function"
    },
    {
      "inputs": [],
      "name": "USDTInterface",
      "outputs": [
        {
          "internalType": "contract IERC20Metadata",
          "name": "",
          "type": "address"
        }
      ],
      "stateMutability": "view",
      "type": "function"
    },
    {
      "inputs": [],
      "name": "USDT_MULTIPLIER",
      "outputs": [
        {
          "internalType": "uint256",
          "name": "",
          "type": "uint256"
        }
      ],
      "stateMutability": "view",
      "type": "function"
    },
    {
      "inputs": [
        {
          "internalType": "uint256",
          "name": "amount",
          "type": "uint256"
        }
      ],
      "name": "WithdrawContractFunds",
      "outputs": [],
      "stateMutability": "nonpayable",
      "type": "function"
    },
    {
      "inputs": [
        {
          "internalType": "address",
          "name": "_token",
          "type": "address"
        },
        {
          "internalType": "uint256",
          "name": "amount",
          "type": "uint256"
        }
      ],
      "name": "WithdrawTokens",
      "outputs": [],
      "stateMutability": "nonpayable",
      "type": "function"
    },
    {
      "inputs": [
        {
          "internalType": "address",
          "name": "referrer",
          "type": "address"
        },
        {
          "internalType": "bool",
          "name": "shouldStake",
          "type": "bool"
        }
      ],
      "name": "buyWithEth",
      "outputs": [
        {
          "internalType": "bool",
          "name": "",
          "type": "bool"
        }
      ],
      "stateMutability": "payable",
      "type": "function"
    },
    {
      "inputs": [
        {
          "internalType": "uint256",
          "name": "usdAmount",
          "type": "uint256"
        },
        {
          "internalType": "address",
          "name": "referrer",
          "type": "address"
        },
        {
          "internalType": "bool",
          "name": "shouldStake",
          "type": "bool"
        }
      ],
      "name": "buyWithUSDT",
      "outputs": [
        {
          "internalType": "bool",
          "name": "",
          "type": "bool"
        }
      ],
      "stateMutability": "nonpayable",
      "type": "function"
    },
    {
      "inputs": [
        {
          "internalType": "address",
          "name": "_user",
          "type": "address"
        }
      ],
      "name": "canReferOthers",
      "outputs": [
        {
          "internalType": "bool",
          "name": "",
          "type": "bool"
        }
      ],
      "stateMutability": "view",
      "type": "function"
    },
    {
      "inputs": [
        {
          "internalType": "address",
          "name": "_wallet",
          "type": "address"
        }
      ],
      "name": "changeFundWallet",
      "outputs": [],
      "stateMutability": "nonpayable",
      "type": "function"
    },
    {
      "inputs": [
        {
          "internalType": "address",
          "name": "_newAddress",
          "type": "address"
        }
      ],
      "name": "changeUSDTToken",
      "outputs": [],
      "stateMutability": "nonpayable",
      "type": "function"
    },
    {
      "inputs": [
        {
          "internalType": "uint256",
          "name": "_id",
          "type": "uint256"
        }
      ],
      "name": "claimAmount",
      "outputs": [
        {
          "internalType": "bool",
          "name": "",
          "type": "bool"
        }
      ],
      "stateMutability": "nonpayable",
      "type": "function"
    },
    {
      "inputs": [
        {
          "internalType": "uint256[]",
          "name": "_id",
          "type": "uint256[]"
        }
      ],
      "name": "claimMultiple",
      "outputs": [
        {
          "internalType": "bool",
          "name": "",
          "type": "bool"
        }
      ],
      "stateMutability": "nonpayable",
      "type": "function"
    },
    {
      "inputs": [],
      "name": "claimReferralRewards",
      "outputs": [
        {
          "internalType": "bool",
          "name": "",
          "type": "bool"
        }
      ],
      "stateMutability": "nonpayable",
      "type": "function"
    },
    {
      "inputs": [
        {
          "internalType": "address",
          "name": "user",
          "type": "address"
        },
        {
          "internalType": "uint256",
          "name": "_id",
          "type": "uint256"
        }
      ],
      "name": "claimableAmount",
      "outputs": [
        {
          "internalType": "uint256",
          "name": "",
          "type": "uint256"
        }
      ],
      "stateMutability": "view",
      "type": "function"
    },
    {
      "inputs": [
        {
          "internalType": "uint256",
          "name": "_price",
          "type": "uint256"
        },
        {
          "internalType": "uint256",
          "name": "_nextStagePrice",
          "type": "uint256"
        },
        {
          "internalType": "uint256",
          "name": "_tokensToSell",
          "type": "uint256"
        },
        {
          "internalType": "uint256",
          "name": "_UsdtHardcap",
          "type": "uint256"
        }
      ],
      "name": "createPresale",
      "outputs": [],
      "stateMutability": "nonpayable",
      "type": "function"
    },
    {
      "inputs": [
        {
          "internalType": "uint256",
          "name": "_id",
          "type": "uint256"
        },
        {
          "internalType": "bool",
          "name": "_status",
          "type": "bool"
        }
      ],
      "name": "enableClaim",
      "outputs": [],
      "stateMutability": "nonpayable",
      "type": "function"
    },
    {
      "inputs": [],
      "name": "endPresale",
      "outputs": [],
      "stateMutability": "nonpayable",
      "type": "function"
    },
    {
      "inputs": [
        {
          "internalType": "uint256",
          "name": "_id",
          "type": "uint256"
        },
        {
          "internalType": "uint256",
          "name": "amount",
          "type": "uint256"
        }
      ],
      "name": "ethBuyHelper",
      "outputs": [
        {
          "internalType": "uint256",
          "name": "ethAmount",
          "type": "uint256"
        }
      ],
      "stateMutability": "view",
      "type": "function"
    },
    {
      "inputs": [
        {
          "internalType": "uint256",
          "name": "_id",
          "type": "uint256"
        },
        {
          "internalType": "uint256",
          "name": "amount",
          "type": "uint256"
        }
      ],
      "name": "ethToTokens",
      "outputs": [
        {
          "internalType": "uint256",
          "name": "_tokens",
          "type": "uint256"
        }
      ],
      "stateMutability": "view",
      "type": "function"
    },
    {
      "inputs": [],
      "name": "fundReceiver",
      "outputs": [
        {
          "internalType": "address",
          "name": "",
          "type": "address"
        }
      ],
      "stateMutability": "view",
      "type": "function"
    },
    {
      "inputs": [
        {
          "internalType": "address",
          "name": "_user",
          "type": "address"
        }
      ],
      "name": "getClaimableReferralRewards",
      "outputs": [
        {
          "internalType": "uint256",
          "name": "",
          "type": "uint256"
        }
      ],
      "stateMutability": "view",
      "type": "function"
    },
    {
      "inputs": [],
      "name": "getLatestPrice",
      "outputs": [
        {
          "internalType": "uint256",
          "name": "",
          "type": "uint256"
        }
      ],
      "stateMutability": "view",
      "type": "function"
    },
    {
      "inputs": [],
      "name": "getReferralProgramStats",
      "outputs": [
        {
          "internalType": "uint256",
          "name": "currentPercentage",
          "type": "uint256"
        },
        {
          "internalType": "uint256",
          "name": "totalRewardsIssued",
          "type": "uint256"
        },
        {
          "internalType": "uint256",
          "name": "maxRewards",
          "type": "uint256"
        },
        {
          "internalType": "uint256",
          "name": "remainingRewards",
          "type": "uint256"
        },
        {
          "internalType": "uint256",
          "name": "nextPercentageChangeAllowed",
          "type": "uint256"
        }
      ],
      "stateMutability": "view",
      "type": "function"
    },
    {
      "inputs": [],
      "name": "getStakingAvailability",
      "outputs": [
        {
          "internalType": "bool",
          "name": "_canStake",
          "type": "bool"
        },
        {
          "internalType": "uint256",
          "name": "_remainingCapacity",
          "type": "uint256"
        },
        {
          "internalType": "uint256",
          "name": "_percentFilled",
          "type": "uint256"
        }
      ],
      "stateMutability": "view",
      "type": "function"
    },
    {
      "inputs": [],
      "name": "getStakingStats",
      "outputs": [
        {
          "internalType": "uint256",
          "name": "_totalStaked",
          "type": "uint256"
        },
        {
          "internalType": "uint256",
          "name": "_stakingCap",
          "type": "uint256"
        },
        {
          "internalType": "uint256",
          "name": "_stakingAPY",
          "type": "uint256"
        },
        {
          "internalType": "bool",
          "name": "_isActive",
          "type": "bool"
        },
        {
          "internalType": "uint256",
          "name": "_maxRewards",
          "type": "uint256"
        },
        {
          "internalType": "uint256",
          "name": "_totalRewardsCommitted",
          "type": "uint256"
        },
        {
          "internalType": "uint256",
          "name": "_remainingRewards",
          "type": "uint256"
        }
      ],
      "stateMutability": "view",
      "type": "function"
    },
    {
      "inputs": [
        {
          "internalType": "address",
          "name": "_user",
          "type": "address"
        }
      ],
      "name": "getUserReferralInfo",
      "outputs": [
        {
          "internalType": "address",
          "name": "referrer",
          "type": "address"
        },
        {
          "internalType": "uint256",
          "name": "totalRewards",
          "type": "uint256"
        },
        {
          "internalType": "uint256",
          "name": "claimedRewards",
          "type": "uint256"
        },
        {
          "internalType": "uint256",
          "name": "pendingRewards",
          "type": "uint256"
        },
        {
          "internalType": "bool",
          "name": "isQualifiedReferrer",
          "type": "bool"
        },
        {
          "internalType": "uint256",
          "name": "referralCount",
          "type": "uint256"
        }
      ],
      "stateMutability": "view",
      "type": "function"
    },
    {
      "inputs": [
        {
          "internalType": "address",
          "name": "_user",
          "type": "address"
        }
      ],
      "name": "getUserStakingInfo",
      "outputs": [
        {
          "internalType": "uint256",
          "name": "stakedAmount",
          "type": "uint256"
        },
        {
          "internalType": "uint256",
          "name": "stakingTime",
          "type": "uint256"
        },
        {
          "internalType": "uint256",
          "name": "unlockTime",
          "type": "uint256"
        },
        {
          "internalType": "bool",
          "name": "isLocked",
          "type": "bool"
        },
        {
          "internalType": "bool",
          "name": "hasWithdrawn",
          "type": "bool"
        },
        {
          "internalType": "uint256",
          "name": "potentialReward",
          "type": "uint256"
        },
        {
          "internalType": "uint256",
          "name": "totalClaimable",
          "type": "uint256"
        }
      ],
      "stateMutability": "view",
      "type": "function"
    },
    {
      "inputs": [
        {
          "internalType": "address",
          "name": "",
          "type": "address"
        }
      ],
      "name": "hasQualifiedPurchase",
      "outputs": [
        {
          "internalType": "bool",
          "name": "",
          "type": "bool"
        }
      ],
      "stateMutability": "view",
      "type": "function"
    },
    {
      "inputs": [
        {
          "internalType": "address",
          "name": "",
          "type": "address"
        }
      ],
      "name": "hasUsedReferral",
      "outputs": [
        {
          "internalType": "bool",
          "name": "",
          "type": "bool"
        }
      ],
      "stateMutability": "view",
      "type": "function"
    },
    {
      "inputs": [
        {
          "internalType": "uint256",
          "name": "_totalSupply",
          "type": "uint256"
        }
      ],
      "name": "initializeStaking",
      "outputs": [],
      "stateMutability": "nonpayable",
      "type": "function"
    },
    {
      "inputs": [
        {
          "internalType": "address",
          "name": "",
          "type": "address"
        }
      ],
      "name": "isExcludeMinToken",
      "outputs": [
        {
          "internalType": "bool",
          "name": "",
          "type": "bool"
        }
      ],
      "stateMutability": "view",
      "type": "function"
    },
    {
      "inputs": [],
      "name": "isTokenPreFunded",
      "outputs": [
        {
          "internalType": "bool",
          "name": "",
          "type": "bool"
        }
      ],
      "stateMutability": "view",
      "type": "function"
    },
    {
      "inputs": [],
      "name": "maxReferralRewards",
      "outputs": [
        {
          "internalType": "uint256",
          "name": "",
          "type": "uint256"
        }
      ],
      "stateMutability": "view",
      "type": "function"
    },
    {
      "inputs": [],
      "name": "maxStakingRewards",
      "outputs": [
        {
          "internalType": "uint256",
          "name": "",
          "type": "uint256"
        }
      ],
      "stateMutability": "view",
      "type": "function"
    },
    {
      "inputs": [],
      "name": "owner",
      "outputs": [
        {
          "internalType": "address",
          "name": "",
          "type": "address"
        }
      ],
      "stateMutability": "view",
      "type": "function"
    },
    {
      "inputs": [
        {
          "internalType": "uint256",
          "name": "_id",
          "type": "uint256"
        }
      ],
      "name": "pausePresale",
      "outputs": [],
      "stateMutability": "nonpayable",
      "type": "function"
    },
    {
      "inputs": [
        {
          "internalType": "uint256",
          "name": "",
          "type": "uint256"
        }
      ],
      "name": "paused",
      "outputs": [
        {
          "internalType": "bool",
          "name": "",
          "type": "bool"
        }
      ],
      "stateMutability": "view",
      "type": "function"
    },
    {
      "inputs": [],
      "name": "preFundContract",
      "outputs": [],
      "stateMutability": "nonpayable",
      "type": "function"
    },
    {
      "inputs": [
        {
          "internalType": "uint256",
          "name": "",
          "type": "uint256"
        }
      ],
      "name": "presale",
      "outputs": [
        {
          "internalType": "uint256",
          "name": "startTime",
          "type": "uint256"
        },
        {
          "internalType": "uint256",
          "name": "endTime",
          "type": "uint256"
        },
        {
          "internalType": "uint256",
          "name": "price",
          "type": "uint256"
        },
        {
          "internalType": "uint256",
          "name": "nextStagePrice",
          "type": "uint256"
        },
        {
          "internalType": "uint256",
          "name": "Sold",
          "type": "uint256"
        },
        {
          "internalType": "uint256",
          "name": "tokensToSell",
          "type": "uint256"
        },
        {
          "internalType": "uint256",
          "name": "UsdtHardcap",
          "type": "uint256"
        },
        {
          "internalType": "uint256",
          "name": "amountRaised",
          "type": "uint256"
        },
        {
          "internalType": "bool",
          "name": "Active",
          "type": "bool"
        },
        {
          "internalType": "bool",
          "name": "isEnableClaim",
          "type": "bool"
        }
      ],
      "stateMutability": "view",
      "type": "function"
    },
    {
      "inputs": [],
      "name": "presaleId",
      "outputs": [
        {
          "internalType": "uint256",
          "name": "",
          "type": "uint256"
        }
      ],
      "stateMutability": "view",
      "type": "function"
    },
    {
      "inputs": [],
      "name": "presaleTokens",
      "outputs": [
        {
          "internalType": "uint256",
          "name": "",
          "type": "uint256"
        }
      ],
      "stateMutability": "view",
      "type": "function"
    },
    {
      "inputs": [
        {
          "internalType": "address",
          "name": "",
          "type": "address"
        }
      ],
      "name": "referralData",
      "outputs": [
        {
          "internalType": "address",
          "name": "referrer",
          "type": "address"
        },
        {
          "internalType": "uint256",
          "name": "totalReferralRewards",
          "type": "uint256"
        },
        {
          "internalType": "uint256",
          "name": "claimedReferralRewards",
          "type": "uint256"
        },
        {
          "internalType": "bool",
          "name": "hasReferred",
          "type": "bool"
        },
        {
          "internalType": "uint256",
          "name": "referralCount",
          "type": "uint256"
        }
      ],
      "stateMutability": "view",
      "type": "function"
    },
    {
      "inputs": [],
      "name": "referralPercentageChangeTimeLock",
      "outputs": [
        {
          "internalType": "uint256",
          "name": "",
          "type": "uint256"
        }
      ],
      "stateMutability": "view",
      "type": "function"
    },
    {
      "inputs": [],
      "name": "referralRewardPercentage",
      "outputs": [
        {
          "internalType": "uint256",
          "name": "",
          "type": "uint256"
        }
      ],
      "stateMutability": "view",
      "type": "function"
    },
    {
      "inputs": [],
      "name": "renounceOwnership",
      "outputs": [],
      "stateMutability": "nonpayable",
      "type": "function"
    },
    {
      "inputs": [
        {
          "internalType": "address",
          "name": "_token",
          "type": "address"
        },
        {
          "internalType": "uint256",
          "name": "_amount",
          "type": "uint256"
        },
        {
          "internalType": "address",
          "name": "_recipient",
          "type": "address"
        }
      ],
      "name": "safeWithdraw",
      "outputs": [],
      "stateMutability": "nonpayable",
      "type": "function"
    },
    {
      "inputs": [],
      "name": "saleToken",
      "outputs": [
        {
          "internalType": "address",
          "name": "",
          "type": "address"
        }
      ],
      "stateMutability": "view",
      "type": "function"
    },
    {
      "inputs": [
        {
          "internalType": "bool",
          "name": "_status",
          "type": "bool"
        }
      ],
      "name": "setStakingStatus",
      "outputs": [],
      "stateMutability": "nonpayable",
      "type": "function"
    },
    {
      "inputs": [
        {
          "internalType": "uint256",
          "name": "_amount",
          "type": "uint256"
        }
      ],
      "name": "stakeTokens",
      "outputs": [],
      "stateMutability": "nonpayable",
      "type": "function"
    },
    {
      "inputs": [],
      "name": "stakingActive",
      "outputs": [
        {
          "internalType": "bool",
          "name": "",
          "type": "bool"
        }
      ],
      "stateMutability": "view",
      "type": "function"
    },
    {
      "inputs": [],
      "name": "stakingCap",
      "outputs": [
        {
          "internalType": "uint256",
          "name": "",
          "type": "uint256"
        }
      ],
      "stateMutability": "view",
      "type": "function"
    },
    {
      "inputs": [],
      "name": "startPresale",
      "outputs": [],
      "stateMutability": "nonpayable",
      "type": "function"
    },
    {
      "inputs": [],
      "name": "totalReferralRewardsIssued",
      "outputs": [
        {
          "internalType": "uint256",
          "name": "",
          "type": "uint256"
        }
      ],
      "stateMutability": "view",
      "type": "function"
    },
    {
      "inputs": [],
      "name": "totalStaked",
      "outputs": [
        {
          "internalType": "uint256",
          "name": "",
          "type": "uint256"
        }
      ],
      "stateMutability": "view",
      "type": "function"
    },
    {
      "inputs": [],
      "name": "totalStakingRewardsIssued",
      "outputs": [
        {
          "internalType": "uint256",
          "name": "",
          "type": "uint256"
        }
      ],
      "stateMutability": "view",
      "type": "function"
    },
    {
      "inputs": [],
      "name": "totalTokenSupply",
      "outputs": [
        {
          "internalType": "uint256",
          "name": "",
          "type": "uint256"
        }
      ],
      "stateMutability": "view",
      "type": "function"
    },
    {
      "inputs": [
        {
          "internalType": "address",
          "name": "newOwner",
          "type": "address"
        }
      ],
      "name": "transferOwnership",
      "outputs": [],
      "stateMutability": "nonpayable",
      "type": "function"
    },
    {
      "inputs": [
        {
          "internalType": "uint256",
          "name": "_id",
          "type": "uint256"
        }
      ],
      "name": "unPausePresale",
      "outputs": [],
      "stateMutability": "nonpayable",
      "type": "function"
    },
    {
      "inputs": [
        {
          "internalType": "uint256",
          "name": "_id",
          "type": "uint256"
        }
      ],
      "name": "unlockToken",
      "outputs": [],
      "stateMutability": "view",
      "type": "function"
    },
    {
      "inputs": [
        {
          "internalType": "uint256",
          "name": "_totalSupply",
          "type": "uint256"
        }
      ],
      "name": "updateMaxReferralRewards",
      "outputs": [],
      "stateMutability": "nonpayable",
      "type": "function"
    },
    {
      "inputs": [
        {
          "internalType": "uint256",
          "name": "_id",
          "type": "uint256"
        },
        {
          "internalType": "uint256",
          "name": "_price",
          "type": "uint256"
        },
        {
          "internalType": "uint256",
          "name": "_nextStagePrice",
          "type": "uint256"
        },
        {
          "internalType": "uint256",
          "name": "_tokensToSell",
          "type": "uint256"
        },
        {
          "internalType": "uint256",
          "name": "_Hardcap",
          "type": "uint256"
        }
      ],
      "name": "updatePresale",
      "outputs": [],
      "stateMutability": "nonpayable",
      "type": "function"
    },
    {
      "inputs": [
        {
          "internalType": "uint256",
          "name": "_percentage",
          "type": "uint256"
        }
      ],
      "name": "updateReferralRewardPercentage",
      "outputs": [],
      "stateMutability": "nonpayable",
      "type": "function"
    },
    {
      "inputs": [
        {
          "internalType": "uint256",
          "name": "_newCap",
          "type": "uint256"
        }
      ],
      "name": "updateStakingCap",
      "outputs": [],
      "stateMutability": "nonpayable",
      "type": "function"
    },
    {
      "inputs": [
        {
          "internalType": "uint256",
          "name": "_id",
          "type": "uint256"
        },
        {
          "internalType": "uint256",
          "name": "amount",
          "type": "uint256"
        }
      ],
      "name": "usdtBuyHelper",
      "outputs": [
        {
          "internalType": "uint256",
          "name": "usdPrice",
          "type": "uint256"
        }
      ],
      "stateMutability": "view",
      "type": "function"
    },
    {
      "inputs": [
        {
          "internalType": "uint256",
          "name": "_id",
          "type": "uint256"
        },
        {
          "internalType": "uint256",
          "name": "amount",
          "type": "uint256"
        }
      ],
      "name": "usdtToTokens",
      "outputs": [
        {
          "internalType": "uint256",
          "name": "_tokens",
          "type": "uint256"
        }
      ],
      "stateMutability": "view",
      "type": "function"
    },
    {
      "inputs": [
        {
          "internalType": "address",
          "name": "",
          "type": "address"
        },
        {
          "internalType": "uint256",
          "name": "",
          "type": "uint256"
        }
      ],
      "name": "userClaimData",
      "outputs": [
        {
          "internalType": "uint256",
          "name": "claimAt",
          "type": "uint256"
        },
        {
          "internalType": "uint256",
          "name": "totalAmount",
          "type": "uint256"
        },
        {
          "internalType": "uint256",
          "name": "claimedAmount",
          "type": "uint256"
        }
      ],
      "stateMutability": "view",
      "type": "function"
    },
    {
      "inputs": [
        {
          "internalType": "address",
          "name": "",
          "type": "address"
        }
      ],
      "name": "userStakes",
      "outputs": [
        {
          "internalType": "uint256",
          "name": "stakedAmount",
          "type": "uint256"
        },
        {
          "internalType": "uint256",
          "name": "stakingTimestamp",
          "type": "uint256"
        },
        {
          "internalType": "uint256",
          "name": "unlockTimestamp",
          "type": "uint256"
        },
        {
          "internalType": "bool",
          "name": "hasWithdrawn",
          "type": "bool"
        }
      ],
      "stateMutability": "view",
      "type": "function"
    },
    {
      "inputs": [
        {
          "internalType": "address",
          "name": "",
          "type": "address"
        }
      ],
      "name": "userStakingIntent",
      "outputs": [
        {
          "internalType": "bool",
          "name": "",
          "type": "bool"
        }
      ],
      "stateMutability": "view",
      "type": "function"
    },
    {
      "inputs": [],
      "name": "withdrawStake",
      "outputs": [],
      "stateMutability": "nonpayable",
      "type": "function"
    }
  ],
  "transactionHash": "0x566dafe87c1c551259a55cd9427917bdd78fb2c325976fc98d9d1ea7b0ef3595",
  "args": [
    "0x694AA1769357215DE4FAC081bf1f309aDC325306",
    "0x3454C6F3005437D97A77686F6F28cc61E2330Be0",
    "0xA6C00bB82637BE2711c2536aE5f8642Fd6B472b7",
    "1000000000000000000000",
    "100000000000000000000000000000"
  ],
  "numDeployments": 1,
  "solcInputHash": "60df89535c020effbba0975f3929f930",
  "bytecode": "0x60a06040526014600a556019805460ff191690553480156200002057600080fd5b50604051620064213803806200642183398101604081905262000043916200045c565b6001600055828186868386846200005a33620003c8565b6001600160a01b038516620000b65760405162461bcd60e51b815260206004820152601d60248201527f4f7261636c6520616464726573732063616e6e6f74206265207a65726f00000060448201526064015b60405180910390fd5b6001600160a01b0384166200010e5760405162461bcd60e51b815260206004820152601b60248201527f5553445420616464726573732063616e6e6f74206265207a65726f00000000006044820152606401620000ad565b6001600160a01b0383166200015f5760405162461bcd60e51b81526020600482015260216024820152600080516020620064018339815191526044820152606f60f81b6064820152608401620000ad565b60008211620001c85760405162461bcd60e51b815260206004820152602e60248201527f4d696e696d756d20746f6b656e20746f20627579206d7573742062652067726560448201526d61746572207468616e207a65726f60901b6064820152608401620000ad565b60008111620002185760405162461bcd60e51b81526020600482015260266024820152600080516020620063e18339815191526044820152656e207a65726f60d01b6064820152608401620000ad565b600e80546001600160a01b038088166001600160a01b031992831617909255601780548684169083161790556016849055600d805492871692821692909217909155670de0b6b3a7640000600455620f4240600355600580549091163317905560068190556200029760646200029083601e6200041a565b9062000431565b600755620002ad6064620002908360056200041a565b600855620002c36064620002908360146200041a565b6009555050506001600160a01b03841691506200031e90505760405162461bcd60e51b81526020600482015260216024820152600080516020620064018339815191526044820152606f60f81b6064820152608401620000ad565b600081116200036e5760405162461bcd60e51b81526020600482015260266024820152600080516020620063e18339815191526044820152656e207a65726f60d01b6064820152608401620000ad565b6001600160a01b03821660805262000394670de0b6b3a764000064018d5d42ab620004b9565b601b55601c805460ff19166001179055620003b76064620002908360146200041a565b601e55506200050295505050505050565b600180546001600160a01b038381166001600160a01b0319831681179093556040519116919082907f8be0079c531659141344cd1fd0a4f28419497f9722a3daafe3b4186f6b6457e090600090a35050565b6000620004288284620004b9565b90505b92915050565b6000620004288284620004df565b80516001600160a01b03811681146200045757600080fd5b919050565b600080600080600060a086880312156200047557600080fd5b62000480866200043f565b945062000490602087016200043f565b9350620004a0604087016200043f565b6060870151608090970151959894975095949392505050565b80820281158282048414176200042b57634e487b7160e01b600052601160045260246000fd5b600082620004fd57634e487b7160e01b600052601260045260246000fd5b500490565b608051615e8b6200055660003960008181611143015281816135d6015281816137510152818161380d015281816138e1015281816140c4015281816144d1015281816145bc01526151df0152615e8b6000f3fe6080604052600436106105bf5760003560e01c80637c00675d116102f6578063c1dd60841161018f578063d6fd1c52116100e1578063e985e36711610095578063f597573f1161006f578063f597573f146111a5578063fb4aa0a1146111c5578063fe9f676e146111e557600080fd5b8063e985e36714611131578063f2fde38b14611165578063f309fed91461118557600080fd5b8063dd2e0ac0116100c6578063dd2e0ac01461103b578063e18e84f91461105b578063e6ab14341461107157600080fd5b8063d6fd1c5214610fed578063d8ae8c8b1461100257600080fd5b8063cd1704a811610143578063d2f01a9b1161011d578063d2f01a9b14610f7c578063d355271214610f94578063d63b05d114610a9157600080fd5b8063cd1704a814610f1c578063d01608c114610f3c578063d099850a14610f5c57600080fd5b8063c8b8232111610174578063c8b8232114610e22578063c9c6b55614610e5f578063cc9fe9d314610eea57600080fd5b8063c1dd608414610dc2578063c6846ef814610e0c57600080fd5b80639752f3cb11610248578063a6ac4b35116101fc578063b04c7346116101d6578063b04c734614610d2b578063b8bec6a014610d8d578063bed9d86114610dad57600080fd5b8063a6ac4b3514610cdb578063a9c85ced14610cf5578063aef6e26714610d0b57600080fd5b8063a219f3141161022d578063a219f31414610c91578063a33a16d814610cb1578063a43be57b14610cc657600080fd5b80639752f3cb14610c715780639e6c29591461070957600080fd5b80638d79e66d116102aa5780638e15f473116102845780638e15f47314610c265780639051cce914610c3b578063920a253e14610c5b57600080fd5b80638d79e66d14610b8b5780638da5cb5b14610ba15780638da7ad2314610bbf57600080fd5b8063817b1cd2116102db578063817b1cd214610b1d578063833cde5214610b335780638561c31514610b6b57600080fd5b80637c00675d14610a5a5780638093360814610ac657600080fd5b806348ff1a391161046857806368e94be8116103ba578063715018a61161036e5780637547c7a3116103485780637547c7a314610a71578063796b155314610a9157806379b8d93814610aa657600080fd5b8063715018a614610a25578063718a196214610a3a57806374f0314f14610a5a57600080fd5b80636b5526a31161039f5780636b5526a3146109c05780636ca95246146109d55780636fb4adff14610a0557600080fd5b806368e94be81461098b5780636913b162146109ab57600080fd5b80635632bce61161041c578063670988a8116103f6578063670988a81461093c578063680f2e4f14610956578063686edf8b1461097657600080fd5b80635632bce6146108d0578063582b5723146109005780635b7f415c1461092057600080fd5b80634a6413f71161044d5780634a6413f71461087a578063552a2d141461089a578063553ff7f5146108b057600080fd5b806348ff1a391461083a57806349c7e7d21461085a57600080fd5b80631ca8b6cb116105215780632bfcaac2116104d557806344c370d3116104af57806344c370d3146107fb5780634517c8a31461081157806348bf4fcf1461082457600080fd5b80632bfcaac2146107ba5780632e8811a4146107d057806339764363146107e557600080fd5b80632127fe04116105065780632127fe041461076457806323b221a0146107845780632bef560f146107a457600080fd5b80631ca8b6cb1461071e5780631ed0c9541461073457600080fd5b80630a09815c116105785780630fbfcf371161055d5780630fbfcf37146106c95780630fcc4f57146106e95780631577763a1461070957600080fd5b80630a09815c146106855780630ec809a8146106a957600080fd5b806304c98b2b116105a957806304c98b2b1461062b57806305eaab4b1461064057806309b5a33a1461065557600080fd5b8062dde10e146105c457806303fcd9ac14610609575b600080fd5b3480156105d057600080fd5b506105f46105df3660046158fe565b600f6020526000908152604090205460ff1681565b60405190151581526020015b60405180910390f35b34801561061557600080fd5b50610629610624366004615941565b611205565b005b34801561063757600080fd5b50610629611238565b34801561064c57600080fd5b506105f461126b565b34801561066157600080fd5b506105f4610670366004615978565b60156020526000908152604090205460ff1681565b34801561069157600080fd5b5061069b60075481565b604051908152602001610600565b3480156106b557600080fd5b506106296106c4366004615978565b61152b565b3480156106d557600080fd5b506106296106e4366004615993565b611562565b3480156106f557600080fd5b506106296107043660046158fe565b6115e9565b34801561071557600080fd5b5061069b606481565b34801561072a57600080fd5b5061069b60065481565b34801561074057600080fd5b506105f461074f366004615978565b60126020526000908152604090205460ff1681565b34801561077057600080fd5b5061069b61077f3660046159b8565b611693565b34801561079057600080fd5b506105f461079f3660046158fe565b6117bb565b3480156107b057600080fd5b5061069b60085481565b3480156107c657600080fd5b5061069b600b5481565b3480156107dc57600080fd5b5061069b601e81565b3480156107f157600080fd5b5061069b60045481565b34801561080757600080fd5b5061069b601b5481565b6105f461081f366004615941565b611b78565b34801561083057600080fd5b5061069b60035481565b34801561084657600080fd5b506105f46108553660046159da565b6121f1565b34801561086657600080fd5b506106296108753660046158fe565b612a85565b34801561088657600080fd5b506106296108953660046158fe565b612b94565b3480156108a657600080fd5b5061069b600c5481565b3480156108bc57600080fd5b5061069b6108cb366004615978565b612ca8565b3480156108dc57600080fd5b506105f46108eb366004615978565b60146020526000908152604090205460ff1681565b34801561090c57600080fd5b5061062961091b3660046158fe565b612d15565b34801561092c57600080fd5b5061069b670de0b6b3a764000081565b34801561094857600080fd5b506019546105f49060ff1681565b34801561096257600080fd5b50610629610971366004615a1a565b612d36565b34801561098257600080fd5b5061069b600581565b34801561099757600080fd5b506106296109a63660046158fe565b612f43565b3480156109b757600080fd5b50610629612fb1565b3480156109cc57600080fd5b5061069b61319e565b3480156109e157600080fd5b506105f46109f0366004615978565b60186020526000908152604090205460ff1681565b348015610a1157600080fd5b50610629610a20366004615978565b6131ae565b348015610a3157600080fd5b5061062961323b565b348015610a4657600080fd5b5061069b610a553660046159b8565b61324f565b348015610a6657600080fd5b5061069b6201518081565b348015610a7d57600080fd5b50610629610a8c3660046158fe565b61329f565b348015610a9d57600080fd5b5061069b601481565b348015610ab257600080fd5b5061069b610ac1366004615a1a565b613a2a565b348015610ad257600080fd5b50610ae6610ae1366004615978565b613b7c565b6040805197885260208801969096529486019390935290151560608501521515608084015260a083015260c082015260e001610600565b348015610b2957600080fd5b5061069b601a5481565b348015610b3f57600080fd5b50601754610b53906001600160a01b031681565b6040516001600160a01b039091168152602001610600565b348015610b7757600080fd5b50610629610b86366004615978565b613c15565b348015610b9757600080fd5b5061069b60165481565b348015610bad57600080fd5b506001546001600160a01b0316610b53565b348015610bcb57600080fd5b50610c04610bda366004615978565b601f6020526000908152604090208054600182015460028301546003909301549192909160ff1684565b6040805194855260208501939093529183015215156060820152608001610600565b348015610c3257600080fd5b5061069b613ca2565b348015610c4757600080fd5b506105f4610c56366004615a44565b613d39565b348015610c6757600080fd5b5061069b600a5481565b348015610c7d57600080fd5b50610629610c8c366004615ab9565b613e1c565b348015610c9d57600080fd5b50610629610cac3660046158fe565b613f43565b348015610cbd57600080fd5b5061069b613ffa565b348015610cd257600080fd5b50610629614011565b348015610ce757600080fd5b50601c546105f49060ff1681565b348015610d0157600080fd5b5061069b601d5481565b348015610d1757600080fd5b50610629610d26366004615af4565b614064565b348015610d3757600080fd5b50610d72610d46366004615a1a565b601160209081526000928352604080842090915290825290208054600182015460029092015490919083565b60408051938452602084019290925290820152606001610600565b348015610d9957600080fd5b50610629610da8366004615b30565b6142ce565b348015610db957600080fd5b5061062961431c565b348015610dce57600080fd5b50610dd76146ce565b604080519788526020880196909652948601939093529015156060850152608084015260a083015260c082015260e001610600565b348015610e1857600080fd5b5061069b61016d81565b348015610e2e57600080fd5b50610e37614724565b604080519586526020860194909452928401919091526060830152608082015260a001610600565b348015610e6b57600080fd5b50610eb6610e7a366004615978565b601360205260009081526040902080546001820154600283015460038401546004909401546001600160a01b03909316939192909160ff169085565b604080516001600160a01b03909616865260208601949094529284019190915215156060830152608082015260a001610600565b348015610ef657600080fd5b50610eff614760565b604080519315158452602084019290925290820152606001610600565b348015610f2857600080fd5b50610629610f373660046158fe565b6147d0565b348015610f4857600080fd5b50610629610f573660046158fe565b6147dd565b348015610f6857600080fd5b50610629610f77366004615b4d565b6148e1565b348015610f8857600080fd5b5061069b6301e1338081565b348015610fa057600080fd5b50610fb4610faf366004615978565b614b20565b604080516001600160a01b03909716875260208701959095529385019290925260608401521515608083015260a082015260c001610600565b348015610ff957600080fd5b5061069b60c881565b34801561100e57600080fd5b506105f461101d366004615978565b6001600160a01b031660009081526014602052604090205460ff1690565b34801561104757600080fd5b506106296110563660046158fe565b614bcf565b34801561106757600080fd5b5061069b60025481565b34801561107d57600080fd5b506110e361108c3660046158fe565b60106020526000908152604090208054600182015460028301546003840154600485015460058601546006870154600788015460089098015496979596949593949293919290919060ff808216916101009004168a565b604080519a8b5260208b0199909952978901969096526060880194909452608087019290925260a086015260c085015260e08401521515610100830152151561012082015261014001610600565b34801561113d57600080fd5b50610b537f000000000000000000000000000000000000000000000000000000000000000081565b34801561117157600080fd5b50610629611180366004615978565b614c90565b34801561119157600080fd5b5061069b6111a03660046159b8565b614d1d565b3480156111b157600080fd5b50600d54610b53906001600160a01b031681565b3480156111d157600080fd5b50600554610b53906001600160a01b031681565b3480156111f157600080fd5b5061069b6112003660046159b8565b614d9c565b61120d614e90565b6001600160a01b03919091166000908152601260205260409020805460ff1916911515919091179055565b611240614e90565b600280546000908152601060205260408082204290559154815220600801805460ff19166001179055565b60006002600054036112c45760405162461bcd60e51b815260206004820152601f60248201527f5265656e7472616e637947756172643a207265656e7472616e742063616c6c0060448201526064015b60405180910390fd5b600260009081556112d433612ca8565b9050600081116113265760405162461bcd60e51b815260206004820152601360248201527f4e6f207265776172647320746f20636c61696d0000000000000000000000000060448201526064016112bb565b6017546040516370a0823160e01b81523060048201526001600160a01b03909116906370a0823190602401602060405180830381865afa15801561136e573d6000803e3d6000fd5b505050506040513d601f19601f820116820180604052508101906113929190615b7f565b8111156113eb5760405162461bcd60e51b815260206004820152602160248201527f4e6f7420656e6f75676820746f6b656e7320696e2074686520636f6e747261636044820152601d60fa1b60648201526084016112bb565b336000908152601360205260409020600201546114089082614eea565b3360008181526013602052604080822060020193909355601754925163a9059cbb60e01b8152600481019290925260248201849052916001600160a01b03169063a9059cbb906044016020604051808303816000875af1158015611470573d6000803e3d6000fd5b505050506040513d601f19601f820116820180604052508101906114949190615b98565b9050806114e35760405162461bcd60e51b815260206004820152601560248201527f546f6b656e207472616e73666572206661696c6564000000000000000000000060448201526064016112bb565b6040805183815242602082015233917fea940d727b98f74071145844b731b12fccfc03b1e58a738235234c176a43e299910160405180910390a2600192505050600160005590565b611533614e90565b6017805473ffffffffffffffffffffffffffffffffffffffff19166001600160a01b0392909216919091179055565b8160008111801561157557506002548111155b6115b65760405162461bcd60e51b8152602060048201526012602482015271125b9d985b1a59081c1c995cd85b19481a5960721b60448201526064016112bb565b6115be614e90565b5060009182526010602052604090912060080180549115156101000261ff0019909216919091179055565b6115f1614e90565b601a548110156116435760405162461bcd60e51b815260206004820152601f60248201527f4e657720636170206d757374206265203e3d20746f74616c207374616b65640060448201526064016112bb565b601b805490829055604080518281526020810184905242918101919091527f69184c671db9747cef69bb2ee0e6ce0dfeec4b4562bf75185241b8927ab000f3906060015b60405180910390a15050565b6000826000811180156116a857506002548111155b6116e95760405162461bcd60e51b8152602060048201526012602482015271125b9d985b1a59081c1c995cd85b19481a5960721b60448201526064016112bb565b6000848152601060205260408120600201546117059085615bcb565b9050601760009054906101000a90046001600160a01b03166001600160a01b031663313ce5676040518163ffffffff1660e01b8152600401602060405180830381865afa15801561175a573d6000803e3d6000fd5b505050506040513d601f19601f8201168201806040525081019061177e9190615be2565b61178990600a615ce9565b611791613ca2565b61179b9190615bcb565b6004546117a89083615bcb565b6117b29190615cf8565b95945050505050565b6000816000811180156117d057506002548111155b6118115760405162461bcd60e51b8152602060048201526012602482015271125b9d985b1a59081c1c995cd85b19481a5960721b60448201526064016112bb565b600061181d3385613a2a565b90506000811161186f5760405162461bcd60e51b815260206004820152601160248201527f5a65726f20636c61696d20616d6f756e7400000000000000000000000000000060448201526064016112bb565b6017546001600160a01b03166118c75760405162461bcd60e51b815260206004820152601d60248201527f50726573616c6520746f6b656e2061646472657373206e6f742073657400000060448201526064016112bb565b6017546040516370a0823160e01b81523060048201526001600160a01b03909116906370a0823190602401602060405180830381865afa15801561190f573d6000803e3d6000fd5b505050506040513d601f19601f820116820180604052508101906119339190615b7f565b81111561198c5760405162461bcd60e51b815260206004820152602160248201527f4e6f7420656e6f75676820746f6b656e7320696e2074686520636f6e747261636044820152601d60fa1b60648201526084016112bb565b60008481526010602052604090206008015460ff6101009091041615156001146119f85760405162461bcd60e51b815260206004820152601360248201527f436c61696d206973206e6f7420656e61626c650000000000000000000000000060448201526064016112bb565b33600090815260116020908152604080832087845290915281204281556002018054839290611a28908490615d1a565b90915550503360009081526018602052604090205460ff1615611a6b57611a4f3382614ef6565b336000908152601860205260409020805460ff19169055611b32565b60175460405163a9059cbb60e01b8152336004820152602481018390526000916001600160a01b03169063a9059cbb906044016020604051808303816000875af1158015611abd573d6000803e3d6000fd5b505050506040513d601f19601f82011682018060405250810190611ae19190615b98565b905080611b305760405162461bcd60e51b815260206004820152601560248201527f546f6b656e207472616e73666572206661696c6564000000000000000000000060448201526064016112bb565b505b60408051828152426020820152859133917fe49649ad7d04a14b0d2a43dae89f207c0822143ff6f88a6480e88907e4e5c548910160405180910390a35060019392505050565b6000600254600081118015611b8f57506002548111155b611bd05760405162461bcd60e51b8152602060048201526012602482015271125b9d985b1a59081c1c995cd85b19481a5960721b60448201526064016112bb565b600254611bdd813461324f565b6000828152601060205260409020544210801590611c11575060008281526010602052604090206008015460ff1615156001145b611c5d5760405162461bcd60e51b815260206004820152601760248201527f496e76616c69642074696d6520666f7220627579696e6700000000000000000060448201526064016112bb565b600081118015611c8f575060008281526010602052604090206004810154600590910154611c8b9190615d2d565b8111155b611cdb5760405162461bcd60e51b815260206004820152601360248201527f496e76616c69642073616c6520616d6f756e740000000000000000000000000060448201526064016112bb565b600260005403611d2d5760405162461bcd60e51b815260206004820152601f60248201527f5265656e7472616e637947756172643a207265656e7472616e742063616c6c0060448201526064016112bb565b600260005560195460ff16611daa5760405162461bcd60e51b815260206004820152602360248201527f436f6e7472616374206e6f74207072652d66756e646564207769746820746f6b60448201527f656e73000000000000000000000000000000000000000000000000000000000060648201526084016112bb565b600454600090611dba9080615bcb565b600354611dc5613ca2565b611dcf9034615bcb565b611dd99190615bcb565b611de39190615cf8565b6002546000908152601060205260409020600681015460079091015491925090611e0e908390615d1a565b1115611e825760405162461bcd60e51b815260206004820152602660248201527f416d6f756e742073686f756c64206265206c657373207468616e206c6566744860448201527f617264636170000000000000000000000000000000000000000000000000000060648201526084016112bb565b6002546000908152600f602052604090205460ff1615611ee45760405162461bcd60e51b815260206004820152600e60248201527f50726573616c652070617573656400000000000000000000000000000000000060448201526064016112bb565b60025460009081526010602052604090206008015460ff161515600114611f4d5760405162461bcd60e51b815260206004820152601960248201527f50726573616c65206973206e6f7420616374697665207965740000000000000060448201526064016112bb565b6001600160a01b03871615611fba57863b63ffffffff1615611fb15760405162461bcd60e51b815260206004820152601d60248201527f52656665727265722063616e6e6f74206265206120636f6e747261637400000060448201526064016112bb565b611fba876153a9565b6000611fc860025483614d1d565b3360009081526012602052604081205491925060ff9091161515900361203a5760165481101561203a5760405162461bcd60e51b815260206004820152601460248201527f496e73756666696369656e7420616d6f756e742100000000000000000000000060448201526064016112bb565b6002546000908152601060205260408120600401805483929061205e908490615d1a565b909155505060025460009081526010602052604081206007018054849290612087908490615d1a565b90915550506001600160a01b038816156120a5576120a533826155df565b86156120ba576120b53382614ef6565b612180565b3360009081526011602090815260408083206002548452909152902060010154156121195733600090815260116020908152604080832060025484529091528120600101805483929061210e908490615d1a565b909155506121809050565b6040518060600160405280600081526020018281526020016000815250601160006121413390565b6001600160a01b031681526020808201929092526040908101600090812060028054835290845290829020845181559284015160018401559201519101555b600554612196906001600160a01b031634615788565b60025460408051838152346020820152428183015290516000929133917f4d8aead3491b7eba4b5c7a65fc17e493b9e63f9e433522fc5f6a85a168fc9d369181900360600190a4600195505050505060016000555092915050565b600060025460008111801561220857506002548111155b6122495760405162461bcd60e51b8152602060048201526012602482015271125b9d985b1a59081c1c995cd85b19481a5960721b60448201526064016112bb565b6002546122568187614d1d565b600082815260106020526040902054421080159061228a575060008281526010602052604090206008015460ff1615156001145b6122d65760405162461bcd60e51b815260206004820152601760248201527f496e76616c69642074696d6520666f7220627579696e6700000000000000000060448201526064016112bb565b6000811180156123085750600082815260106020526040902060048101546005909101546123049190615d2d565b8111155b6123545760405162461bcd60e51b815260206004820152601360248201527f496e76616c69642073616c6520616d6f756e740000000000000000000000000060448201526064016112bb565b6002600054036123a65760405162461bcd60e51b815260206004820152601f60248201527f5265656e7472616e637947756172643a207265656e7472616e742063616c6c0060448201526064016112bb565b600260005560195460ff166124235760405162461bcd60e51b815260206004820152602360248201527f436f6e7472616374206e6f74207072652d66756e646564207769746820746f6b60448201527f656e73000000000000000000000000000000000000000000000000000000000060648201526084016112bb565b6002546000908152600f602052604090205460ff16156124855760405162461bcd60e51b815260206004820152600e60248201527f50726573616c652070617573656400000000000000000000000000000000000060448201526064016112bb565b60025460009081526010602052604090206008015460ff1615156001146124ee5760405162461bcd60e51b815260206004820152601960248201527f50726573616c65206973206e6f7420616374697665207965740000000000000060448201526064016112bb565b60025460009081526010602052604090206006810154600790910154612515908990615d1a565b11156125895760405162461bcd60e51b815260206004820152602660248201527f416d6f756e742073686f756c64206265206c657373207468616e206c6566744860448201527f617264636170000000000000000000000000000000000000000000000000000060648201526084016112bb565b6001600160a01b038616156125f657853b63ffffffff16156125ed5760405162461bcd60e51b815260206004820152601d60248201527f52656665727265722063616e6e6f74206265206120636f6e747261637400000060448201526064016112bb565b6125f6866153a9565b600061260460025489614d1d565b905080601060006002548152602001908152602001600020600401600082825461262e9190615d1a565b9091555050600254600090815260106020526040812060070180548a9290612657908490615d1a565b90915550503360009081526012602052604081205460ff16151590036126c9576016548110156126c95760405162461bcd60e51b815260206004820152601460248201527f4c657373207468616e206d696e20616d6f756e7400000000000000000000000060448201526064016112bb565b600d546000906001600160a01b031663dd62ed3e336040517fffffffff0000000000000000000000000000000000000000000000000000000060e084901b1681526001600160a01b039091166004820152306024820152604401602060405180830381865afa158015612740573d6000803e3d6000fd5b505050506040513d601f19601f820116820180604052508101906127649190615b7f565b9050808911156127dc5760405162461bcd60e51b815260206004820152602160248201527f4d616b65207375726520746f2061646420656e6f75676820616c6c6f77616e6360448201527f650000000000000000000000000000000000000000000000000000000000000060648201526084016112bb565b600d546000906001600160a01b0316336005546040516001600160a01b03928316602482015291166044820152606481018c9052608401604080517fffffffffffffffffffffffffffffffffffffffffffffffffffffffffffffffe08184030181529181526020820180517bffffffffffffffffffffffffffffffffffffffffffffffffffffffff167f23b872dd00000000000000000000000000000000000000000000000000000000179052516128949190615d40565b6000604051808303816000865af19150503d80600081146128d1576040519150601f19603f3d011682016040523d82523d6000602084013e6128d6565b606091505b50509050806129275760405162461bcd60e51b815260206004820152601460248201527f546f6b656e207061796d656e74206661696c656400000000000000000000000060448201526064016112bb565b6001600160a01b038916156129405761294033846155df565b8715612955576129503384614ef6565b612a1b565b3360009081526011602090815260408083206002548452909152902060010154156129b4573360009081526011602090815260408083206002548452909152812060010180548592906129a9908490615d1a565b90915550612a1b9050565b6040518060600160405280600081526020018481526020016000815250601160006129dc3390565b6001600160a01b031681526020808201929092526040908101600090812060028054835290845290829020845181559284015160018401559201519101555b600d5460025460408051868152602081018e9052428183015290516001600160a01b039093169233917f4d8aead3491b7eba4b5c7a65fc17e493b9e63f9e433522fc5f6a85a168fc9d36919081900360600190a46001965050505050506001600055509392505050565b612a8d614e90565b600081118015612a9e575060148111155b612aea5760405162461bcd60e51b815260206004820152601260248201527f496e76616c69642070657263656e74616765000000000000000000000000000060448201526064016112bb565b600c54421015612b3c5760405162461bcd60e51b815260206004820152600f60248201527f54696d656c6f636b20616374697665000000000000000000000000000000000060448201526064016112bb565b612b494262015180614eea565b600c55600a805490829055604080518281526020810184905242918101919091527f05de795d533c83a69716d09a7d87c97b9ace14242301047692a6ccc1b8f3d14c90606001611687565b80600081118015612ba757506002548111155b612be85760405162461bcd60e51b8152602060048201526012602482015271125b9d985b1a59081c1c995cd85b19481a5960721b60448201526064016112bb565b612bf0614e90565b6000828152600f602052604090205460ff1615612c4f5760405162461bcd60e51b815260206004820152600e60248201527f416c72656164792070617573656400000000000000000000000000000000000060448201526064016112bb565b6000828152600f602052604090819020805460ff191660011790555182907f927e6cd2dce24f32508868820cdc35f09d9de0f4b44e945114110125196fba9f90612c9c9042815260200190565b60405180910390a25050565b6001600160a01b038082166000908152601360209081526040808320815160a0810183528154909516855260018101549285018390526002810154918501829052600381015460ff1615156060860152600401546080850152919291612d0e919061587b565b9392505050565b612d1d614e90565b600554612d33906001600160a01b031682615788565b50565b612d3e614e90565b6017546001600160a01b0390811690831603612e76576000612d84612d7b6064612d75612d6c60c883615d1a565b601a5490615887565b90615893565b600b5490614eea565b6040516370a0823160e01b81523060048201529091506000906001600160a01b038516906370a0823190602401602060405180830381865afa158015612dce573d6000803e3d6000fd5b505050506040513d601f19601f82011682018060405250810190612df29190615b7f565b905081612dff828561587b565b1015612e735760405162461bcd60e51b815260206004820152602b60248201527f43616e6e6f7420776974686472617720746f6b656e732072657365727665642060448201527f666f72207265776172647300000000000000000000000000000000000000000060648201526084016112bb565b50505b60055460405163a9059cbb60e01b81526001600160a01b0391821660048201526024810183905260009184169063a9059cbb906044016020604051808303816000875af1158015612ecb573d6000803e3d6000fd5b505050506040513d601f19601f82011682018060405250810190612eef9190615b98565b905080612f3e5760405162461bcd60e51b815260206004820152601560248201527f546f6b656e207472616e73666572206661696c6564000000000000000000000060448201526064016112bb565b505050565b612f4b614e90565b60008111612f9b5760405162461bcd60e51b815260206004820152601460248201527f496e76616c696420746f74616c20737570706c7900000000000000000000000060448201526064016112bb565b612fab6064612d75836005615887565b60085550565b612fb9614e90565b60195460ff161561300c5760405162461bcd60e51b815260206004820152601b60248201527f436f6e747261637420616c7265616479207072652d66756e646564000000000060448201526064016112bb565b6017546001600160a01b03166130645760405162461bcd60e51b815260206004820152601260248201527f53616c6520746f6b656e206e6f7420736574000000000000000000000000000060448201526064016112bb565b6000613089600954613083600854600754614eea90919063ffffffff16565b90614eea565b6017546040516370a0823160e01b81523060048201529192506000916001600160a01b03909116906370a0823190602401602060405180830381865afa1580156130d7573d6000803e3d6000fd5b505050506040513d601f19601f820116820180604052508101906130fb9190615b7f565b90508181101561314d5760405162461bcd60e51b815260206004820152601a60248201527f496e73756666696369656e7420746f6b656e2062616c616e636500000000000060448201526064016112bb565b6019805460ff19166001179055601754604080518381524260208201526001600160a01b03909216917fa87af714d03c932d084d64774397d6d857ba204899b9d02dc2a79c9a5aec207e9101612c9c565b60006131a960095490565b905090565b6131b6614e90565b6001600160a01b03811661320c5760405162461bcd60e51b815260206004820152601260248201527f496e76616c696420706172616d6574657273000000000000000000000000000060448201526064016112bb565b6005805473ffffffffffffffffffffffffffffffffffffffff19166001600160a01b0392909216919091179055565b613243614e90565b61324d600061589f565b565b6000806004546004546132629190615bcb565b60035461326d613ca2565b6132779086615bcb565b6132819190615bcb565b61328b9190615cf8565b90506132978482614d1d565b949350505050565b6002600054036132f15760405162461bcd60e51b815260206004820152601f60248201527f5265656e7472616e637947756172643a207265656e7472616e742063616c6c0060448201526064016112bb565b6002600055601c5460ff166133485760405162461bcd60e51b815260206004820152601560248201527f5374616b696e67206973206e6f7420616374697665000000000000000000000060448201526064016112bb565b600081116133985760405162461bcd60e51b815260206004820152601860248201527f43616e6e6f74207374616b65207a65726f20616d6f756e74000000000000000060448201526064016112bb565b601b54601a546133a89083614eea565b11156133f65760405162461bcd60e51b815260206004820152601d60248201527f5374616b696e672063617020776f756c6420626520657863656564656400000060448201526064016112bb565b60006134086064612d758460c8615887565b905061341261319e565b601d5461341f9083614eea565b11156134935760405162461bcd60e51b815260206004820152602c60248201527f4e6f7420656e6f75676820746f6b656e7320696e20746865207374616b696e6760448201527f2072657761726420706f6f6c000000000000000000000000000000000000000060648201526084016112bb565b601a546134a09083614eea565b601a55601d546134b09082614eea565b601d55601b54601a541061350257601c805460ff1916905560408051600081524260208201527fb7d83b7e094cfcfa7dd295e685a79a100995b6110e9708b6c36d9242b3945450910160405180910390a15b336000908152601f602052604090208054158015906135265750600381015460ff16155b1561370e5780600201544210156135a55760405162461bcd60e51b815260206004820152602960248201527f43616e6e6f742061646420746f206578697374696e67207374616b652077686960448201527f6c65206c6f636b6564000000000000000000000000000000000000000000000060648201526084016112bb565b805460006135b96064612d758460c8615887565b60038401805460ff19166001179055905060006001600160a01b037f00000000000000000000000000000000000000000000000000000000000000001663a9059cbb336136068686614eea565b6040517fffffffff0000000000000000000000000000000000000000000000000000000060e085901b1681526001600160a01b03909216600483015260248201526044016020604051808303816000875af1158015613669573d6000803e3d6000fd5b505050506040513d601f19601f8201168201806040525081019061368d9190615b98565b9050806136dc5760405162461bcd60e51b815260206004820152601560248201527f546f6b656e207472616e73666572206661696c6564000000000000000000000060448201526064016112bb565b85845542600185018190556136f5906301e13380614eea565b600285015550505060038101805460ff19169055613739565b8281554260018201819055613727906301e13380614eea565b600282015560038101805460ff191690555b6040516370a0823160e01b81523060048201526000907f00000000000000000000000000000000000000000000000000000000000000006001600160a01b0316906370a0823190602401602060405180830381865afa1580156137a0573d6000803e3d6000fd5b505050506040513d601f19601f820116820180604052508101906137c49190615b7f565b6040517f23b872dd000000000000000000000000000000000000000000000000000000008152336004820152306024820152604481018690529091506000906001600160a01b037f000000000000000000000000000000000000000000000000000000000000000016906323b872dd906064016020604051808303816000875af1158015613856573d6000803e3d6000fd5b505050506040513d601f19601f8201168201806040525081019061387a9190615b98565b9050806138c95760405162461bcd60e51b815260206004820152601560248201527f546f6b656e207472616e73666572206661696c6564000000000000000000000060448201526064016112bb565b6040516370a0823160e01b81523060048201526000907f00000000000000000000000000000000000000000000000000000000000000006001600160a01b0316906370a0823190602401602060405180830381865afa158015613930573d6000803e3d6000fd5b505050506040513d601f19601f820116820180604052508101906139549190615b7f565b90506139608387614eea565b8110156139d55760405162461bcd60e51b815260206004820152602360248201527f496e636f727265637420616d6f756e74206f6620746f6b656e7320726563656960448201527f766564000000000000000000000000000000000000000000000000000000000060648201526084016112bb565b6002840154604080518881524260208201529081019190915233907f0fc5b1bac0416800b42a669229a346b6e5a15db3896339dbdc5fa376e1e4570a9060600160405180910390a25050600160005550505050565b600081600081118015613a3f57506002548111155b613a805760405162461bcd60e51b8152602060048201526012602482015271125b9d985b1a59081c1c995cd85b19481a5960721b60448201526064016112bb565b6001600160a01b0384166000908152601160209081526040808320868452825291829020825160608101845281548152600182015492810183905260029091015492810192909252613b145760405162461bcd60e51b815260206004820152601060248201527f4e6f7468696e6720746f20636c61696d0000000000000000000000000000000060448201526064016112bb565b600081604001518260200151613b2a9190615d2d565b9050600081116117b25760405162461bcd60e51b815260206004820152600f60248201527f416c726561647920636c61696d6564000000000000000000000000000000000060448201526064016112bb565b6001600160a01b0381166000908152601f60205260408120600281015481548392839283928392839283924291909110908390613bc190606490612d759060c8615887565b83546001850154600286015460038701549394509192909190859060ff168581613bf6578854613bf19088614eea565b613bf9565b60005b9950995099509950995099509950505050919395979092949650565b613c1d614e90565b6001600160a01b038116613c735760405162461bcd60e51b815260206004820152601260248201527f5a65726f20746f6b656e2061646472657373000000000000000000000000000060448201526064016112bb565b600d805473ffffffffffffffffffffffffffffffffffffffff19166001600160a01b0392909216919091179055565b600080600e60009054906101000a90046001600160a01b03166001600160a01b031663feaf968c6040518163ffffffff1660e01b815260040160a060405180830381865afa158015613cf8573d6000803e3d6000fd5b505050506040513d601f19601f82011682018060405250810190613d1c9190615d89565b505050915050806402540be400613d339190615dd9565b92915050565b600081613d885760405162461bcd60e51b815260206004820152600e60248201527f5a65726f204944206c656e67746800000000000000000000000000000000000060448201526064016112bb565b60005b82811015613e1257613db4848483818110613da857613da8615e25565b905060200201356117bb565b613e005760405162461bcd60e51b815260206004820152600c60248201527f436c61696d206661696c6564000000000000000000000000000000000000000060448201526064016112bb565b80613e0a81615e3b565b915050613d8b565b5060019392505050565b84600081118015613e2f57506002548111155b613e705760405162461bcd60e51b8152602060048201526012602482015271125b9d985b1a59081c1c995cd85b19481a5960721b60448201526064016112bb565b613e78614e90565b60008511613ec85760405162461bcd60e51b815260206004820152600a60248201527f5a65726f2070726963650000000000000000000000000000000000000000000060448201526064016112bb565b60008311613f185760405162461bcd60e51b815260206004820152601360248201527f5a65726f20746f6b656e7320746f2073656c6c0000000000000000000000000060448201526064016112bb565b5060009485526010602052604090942060028101939093556003830191909155600582015560060155565b613f4b614e90565b60008111613f9b5760405162461bcd60e51b815260206004820152601460248201527f496e76616c696420746f74616c20737570706c7900000000000000000000000060448201526064016112bb565b613fab6064612d75836014615887565b601e55601c805460ff19166001908117909155604080519182524260208301527fb7d83b7e094cfcfa7dd295e685a79a100995b6110e9708b6c36d9242b394545091015b60405180910390a150565b61400e670de0b6b3a76400006103e8615bcb565b81565b614019614e90565b6002546000908152601060205260409020600801805460ff1916600117905560028054600090815260106020526040808220426001909101559154815220600801805460ff19169055565b61406c614e90565b6001600160a01b0381166140c25760405162461bcd60e51b815260206004820152601f60248201527f43616e6e6f7420776974686472617720746f207a65726f20616464726573730060448201526064016112bb565b7f00000000000000000000000000000000000000000000000000000000000000006001600160a01b0316836001600160a01b0316036142025760006141106064612d75612d6c60c883615d1a565b6040516370a0823160e01b81523060048201529091506000906001600160a01b038616906370a0823190602401602060405180830381865afa15801561415a573d6000803e3d6000fd5b505050506040513d601f19601f8201168201806040525081019061417e9190615b7f565b90508161418b828661587b565b10156141ff5760405162461bcd60e51b815260206004820152603360248201527f43616e6e6f7420776974686472617720746f6b656e732072657365727665642060448201527f666f72207374616b696e6720726577617264730000000000000000000000000060648201526084016112bb565b50505b60405163a9059cbb60e01b81526001600160a01b038281166004830152602482018490526000919085169063a9059cbb906044016020604051808303816000875af1158015614255573d6000803e3d6000fd5b505050506040513d601f19601f820116820180604052508101906142799190615b98565b9050806142c85760405162461bcd60e51b815260206004820152601560248201527f546f6b656e207472616e73666572206661696c6564000000000000000000000060448201526064016112bb565b50505050565b6142d6614e90565b601c805460ff1916821515908117909155604080519182524260208301527fb7d83b7e094cfcfa7dd295e685a79a100995b6110e9708b6c36d9242b39454509101613fef565b60026000540361436e5760405162461bcd60e51b815260206004820152601f60248201527f5265656e7472616e637947756172643a207265656e7472616e742063616c6c0060448201526064016112bb565b60026000908155338152601f6020526040902080546143cf5760405162461bcd60e51b815260206004820152600e60248201527f4e6f207374616b6520666f756e6400000000000000000000000000000000000060448201526064016112bb565b600381015460ff16156144245760405162461bcd60e51b815260206004820152601160248201527f416c72656164792077697468647261776e00000000000000000000000000000060448201526064016112bb565b80600201544210156144785760405162461bcd60e51b815260206004820152601560248201527f5374616b65206973207374696c6c206c6f636b6564000000000000000000000060448201526064016112bb565b8054600061448c6064612d758460c8615887565b9050600061449a8383614eea565b60038501805460ff19166001179055601a549091506144b9908461587b565b601a556040516370a0823160e01b81523060048201527f00000000000000000000000000000000000000000000000000000000000000006001600160a01b0316906370a0823190602401602060405180830381865afa158015614520573d6000803e3d6000fd5b505050506040513d601f19601f820116820180604052508101906145449190615b7f565b81111561459d5760405162461bcd60e51b815260206004820152602160248201527f4e6f7420656e6f75676820746f6b656e7320696e2074686520636f6e747261636044820152601d60fa1b60648201526084016112bb565b60405163a9059cbb60e01b8152336004820152602481018290526000907f00000000000000000000000000000000000000000000000000000000000000006001600160a01b03169063a9059cbb906044016020604051808303816000875af115801561460d573d6000803e3d6000fd5b505050506040513d601f19601f820116820180604052508101906146319190615b98565b9050806146805760405162461bcd60e51b815260206004820152601560248201527f546f6b656e207472616e73666572206661696c6564000000000000000000000060448201526064016112bb565b60408051858152602081018590524281830152905133917f88d1c46373223a4f1f60db2badc985b05ec9c2b2eab4537f0f8e1291b78b6e37919081900360600190a250506001600055505050565b6000806000806000806000601a54601b5460c8601c60009054906101000a900460ff166146f961319e565b601d5461470e8161470861319e565b9061587b565b959d949c50929a50909850965094509092509050565b6000806000806000600a54600b5460085461474c600b5460085461587b90919063ffffffff16565b600c54945094509450945094509091929394565b601c5460009081908190819060ff16801561477e5750601b54601a54105b90506000601a54601b54116147945760006147a3565b601a54601b546147a39161587b565b905060006147c3601b54612d756064601a5461588790919063ffffffff16565b9296919550919350915050565b6147d8614e90565b601655565b806000811180156147f057506002548111155b6148315760405162461bcd60e51b8152602060048201526012602482015271125b9d985b1a59081c1c995cd85b19481a5960721b60448201526064016112bb565b614839614e90565b6000828152600f602052604090205460ff166148975760405162461bcd60e51b815260206004820152600a60248201527f4e6f74207061757365640000000000000000000000000000000000000000000060448201526064016112bb565b6000828152600f602052604090819020805460ff191690555182907ff608654a6d8e1785594639dd55babb61d7ae157382015f904a24224e50333b1d90612c9c9042815260200190565b6148e9614e90565b600084116149395760405162461bcd60e51b815260206004820152600a60248201527f5a65726f2070726963650000000000000000000000000000000000000000000060448201526064016112bb565b600082116149895760405162461bcd60e51b815260206004820152601360248201527f5a65726f20746f6b656e7320746f2073656c6c0000000000000000000000000060448201526064016112bb565b60025460009081526010602052604090206008015460ff16156149ee5760405162461bcd60e51b815260206004820152601760248201527f50726576696f75732053616c652069732041637469766500000000000000000060448201526064016112bb565b600280549060006149fe83615e3b565b909155505060408051610140810182526000808252602080830182815283850189815260608086018a81526080870186815260a088018b815260c089018b815260e08a01898152610100808c018b81526101208d018c8152600280548e5260108d528f8e209e518f559a5160018f015598518d8b0155955160038d0155935160048c0155915160058b01555160068a015551600789015590516008909701805493517fffffffffffffffffffffffffffffffffffffffffffffffffffffffffffff000090941697151561ff001916979097179215150291909117909455548451878152918201839052938101919091527f6a00651728a92841411081673eaa4eddbed06d102a590e050c22def40d4dd0b891015b60405180910390a250505050565b6001600160a01b038082166000908152601360209081526040808320815160a081018352815490951680865260018201549386018490526002820154928601839052600382015460ff1615156060870152600490910154608086015292938493849384938493849390929091614b96828261587b565b6001600160a01b039b909b1660009081526014602052604090205460809490940151929b919a909950975060ff90921695509350915050565b80600081118015614be257506002548111155b614c235760405162461bcd60e51b8152602060048201526012602482015271125b9d985b1a59081c1c995cd85b19481a5960721b60448201526064016112bb565b614c2b614e90565b600082815260106020526040902060010154421015614c8c5760405162461bcd60e51b815260206004820152601f60248201527f596f752063616e206f6e6c7920756e6c6f636b206f6e2066696e616c697a650060448201526064016112bb565b5050565b614c98614e90565b6001600160a01b038116614d145760405162461bcd60e51b815260206004820152602660248201527f4f776e61626c653a206e6577206f776e657220697320746865207a65726f206160448201527f646472657373000000000000000000000000000000000000000000000000000060648201526084016112bb565b612d338161589f565b600082600081118015614d3257506002548111155b614d735760405162461bcd60e51b8152602060048201526012602482015271125b9d985b1a59081c1c995cd85b19481a5960721b60448201526064016112bb565b600354600085815260106020526040902060020154614d929085615bcb565b6132979190615cf8565b600082600081118015614db157506002548111155b614df25760405162461bcd60e51b8152602060048201526012602482015271125b9d985b1a59081c1c995cd85b19481a5960721b60448201526064016112bb565b601760009054906101000a90046001600160a01b03166001600160a01b031663313ce5676040518163ffffffff1660e01b8152600401602060405180830381865afa158015614e45573d6000803e3d6000fd5b505050506040513d601f19601f82011682018060405250810190614e699190615be2565b614e7490600a615ce9565b600085815260106020526040902060020154614d929085615bcb565b6001546001600160a01b0316331461324d5760405162461bcd60e51b815260206004820181905260248201527f4f776e61626c653a2063616c6c6572206973206e6f7420746865206f776e657260448201526064016112bb565b6000612d0e8284615d1a565b601c5460ff16614f485760405162461bcd60e51b815260206004820152601560248201527f5374616b696e67206973206e6f7420616374697665000000000000000000000060448201526064016112bb565b60008111614f985760405162461bcd60e51b815260206004820152601860248201527f43616e6e6f74207374616b65207a65726f20616d6f756e74000000000000000060448201526064016112bb565b601b54601a54614fa89083614eea565b1115614ff65760405162461bcd60e51b815260206004820152601d60248201527f5374616b696e672063617020776f756c6420626520657863656564656400000060448201526064016112bb565b60006150086064612d758460c8615887565b905061501261319e565b601d5461501f9083614eea565b11156150935760405162461bcd60e51b815260206004820152602c60248201527f4e6f7420656e6f75676820746f6b656e7320696e20746865207374616b696e6760448201527f2072657761726420706f6f6c000000000000000000000000000000000000000060648201526084016112bb565b601a546150a09083614eea565b601a55601d546150b09082614eea565b601d55601b54601a541061510257601c805460ff1916905560408051600081524260208201527fb7d83b7e094cfcfa7dd295e685a79a100995b6110e9708b6c36d9242b3945450910160405180910390a15b6001600160a01b0383166000908152601f6020526040902080541580159061512f5750600381015460ff16155b156153345780600201544210156151ae5760405162461bcd60e51b815260206004820152602960248201527f43616e6e6f74207374616b65207768656e20796f7520686176652061206c6f6360448201527f6b6564207374616b65000000000000000000000000000000000000000000000060648201526084016112bb565b805460006151c26064612d758460c8615887565b60038401805460ff19166001179055905060006001600160a01b037f00000000000000000000000000000000000000000000000000000000000000001663a9059cbb8861520f8686614eea565b6040517fffffffff0000000000000000000000000000000000000000000000000000000060e085901b1681526001600160a01b03909216600483015260248201526044016020604051808303816000875af1158015615272573d6000803e3d6000fd5b505050506040513d601f19601f820116820180604052508101906152969190615b98565b9050806152e55760405162461bcd60e51b815260206004820152601760248201527f5374616b65207769746864726177616c206661696c656400000000000000000060448201526064016112bb565b6040805184815260208101849052428183015290516001600160a01b038916917f88d1c46373223a4f1f60db2badc985b05ec9c2b2eab4537f0f8e1291b78b6e37919081900360600190a25050505b828155426001820181905561534d906301e13380614eea565b6002820181905560038201805460ff1916905560408051858152426020820152908101919091526001600160a01b038516907f0fc5b1bac0416800b42a669229a346b6e5a15db3896339dbdc5fa376e1e4570a90606001614b12565b6001600160a01b0381166153ff5760405162461bcd60e51b815260206004820152601060248201527f496e76616c69642072656665727265720000000000000000000000000000000060448201526064016112bb565b336001600160a01b038216036154575760405162461bcd60e51b815260206004820152601560248201527f43616e6e6f7420726566657220796f757273656c66000000000000000000000060448201526064016112bb565b3360009081526015602052604090205460ff16156154b75760405162461bcd60e51b815260206004820152601760248201527f416c72656164792075736564206120726566657272616c00000000000000000060448201526064016112bb565b6001600160a01b03811660009081526014602052604090205460ff1661551f5760405162461bcd60e51b815260206004820152601a60248201527f526566657272657220686173206e6f74207175616c696669656400000000000060448201526064016112bb565b336000908152601360208181526040808420805473ffffffffffffffffffffffffffffffffffffffff19166001600160a01b03871690811790915560158352818520805460ff199081166001908117909255918652939092528320600381018054909216909217905560040180549161559783615e3b565b909155505060405142815233906001600160a01b038316907ff36afc48438e7a543cc47977b2ea45ca912bc74fd7e92126efea2f47c961eb7d9060200160405180910390a350565b6155f3670de0b6b3a76400006103e8615bcb565b811061561d576001600160a01b0382166000908152601460205260409020805460ff191660011790555b6001600160a01b0380831660009081526013602052604090205416801580159061565a5750615656670de0b6b3a76400006103e8615bcb565b8210155b15612f3e57600061567b6064612d75600a548661588790919063ffffffff16565b905080600061568a8280614eea565b90506008546156a482600b54614eea90919063ffffffff16565b11615780576001600160a01b0384166000908152601360205260409020600101546156cf9084614eea565b6001600160a01b0380861660009081526013602052604080822060019081019490945591891681522001546157049083614eea565b6001600160a01b038716600090815260136020526040902060010155600b5461572d9082614eea565b600b556040805184815260208101849052428183015290516001600160a01b0388811692908716917f5660d47451868f1bb42f832a92e54d7670a64411d1074b64dfab5bec5f29c2319181900360600190a35b505050505050565b804710156157d85760405162461bcd60e51b815260206004820152600b60248201527f4c6f772062616c616e636500000000000000000000000000000000000000000060448201526064016112bb565b6000826001600160a01b03168260405160006040518083038185875af1925050503d8060008114615825576040519150601f19603f3d011682016040523d82523d6000602084013e61582a565b606091505b5050905080612f3e5760405162461bcd60e51b815260206004820152601260248201527f455448205061796d656e74206661696c6564000000000000000000000000000060448201526064016112bb565b6000612d0e8284615d2d565b6000612d0e8284615bcb565b6000612d0e8284615cf8565b600180546001600160a01b0383811673ffffffffffffffffffffffffffffffffffffffff19831681179093556040519116919082907f8be0079c531659141344cd1fd0a4f28419497f9722a3daafe3b4186f6b6457e090600090a35050565b60006020828403121561591057600080fd5b5035919050565b80356001600160a01b038116811461592e57600080fd5b919050565b8015158114612d3357600080fd5b6000806040838503121561595457600080fd5b61595d83615917565b9150602083013561596d81615933565b809150509250929050565b60006020828403121561598a57600080fd5b612d0e82615917565b600080604083850312156159a657600080fd5b82359150602083013561596d81615933565b600080604083850312156159cb57600080fd5b50508035926020909101359150565b6000806000606084860312156159ef57600080fd5b833592506159ff60208501615917565b91506040840135615a0f81615933565b809150509250925092565b60008060408385031215615a2d57600080fd5b615a3683615917565b946020939093013593505050565b60008060208385031215615a5757600080fd5b823567ffffffffffffffff80821115615a6f57600080fd5b818501915085601f830112615a8357600080fd5b813581811115615a9257600080fd5b8660208260051b8501011115615aa757600080fd5b60209290920196919550909350505050565b600080600080600060a08688031215615ad157600080fd5b505083359560208501359550604085013594606081013594506080013592509050565b600080600060608486031215615b0957600080fd5b615b1284615917565b925060208401359150615b2760408501615917565b90509250925092565b600060208284031215615b4257600080fd5b8135612d0e81615933565b60008060008060808587031215615b6357600080fd5b5050823594602084013594506040840135936060013592509050565b600060208284031215615b9157600080fd5b5051919050565b600060208284031215615baa57600080fd5b8151612d0e81615933565b634e487b7160e01b600052601160045260246000fd5b8082028115828204841417613d3357613d33615bb5565b600060208284031215615bf457600080fd5b815160ff81168114612d0e57600080fd5b600181815b80851115615c40578160001904821115615c2657615c26615bb5565b80851615615c3357918102915b93841c9390800290615c0a565b509250929050565b600082615c5757506001613d33565b81615c6457506000613d33565b8160018114615c7a5760028114615c8457615ca0565b6001915050613d33565b60ff841115615c9557615c95615bb5565b50506001821b613d33565b5060208310610133831016604e8410600b8410161715615cc3575081810a613d33565b615ccd8383615c05565b8060001904821115615ce157615ce1615bb5565b029392505050565b6000612d0e60ff841683615c48565b600082615d1557634e487b7160e01b600052601260045260246000fd5b500490565b80820180821115613d3357613d33615bb5565b81810381811115613d3357613d33615bb5565b6000825160005b81811015615d615760208186018101518583015201615d47565b506000920191825250919050565b805169ffffffffffffffffffff8116811461592e57600080fd5b600080600080600060a08688031215615da157600080fd5b615daa86615d6f565b9450602086015193506040860151925060608601519150615dcd60808701615d6f565b90509295509295909350565b808202600082127f800000000000000000000000000000000000000000000000000000000000000084141615615e1157615e11615bb5565b8181058314821517613d3357613d33615bb5565b634e487b7160e01b600052603260045260246000fd5b60006000198203615e4e57615e4e615bb5565b506001019056fea264697066735822122091166f4b5f057e5804849c9ab25075cbdd35bb05d02c58780b4254766b08754a64736f6c63430008140033546f74616c20737570706c79206d75737420626520677265617465722074686153616c6520746f6b656e20616464726573732063616e6e6f74206265207a6572",
  "devdoc": {
    "details": "All tokens (presale, referral, staking) must be sent to the contract before starting Token Allocation: - 30% for presale (30,000,000,000 tokens) - 5% for referral rewards (5,000,000,000 tokens) - 20% for staking rewards (20,000,000,000 tokens) Total: 55% of total supply must be transferred to this contract",
    "kind": "dev",
    "methods": {
      "buyWithEth(address,bool)": {
        "details": "To buy into a presale using ETH with option for immediate staking",
        "params": {
          "referrer": "Referrer address (optional, use address(0) for no referrer)",
          "shouldStake": "If true, tokens are immediately staked for 1 year with 200% APY"
        }
      },
      "buyWithUSDT(uint256,address,bool)": {
        "details": "To buy into a presale using USDT with option for immediate staking",
        "params": {
          "referrer": "Referrer address (optional, use address(0) for no referrer)",
          "shouldStake": "If true, tokens are immediately staked for 1 year with 200% APY",
          "usdAmount": "USDT amount to buy tokens"
        }
      },
      "changeFundWallet(address)": {
        "details": "To update the fund receiving wallet",
        "params": {
          "_wallet": "address of wallet to update"
        }
      },
      "changeUSDTToken(address)": {
        "details": "To update the USDT Token address",
        "params": {
          "_newAddress": "Sale token address"
        }
      },
      "claimAmount(uint256)": {
        "details": "Modified claim function to handle only non-staked tokens",
        "params": {
          "_id": "Presale id"
        }
      },
      "claimMultiple(uint256[])": {
        "details": "To claim tokens from a multiple presale",
        "params": {
          "_id": "Presale id"
        }
      },
      "claimReferralRewards()": {
        "details": "Claim referral rewards"
      },
      "claimableAmount(address,uint256)": {
        "details": "Helper funtion to get claimable tokens for a given presale.",
        "params": {
          "_id": "Presale id",
          "user": "User address"
        }
      },
      "constructor": {
        "details": "Constructor sets up the contract parameters",
        "params": {
          "_MinTokenTobuy": "Minimum tokens that can be purchased",
          "_SaleToken": "Sale token address",
          "_oracle": "Chainlink oracle for ETH price feed",
          "_totalTokenSupply": "Total token supply (100,000,000,000)",
          "_usdt": "USDT token address"
        }
      },
      "ethBuyHelper(uint256,uint256)": {
        "details": "Helper funtion to get ETH price for given amount",
        "params": {
          "_id": "Presale id",
          "amount": "No of tokens to buy"
        }
      },
      "ethToTokens(uint256,uint256)": {
        "details": "Helper funtion to get tokens for eth amount",
        "params": {
          "_id": "Presale id",
          "amount": "No of eth"
        }
      },
      "getClaimableReferralRewards(address)": {
        "details": "Get claimable referral rewards for a user",
        "params": {
          "_user": "Address of the user"
        }
      },
      "getLatestPrice()": {
        "details": "To get latest ethereum price in 10**18 format"
      },
      "getStakingAvailability()": {
        "details": "Quick check if staking is available and capacity info",
        "returns": {
          "_canStake": "True if staking is active and cap not reached",
          "_percentFilled": "Percentage of staking capacity filled (0-100)",
          "_remainingCapacity": "Remaining capacity for staking"
        }
      },
      "getStakingStats()": {
        "details": "Get staking program statistics"
      },
      "getUserStakingInfo(address)": {
        "details": "Get user staking information",
        "params": {
          "_user": "Address of the user"
        }
      },
      "initializeStaking(uint256)": {
        "details": "Initialize staking parameters",
        "params": {
          "_totalSupply": "Total token supply to calculate 20% for staking rewards"
        }
      },
      "owner()": {
        "details": "Returns the address of the current owner."
      },
      "pausePresale(uint256)": {
        "details": "To pause the presale",
        "params": {
          "_id": "Presale id to update"
        }
      },
      "preFundContract()": {
        "details": "Pre-fund the contract with tokens for presale, referrals, and staking"
      },
      "renounceOwnership()": {
        "details": "Leaves the contract without owner. It will not be possible to call `onlyOwner` functions anymore. Can only be called by the current owner. NOTE: Renouncing ownership will leave the contract without an owner, thereby removing any functionality that is only available to the owner."
      },
      "safeWithdraw(address,uint256,address)": {
        "details": "Safe withdrawal function for accumulated tokens",
        "params": {
          "_amount": "Amount to withdraw",
          "_recipient": "Recipient address",
          "_token": "Token address"
        }
      },
      "setStakingStatus(bool)": {
        "details": "Toggle staking status (active/inactive)",
        "params": {
          "_status": "New staking status"
        }
      },
      "stakeTokens(uint256)": {
        "details": "Stake tokens with 1-year lock and 200% APY",
        "params": {
          "_amount": "Amount of tokens to stake"
        }
      },
      "transferOwnership(address)": {
        "details": "Transfers ownership of the contract to a new account (`newOwner`). Can only be called by the current owner."
      },
      "unPausePresale(uint256)": {
        "details": "To unpause the presale",
        "params": {
          "_id": "Presale id to update"
        }
      },
      "updateMaxReferralRewards(uint256)": {
        "details": "Update the maximum referral rewards (5% of total supply)",
        "params": {
          "_totalSupply": "The total token supply to calculate 5% from"
        }
      },
      "updateReferralRewardPercentage(uint256)": {
        "details": "Change referral reward percentage with timelock protection",
        "params": {
          "_percentage": "New percentage (1-20)"
        }
      },
      "updateStakingCap(uint256)": {
        "details": "Update staking cap",
        "params": {
          "_newCap": "New staking cap"
        }
      },
      "usdtBuyHelper(uint256,uint256)": {
        "details": "Helper funtion to get USDT price for given amount",
        "params": {
          "_id": "Presale id",
          "amount": "No of tokens to buy"
        }
      },
      "usdtToTokens(uint256,uint256)": {
        "details": "Helper funtion to get tokens for given usdt amount",
        "params": {
          "_id": "Presale id",
          "amount": "No of usdt"
        }
      },
      "withdrawStake()": {
        "details": "Withdraw staked tokens and rewards after lock period"
      }
    },
    "title": "PreSale and Staking Contract",
    "version": 1
  },
  "userdoc": {
    "kind": "user",
    "methods": {
      "preFundContract()": {
        "notice": "Before calling this function: 1. Deploy the token contract 2. Transfer 55% of total supply to this contract address 3. Call this function to verify and activate the pre-funding This marks the contract as ready for presale with tokens available for: - Direct distribution for non-staking purchases - Immediate staking during purchase (no need to claim first) - Referral reward distribution"
      }
    },
    "notice": "This contract handles token presale, referral rewards, and staking functionality",
    "version": 1
  },
  "storageLayout": {
    "storage": [
      {
        "astId": 169,
        "contract": "contracts/Sale.sol:Sale",
        "label": "_status",
        "offset": 0,
        "slot": "0",
        "type": "t_uint256"
      },
      {
        "astId": 53,
        "contract": "contracts/Sale.sol:Sale",
        "label": "_owner",
        "offset": 0,
        "slot": "1",
        "type": "t_address"
      },
      {
        "astId": 1393,
        "contract": "contracts/Sale.sol:Sale",
        "label": "presaleId",
        "offset": 0,
        "slot": "2",
        "type": "t_uint256"
      },
      {
        "astId": 1395,
        "contract": "contracts/Sale.sol:Sale",
        "label": "USDT_MULTIPLIER",
        "offset": 0,
        "slot": "3",
        "type": "t_uint256"
      },
      {
        "astId": 1397,
        "contract": "contracts/Sale.sol:Sale",
        "label": "ETH_MULTIPLIER",
        "offset": 0,
        "slot": "4",
        "type": "t_uint256"
      },
      {
        "astId": 1399,
        "contract": "contracts/Sale.sol:Sale",
        "label": "fundReceiver",
        "offset": 0,
        "slot": "5",
        "type": "t_address"
      },
      {
        "astId": 1410,
        "contract": "contracts/Sale.sol:Sale",
        "label": "totalTokenSupply",
        "offset": 0,
        "slot": "6",
        "type": "t_uint256"
      },
      {
        "astId": 1412,
        "contract": "contracts/Sale.sol:Sale",
        "label": "presaleTokens",
        "offset": 0,
        "slot": "7",
        "type": "t_uint256"
      },
      {
        "astId": 1414,
        "contract": "contracts/Sale.sol:Sale",
        "label": "maxReferralRewards",
        "offset": 0,
        "slot": "8",
        "type": "t_uint256"
      },
      {
        "astId": 1416,
        "contract": "contracts/Sale.sol:Sale",
        "label": "_maxStakingRewards",
        "offset": 0,
        "slot": "9",
        "type": "t_uint256"
      },
      {
        "astId": 1424,
        "contract": "contracts/Sale.sol:Sale",
        "label": "referralRewardPercentage",
        "offset": 0,
        "slot": "10",
        "type": "t_uint256"
      },
      {
        "astId": 1429,
        "contract": "contracts/Sale.sol:Sale",
        "label": "totalReferralRewardsIssued",
        "offset": 0,
        "slot": "11",
        "type": "t_uint256"
      },
      {
        "astId": 1434,
        "contract": "contracts/Sale.sol:Sale",
        "label": "referralPercentageChangeTimeLock",
        "offset": 0,
        "slot": "12",
        "type": "t_uint256"
      },
      {
        "astId": 1479,
        "contract": "contracts/Sale.sol:Sale",
        "label": "USDTInterface",
        "offset": 0,
        "slot": "13",
        "type": "t_contract(IERC20Metadata)301"
      },
      {
        "astId": 1482,
        "contract": "contracts/Sale.sol:Sale",
        "label": "aggregatorInterface",
        "offset": 0,
        "slot": "14",
        "type": "t_contract(Aggregator)1369"
      },
      {
        "astId": 1486,
        "contract": "contracts/Sale.sol:Sale",
        "label": "paused",
        "offset": 0,
        "slot": "15",
        "type": "t_mapping(t_uint256,t_bool)"
      },
      {
        "astId": 1491,
        "contract": "contracts/Sale.sol:Sale",
        "label": "presale",
        "offset": 0,
        "slot": "16",
        "type": "t_mapping(t_uint256,t_struct(Presale)1458_storage)"
      },
      {
        "astId": 1498,
        "contract": "contracts/Sale.sol:Sale",
        "label": "userClaimData",
        "offset": 0,
        "slot": "17",
        "type": "t_mapping(t_address,t_mapping(t_uint256,t_struct(ClaimData)1465_storage))"
      },
      {
        "astId": 1502,
        "contract": "contracts/Sale.sol:Sale",
        "label": "isExcludeMinToken",
        "offset": 0,
        "slot": "18",
        "type": "t_mapping(t_address,t_bool)"
      },
      {
        "astId": 1507,
        "contract": "contracts/Sale.sol:Sale",
        "label": "referralData",
        "offset": 0,
        "slot": "19",
        "type": "t_mapping(t_address,t_struct(ReferralData)1476_storage)"
      },
      {
        "astId": 1511,
        "contract": "contracts/Sale.sol:Sale",
        "label": "hasQualifiedPurchase",
        "offset": 0,
        "slot": "20",
        "type": "t_mapping(t_address,t_bool)"
      },
      {
        "astId": 1515,
        "contract": "contracts/Sale.sol:Sale",
        "label": "hasUsedReferral",
        "offset": 0,
        "slot": "21",
        "type": "t_mapping(t_address,t_bool)"
      },
      {
        "astId": 1517,
        "contract": "contracts/Sale.sol:Sale",
        "label": "MinTokenTobuy",
        "offset": 0,
        "slot": "22",
        "type": "t_uint256"
      },
      {
        "astId": 1519,
        "contract": "contracts/Sale.sol:Sale",
        "label": "SaleToken",
        "offset": 0,
        "slot": "23",
        "type": "t_address"
      },
      {
        "astId": 1523,
        "contract": "contracts/Sale.sol:Sale",
        "label": "userStakingIntent",
        "offset": 0,
        "slot": "24",
        "type": "t_mapping(t_address,t_bool)"
      },
      {
        "astId": 1526,
        "contract": "contracts/Sale.sol:Sale",
        "label": "isTokenPreFunded",
        "offset": 0,
        "slot": "25",
        "type": "t_bool"
      },
      {
        "astId": 3226,
        "contract": "contracts/Sale.sol:Sale",
        "label": "totalStaked",
        "offset": 0,
        "slot": "26",
        "type": "t_uint256"
      },
      {
        "astId": 3228,
        "contract": "contracts/Sale.sol:Sale",
        "label": "stakingCap",
        "offset": 0,
        "slot": "27",
        "type": "t_uint256"
      },
      {
        "astId": 3230,
        "contract": "contracts/Sale.sol:Sale",
        "label": "stakingActive",
        "offset": 0,
        "slot": "28",
        "type": "t_bool"
      },
      {
        "astId": 3232,
        "contract": "contracts/Sale.sol:Sale",
        "label": "totalStakingRewardsIssued",
        "offset": 0,
        "slot": "29",
        "type": "t_uint256"
      },
      {
        "astId": 3234,
        "contract": "contracts/Sale.sol:Sale",
        "label": "_maxStakingRewards",
        "offset": 0,
        "slot": "30",
        "type": "t_uint256"
      },
      {
        "astId": 3248,
        "contract": "contracts/Sale.sol:Sale",
        "label": "userStakes",
        "offset": 0,
        "slot": "31",
        "type": "t_mapping(t_address,t_struct(StakeInfo)3243_storage)"
      }
    ],
    "types": {
      "t_address": {
        "encoding": "inplace",
        "label": "address",
        "numberOfBytes": "20"
      },
      "t_bool": {
        "encoding": "inplace",
        "label": "bool",
        "numberOfBytes": "1"
      },
      "t_contract(Aggregator)1369": {
        "encoding": "inplace",
        "label": "contract Aggregator",
        "numberOfBytes": "20"
      },
      "t_contract(IERC20Metadata)301": {
        "encoding": "inplace",
        "label": "contract IERC20Metadata",
        "numberOfBytes": "20"
      },
      "t_mapping(t_address,t_bool)": {
        "encoding": "mapping",
        "key": "t_address",
        "label": "mapping(address => bool)",
        "numberOfBytes": "32",
        "value": "t_bool"
      },
      "t_mapping(t_address,t_mapping(t_uint256,t_struct(ClaimData)1465_storage))": {
        "encoding": "mapping",
        "key": "t_address",
        "label": "mapping(address => mapping(uint256 => struct SaleBase.ClaimData))",
        "numberOfBytes": "32",
        "value": "t_mapping(t_uint256,t_struct(ClaimData)1465_storage)"
      },
      "t_mapping(t_address,t_struct(ReferralData)1476_storage)": {
        "encoding": "mapping",
        "key": "t_address",
        "label": "mapping(address => struct SaleBase.ReferralData)",
        "numberOfBytes": "32",
        "value": "t_struct(ReferralData)1476_storage"
      },
      "t_mapping(t_address,t_struct(StakeInfo)3243_storage)": {
        "encoding": "mapping",
        "key": "t_address",
        "label": "mapping(address => struct StakingManager.StakeInfo)",
        "numberOfBytes": "32",
        "value": "t_struct(StakeInfo)3243_storage"
      },
      "t_mapping(t_uint256,t_bool)": {
        "encoding": "mapping",
        "key": "t_uint256",
        "label": "mapping(uint256 => bool)",
        "numberOfBytes": "32",
        "value": "t_bool"
      },
      "t_mapping(t_uint256,t_struct(ClaimData)1465_storage)": {
        "encoding": "mapping",
        "key": "t_uint256",
        "label": "mapping(uint256 => struct SaleBase.ClaimData)",
        "numberOfBytes": "32",
        "value": "t_struct(ClaimData)1465_storage"
      },
      "t_mapping(t_uint256,t_struct(Presale)1458_storage)": {
        "encoding": "mapping",
        "key": "t_uint256",
        "label": "mapping(uint256 => struct SaleBase.Presale)",
        "numberOfBytes": "32",
        "value": "t_struct(Presale)1458_storage"
      },
      "t_struct(ClaimData)1465_storage": {
        "encoding": "inplace",
        "label": "struct SaleBase.ClaimData",
        "members": [
          {
            "astId": 1460,
            "contract": "contracts/Sale.sol:Sale",
            "label": "claimAt",
            "offset": 0,
            "slot": "0",
            "type": "t_uint256"
          },
          {
            "astId": 1462,
            "contract": "contracts/Sale.sol:Sale",
            "label": "totalAmount",
            "offset": 0,
            "slot": "1",
            "type": "t_uint256"
          },
          {
            "astId": 1464,
            "contract": "contracts/Sale.sol:Sale",
            "label": "claimedAmount",
            "offset": 0,
            "slot": "2",
            "type": "t_uint256"
          }
        ],
        "numberOfBytes": "96"
      },
      "t_struct(Presale)1458_storage": {
        "encoding": "inplace",
        "label": "struct SaleBase.Presale",
        "members": [
          {
            "astId": 1439,
            "contract": "contracts/Sale.sol:Sale",
            "label": "startTime",
            "offset": 0,
            "slot": "0",
            "type": "t_uint256"
          },
          {
            "astId": 1441,
            "contract": "contracts/Sale.sol:Sale",
            "label": "endTime",
            "offset": 0,
            "slot": "1",
            "type": "t_uint256"
          },
          {
            "astId": 1443,
            "contract": "contracts/Sale.sol:Sale",
            "label": "price",
            "offset": 0,
            "slot": "2",
            "type": "t_uint256"
          },
          {
            "astId": 1445,
            "contract": "contracts/Sale.sol:Sale",
            "label": "nextStagePrice",
            "offset": 0,
            "slot": "3",
            "type": "t_uint256"
          },
          {
            "astId": 1447,
            "contract": "contracts/Sale.sol:Sale",
            "label": "Sold",
            "offset": 0,
            "slot": "4",
            "type": "t_uint256"
          },
          {
            "astId": 1449,
            "contract": "contracts/Sale.sol:Sale",
            "label": "tokensToSell",
            "offset": 0,
            "slot": "5",
            "type": "t_uint256"
          },
          {
            "astId": 1451,
            "contract": "contracts/Sale.sol:Sale",
            "label": "UsdtHardcap",
            "offset": 0,
            "slot": "6",
            "type": "t_uint256"
          },
          {
            "astId": 1453,
            "contract": "contracts/Sale.sol:Sale",
            "label": "amountRaised",
            "offset": 0,
            "slot": "7",
            "type": "t_uint256"
          },
          {
            "astId": 1455,
            "contract": "contracts/Sale.sol:Sale",
            "label": "Active",
            "offset": 0,
            "slot": "8",
            "type": "t_bool"
          },
          {
            "astId": 1457,
            "contract": "contracts/Sale.sol:Sale",
            "label": "isEnableClaim",
            "offset": 1,
            "slot": "8",
            "type": "t_bool"
          }
        ],
        "numberOfBytes": "288"
      },
      "t_struct(ReferralData)1476_storage": {
        "encoding": "inplace",
        "label": "struct SaleBase.ReferralData",
        "members": [
          {
            "astId": 1467,
            "contract": "contracts/Sale.sol:Sale",
            "label": "referrer",
            "offset": 0,
            "slot": "0",
            "type": "t_address"
          },
          {
            "astId": 1469,
            "contract": "contracts/Sale.sol:Sale",
            "label": "totalReferralRewards",
            "offset": 0,
            "slot": "1",
            "type": "t_uint256"
          },
          {
            "astId": 1471,
            "contract": "contracts/Sale.sol:Sale",
            "label": "claimedReferralRewards",
            "offset": 0,
            "slot": "2",
            "type": "t_uint256"
          },
          {
            "astId": 1473,
            "contract": "contracts/Sale.sol:Sale",
            "label": "hasReferred",
            "offset": 0,
            "slot": "3",
            "type": "t_bool"
          },
          {
            "astId": 1475,
            "contract": "contracts/Sale.sol:Sale",
            "label": "referralCount",
            "offset": 0,
            "slot": "4",
            "type": "t_uint256"
          }
        ],
        "numberOfBytes": "160"
      },
      "t_struct(StakeInfo)3243_storage": {
        "encoding": "inplace",
        "label": "struct StakingManager.StakeInfo",
        "members": [
          {
            "astId": 3236,
            "contract": "contracts/Sale.sol:Sale",
            "label": "stakedAmount",
            "offset": 0,
            "slot": "0",
            "type": "t_uint256"
          },
          {
            "astId": 3238,
            "contract": "contracts/Sale.sol:Sale",
            "label": "stakingTimestamp",
            "offset": 0,
            "slot": "1",
            "type": "t_uint256"
          },
          {
            "astId": 3240,
            "contract": "contracts/Sale.sol:Sale",
            "label": "unlockTimestamp",
            "offset": 0,
            "slot": "2",
            "type": "t_uint256"
          },
          {
            "astId": 3242,
            "contract": "contracts/Sale.sol:Sale",
            "label": "hasWithdrawn",
            "offset": 0,
            "slot": "3",
            "type": "t_bool"
          }
        ],
        "numberOfBytes": "128"
      },
      "t_uint256": {
        "encoding": "inplace",
        "label": "uint256",
        "numberOfBytes": "32"
      }
    }
  }
}