{
  "address": "0x843b23C92b9980f4664Fca9c37A1b0ed824BB334",
  "abi": [
    {
      "inputs": [
        {
          "internalType": "address",
          "name": "_oracle",
          "type": "address"
        },
        {
          "internalType": "address",
          "name": "_usdt",
          "type": "address"
        },
        {
          "internalType": "address",
          "name": "_SaleToken",
          "type": "address"
        },
        {
          "internalType": "uint256",
          "name": "_MinTokenTobuy",
          "type": "uint256"
        },
        {
          "internalType": "uint256",
          "name": "_totalTokenSupply",
          "type": "uint256"
        }
      ],
      "stateMutability": "nonpayable",
      "type": "constructor"
    },
    {
      "inputs": [],
      "name": "CapExceeded",
      "type": "error"
    },
    {
      "inputs": [],
      "name": "EnforcedPause",
      "type": "error"
    },
    {
      "inputs": [],
      "name": "ExpectedPause",
      "type": "error"
    },
    {
      "inputs": [],
      "name": "LockedStakeExists",
      "type": "error"
    },
    {
      "inputs": [
        {
          "internalType": "address",
          "name": "owner",
          "type": "address"
        }
      ],
      "name": "OwnableInvalidOwner",
      "type": "error"
    },
    {
      "inputs": [
        {
          "internalType": "address",
          "name": "account",
          "type": "address"
        }
      ],
      "name": "OwnableUnauthorizedAccount",
      "type": "error"
    },
    {
      "inputs": [],
      "name": "ReentrancyGuardReentrantCall",
      "type": "error"
    },
    {
      "inputs": [],
      "name": "RewardLimitExceeded",
      "type": "error"
    },
    {
      "inputs": [],
      "name": "StakingInactive",
      "type": "error"
    },
    {
      "inputs": [],
      "name": "TransferFailed",
      "type": "error"
    },
    {
      "inputs": [],
      "name": "ZeroAmount",
      "type": "error"
    },
    {
      "anonymous": false,
      "inputs": [
        {
          "indexed": false,
          "internalType": "address",
          "name": "previousOracle",
          "type": "address"
        },
        {
          "indexed": false,
          "internalType": "address",
          "name": "newOracle",
          "type": "address"
        },
        {
          "indexed": false,
          "internalType": "uint256",
          "name": "timestamp",
          "type": "uint256"
        }
      ],
      "name": "OracleUpdated",
      "type": "event"
    },
    {
      "anonymous": false,
      "inputs": [
        {
          "indexed": true,
          "internalType": "address",
          "name": "previousOwner",
          "type": "address"
        },
        {
          "indexed": true,
          "internalType": "address",
          "name": "newOwner",
          "type": "address"
        }
      ],
      "name": "OwnershipTransferred",
      "type": "event"
    },
    {
      "anonymous": false,
      "inputs": [
        {
          "indexed": false,
          "internalType": "address",
          "name": "account",
          "type": "address"
        }
      ],
      "name": "Paused",
      "type": "event"
    },
    {
      "anonymous": false,
      "inputs": [
        {
          "indexed": true,
          "internalType": "uint256",
          "name": "_id",
          "type": "uint256"
        },
        {
          "indexed": false,
          "internalType": "uint256",
          "name": "_totalTokens",
          "type": "uint256"
        },
        {
          "indexed": false,
          "internalType": "uint256",
          "name": "_startTime",
          "type": "uint256"
        },
        {
          "indexed": false,
          "internalType": "uint256",
          "name": "_endTime",
          "type": "uint256"
        }
      ],
      "name": "PresaleCreated",
      "type": "event"
    },
    {
      "anonymous": false,
      "inputs": [
        {
          "indexed": false,
          "internalType": "uint256",
          "name": "presaleId",
          "type": "uint256"
        },
        {
          "indexed": false,
          "internalType": "uint256",
          "name": "endTime",
          "type": "uint256"
        }
      ],
      "name": "PresaleEnded",
      "type": "event"
    },
    {
      "anonymous": false,
      "inputs": [
        {
          "indexed": true,
          "internalType": "uint256",
          "name": "id",
          "type": "uint256"
        },
        {
          "indexed": false,
          "internalType": "uint256",
          "name": "timestamp",
          "type": "uint256"
        }
      ],
      "name": "PresalePaused",
      "type": "event"
    },
    {
      "anonymous": false,
      "inputs": [
        {
          "indexed": false,
          "internalType": "uint256",
          "name": "presaleId",
          "type": "uint256"
        },
        {
          "indexed": false,
          "internalType": "uint256",
          "name": "cap",
          "type": "uint256"
        },
        {
          "indexed": false,
          "internalType": "uint256",
          "name": "price",
          "type": "uint256"
        },
        {
          "indexed": false,
          "internalType": "uint256",
          "name": "startTime",
          "type": "uint256"
        },
        {
          "indexed": false,
          "internalType": "uint256",
          "name": "endTime",
          "type": "uint256"
        }
      ],
      "name": "PresaleStarted",
      "type": "event"
    },
    {
      "anonymous": false,
      "inputs": [
        {
          "indexed": true,
          "internalType": "uint256",
          "name": "id",
          "type": "uint256"
        },
        {
          "indexed": false,
          "internalType": "uint256",
          "name": "timestamp",
          "type": "uint256"
        }
      ],
      "name": "PresaleUnpaused",
      "type": "event"
    },
    {
      "anonymous": false,
      "inputs": [
        {
          "indexed": false,
          "internalType": "uint256",
          "name": "previousPercentage",
          "type": "uint256"
        },
        {
          "indexed": false,
          "internalType": "uint256",
          "name": "newPercentage",
          "type": "uint256"
        },
        {
          "indexed": false,
          "internalType": "uint256",
          "name": "timestamp",
          "type": "uint256"
        }
      ],
      "name": "ReferralPercentageUpdated",
      "type": "event"
    },
    {
      "anonymous": false,
      "inputs": [
        {
          "indexed": true,
          "internalType": "address",
          "name": "referrer",
          "type": "address"
        },
        {
          "indexed": true,
          "internalType": "address",
          "name": "referee",
          "type": "address"
        },
        {
          "indexed": false,
          "internalType": "uint256",
          "name": "timestamp",
          "type": "uint256"
        }
      ],
      "name": "ReferralRecorded",
      "type": "event"
    },
    {
      "anonymous": false,
      "inputs": [
        {
          "indexed": true,
          "internalType": "address",
          "name": "referrer",
          "type": "address"
        },
        {
          "indexed": true,
          "internalType": "address",
          "name": "referee",
          "type": "address"
        },
        {
          "indexed": false,
          "internalType": "uint256",
          "name": "referrerReward",
          "type": "uint256"
        },
        {
          "indexed": false,
          "internalType": "uint256",
          "name": "refereeReward",
          "type": "uint256"
        },
        {
          "indexed": false,
          "internalType": "uint256",
          "name": "timestamp",
          "type": "uint256"
        }
      ],
      "name": "ReferralRewardsAdded",
      "type": "event"
    },
    {
      "anonymous": false,
      "inputs": [
        {
          "indexed": true,
          "internalType": "address",
          "name": "user",
          "type": "address"
        },
        {
          "indexed": false,
          "internalType": "uint256",
          "name": "amount",
          "type": "uint256"
        },
        {
          "indexed": false,
          "internalType": "uint256",
          "name": "timestamp",
          "type": "uint256"
        }
      ],
      "name": "ReferralRewardsClaimed",
      "type": "event"
    },
    {
      "anonymous": false,
      "inputs": [
        {
          "indexed": true,
          "internalType": "address",
          "name": "user",
          "type": "address"
        },
        {
          "indexed": false,
          "internalType": "uint256",
          "name": "stakedAmount",
          "type": "uint256"
        },
        {
          "indexed": false,
          "internalType": "uint256",
          "name": "rewardAmount",
          "type": "uint256"
        },
        {
          "indexed": false,
          "internalType": "uint256",
          "name": "timestamp",
          "type": "uint256"
        }
      ],
      "name": "StakeWithdrawn",
      "type": "event"
    },
    {
      "anonymous": false,
      "inputs": [
        {
          "indexed": false,
          "internalType": "uint256",
          "name": "previousCap",
          "type": "uint256"
        },
        {
          "indexed": false,
          "internalType": "uint256",
          "name": "newCap",
          "type": "uint256"
        },
        {
          "indexed": false,
          "internalType": "uint256",
          "name": "timestamp",
          "type": "uint256"
        }
      ],
      "name": "StakingCapUpdated",
      "type": "event"
    },
    {
      "anonymous": false,
      "inputs": [
        {
          "indexed": false,
          "internalType": "bool",
          "name": "isActive",
          "type": "bool"
        },
        {
          "indexed": false,
          "internalType": "uint256",
          "name": "timestamp",
          "type": "uint256"
        }
      ],
      "name": "StakingStatusChanged",
      "type": "event"
    },
    {
      "anonymous": false,
      "inputs": [
        {
          "indexed": true,
          "internalType": "address",
          "name": "user",
          "type": "address"
        },
        {
          "indexed": true,
          "internalType": "uint256",
          "name": "id",
          "type": "uint256"
        },
        {
          "indexed": true,
          "internalType": "address",
          "name": "purchaseToken",
          "type": "address"
        },
        {
          "indexed": false,
          "internalType": "uint256",
          "name": "tokensBought",
          "type": "uint256"
        },
        {
          "indexed": false,
          "internalType": "uint256",
          "name": "amountPaid",
          "type": "uint256"
        },
        {
          "indexed": false,
          "internalType": "uint256",
          "name": "timestamp",
          "type": "uint256"
        }
      ],
      "name": "TokensBought",
      "type": "event"
    },
    {
      "anonymous": false,
      "inputs": [
        {
          "indexed": true,
          "internalType": "address",
          "name": "user",
          "type": "address"
        },
        {
          "indexed": true,
          "internalType": "uint256",
          "name": "id",
          "type": "uint256"
        },
        {
          "indexed": false,
          "internalType": "uint256",
          "name": "amount",
          "type": "uint256"
        },
        {
          "indexed": false,
          "internalType": "uint256",
          "name": "timestamp",
          "type": "uint256"
        }
      ],
      "name": "TokensClaimedWithTimestamp",
      "type": "event"
    },
    {
      "anonymous": false,
      "inputs": [
        {
          "indexed": true,
          "internalType": "address",
          "name": "token",
          "type": "address"
        },
        {
          "indexed": false,
          "internalType": "uint256",
          "name": "amount",
          "type": "uint256"
        },
        {
          "indexed": false,
          "internalType": "uint256",
          "name": "timestamp",
          "type": "uint256"
        }
      ],
      "name": "TokensPreFunded",
      "type": "event"
    },
    {
      "anonymous": false,
      "inputs": [
        {
          "indexed": true,
          "internalType": "address",
          "name": "user",
          "type": "address"
        },
        {
          "indexed": false,
          "internalType": "uint256",
          "name": "amount",
          "type": "uint256"
        },
        {
          "indexed": false,
          "internalType": "uint256",
          "name": "stakingTime",
          "type": "uint256"
        },
        {
          "indexed": false,
          "internalType": "uint256",
          "name": "unlockTime",
          "type": "uint256"
        }
      ],
      "name": "TokensStaked",
      "type": "event"
    },
    {
      "anonymous": false,
      "inputs": [
        {
          "indexed": false,
          "internalType": "address",
          "name": "account",
          "type": "address"
        }
      ],
      "name": "Unpaused",
      "type": "event"
    },
    {
      "inputs": [
        {
          "internalType": "address",
          "name": "_newTokenAddress",
          "type": "address"
        }
      ],
      "name": "ChangeTokentoSell",
      "outputs": [],
      "stateMutability": "nonpayable",
      "type": "function"
    },
    {
      "inputs": [],
      "name": "ETH_MULTIPLIER",
      "outputs": [
        {
          "internalType": "uint256",
          "name": "",
          "type": "uint256"
        }
      ],
      "stateMutability": "view",
      "type": "function"
    },
    {
      "inputs": [
        {
          "internalType": "uint256",
          "name": "_newMinAmount",
          "type": "uint256"
        }
      ],
      "name": "EditMinTokenToBuy",
      "outputs": [],
      "stateMutability": "nonpayable",
      "type": "function"
    },
    {
      "inputs": [
        {
          "internalType": "address",
          "name": "_user",
          "type": "address"
        },
        {
          "internalType": "bool",
          "name": "_status",
          "type": "bool"
        }
      ],
      "name": "ExcludeAccouctFromMinBuy",
      "outputs": [],
      "stateMutability": "nonpayable",
      "type": "function"
    },
    {
      "inputs": [],
      "name": "MINIMUM_PURCHASE_FOR_REFERRAL",
      "outputs": [
        {
          "internalType": "uint256",
          "name": "",
          "type": "uint256"
        }
      ],
      "stateMutability": "view",
      "type": "function"
    },
    {
      "inputs": [],
      "name": "MinTokenTobuy",
      "outputs": [
        {
          "internalType": "uint256",
          "name": "",
          "type": "uint256"
        }
      ],
      "stateMutability": "view",
      "type": "function"
    },
    {
      "inputs": [],
      "name": "STAKING_APY",
      "outputs": [
        {
          "internalType": "uint256",
          "name": "",
          "type": "uint256"
        }
      ],
      "stateMutability": "view",
      "type": "function"
    },
    {
      "inputs": [],
      "name": "SaleToken",
      "outputs": [
        {
          "internalType": "address",
          "name": "",
          "type": "address"
        }
      ],
      "stateMutability": "view",
      "type": "function"
    },
    {
      "inputs": [],
      "name": "TotalUSDTRaised",
      "outputs": [
        {
          "internalType": "uint256",
          "name": "",
          "type": "uint256"
        }
      ],
      "stateMutability": "view",
      "type": "function"
    },
    {
      "inputs": [],
      "name": "USDTInterface",
      "outputs": [
        {
          "internalType": "contract IERC20Metadata",
          "name": "",
          "type": "address"
        }
      ],
      "stateMutability": "view",
      "type": "function"
    },
    {
      "inputs": [],
      "name": "USDT_MULTIPLIER",
      "outputs": [
        {
          "internalType": "uint256",
          "name": "",
          "type": "uint256"
        }
      ],
      "stateMutability": "view",
      "type": "function"
    },
    {
      "inputs": [
        {
          "internalType": "uint256",
          "name": "amount",
          "type": "uint256"
        }
      ],
      "name": "WithdrawContractFunds",
      "outputs": [],
      "stateMutability": "nonpayable",
      "type": "function"
    },
    {
      "inputs": [
        {
          "internalType": "address",
          "name": "_token",
          "type": "address"
        },
        {
          "internalType": "uint256",
          "name": "amount",
          "type": "uint256"
        }
      ],
      "name": "WithdrawTokens",
      "outputs": [],
      "stateMutability": "nonpayable",
      "type": "function"
    },
    {
      "inputs": [
        {
          "internalType": "address",
          "name": "referrer",
          "type": "address"
        },
        {
          "internalType": "bool",
          "name": "shouldStake",
          "type": "bool"
        }
      ],
      "name": "buyWithEth",
      "outputs": [
        {
          "internalType": "bool",
          "name": "",
          "type": "bool"
        }
      ],
      "stateMutability": "payable",
      "type": "function"
    },
    {
      "inputs": [
        {
          "internalType": "uint256",
          "name": "usdAmount",
          "type": "uint256"
        },
        {
          "internalType": "address",
          "name": "referrer",
          "type": "address"
        },
        {
          "internalType": "bool",
          "name": "shouldStake",
          "type": "bool"
        }
      ],
      "name": "buyWithUSDT",
      "outputs": [
        {
          "internalType": "bool",
          "name": "",
          "type": "bool"
        }
      ],
      "stateMutability": "nonpayable",
      "type": "function"
    },
    {
      "inputs": [
        {
          "internalType": "address",
          "name": "_referrer",
          "type": "address"
        },
        {
          "internalType": "address",
          "name": "_referee",
          "type": "address"
        }
      ],
      "name": "canBeReferred",
      "outputs": [
        {
          "internalType": "bool",
          "name": "isEligible",
          "type": "bool"
        },
        {
          "internalType": "uint8",
          "name": "reason",
          "type": "uint8"
        }
      ],
      "stateMutability": "view",
      "type": "function"
    },
    {
      "inputs": [
        {
          "internalType": "address",
          "name": "_user",
          "type": "address"
        }
      ],
      "name": "canReferOthers",
      "outputs": [
        {
          "internalType": "bool",
          "name": "",
          "type": "bool"
        }
      ],
      "stateMutability": "view",
      "type": "function"
    },
    {
      "inputs": [
        {
          "internalType": "address",
          "name": "_wallet",
          "type": "address"
        }
      ],
      "name": "changeFundWallet",
      "outputs": [],
      "stateMutability": "nonpayable",
      "type": "function"
    },
    {
      "inputs": [
        {
          "internalType": "address",
          "name": "_newAddress",
          "type": "address"
        }
      ],
      "name": "changeUSDTToken",
      "outputs": [],
      "stateMutability": "nonpayable",
      "type": "function"
    },
    {
      "inputs": [
        {
          "internalType": "uint256",
          "name": "_id",
          "type": "uint256"
        }
      ],
      "name": "claimAmount",
      "outputs": [
        {
          "internalType": "bool",
          "name": "",
          "type": "bool"
        }
      ],
      "stateMutability": "nonpayable",
      "type": "function"
    },
    {
      "inputs": [
        {
          "internalType": "uint256[]",
          "name": "_ids",
          "type": "uint256[]"
        }
      ],
      "name": "claimMultiple",
      "outputs": [
        {
          "internalType": "bool",
          "name": "",
          "type": "bool"
        }
      ],
      "stateMutability": "nonpayable",
      "type": "function"
    },
    {
      "inputs": [],
      "name": "claimReferralRewards",
      "outputs": [
        {
          "internalType": "bool",
          "name": "",
          "type": "bool"
        }
      ],
      "stateMutability": "nonpayable",
      "type": "function"
    },
    {
      "inputs": [
        {
          "internalType": "address",
          "name": "user",
          "type": "address"
        },
        {
          "internalType": "uint256",
          "name": "_id",
          "type": "uint256"
        }
      ],
      "name": "claimableAmount",
      "outputs": [
        {
          "internalType": "uint256",
          "name": "",
          "type": "uint256"
        }
      ],
      "stateMutability": "view",
      "type": "function"
    },
    {
      "inputs": [
        {
          "internalType": "uint256",
          "name": "_price",
          "type": "uint256"
        },
        {
          "internalType": "uint256",
          "name": "_nextStagePrice",
          "type": "uint256"
        },
        {
          "internalType": "uint256",
          "name": "_tokensToSell",
          "type": "uint256"
        },
        {
          "internalType": "uint256",
          "name": "_UsdtHardcap",
          "type": "uint256"
        }
      ],
      "name": "createPresale",
      "outputs": [],
      "stateMutability": "nonpayable",
      "type": "function"
    },
    {
      "inputs": [
        {
          "internalType": "uint256",
          "name": "_id",
          "type": "uint256"
        },
        {
          "internalType": "bool",
          "name": "_status",
          "type": "bool"
        }
      ],
      "name": "enableClaim",
      "outputs": [],
      "stateMutability": "nonpayable",
      "type": "function"
    },
    {
      "inputs": [],
      "name": "endPresale",
      "outputs": [],
      "stateMutability": "nonpayable",
      "type": "function"
    },
    {
      "inputs": [
        {
          "internalType": "uint256",
          "name": "_id",
          "type": "uint256"
        },
        {
          "internalType": "uint256",
          "name": "amount",
          "type": "uint256"
        }
      ],
      "name": "ethBuyHelper",
      "outputs": [
        {
          "internalType": "uint256",
          "name": "ethAmount",
          "type": "uint256"
        }
      ],
      "stateMutability": "view",
      "type": "function"
    },
    {
      "inputs": [
        {
          "internalType": "uint256",
          "name": "_id",
          "type": "uint256"
        },
        {
          "internalType": "uint256",
          "name": "amount",
          "type": "uint256"
        }
      ],
      "name": "ethToTokens",
      "outputs": [
        {
          "internalType": "uint256",
          "name": "_tokens",
          "type": "uint256"
        }
      ],
      "stateMutability": "view",
      "type": "function"
    },
    {
      "inputs": [],
      "name": "fundReceiver",
      "outputs": [
        {
          "internalType": "address",
          "name": "",
          "type": "address"
        }
      ],
      "stateMutability": "view",
      "type": "function"
    },
    {
      "inputs": [
        {
          "internalType": "address",
          "name": "_user",
          "type": "address"
        }
      ],
      "name": "getClaimableReferralRewards",
      "outputs": [
        {
          "internalType": "uint256",
          "name": "",
          "type": "uint256"
        }
      ],
      "stateMutability": "view",
      "type": "function"
    },
    {
      "inputs": [],
      "name": "getLatestPrice",
      "outputs": [
        {
          "internalType": "uint256",
          "name": "",
          "type": "uint256"
        }
      ],
      "stateMutability": "view",
      "type": "function"
    },
    {
      "inputs": [
        {
          "internalType": "address",
          "name": "_user",
          "type": "address"
        }
      ],
      "name": "getReferralChain",
      "outputs": [
        {
          "internalType": "address[]",
          "name": "",
          "type": "address[]"
        }
      ],
      "stateMutability": "view",
      "type": "function"
    },
    {
      "inputs": [],
      "name": "getReferralProgramStats",
      "outputs": [
        {
          "internalType": "uint256",
          "name": "currentPercentage",
          "type": "uint256"
        },
        {
          "internalType": "uint256",
          "name": "totalRewardsIssued",
          "type": "uint256"
        },
        {
          "internalType": "uint256",
          "name": "maxRewards",
          "type": "uint256"
        },
        {
          "internalType": "uint256",
          "name": "remainingRewards",
          "type": "uint256"
        },
        {
          "internalType": "uint256",
          "name": "nextPercentageChangeAllowed",
          "type": "uint256"
        }
      ],
      "stateMutability": "view",
      "type": "function"
    },
    {
      "inputs": [],
      "name": "getStakingAvailability",
      "outputs": [
        {
          "internalType": "bool",
          "name": "_canStake",
          "type": "bool"
        },
        {
          "internalType": "uint256",
          "name": "_remainingCapacity",
          "type": "uint256"
        },
        {
          "internalType": "uint256",
          "name": "_percentFilled",
          "type": "uint256"
        }
      ],
      "stateMutability": "view",
      "type": "function"
    },
    {
      "inputs": [],
      "name": "getStakingStats",
      "outputs": [
        {
          "internalType": "uint256",
          "name": "_totalStaked",
          "type": "uint256"
        },
        {
          "internalType": "uint256",
          "name": "_stakingCap",
          "type": "uint256"
        },
        {
          "internalType": "uint256",
          "name": "_stakingAPY",
          "type": "uint256"
        },
        {
          "internalType": "bool",
          "name": "_isActive",
          "type": "bool"
        },
        {
          "internalType": "uint256",
          "name": "_maxRewards",
          "type": "uint256"
        },
        {
          "internalType": "uint256",
          "name": "_totalRewardsCommitted",
          "type": "uint256"
        },
        {
          "internalType": "uint256",
          "name": "_remainingRewards",
          "type": "uint256"
        }
      ],
      "stateMutability": "view",
      "type": "function"
    },
    {
      "inputs": [
        {
          "internalType": "address",
          "name": "_user",
          "type": "address"
        }
      ],
      "name": "getUserReferralInfo",
      "outputs": [
        {
          "internalType": "address",
          "name": "referrer",
          "type": "address"
        },
        {
          "internalType": "uint256",
          "name": "totalRewards",
          "type": "uint256"
        },
        {
          "internalType": "uint256",
          "name": "claimedRewards",
          "type": "uint256"
        },
        {
          "internalType": "uint256",
          "name": "pendingRewards",
          "type": "uint256"
        },
        {
          "internalType": "bool",
          "name": "isQualifiedReferrer",
          "type": "bool"
        },
        {
          "internalType": "uint256",
          "name": "referralCount",
          "type": "uint256"
        }
      ],
      "stateMutability": "view",
      "type": "function"
    },
    {
      "inputs": [
        {
          "internalType": "address",
          "name": "_user",
          "type": "address"
        }
      ],
      "name": "getUserStakingInfo",
      "outputs": [
        {
          "internalType": "uint256",
          "name": "stakedAmount",
          "type": "uint256"
        },
        {
          "internalType": "uint256",
          "name": "stakingTime",
          "type": "uint256"
        },
        {
          "internalType": "uint256",
          "name": "unlockTime",
          "type": "uint256"
        },
        {
          "internalType": "bool",
          "name": "isLocked",
          "type": "bool"
        },
        {
          "internalType": "bool",
          "name": "hasWithdrawn",
          "type": "bool"
        },
        {
          "internalType": "uint256",
          "name": "potentialReward",
          "type": "uint256"
        },
        {
          "internalType": "uint256",
          "name": "totalClaimable",
          "type": "uint256"
        }
      ],
      "stateMutability": "view",
      "type": "function"
    },
    {
      "inputs": [
        {
          "internalType": "address",
          "name": "",
          "type": "address"
        }
      ],
      "name": "hasQualifiedPurchase",
      "outputs": [
        {
          "internalType": "bool",
          "name": "",
          "type": "bool"
        }
      ],
      "stateMutability": "view",
      "type": "function"
    },
    {
      "inputs": [
        {
          "internalType": "address",
          "name": "",
          "type": "address"
        }
      ],
      "name": "hasUsedReferral",
      "outputs": [
        {
          "internalType": "bool",
          "name": "",
          "type": "bool"
        }
      ],
      "stateMutability": "view",
      "type": "function"
    },
    {
      "inputs": [
        {
          "internalType": "address",
          "name": "",
          "type": "address"
        }
      ],
      "name": "isAdmin",
      "outputs": [
        {
          "internalType": "bool",
          "name": "",
          "type": "bool"
        }
      ],
      "stateMutability": "view",
      "type": "function"
    },
    {
      "inputs": [
        {
          "internalType": "address",
          "name": "",
          "type": "address"
        }
      ],
      "name": "isExcludeMinToken",
      "outputs": [
        {
          "internalType": "bool",
          "name": "",
          "type": "bool"
        }
      ],
      "stateMutability": "view",
      "type": "function"
    },
    {
      "inputs": [],
      "name": "isTokenPreFunded",
      "outputs": [
        {
          "internalType": "bool",
          "name": "",
          "type": "bool"
        }
      ],
      "stateMutability": "view",
      "type": "function"
    },
    {
      "inputs": [],
      "name": "maxReferralRewards",
      "outputs": [
        {
          "internalType": "uint256",
          "name": "",
          "type": "uint256"
        }
      ],
      "stateMutability": "view",
      "type": "function"
    },
    {
      "inputs": [],
      "name": "maxStakingRewards",
      "outputs": [
        {
          "internalType": "uint256",
          "name": "",
          "type": "uint256"
        }
      ],
      "stateMutability": "view",
      "type": "function"
    },
    {
      "inputs": [],
      "name": "oracle",
      "outputs": [
        {
          "internalType": "address",
          "name": "",
          "type": "address"
        }
      ],
      "stateMutability": "view",
      "type": "function"
    },
    {
      "inputs": [],
      "name": "owner",
      "outputs": [
        {
          "internalType": "address",
          "name": "",
          "type": "address"
        }
      ],
      "stateMutability": "view",
      "type": "function"
    },
    {
      "inputs": [
        {
          "internalType": "uint256",
          "name": "_id",
          "type": "uint256"
        }
      ],
      "name": "pausePresale",
      "outputs": [],
      "stateMutability": "nonpayable",
      "type": "function"
    },
    {
      "inputs": [
        {
          "internalType": "uint256",
          "name": "",
          "type": "uint256"
        }
      ],
      "name": "paused",
      "outputs": [
        {
          "internalType": "bool",
          "name": "",
          "type": "bool"
        }
      ],
      "stateMutability": "view",
      "type": "function"
    },
    {
      "inputs": [],
      "name": "paused",
      "outputs": [
        {
          "internalType": "bool",
          "name": "",
          "type": "bool"
        }
      ],
      "stateMutability": "view",
      "type": "function"
    },
    {
      "inputs": [],
      "name": "preFundContract",
      "outputs": [],
      "stateMutability": "nonpayable",
      "type": "function"
    },
    {
      "inputs": [
        {
          "internalType": "uint256",
          "name": "",
          "type": "uint256"
        }
      ],
      "name": "presale",
      "outputs": [
        {
          "internalType": "uint256",
          "name": "startTime",
          "type": "uint256"
        },
        {
          "internalType": "uint256",
          "name": "endTime",
          "type": "uint256"
        },
        {
          "internalType": "uint256",
          "name": "price",
          "type": "uint256"
        },
        {
          "internalType": "uint256",
          "name": "nextStagePrice",
          "type": "uint256"
        },
        {
          "internalType": "uint256",
          "name": "Sold",
          "type": "uint256"
        },
        {
          "internalType": "uint256",
          "name": "tokensToSell",
          "type": "uint256"
        },
        {
          "internalType": "uint256",
          "name": "UsdtHardcap",
          "type": "uint256"
        },
        {
          "internalType": "uint256",
          "name": "amountRaised",
          "type": "uint256"
        },
        {
          "internalType": "bool",
          "name": "Active",
          "type": "bool"
        },
        {
          "internalType": "bool",
          "name": "isEnableClaim",
          "type": "bool"
        }
      ],
      "stateMutability": "view",
      "type": "function"
    },
    {
      "inputs": [],
      "name": "presaleId",
      "outputs": [
        {
          "internalType": "uint256",
          "name": "",
          "type": "uint256"
        }
      ],
      "stateMutability": "view",
      "type": "function"
    },
    {
      "inputs": [],
      "name": "presaleTokens",
      "outputs": [
        {
          "internalType": "uint256",
          "name": "",
          "type": "uint256"
        }
      ],
      "stateMutability": "view",
      "type": "function"
    },
    {
      "inputs": [
        {
          "internalType": "address",
          "name": "_user",
          "type": "address"
        },
        {
          "internalType": "uint256",
          "name": "_tokenAmount",
          "type": "uint256"
        }
      ],
      "name": "processReferralRewards",
      "outputs": [],
      "stateMutability": "nonpayable",
      "type": "function"
    },
    {
      "inputs": [
        {
          "internalType": "address",
          "name": "_referrer",
          "type": "address"
        }
      ],
      "name": "recordReferral",
      "outputs": [],
      "stateMutability": "nonpayable",
      "type": "function"
    },
    {
      "inputs": [
        {
          "internalType": "address",
          "name": "",
          "type": "address"
        }
      ],
      "name": "referralData",
      "outputs": [
        {
          "internalType": "address",
          "name": "referrer",
          "type": "address"
        },
        {
          "internalType": "uint256",
          "name": "totalReferralRewards",
          "type": "uint256"
        },
        {
          "internalType": "uint256",
          "name": "claimedReferralRewards",
          "type": "uint256"
        },
        {
          "internalType": "bool",
          "name": "hasReferred",
          "type": "bool"
        },
        {
          "internalType": "uint256",
          "name": "referralCount",
          "type": "uint256"
        }
      ],
      "stateMutability": "view",
      "type": "function"
    },
    {
      "inputs": [],
      "name": "referralPercentageChangeTimeLock",
      "outputs": [
        {
          "internalType": "uint256",
          "name": "",
          "type": "uint256"
        }
      ],
      "stateMutability": "view",
      "type": "function"
    },
    {
      "inputs": [],
      "name": "referralRewardPercentage",
      "outputs": [
        {
          "internalType": "uint8",
          "name": "",
          "type": "uint8"
        }
      ],
      "stateMutability": "view",
      "type": "function"
    },
    {
      "inputs": [],
      "name": "renounceOwnership",
      "outputs": [],
      "stateMutability": "nonpayable",
      "type": "function"
    },
    {
      "inputs": [
        {
          "internalType": "address",
          "name": "_token",
          "type": "address"
        },
        {
          "internalType": "uint256",
          "name": "_amount",
          "type": "uint256"
        },
        {
          "internalType": "address",
          "name": "_recipient",
          "type": "address"
        }
      ],
      "name": "safeWithdraw",
      "outputs": [],
      "stateMutability": "nonpayable",
      "type": "function"
    },
    {
      "inputs": [
        {
          "internalType": "bool",
          "name": "_intent",
          "type": "bool"
        }
      ],
      "name": "setStakingIntent",
      "outputs": [],
      "stateMutability": "nonpayable",
      "type": "function"
    },
    {
      "inputs": [
        {
          "internalType": "bool",
          "name": "_status",
          "type": "bool"
        }
      ],
      "name": "setStakingStatus",
      "outputs": [],
      "stateMutability": "nonpayable",
      "type": "function"
    },
    {
      "inputs": [
        {
          "internalType": "uint256",
          "name": "_amount",
          "type": "uint256"
        }
      ],
      "name": "stakeTokens",
      "outputs": [],
      "stateMutability": "nonpayable",
      "type": "function"
    },
    {
      "inputs": [],
      "name": "stakingActive",
      "outputs": [
        {
          "internalType": "bool",
          "name": "",
          "type": "bool"
        }
      ],
      "stateMutability": "view",
      "type": "function"
    },
    {
      "inputs": [],
      "name": "stakingCap",
      "outputs": [
        {
          "internalType": "uint256",
          "name": "",
          "type": "uint256"
        }
      ],
      "stateMutability": "view",
      "type": "function"
    },
    {
      "inputs": [],
      "name": "startPresale",
      "outputs": [],
      "stateMutability": "nonpayable",
      "type": "function"
    },
    {
      "inputs": [],
      "name": "totalReferralRewardsIssued",
      "outputs": [
        {
          "internalType": "uint256",
          "name": "",
          "type": "uint256"
        }
      ],
      "stateMutability": "view",
      "type": "function"
    },
    {
      "inputs": [],
      "name": "totalStaked",
      "outputs": [
        {
          "internalType": "uint256",
          "name": "",
          "type": "uint256"
        }
      ],
      "stateMutability": "view",
      "type": "function"
    },
    {
      "inputs": [],
      "name": "totalStakingRewardsIssued",
      "outputs": [
        {
          "internalType": "uint256",
          "name": "",
          "type": "uint256"
        }
      ],
      "stateMutability": "view",
      "type": "function"
    },
    {
      "inputs": [],
      "name": "totalTokenSupply",
      "outputs": [
        {
          "internalType": "uint256",
          "name": "",
          "type": "uint256"
        }
      ],
      "stateMutability": "view",
      "type": "function"
    },
    {
      "inputs": [
        {
          "internalType": "address",
          "name": "newOwner",
          "type": "address"
        }
      ],
      "name": "transferOwnership",
      "outputs": [],
      "stateMutability": "nonpayable",
      "type": "function"
    },
    {
      "inputs": [
        {
          "internalType": "uint256",
          "name": "_id",
          "type": "uint256"
        }
      ],
      "name": "unPausePresale",
      "outputs": [],
      "stateMutability": "nonpayable",
      "type": "function"
    },
    {
      "inputs": [
        {
          "internalType": "uint256",
          "name": "_totalSupply",
          "type": "uint256"
        }
      ],
      "name": "updateMaxReferralRewards",
      "outputs": [],
      "stateMutability": "nonpayable",
      "type": "function"
    },
    {
      "inputs": [
        {
          "internalType": "uint256",
          "name": "_id",
          "type": "uint256"
        },
        {
          "internalType": "uint256",
          "name": "_price",
          "type": "uint256"
        },
        {
          "internalType": "uint256",
          "name": "_nextStagePrice",
          "type": "uint256"
        },
        {
          "internalType": "uint256",
          "name": "_tokensToSell",
          "type": "uint256"
        },
        {
          "internalType": "uint256",
          "name": "_Hardcap",
          "type": "uint256"
        }
      ],
      "name": "updatePresale",
      "outputs": [],
      "stateMutability": "nonpayable",
      "type": "function"
    },
    {
      "inputs": [
        {
          "internalType": "uint8",
          "name": "_percentage",
          "type": "uint8"
        }
      ],
      "name": "updateReferralRewardPercentage",
      "outputs": [],
      "stateMutability": "nonpayable",
      "type": "function"
    },
    {
      "inputs": [
        {
          "internalType": "uint256",
          "name": "_newCap",
          "type": "uint256"
        }
      ],
      "name": "updateStakingCap",
      "outputs": [],
      "stateMutability": "nonpayable",
      "type": "function"
    },
    {
      "inputs": [],
      "name": "usdt",
      "outputs": [
        {
          "internalType": "address",
          "name": "",
          "type": "address"
        }
      ],
      "stateMutability": "view",
      "type": "function"
    },
    {
      "inputs": [
        {
          "internalType": "uint256",
          "name": "_id",
          "type": "uint256"
        },
        {
          "internalType": "uint256",
          "name": "amount",
          "type": "uint256"
        }
      ],
      "name": "usdtBuyHelper",
      "outputs": [
        {
          "internalType": "uint256",
          "name": "usdPrice",
          "type": "uint256"
        }
      ],
      "stateMutability": "view",
      "type": "function"
    },
    {
      "inputs": [
        {
          "internalType": "uint256",
          "name": "_id",
          "type": "uint256"
        },
        {
          "internalType": "uint256",
          "name": "amount",
          "type": "uint256"
        }
      ],
      "name": "usdtToTokens",
      "outputs": [
        {
          "internalType": "uint256",
          "name": "_tokens",
          "type": "uint256"
        }
      ],
      "stateMutability": "view",
      "type": "function"
    },
    {
      "inputs": [
        {
          "internalType": "address",
          "name": "",
          "type": "address"
        },
        {
          "internalType": "uint256",
          "name": "",
          "type": "uint256"
        }
      ],
      "name": "userClaimData",
      "outputs": [
        {
          "internalType": "uint256",
          "name": "claimAt",
          "type": "uint256"
        },
        {
          "internalType": "uint256",
          "name": "totalAmount",
          "type": "uint256"
        },
        {
          "internalType": "uint256",
          "name": "claimedAmount",
          "type": "uint256"
        }
      ],
      "stateMutability": "view",
      "type": "function"
    },
    {
      "inputs": [
        {
          "internalType": "address",
          "name": "",
          "type": "address"
        }
      ],
      "name": "userStakes",
      "outputs": [
        {
          "internalType": "uint256",
          "name": "stakedAmount",
          "type": "uint256"
        },
        {
          "internalType": "uint256",
          "name": "stakingTimestamp",
          "type": "uint256"
        },
        {
          "internalType": "uint256",
          "name": "unlockTimestamp",
          "type": "uint256"
        },
        {
          "internalType": "bool",
          "name": "hasWithdrawn",
          "type": "bool"
        }
      ],
      "stateMutability": "view",
      "type": "function"
    },
    {
      "inputs": [
        {
          "internalType": "address",
          "name": "",
          "type": "address"
        }
      ],
      "name": "userStakingIntent",
      "outputs": [
        {
          "internalType": "bool",
          "name": "",
          "type": "bool"
        }
      ],
      "stateMutability": "view",
      "type": "function"
    },
    {
      "inputs": [
        {
          "internalType": "address",
          "name": "",
          "type": "address"
        }
      ],
      "name": "users",
      "outputs": [
        {
          "internalType": "uint256",
          "name": "TotalBoughtTokens",
          "type": "uint256"
        },
        {
          "internalType": "uint256",
          "name": "TotalPaid",
          "type": "uint256"
        },
        {
          "internalType": "uint256",
          "name": "TotalCollectedReferral",
          "type": "uint256"
        },
        {
          "internalType": "uint256",
          "name": "lastClaimTime",
          "type": "uint256"
        },
        {
          "internalType": "address",
          "name": "referrer",
          "type": "address"
        }
      ],
      "stateMutability": "view",
      "type": "function"
    },
    {
      "inputs": [],
      "name": "withdrawStake",
      "outputs": [],
      "stateMutability": "nonpayable",
      "type": "function"
    }
  ],
  "transactionHash": "0xea1c45125248aab5083c09e2b8d36ba1ad44e3632ec0013b8f4dc82cb616804c",
  "args": [
    "0x694AA1769357215DE4FAC081bf1f309aDC325306",
    "0x3454C6F3005437D97A77686F6F28cc61E2330Be0",
    "0xeC5bd71EbC0f48024ED4aF9CC5abB66060198306",
    "10000000000000000000",
    "100000000000000000000000000000"
  ],
  "numDeployments": 1,
  "solcInputHash": "1551b786b646bd9a238f83723fcbc09f",
  "bytecode": "0x6080604052600f805460ff199081169091556017805490911660141790553480156200002a57600080fd5b50604051620057ee380380620057ee8339810160408190526200004d916200036f565b600160005584848484848484848484848484848433806200008957604051631e4fbdf760e01b8152600060048201526024015b60405180910390fd5b6200009481620000e0565b50620000a4858585858562000132565b50504260195550506b158a89942e0e3e7c97cc0000601f5550506020805460ff19166001179055506200041b9c50505050505050505050505050565b600180546001600160a01b038381166001600160a01b0319831681179093556040519116919082907f8be0079c531659141344cd1fd0a4f28419497f9722a3daafe3b4186f6b6457e090600090a35050565b6001600160a01b038516620001785760405162461bcd60e51b815260206004820152600b60248201526a5a65726f206f7261636c6560a81b604482015260640162000080565b6001600160a01b038416620001bc5760405162461bcd60e51b815260206004820152600960248201526816995c9bc81554d11560ba1b604482015260640162000080565b6001600160a01b038316620002015760405162461bcd60e51b815260206004820152600a6024820152692d32b937903a37b5b2b760b11b604482015260640162000080565b600082116200023e5760405162461bcd60e51b81526020600482015260086024820152672d32b9379036b4b760c11b604482015260640162000080565b600081116200027e5760405162461bcd60e51b815260206004820152600b60248201526a5a65726f20737570706c7960a81b604482015260640162000080565b601080546001600160a01b038088166001600160a01b031992831617909255600480548684169083161790556005849055600f805492871661010002610100600160a81b031990931692909217909155670de0b6b3a7640000600a55620f4240600955600b805490911633179055600781905560646200030082601e620003cc565b6200030c9190620003f8565b600c5560646200031e826005620003cc565b6200032a9190620003f8565b600d5560646200033c826014620003cc565b620003489190620003f8565b600e555050505050565b80516001600160a01b03811681146200036a57600080fd5b919050565b600080600080600060a086880312156200038857600080fd5b620003938662000352565b9450620003a36020870162000352565b9350620003b36040870162000352565b6060870151608090970151959894975095949392505050565b8082028115828204841417620003f257634e487b7160e01b600052601160045260246000fd5b92915050565b6000826200041657634e487b7160e01b600052601260045260246000fd5b500490565b6153c3806200042b6000396000f3fe60806040526004361061049e5760003560e01c80637dc0d1d011610260578063b2932c8d11610144578063d3552712116100c1578063e6ab143411610085578063e6ab143414611083578063f2fde38b14611143578063f309fed914611163578063f597573f14611183578063fb4aa0a1146111a8578063fe9f676e146111c857600080fd5b8063d355271214610fa6578063d6fd1c5214610fff578063d8ae8c8b14611014578063d9f02a251461104d578063e18e84f91461106d57600080fd5b8063c9c6b55611610108578063c9c6b55614610e89578063cc9fe9d314610f14578063cd1704a814610f46578063d01608c114610f66578063d099850a14610f8657600080fd5b8063b2932c8d14610db7578063b8bec6a014610dcd578063bed9d86114610ded578063c1dd608414610e02578063c8b8232114610e4c57600080fd5b806390c42230116101dd578063a43be57b116101a1578063a43be57b14610c6c578063a6ac4b3514610c81578063a87430ba14610c9b578063a9c85ced14610d1f578063aef6e26714610d35578063b04c734614610d5557600080fd5b806390c4223014610bc3578063920a253e14610be35780639752f3cb14610c0f578063a0f9c0aa14610c2f578063a33a16d814610c4f57600080fd5b80638d79e66d116102245780638d79e66d14610af35780638da5cb5b14610b095780638da7ad2314610b275780638e15f47314610b8e5780639051cce914610ba357600080fd5b80637dc0d1d014610a265780638093360814610a46578063817b1cd214610a9d578063833cde5214610ab35780638561c31514610ad357600080fd5b806348ff1a3911610387578063680f2e4f116103045780636e22e8bd116102c85780636e22e8bd146109715780636fb4adff14610991578063715018a6146109b1578063718a1962146109c65780637547c7a3146109e657806379b8d93814610a0657600080fd5b8063680f2e4f146108d757806368e94be8146108f75780636913b162146109175780636b5526a31461092c5780636ca952461461094157600080fd5b80635632bce61161034b5780635632bce614610821578063582b5723146108515780635c975abb146108715780636667864d14610890578063670988a8146108bd57600080fd5b806348ff1a39146107705780634a6413f7146107905780635503cd61146107b0578063552a2d14146107eb578063553ff7f51461080157600080fd5b80631ed0c954116104205780632bfcaac2116103e45780632bfcaac2146106cd5780632f48ab7d146106e3578063397643631461071b57806344c370d3146107315780634517c8a31461074757806348bf4fcf1461075a57600080fd5b80631ed0c954146106175780632127fe041461064757806323b221a01461066757806324d7806c146106875780632bef560f146106b757600080fd5b80630a09815c116104675780630a09815c146105645780630fbfcf37146105885780630fcc4f57146105a8578063112f62dc146105c85780631ca8b6cb1461060157600080fd5b8062dde10e146104a357806303fcd9ac146104e857806304c98b2b1461050a57806305eaab4b1461051f57806309b5a33a14610534575b600080fd5b3480156104af57600080fd5b506104d36104be366004614d24565b60116020526000908152604090205460ff1681565b60405190151581526020015b60405180910390f35b3480156104f457600080fd5b50610508610503366004614d67565b6111e8565b005b34801561051657600080fd5b5061050861121b565b34801561052b57600080fd5b506104d361124d565b34801561054057600080fd5b506104d361054f366004614d9e565b601c6020526000908152604090205460ff1681565b34801561057057600080fd5b5061057a600c5481565b6040519081526020016104df565b34801561059457600080fd5b506105086105a3366004614db9565b611498565b3480156105b457600080fd5b506105086105c3366004614d24565b6114fa565b3480156105d457600080fd5b506105e86105e3366004614dde565b611594565b60408051921515835260ff9091166020830152016104df565b34801561060d57600080fd5b5061057a60075481565b34801561062357600080fd5b506104d3610632366004614d9e565b60146020526000908152604090205460ff1681565b34801561065357600080fd5b5061057a610662366004614e11565b6116c7565b34801561067357600080fd5b506104d3610682366004614d24565b6117ca565b34801561069357600080fd5b506104d36106a2366004614d9e565b60156020526000908152604090205460ff1681565b3480156106c357600080fd5b5061057a600d5481565b3480156106d957600080fd5b5061057a60185481565b3480156106ef57600080fd5b50600354610703906001600160a01b031681565b6040516001600160a01b0390911681526020016104df565b34801561072757600080fd5b5061057a600a5481565b34801561073d57600080fd5b5061057a601f5481565b6104d3610755366004614d67565b611af4565b34801561076657600080fd5b5061057a60095481565b34801561077c57600080fd5b506104d361078b366004614e33565b611f6a565b34801561079c57600080fd5b506105086107ab366004614d24565b612573565b3480156107bc57600080fd5b506105086107cb366004614e73565b336000908152602360205260409020805460ff1916911515919091179055565b3480156107f757600080fd5b5061057a60195481565b34801561080d57600080fd5b5061057a61081c366004614d9e565b612653565b34801561082d57600080fd5b506104d361083c366004614d9e565b601b6020526000908152604090205460ff1681565b34801561085d57600080fd5b5061050861086c366004614d24565b6126bf565b34801561087d57600080fd5b50600154600160a01b900460ff166104d3565b34801561089c57600080fd5b506108b06108ab366004614d9e565b6126e0565b6040516104df9190614e90565b3480156108c957600080fd5b50600f546104d39060ff1681565b3480156108e357600080fd5b506105086108f2366004614edd565b612827565b34801561090357600080fd5b50610508610912366004614d24565b6129d3565b34801561092357600080fd5b50610508612a3f565b34801561093857600080fd5b50600e5461057a565b34801561094d57600080fd5b506104d361095c366004614d9e565b60236020526000908152604090205460ff1681565b34801561097d57600080fd5b5061050861098c366004614d9e565b612bff565b34801561099d57600080fd5b506105086109ac366004614d9e565b612f59565b3480156109bd57600080fd5b50610508612fa9565b3480156109d257600080fd5b5061057a6109e1366004614e11565b612fbd565b3480156109f257600080fd5b50610508610a01366004614d24565b61300d565b348015610a1257600080fd5b5061057a610a21366004614edd565b613210565b348015610a3257600080fd5b50600254610703906001600160a01b031681565b348015610a5257600080fd5b50610a66610a61366004614d9e565b613322565b6040805197885260208801969096529486019390935290151560608501521515608084015260a083015260c082015260e0016104df565b348015610aa957600080fd5b5061057a601e5481565b348015610abf57600080fd5b50600454610703906001600160a01b031681565b348015610adf57600080fd5b50610508610aee366004614d9e565b6133c3565b348015610aff57600080fd5b5061057a60055481565b348015610b1557600080fd5b506001546001600160a01b0316610703565b348015610b3357600080fd5b50610b6c610b42366004614d9e565b60226020526000908152604090208054600182015460028301546003909301549192909160ff1684565b60408051948552602085019390935291830152151560608201526080016104df565b348015610b9a57600080fd5b5061057a613419565b348015610baf57600080fd5b506104d3610bbe366004614f07565b6134b0565b348015610bcf57600080fd5b50610508610bde366004614f8b565b613570565b348015610bef57600080fd5b50601754610bfd9060ff1681565b60405160ff90911681526020016104df565b348015610c1b57600080fd5b50610508610c2a366004614fa8565b613680565b348015610c3b57600080fd5b50610508610c4a366004614edd565b61375d565b348015610c5b57600080fd5b5061057a683635c9adc5dea0000081565b348015610c7857600080fd5b506105086138bb565b348015610c8d57600080fd5b506020546104d39060ff1681565b348015610ca757600080fd5b50610cee610cb6366004614d9e565b60166020526000908152604090208054600182015460028301546003840154600590940154929391929091906001600160a01b031685565b6040805195865260208601949094529284019190915260608301526001600160a01b0316608082015260a0016104df565b348015610d2b57600080fd5b5061057a60215481565b348015610d4157600080fd5b50610508610d50366004614fe3565b613944565b348015610d6157600080fd5b50610d9c610d70366004614edd565b601360209081526000928352604080842090915290825290208054600182015460029092015490919083565b604080519384526020840192909252908201526060016104df565b348015610dc357600080fd5b5061057a60065481565b348015610dd957600080fd5b50610508610de8366004614e73565b613b08565b348015610df957600080fd5b50610508613b5d565b348015610e0e57600080fd5b50610e17613e27565b604080519788526020880196909652948601939093529015156060850152608084015260a083015260c082015260e0016104df565b348015610e5857600080fd5b50610e61613e80565b604080519586526020860194909452928401919091526060830152608082015260a0016104df565b348015610e9557600080fd5b50610ee0610ea4366004614d9e565b601a60205260009081526040902080546001820154600283015460038401546004909401546001600160a01b03909316939192909160ff169085565b604080516001600160a01b03909616865260208601949094529284019190915215156060830152608082015260a0016104df565b348015610f2057600080fd5b50610f29613ebc565b6040805193151584526020840192909252908201526060016104df565b348015610f5257600080fd5b50610508610f61366004614d24565b613f2d565b348015610f7257600080fd5b50610508610f81366004614d24565b613f75565b348015610f9257600080fd5b50610508610fa136600461501f565b614041565b348015610fb257600080fd5b50610fc6610fc1366004614d9e565b614229565b604080516001600160a01b03909716875260208701959095529385019290925260608401521515608083015260a082015260c0016104df565b34801561100b57600080fd5b5061057a60c881565b34801561102057600080fd5b506104d361102f366004614d9e565b6001600160a01b03166000908152601b602052604090205460ff1690565b34801561105957600080fd5b50610508611068366004614d9e565b6142d8565b34801561107957600080fd5b5061057a60085481565b34801561108f57600080fd5b506110f561109e366004614d24565b60126020526000908152604090208054600182015460028301546003840154600485015460058601546006870154600788015460089098015496979596949593949293919290919060ff808216916101009004168a565b604080519a8b5260208b0199909952978901969096526060880194909452608087019290925260a086015260c085015260e084015215156101008301521515610120820152610140016104df565b34801561114f57600080fd5b5061050861115e366004614d9e565b614328565b34801561116f57600080fd5b5061057a61117e366004614e11565b614363565b34801561118f57600080fd5b50600f546107039061010090046001600160a01b031681565b3480156111b457600080fd5b50600b54610703906001600160a01b031681565b3480156111d457600080fd5b5061057a6111e3366004614e11565b6143bd565b6111f0614480565b6001600160a01b03919091166000908152601460205260409020805460ff1916911515919091179055565b611223614480565b6008805460009081526012602052604080822042905582548252902001805460ff19166001179055565b60006112576144ad565b600061126233612653565b9050600081116112af5760405162461bcd60e51b81526020600482015260136024820152724e6f207265776172647320746f20636c61696d60681b60448201526064015b60405180910390fd5b600480546040516370a0823160e01b815230928101929092526001600160a01b0316906370a0823190602401602060405180830381865afa1580156112f8573d6000803e3d6000fd5b505050506040513d601f19601f8201168201806040525081019061131c9190615051565b81111561136b5760405162461bcd60e51b815260206004820152601d60248201527f4e6f7420656e6f75676820746f6b656e7320696e20636f6e747261637400000060448201526064016112a6565b336000908152601a60205260408120600201805483929061138d908490615080565b90915550506004805460405163a9059cbb60e01b81523392810192909252602482018390526001600160a01b03169063a9059cbb906044016020604051808303816000875af11580156113e4573d6000803e3d6000fd5b505050506040513d601f19601f820116820180604052508101906114089190615093565b61144c5760405162461bcd60e51b8152602060048201526015602482015274151bdad95b881d1c985b9cd9995c8819985a5b1959605a1b60448201526064016112a6565b6040805182815242602082015233917fea940d727b98f74071145844b731b12fccfc03b1e58a738235234c176a43e299910160405180910390a260019150506114956001600055565b90565b816000811180156114ab57506008548111155b6114c75760405162461bcd60e51b81526004016112a6906150b0565b6114cf614480565b5060009182526012602052604090912060080180549115156101000261ff0019909216919091179055565b611502614480565b601e548110156115495760405162461bcd60e51b815260206004820152601260248201527110995b1bddc81d1bdd185b081cdd185ad95960721b60448201526064016112a6565b601f8054908290556040805182815260208101849052428183015290517f69184c671db9747cef69bb2ee0e6ce0dfeec4b4562bf75185241b8927ab000f39181900360600190a15050565b6001600160a01b0381166000908152601c6020526040812054819060ff16156115c357506000905060016116c0565b826001600160a01b0316846001600160a01b0316036115e857506000905060026116c0565b6001600160a01b0384166000908152601b602052604090205460ff1661161457506000905060036116c0565b6001600160a01b038481166000908152601a602052604090205481851691160361164457506000905060026116c0565b6001600160a01b038085166000908152601a6020526040902054165b6001600160a01b038116156116b657836001600160a01b0316816001600160a01b031603611696576000600292509250506116c0565b6001600160a01b039081166000908152601a602052604090205416611660565b6001600092509250505b9250929050565b6000826000811180156116dc57506008548111155b6116f85760405162461bcd60e51b81526004016112a6906150b0565b60008481526012602052604081206002015461171490856150d4565b9050600460009054906101000a90046001600160a01b03166001600160a01b031663313ce5676040518163ffffffff1660e01b8152600401602060405180830381865afa158015611769573d6000803e3d6000fd5b505050506040513d601f19601f8201168201806040525081019061178d91906150eb565b61179890600a6151ec565b6117a0613419565b6117aa91906150d4565b600a546117b790836150d4565b6117c191906151fb565b95945050505050565b6000816000811180156117df57506008548111155b6117fb5760405162461bcd60e51b81526004016112a6906150b0565b60006118073385613210565b90506000811161184c5760405162461bcd60e51b815260206004820152601060248201526f4e6f7468696e6720746f20636c61696d60801b60448201526064016112a6565b6004546001600160a01b03166118945760405162461bcd60e51b815260206004820152600d60248201526c151bdad95b881b9bdd081cd95d609a1b60448201526064016112a6565b600480546040516370a0823160e01b815230928101929092526001600160a01b0316906370a0823190602401602060405180830381865afa1580156118dd573d6000803e3d6000fd5b505050506040513d601f19601f820116820180604052508101906119019190615051565b8111156119455760405162461bcd60e51b8152602060048201526012602482015271496e73756666696369656e742066756e647360701b60448201526064016112a6565b600084815260126020526040902060080154610100900460ff1661199f5760405162461bcd60e51b815260206004820152601160248201527010db185a5b5a5b99c8191a5cd8589b1959607a1b60448201526064016112a6565b336000908152601360209081526040808320878452909152812042815560020180548392906119cf908490615080565b90915550503360009081526023602052604090205460ff1615611a12576119f633826144d7565b336000908152602360205260409020805460ff19169055611aae565b6004805460405163a9059cbb60e01b81523392810192909252602482018390526000916001600160a01b039091169063a9059cbb906044016020604051808303816000875af1158015611a69573d6000803e3d6000fd5b505050506040513d601f19601f82011682018060405250810190611a8d9190615093565b905080611aac5760405162461bcd60e51b81526004016112a69061521d565b505b60408051828152426020820152859133917fc259a362e59c3fd12f739a3baa0fe06c78d12af06ec0eec656fca929a2b2ee84910160405180910390a35060019392505050565b6000600854600081118015611b0b57506008548111155b611b275760405162461bcd60e51b81526004016112a6906150b0565b600854611b348134612fbd565b6000828152601260205260409020544210801590611b63575060008281526012602052604090206008015460ff165b611b9e5760405162461bcd60e51b815260206004820152600c60248201526b496e76616c69642074696d6560a01b60448201526064016112a6565b600081118015611bd0575060008281526012602052604090206004810154600590910154611bcc9190615246565b8111155b611c0d5760405162461bcd60e51b815260206004820152600e60248201526d125b9d985b1a5908185b5bdd5b9d60921b60448201526064016112a6565b611c156144ad565b600f5460ff16611c585760405162461bcd60e51b815260206004820152600e60248201526d139bdd081c1c994b599d5b99195960921b60448201526064016112a6565b600a54600090611c6890806150d4565b600954611c73613419565b611c7d90346150d4565b611c8791906150d4565b611c9191906151fb565b6008546000908152601260205260409020600681015460079091015491925090611cbc908390615080565b1115611cfa5760405162461bcd60e51b815260206004820152600d60248201526c12185c9918d85c081b1a5b5a5d609a1b60448201526064016112a6565b60085460009081526011602052604090205460ff1615611d4d5760405162461bcd60e51b815260206004820152600e60248201526d141c995cd85b19481c185d5cd95960921b60448201526064016112a6565b600880546000908152601260205260409020015460ff16611da35760405162461bcd60e51b815260206004820152601060248201526f496e6163746976652070726573616c6560801b60448201526064016112a6565b6001600160a01b03871615611e0457863b63ffffffff1615611dfb5760405162461bcd60e51b815260206004820152601160248201527021b7b73a3930b1ba103932b332b93932b960791b60448201526064016112a6565b611e0487612bff565b6000611e1260085483614363565b3360009081526014602052604090205490915060ff16611e7357600554811015611e735760405162461bcd60e51b8152602060048201526012602482015271135a5b88185b5bdd5b9d081b9bdd081b595d60721b60448201526064016112a6565b60085460009081526012602052604081206004018054839290611e97908490615080565b909155505060085460009081526012602052604081206007018054849290611ec0908490615080565b925050819055508160066000828254611ed99190615080565b90915550611eea905081838a614704565b611ef4818861477e565b600b54611f0a906001600160a01b031634614859565b60085460408051838152346020820152428183015290516000929133917f4d8aead3491b7eba4b5c7a65fc17e493b9e63f9e433522fc5f6a85a168fc9d369181900360600190a4600195505050611f616001600055565b50505092915050565b6000600854600081118015611f8157506008548111155b611f9d5760405162461bcd60e51b81526004016112a6906150b0565b600854611faa8187614363565b6000828152601260205260409020544210801590611fd9575060008281526012602052604090206008015460ff165b6120145760405162461bcd60e51b815260206004820152600c60248201526b496e76616c69642074696d6560a01b60448201526064016112a6565b6000811180156120465750600082815260126020526040902060048101546005909101546120429190615246565b8111155b6120835760405162461bcd60e51b815260206004820152600e60248201526d125b9d985b1a5908185b5bdd5b9d60921b60448201526064016112a6565b61208b6144ad565b600f5460ff166120ce5760405162461bcd60e51b815260206004820152600e60248201526d139bdd081c1c994b599d5b99195960921b60448201526064016112a6565b60085460009081526011602052604090205460ff16156121215760405162461bcd60e51b815260206004820152600e60248201526d141c995cd85b19481c185d5cd95960921b60448201526064016112a6565b600880546000908152601260205260409020015460ff166121775760405162461bcd60e51b815260206004820152601060248201526f496e6163746976652070726573616c6560801b60448201526064016112a6565b6008546000908152601260205260409020600681015460079091015461219e908990615080565b11156121dc5760405162461bcd60e51b815260206004820152600d60248201526c12185c9918d85c081b1a5b5a5d609a1b60448201526064016112a6565b6001600160a01b0386161561223d57853b63ffffffff16156122345760405162461bcd60e51b815260206004820152601160248201527021b7b73a3930b1ba103932b332b93932b960791b60448201526064016112a6565b61223d86612bff565b600061224b60085489614363565b90508060126000600854815260200190815260200160002060040160008282546122759190615080565b9091555050600854600090815260126020526040812060070180548a929061229e908490615080565b9250508190555087600660008282546122b79190615080565b90915550503360009081526014602052604090205460ff1661231a5760055481101561231a5760405162461bcd60e51b8152602060048201526012602482015271135a5b88185b5bdd5b9d081b9bdd081b595d60721b60448201526064016112a6565b600f5460009061010090046001600160a01b031663dd62ed3e336040516001600160e01b031960e084901b1681526001600160a01b039091166004820152306024820152604401602060405180830381865afa15801561237e573d6000803e3d6000fd5b505050506040513d601f19601f820116820180604052508101906123a29190615051565b9050808911156123ed5760405162461bcd60e51b8152602060048201526016602482015275496e73756666696369656e7420616c6c6f77616e636560501b60448201526064016112a6565b600f5460009061010090046001600160a01b031633600b546040516001600160a01b03928316602482015291166044820152606481018c905260840160408051601f198184030181529181526020820180516001600160e01b03166323b872dd60e01b1790525161245e9190615259565b6000604051808303816000865af19150503d806000811461249b576040519150601f19603f3d011682016040523d82523d6000602084013e6124a0565b606091505b50509050806124e85760405162461bcd60e51b81526020600482015260146024820152731554d115081d1c985b9cd9995c8819985a5b195960621b60448201526064016112a6565b6124f3838b8b614704565b6124fd838961477e565b600f5460085460408051868152602081018e905242918101919091526101009092046001600160a01b03169133907f4d8aead3491b7eba4b5c7a65fc17e493b9e63f9e433522fc5f6a85a168fc9d369060600160405180910390a4600196505050506125696001600055565b5050509392505050565b8060008111801561258657506008548111155b6125a25760405162461bcd60e51b81526004016112a6906150b0565b6125aa614480565b60008281526011602052604090205460ff16156125fa5760405162461bcd60e51b815260206004820152600e60248201526d105b1c9958591e481c185d5cd95960921b60448201526064016112a6565b60008281526011602052604090819020805460ff191660011790555182907f927e6cd2dce24f32508868820cdc35f09d9de0f4b44e945114110125196fba9f906126479042815260200190565b60405180910390a25050565b6001600160a01b038082166000908152601a60209081526040808320815160a0810183528154909516855260018101549285018390526002810154918501829052600381015460ff16151560608601526004015460808501529192916126b891615246565b9392505050565b6126c7614480565b600b546126dd906001600160a01b031682614859565b50565b60606000825b6001600160a01b038181166000908152601a60205260409020541615612737578161271081615288565b6001600160a01b039283166000908152601a602052604090205490935090911690506126e6565b6000612744836001615080565b67ffffffffffffffff81111561275c5761275c6152a1565b604051908082528060200260200182016040528015612785578160200160208202803683370190505b509050848160008151811061279c5761279c6152b7565b6001600160a01b039092166020928302919091019091015284915060015b83811161281e576001600160a01b039283166000908152601a6020526040902054825193169283908390839081106127f4576127f46152b7565b6001600160a01b03909216602092830291909101909101528061281681615288565b9150506127ba565b50949350505050565b61282f614480565b6004546001600160a01b0390811690831603612936576000606461285460c882615080565b601e5461286191906150d4565b61286b91906151fb565b6018546128789190615080565b6040516370a0823160e01b81523060048201529091506000906001600160a01b038516906370a0823190602401602060405180830381865afa1580156128c2573d6000803e3d6000fd5b505050506040513d601f19601f820116820180604052508101906128e69190615051565b9050816128f38483615246565b10156129335760405162461bcd60e51b815260206004820152600f60248201526e526573657276656420746f6b656e7360881b60448201526064016112a6565b50505b600b5460405163a9059cbb60e01b81526001600160a01b0391821660048201526024810183905260009184169063a9059cbb906044016020604051808303816000875af115801561298b573d6000803e3d6000fd5b505050506040513d601f19601f820116820180604052508101906129af9190615093565b9050806129ce5760405162461bcd60e51b81526004016112a69061521d565b505050565b6129db614480565b60008111612a225760405162461bcd60e51b8152602060048201526014602482015273496e76616c696420746f74616c20737570706c7960601b60448201526064016112a6565b6064612a2f8260056150d4565b612a3991906151fb565b600d5550565b612a47614480565b600f5460ff1615612a8b5760405162461bcd60e51b815260206004820152600e60248201526d105b1c9958591e48199d5b99195960921b60448201526064016112a6565b6004546001600160a01b0316612ad35760405162461bcd60e51b815260206004820152600d60248201526c151bdad95b881b9bdd081cd95d609a1b60448201526064016112a6565b6000600e54600d54600c54612ae89190615080565b612af29190615080565b600480546040516370a0823160e01b815230928101929092529192506000916001600160a01b0316906370a0823190602401602060405180830381865afa158015612b41573d6000803e3d6000fd5b505050506040513d601f19601f82011682018060405250810190612b659190615051565b905081811015612bae5760405162461bcd60e51b8152602060048201526014602482015273496e73756666696369656e742062616c616e636560601b60448201526064016112a6565b600f805460ff19166001179055600454604080518381524260208201526001600160a01b03909216917fa87af714d03c932d084d64774397d6d857ba204899b9d02dc2a79c9a5aec207e9101612647565b6001600160a01b03811615801590612c2057506001600160a01b0381163314155b612c5f5760405162461bcd60e51b815260206004820152601060248201526f24b73b30b634b2103932b332b93932b960811b60448201526064016112a6565b336000908152601c602052604090205460ff1615612cb25760405162461bcd60e51b815260206004820152601060248201526f105b1c9958591e481c9959995c9c995960821b60448201526064016112a6565b6001600160a01b0381166000908152601b602052604090205460ff16612d115760405162461bcd60e51b81526020600482015260146024820152732ab738bab0b634b334b2b2103932b332b93932b960611b60448201526064016112a6565b6001600160a01b038181166000908152601a602052604090205433911603612d6f5760405162461bcd60e51b815260206004820152601160248201527010da5c98dd5b185c881c9959995c9c985b607a1b60448201526064016112a6565b6001600160a01b038082166000908152601a6020526040902054165b6001600160a01b03811615612e0357336001600160a01b03821603612de35760405162461bcd60e51b815260206004820152600e60248201526d21b4b931bab630b91031b430b4b760911b60448201526064016112a6565b6001600160a01b039081166000908152601a602052604090205416612d8b565b336000908152601a6020818152604080842080546001600160a01b0388166001600160a01b0319918216811790925560168452828620600501805490911682179055601c8352818520805460ff19908116600190811790925591865293909252832060038101805490921690921790556004810180549192612e8483615288565b90915550506001600160a01b0383166000908152601d6020908152604080832033845290915290205460ff16612f14576001600160a01b03831660008181526016602090815260408083206004018054600181810183559185528385200180546001600160a01b03191633908117909155948452601d8352818420948452939091529020805460ff191690911790555b60405142815233906001600160a01b038516907ff36afc48438e7a543cc47977b2ea45ca912bc74fd7e92126efea2f47c961eb7d9060200160405180910390a3505050565b612f61614480565b6001600160a01b038116612f875760405162461bcd60e51b81526004016112a6906152cd565b600b80546001600160a01b0319166001600160a01b0392909216919091179055565b612fb1614480565b612fbb600061492f565b565b600080600a54600a54612fd091906150d4565b600954612fdb613419565b612fe590866150d4565b612fef91906150d4565b612ff991906151fb565b90506130058482614363565b949350505050565b6130156144ad565b60205460ff1661303857604051637bf6f57360e01b815260040160405180910390fd5b8060000361305957604051631f2a200560e01b815260040160405180910390fd5b601f5481601e5461306a9190615080565b11156130895760405163a4875a4960e01b815260040160405180910390fd5b6000606461309860c8846150d4565b6130a291906151fb565b90506130ad600e5490565b816021546130bb9190615080565b11156130f85760405162461bcd60e51b815260206004820152600c60248201526b14995dd85c99081b1a5b5a5d60a21b60448201526064016112a6565b81601e600082825461310a9190615080565b9250508190555080602160008282546131239190615080565b9091555050601f54601e5410613179576020805460ff19168155604080516000815242928101929092527fb7d83b7e094cfcfa7dd295e685a79a100995b6110e9708b6c36d9242b3945450910160405180910390a15b33600090815260226020526040902080541580159061319d5750600381015460ff16155b156131ef5780600201544210156131e55760405162461bcd60e51b815260206004820152600c60248201526b4c6f636b6564207374616b6560a01b60448201526064016112a6565b6131ef3382614981565b6131fa338483614ad1565b6132043384614b4e565b50506126dd6001600055565b60008160008111801561322557506008548111155b6132415760405162461bcd60e51b81526004016112a6906150b0565b6001600160a01b03841660009081526013602090815260408083208684528252918290208251606081018452815481526001820154928101839052600290910154928101929092526132c85760405162461bcd60e51b815260206004820152601060248201526f4e6f7468696e6720746f20636c61696d60801b60448201526064016112a6565b6000816040015182602001516132de9190615246565b9050600081116117c15760405162461bcd60e51b815260206004820152600f60248201526e105b1c9958591e4818db185a5b5959608a1b60448201526064016112a6565b6001600160a01b03811660009081526022602052604081206002810154815483928392839283928392839242919091109083906064906133649060c8906150d4565b61336e91906151fb565b83546001850154600286015460038701549394509192909190859060ff1685816133a457885461339f908890615080565b6133a7565b60005b9950995099509950995099509950505050919395979092949650565b6133cb614480565b6001600160a01b0381166133f15760405162461bcd60e51b81526004016112a6906152cd565b600f80546001600160a01b0390921661010002610100600160a81b0319909216919091179055565b600080601060009054906101000a90046001600160a01b03166001600160a01b031663feaf968c6040518163ffffffff1660e01b815260040160a060405180830381865afa15801561346f573d6000803e3d6000fd5b505050506040513d601f19601f82011682018060405250810190613493919061530d565b505050915050806402540be4006134aa919061535d565b92915050565b6000816134ed5760405162461bcd60e51b815260206004820152600b60248201526a456d70747920617272617960a81b60448201526064016112a6565b60005b828110156135665761351984848381811061350d5761350d6152b7565b905060200201356117ca565b6135545760405162461bcd60e51b815260206004820152600c60248201526b10db185a5b4819985a5b195960a21b60448201526064016112a6565b8061355e81615288565b9150506134f0565b5060019392505050565b613578614480565b60008160ff1611801561358f575060148160ff1611155b6135d05760405162461bcd60e51b8152602060048201526012602482015271496e76616c69642070657263656e7461676560701b60448201526064016112a6565b6019544210156136145760405162461bcd60e51b815260206004820152600f60248201526e54696d656c6f636b2061637469766560881b60448201526064016112a6565b6136214262015180615080565b6019556017546040805160ff928316815291831660208301524282820152517f05de795d533c83a69716d09a7d87c97b9ace14242301047692a6ccc1b8f3d14c9181900360600190a16017805460ff191660ff92909216919091179055565b8460008111801561369357506008548111155b6136af5760405162461bcd60e51b81526004016112a6906150b0565b6136b7614480565b600085116136f45760405162461bcd60e51b815260206004820152600a6024820152695a65726f20707269636560b01b60448201526064016112a6565b600083116137325760405162461bcd60e51b815260206004820152600b60248201526a5a65726f20746f6b656e7360a81b60448201526064016112a6565b5060009485526012602052604090942060028101939093556003830191909155600582015560060155565b683635c9adc5dea0000081106138b7576001600160a01b038083166000908152601b60209081526040808320805460ff19166001179055601a9091529020541680156129ce576017546000906064906137b99060ff16856150d4565b6137c391906151fb565b905060006137d28260026150d4565b9050600d54816018546137e59190615080565b116138b3576001600160a01b0383166000908152601a602052604081206001018054849290613815908490615080565b90915550506001600160a01b0385166000908152601a602052604081206001018054849290613845908490615080565b92505081905550806018600082825461385e9190615080565b90915550506040805183815260208101849052428183015290516001600160a01b0387811692908616917f5660d47451868f1bb42f832a92e54d7670a64411d1074b64dfab5bec5f29c2319181900360600190a35b5050505b5050565b6138c3614480565b600880546000908152601260205260409020015460ff166139195760405162461bcd60e51b815260206004820152601060248201526f416c726561647920696e61637469766560801b60448201526064016112a6565b600880546000908152601260205260408082204260019091015582548252902001805460ff19169055565b61394c614480565b6001600160a01b0381166139725760405162461bcd60e51b81526004016112a6906152cd565b6004546001600160a01b0390811690841603613a6c576000606461399760c882615080565b601e546139a491906150d4565b6139ae91906151fb565b6040516370a0823160e01b81523060048201529091506000906001600160a01b038616906370a0823190602401602060405180830381865afa1580156139f8573d6000803e3d6000fd5b505050506040513d601f19601f82011682018060405250810190613a1c9190615051565b905081613a298583615246565b1015613a695760405162461bcd60e51b815260206004820152600f60248201526e526573657276656420746f6b656e7360881b60448201526064016112a6565b50505b60405163a9059cbb60e01b81526001600160a01b038281166004830152602482018490526000919085169063a9059cbb906044016020604051808303816000875af1158015613abf573d6000803e3d6000fd5b505050506040513d601f19601f82011682018060405250810190613ae39190615093565b905080613b025760405162461bcd60e51b81526004016112a69061521d565b50505050565b613b10614480565b6020805460ff191682151590811782556040805191825242928201929092527fb7d83b7e094cfcfa7dd295e685a79a100995b6110e9708b6c36d9242b3945450910160405180910390a150565b613b656144ad565b3360009081526022602052604090208054613bb35760405162461bcd60e51b815260206004820152600e60248201526d139bc81cdd185ad948199bdd5b9960921b60448201526064016112a6565b600381015460ff1615613bfc5760405162461bcd60e51b815260206004820152601160248201527020b63932b0b23c903bb4ba34323930bbb760791b60448201526064016112a6565b8060020154421015613c3f5760405162461bcd60e51b815260206004820152600c60248201526b14dd1a5b1b081b1bd8dad95960a21b60448201526064016112a6565b805460006064613c5060c8846150d4565b613c5a91906151fb565b90506000613c688284615080565b60038501805460ff19166001179055601e54909150613c88908490615246565b601e55600480546040516370a0823160e01b815230928101929092526001600160a01b0316906370a0823190602401602060405180830381865afa158015613cd4573d6000803e3d6000fd5b505050506040513d601f19601f82011682018060405250810190613cf89190615051565b811115613d3c5760405162461bcd60e51b8152602060048201526012602482015271496e73756666696369656e742066756e647360701b60448201526064016112a6565b6004805460405163a9059cbb60e01b81523392810192909252602482018390526000916001600160a01b039091169063a9059cbb906044016020604051808303816000875af1158015613d93573d6000803e3d6000fd5b505050506040513d601f19601f82011682018060405250810190613db79190615093565b905080613dd65760405162461bcd60e51b81526004016112a69061521d565b60408051858152602081018590524281830152905133917f88d1c46373223a4f1f60db2badc985b05ec9c2b2eab4537f0f8e1291b78b6e37919081900360600190a25050505050612fbb6001600055565b6000806000806000806000601e54601f5460c8602060009054906101000a900460ff16613e53600e5490565b60215480613e60600e5490565b613e6a9190615246565b959d949c50929a50909850965094509092509050565b601754601854600d54600092839283928392839260ff90911691613ea48282615246565b60195460ff9094169992985090965094509092509050565b60205460009081908190819060ff168015613eda5750601f54601e54105b90506000601e54601f5411613ef0576000613f00565b601e54601f54613f009190615246565b90506000601f54601e546064613f1691906150d4565b613f2091906151fb565b9296919550919350915050565b613f35614480565b60008111613f705760405162461bcd60e51b81526020600482015260086024820152672d32b9379036b4b760c11b60448201526064016112a6565b600555565b80600081118015613f8857506008548111155b613fa45760405162461bcd60e51b81526004016112a6906150b0565b613fac614480565b60008281526011602052604090205460ff16613ff75760405162461bcd60e51b815260206004820152600a602482015269139bdd081c185d5cd95960b21b60448201526064016112a6565b60008281526011602052604090819020805460ff191690555182907ff608654a6d8e1785594639dd55babb61d7ae157382015f904a24224e50333b1d906126479042815260200190565b614049614480565b600084116140865760405162461bcd60e51b815260206004820152600a6024820152695a65726f20707269636560b01b60448201526064016112a6565b600082116140c45760405162461bcd60e51b815260206004820152600b60248201526a5a65726f20746f6b656e7360a81b60448201526064016112a6565b600880546000908152601260205260409020015460ff16156141165760405162461bcd60e51b815260206004820152600b60248201526a53616c652061637469766560a81b60448201526064016112a6565b6008805490600061412683615288565b909155505060408051610140810182526000808252602080830182815283850189815260608086018a81526080870186815260a088018b815260c089018b815260e08a01898152610100808c018b81526101208d018c8152600880548e5260128d528f8e209e518f559a5160018f0155985160028e0155955160038d0155935160048c0155915160058b01555160068a015551600789015590519684018054935161ffff1990941697151561ff001916979097179215150291909117909455548451878152918201839052938101919091527f6a00651728a92841411081673eaa4eddbed06d102a590e050c22def40d4dd0b8910160405180910390a250505050565b6001600160a01b038082166000908152601a60209081526040808320815160a081018352815490951680865260018201549386018490526002820154928601839052600382015460ff161515606087015260049091015460808601529293849384938493849384939092909161429f8183615246565b6001600160a01b039b909b166000908152601b602052604090205460809490940151929b919a909950975060ff90921695509350915050565b6142e0614480565b6001600160a01b0381166143065760405162461bcd60e51b81526004016112a6906152cd565b600480546001600160a01b0319166001600160a01b0392909216919091179055565b614330614480565b6001600160a01b03811661435a57604051631e4fbdf760e01b8152600060048201526024016112a6565b6126dd8161492f565b60008260008111801561437857506008548111155b6143945760405162461bcd60e51b81526004016112a6906150b0565b6009546000858152601260205260409020600201546143b390856150d4565b61300591906151fb565b6000826000811180156143d257506008548111155b6143ee5760405162461bcd60e51b81526004016112a6906150b0565b600480546040805163313ce56760e01b815290516001600160a01b039092169263313ce5679282820192602092908290030181865afa158015614435573d6000803e3d6000fd5b505050506040513d601f19601f8201168201806040525081019061445991906150eb565b61446490600a6151ec565b6000858152601260205260409020600201546143b390856150d4565b6001546001600160a01b03163314612fbb5760405163118cdaa760e01b81523360048201526024016112a6565b6002600054036144d057604051633ee5aeb560e01b815260040160405180910390fd5b6002600055565b60205460ff1661451c5760405162461bcd60e51b815260206004820152601060248201526f5374616b696e6720696e61637469766560801b60448201526064016112a6565b6000811161455a5760405162461bcd60e51b815260206004820152600b60248201526a16995c9bc8185b5bdd5b9d60aa1b60448201526064016112a6565b601f5481601e5461456b9190615080565b11156145a85760405162461bcd60e51b815260206004820152600c60248201526b10d85c08195e18d95959195960a21b60448201526064016112a6565b600060646145b760c8846150d4565b6145c191906151fb565b90506145cc600e5490565b816021546145da9190615080565b11156146175760405162461bcd60e51b815260206004820152600c60248201526b14995dd85c99081b1a5b5a5d60a21b60448201526064016112a6565b81601e60008282546146299190615080565b9250508190555080602160008282546146429190615080565b9091555050601f54601e5410614698576020805460ff19168155604080516000815242928101929092527fb7d83b7e094cfcfa7dd295e685a79a100995b6110e9708b6c36d9242b3945450910160405180910390a15b6001600160a01b03831660009081526022602052604090208054158015906146c55750600381015460ff16155b156146f95780600201544210156146ef576040516302fd696960e61b815260040160405180910390fd5b6146f98482614981565b613b02848483614ad1565b3360009081526016602052604081208054859290614723908490615080565b9091555050336000908152601660205260408120600101805484929061474a908490615080565b9091555050336000908152601660205260409020426003909101556001600160a01b038116156129ce576129ce338461375d565b801561478e576138b733836144d7565b3360009081526013602090815260408083206008548452909152902060010154156147ed573360009081526013602090815260408083206008548452909152812060010180548492906147e2908490615080565b909155506138b79050565b6040518060600160405280600081526020018381526020016000815250601360006148153390565b6001600160a01b0316815260208082019290925260409081016000908120600854825283528190208351815591830151600183015591909101516002909101555050565b804710156148975760405162461bcd60e51b815260206004820152600b60248201526a4c6f772062616c616e636560a81b60448201526064016112a6565b6000826001600160a01b03168260405160006040518083038185875af1925050503d80600081146148e4576040519150601f19603f3d011682016040523d82523d6000602084013e6148e9565b606091505b50509050806129ce5760405162461bcd60e51b81526020600482015260126024820152711155120814185e5b595b9d0819985a5b195960721b60448201526064016112a6565b600180546001600160a01b038381166001600160a01b0319831681179093556040519116919082907f8be0079c531659141344cd1fd0a4f28419497f9722a3daafe3b4186f6b6457e090600090a35050565b80546000606461499260c8846150d4565b61499c91906151fb565b60038401805460ff191660011790556004549091506000906001600160a01b031663a9059cbb866149cd8587615080565b6040516001600160e01b031960e085901b1681526001600160a01b03909216600483015260248201526044016020604051808303816000875af1158015614a18573d6000803e3d6000fd5b505050506040513d601f19601f82011682018060405250810190614a3c9190615093565b905080614a7f5760405162461bcd60e51b815260206004820152601160248201527015da5d1a191c985dd85b0819985a5b1959607a1b60448201526064016112a6565b6040805184815260208101849052428183015290516001600160a01b038716917f88d1c46373223a4f1f60db2badc985b05ec9c2b2eab4537f0f8e1291b78b6e37919081900360600190a25050505050565b8181554260018201819055614aea906301e13380615080565b6002820181905560038201805460ff1916905560408051848152426020820152908101919091526001600160a01b038416907f0fc5b1bac0416800b42a669229a346b6e5a15db3896339dbdc5fa376e1e4570a9060600160405180910390a2505050565b600480546040516370a0823160e01b815230928101929092526000916001600160a01b03909116906370a0823190602401602060405180830381865afa158015614b9c573d6000803e3d6000fd5b505050506040513d601f19601f82011682018060405250810190614bc09190615051565b600480546040516323b872dd60e01b81526001600160a01b0387811693820193909352306024820152604481018690529293506000929116906323b872dd906064016020604051808303816000875af1158015614c21573d6000803e3d6000fd5b505050506040513d601f19601f82011682018060405250810190614c459190615093565b905080614c645760405162461bcd60e51b81526004016112a69061521d565b600480546040516370a0823160e01b815230928101929092526000916001600160a01b03909116906370a0823190602401602060405180830381865afa158015614cb2573d6000803e3d6000fd5b505050506040513d601f19601f82011682018060405250810190614cd69190615051565b9050614ce28484615080565b8110156138b35760405162461bcd60e51b815260206004820152601060248201526f125b98dbdc9c9958dd08185b5bdd5b9d60821b60448201526064016112a6565b600060208284031215614d3657600080fd5b5035919050565b80356001600160a01b0381168114614d5457600080fd5b919050565b80151581146126dd57600080fd5b60008060408385031215614d7a57600080fd5b614d8383614d3d565b91506020830135614d9381614d59565b809150509250929050565b600060208284031215614db057600080fd5b6126b882614d3d565b60008060408385031215614dcc57600080fd5b823591506020830135614d9381614d59565b60008060408385031215614df157600080fd5b614dfa83614d3d565b9150614e0860208401614d3d565b90509250929050565b60008060408385031215614e2457600080fd5b50508035926020909101359150565b600080600060608486031215614e4857600080fd5b83359250614e5860208501614d3d565b91506040840135614e6881614d59565b809150509250925092565b600060208284031215614e8557600080fd5b81356126b881614d59565b6020808252825182820181905260009190848201906040850190845b81811015614ed15783516001600160a01b031683529284019291840191600101614eac565b50909695505050505050565b60008060408385031215614ef057600080fd5b614ef983614d3d565b946020939093013593505050565b60008060208385031215614f1a57600080fd5b823567ffffffffffffffff80821115614f3257600080fd5b818501915085601f830112614f4657600080fd5b813581811115614f5557600080fd5b8660208260051b8501011115614f6a57600080fd5b60209290920196919550909350505050565b60ff811681146126dd57600080fd5b600060208284031215614f9d57600080fd5b81356126b881614f7c565b600080600080600060a08688031215614fc057600080fd5b505083359560208501359550604085013594606081013594506080013592509050565b600080600060608486031215614ff857600080fd5b61500184614d3d565b92506020840135915061501660408501614d3d565b90509250925092565b6000806000806080858703121561503557600080fd5b5050823594602084013594506040840135936060013592509050565b60006020828403121561506357600080fd5b5051919050565b634e487b7160e01b600052601160045260246000fd5b808201808211156134aa576134aa61506a565b6000602082840312156150a557600080fd5b81516126b881614d59565b6020808252600a9082015269125b9d985b1a5908125160b21b604082015260600190565b80820281158282048414176134aa576134aa61506a565b6000602082840312156150fd57600080fd5b81516126b881614f7c565b600181815b808511156151435781600019048211156151295761512961506a565b8085161561513657918102915b93841c939080029061510d565b509250929050565b60008261515a575060016134aa565b81615167575060006134aa565b816001811461517d5760028114615187576151a3565b60019150506134aa565b60ff8411156151985761519861506a565b50506001821b6134aa565b5060208310610133831016604e8410600b84101617156151c6575081810a6134aa565b6151d08383615108565b80600019048211156151e4576151e461506a565b029392505050565b60006126b860ff84168361514b565b60008261521857634e487b7160e01b600052601260045260246000fd5b500490565b6020808252600f908201526e151c985b9cd9995c8819985a5b1959608a1b604082015260600190565b818103818111156134aa576134aa61506a565b6000825160005b8181101561527a5760208186018101518583015201615260565b506000920191825250919050565b60006001820161529a5761529a61506a565b5060010190565b634e487b7160e01b600052604160045260246000fd5b634e487b7160e01b600052603260045260246000fd5b6020808252600c908201526b5a65726f206164647265737360a01b604082015260600190565b805169ffffffffffffffffffff81168114614d5457600080fd5b600080600080600060a0868803121561532557600080fd5b61532e866152f3565b9450602086015193506040860151925060608601519150615351608087016152f3565b90509295509295909350565b80820260008212600160ff1b841416156153795761537961506a565b81810583148215176134aa576134aa61506a56fea264697066735822122067b40959f9b9fa7e74ca0ea9078866707a5dffe8bb94994b22c5b4e17b2631f964736f6c63430008140033",
  "libraries": {
    "SaleUtils": "0x23A92400A88B1F849D315471c2a3F1FDB311774d"
  },
  "devdoc": {
    "details": "All tokens (presale, referral, staking) must be sent to the contract before starting Token Allocation: - 30% for presale (30,000,000,000 tokens) - 5% for referral rewards (5,000,000,000 tokens) - 20% for staking rewards (20,000,000,000 tokens) Total: 55% of total supply must be transferred to this contract",
    "errors": {
      "EnforcedPause()": [
        {
          "details": "The operation failed because the contract is paused."
        }
      ],
      "ExpectedPause()": [
        {
          "details": "The operation failed because the contract is not paused."
        }
      ],
      "OwnableInvalidOwner(address)": [
        {
          "details": "The owner is not a valid owner account. (eg. `address(0)`)"
        }
      ],
      "OwnableUnauthorizedAccount(address)": [
        {
          "details": "The caller account is not authorized to perform an operation."
        }
      ],
      "ReentrancyGuardReentrantCall()": [
        {
          "details": "Unauthorized reentrant call."
        }
      ]
    },
    "events": {
      "Paused(address)": {
        "details": "Emitted when the pause is triggered by `account`."
      },
      "Unpaused(address)": {
        "details": "Emitted when the pause is lifted by `account`."
      }
    },
    "kind": "dev",
    "methods": {
      "ChangeTokentoSell(address)": {
        "details": "Update the sale token address"
      },
      "EditMinTokenToBuy(uint256)": {
        "details": "Update minimum token purchase amount"
      },
      "ExcludeAccouctFromMinBuy(address,bool)": {
        "details": "Exclude account from minimum buy requirement"
      },
      "WithdrawContractFunds(uint256)": {
        "details": "Withdraw ETH from contract"
      },
      "WithdrawTokens(address,uint256)": {
        "details": "Override withdraw to account for staking rewards"
      },
      "buyWithEth(address,bool)": {
        "details": "Buy into a presale using ETH with option for immediate staking"
      },
      "buyWithUSDT(uint256,address,bool)": {
        "details": "Buy into a presale using USDT with option for immediate staking"
      },
      "canBeReferred(address,address)": {
        "details": "Check if a user can be referred by a specific referrer"
      },
      "canReferOthers(address)": {
        "details": "Check if a user has a valid referral link to share"
      },
      "changeFundWallet(address)": {
        "details": "Change fund receiving wallet"
      },
      "changeUSDTToken(address)": {
        "details": "Change USDT token address"
      },
      "claimAmount(uint256)": {
        "details": "Claim function to handle only non-staked tokens"
      },
      "claimMultiple(uint256[])": {
        "details": "To claim tokens from multiple presales"
      },
      "claimReferralRewards()": {
        "details": "Claim referral rewards"
      },
      "claimableAmount(address,uint256)": {
        "details": "Helper funtion to get claimable tokens for a given presale"
      },
      "constructor": {
        "details": "Constructor sets up the contract parameters",
        "params": {
          "_MinTokenTobuy": "Minimum tokens that can be purchased",
          "_SaleToken": "Sale token address",
          "_oracle": "Chainlink oracle for ETH price feed",
          "_totalTokenSupply": "Total token supply (100,000,000,000)",
          "_usdt": "USDT token address"
        }
      },
      "createPresale(uint256,uint256,uint256,uint256)": {
        "details": "Create a new presale"
      },
      "enableClaim(uint256,bool)": {
        "details": "Enable claiming for a presale"
      },
      "endPresale()": {
        "details": "End the presale"
      },
      "ethBuyHelper(uint256,uint256)": {
        "details": "Helper funtion to get ETH price for given amount"
      },
      "ethToTokens(uint256,uint256)": {
        "details": "Helper funtion to get tokens for eth amount"
      },
      "getClaimableReferralRewards(address)": {
        "details": "Get claimable referral rewards for a user",
        "params": {
          "_user": "Address of the user"
        }
      },
      "getLatestPrice()": {
        "details": "Get the latest ETH price from Chainlink"
      },
      "getReferralChain(address)": {
        "details": "Get the entire referral chain for a user"
      },
      "getReferralProgramStats()": {
        "details": "Get referral program stats"
      },
      "getStakingAvailability()": {
        "details": "Quick check if staking is available and capacity info"
      },
      "getStakingStats()": {
        "details": "Get staking program statistics"
      },
      "getUserReferralInfo(address)": {
        "details": "Get user referral info for frontend"
      },
      "getUserStakingInfo(address)": {
        "details": "Get user staking information"
      },
      "maxStakingRewards()": {
        "details": "Public getter for max staking rewards"
      },
      "owner()": {
        "details": "Returns the address of the current owner."
      },
      "pausePresale(uint256)": {
        "details": "Pause a presale"
      },
      "paused()": {
        "details": "Returns true if the contract is paused, and false otherwise."
      },
      "preFundContract()": {
        "details": "Pre-fund the contract with tokens for presale, referrals, and staking"
      },
      "processReferralRewards(address,uint256)": {
        "details": "Process referral rewards after a successful purchase",
        "params": {
          "_tokenAmount": "Amount of tokens purchased",
          "_user": "Address of the user who made a purchase"
        }
      },
      "recordReferral(address)": {
        "details": "Records a valid referral relationship",
        "params": {
          "_referrer": "Address of the referrer"
        }
      },
      "renounceOwnership()": {
        "details": "Leaves the contract without owner. It will not be possible to call `onlyOwner` functions. Can only be called by the current owner. NOTE: Renouncing ownership will leave the contract without an owner, thereby disabling any functionality that is only available to the owner."
      },
      "safeWithdraw(address,uint256,address)": {
        "details": "Safe withdrawal function for accumulated tokens",
        "params": {
          "_amount": "Amount to withdraw",
          "_recipient": "Recipient address",
          "_token": "Token address"
        }
      },
      "setStakingIntent(bool)": {
        "details": "Set staking intent for a user",
        "params": {
          "_intent": "Whether to stake tokens upon claim"
        }
      },
      "setStakingStatus(bool)": {
        "details": "Toggle staking status (active/inactive)"
      },
      "stakeTokens(uint256)": {
        "details": "Stake tokens with 1-year lock and 200% APY"
      },
      "startPresale()": {
        "details": "Start the presale"
      },
      "transferOwnership(address)": {
        "details": "Transfers ownership of the contract to a new account (`newOwner`). Can only be called by the current owner."
      },
      "unPausePresale(uint256)": {
        "details": "Unpause a presale"
      },
      "updateMaxReferralRewards(uint256)": {
        "details": "Update the maximum referral rewards (5% of total supply)",
        "params": {
          "_totalSupply": "The total token supply to calculate 5% from"
        }
      },
      "updatePresale(uint256,uint256,uint256,uint256,uint256)": {
        "details": "Update presale parameters"
      },
      "updateReferralRewardPercentage(uint8)": {
        "details": "Change referral reward percentage with timelock protection",
        "params": {
          "_percentage": "New percentage (1-20)"
        }
      },
      "updateStakingCap(uint256)": {
        "details": "Update staking cap"
      },
      "usdtBuyHelper(uint256,uint256)": {
        "details": "Helper funtion to get USDT price for given amount"
      },
      "usdtToTokens(uint256,uint256)": {
        "details": "Helper funtion to get tokens for given usdt amount"
      },
      "withdrawStake()": {
        "details": "Withdraw staked tokens and rewards after lock period"
      }
    },
    "title": "PreSale and Staking Contract",
    "version": 1
  },
  "userdoc": {
    "kind": "user",
    "methods": {},
    "notice": "This contract handles token presale, referral rewards, and staking functionality",
    "version": 1
  },
  "storageLayout": {
    "storage": [
      {
        "astId": 1098,
        "contract": "contracts/Sale.sol:Sale",
        "label": "_status",
        "offset": 0,
        "slot": "0",
        "type": "t_uint256"
      },
      {
        "astId": 54,
        "contract": "contracts/Sale.sol:Sale",
        "label": "_owner",
        "offset": 0,
        "slot": "1",
        "type": "t_address"
      },
      {
        "astId": 988,
        "contract": "contracts/Sale.sol:Sale",
        "label": "_paused",
        "offset": 20,
        "slot": "1",
        "type": "t_bool"
      },
      {
        "astId": 2701,
        "contract": "contracts/Sale.sol:Sale",
        "label": "oracle",
        "offset": 0,
        "slot": "2",
        "type": "t_address"
      },
      {
        "astId": 2703,
        "contract": "contracts/Sale.sol:Sale",
        "label": "usdt",
        "offset": 0,
        "slot": "3",
        "type": "t_address"
      },
      {
        "astId": 2705,
        "contract": "contracts/Sale.sol:Sale",
        "label": "SaleToken",
        "offset": 0,
        "slot": "4",
        "type": "t_address"
      },
      {
        "astId": 2707,
        "contract": "contracts/Sale.sol:Sale",
        "label": "MinTokenTobuy",
        "offset": 0,
        "slot": "5",
        "type": "t_uint256"
      },
      {
        "astId": 2709,
        "contract": "contracts/Sale.sol:Sale",
        "label": "TotalUSDTRaised",
        "offset": 0,
        "slot": "6",
        "type": "t_uint256"
      },
      {
        "astId": 2711,
        "contract": "contracts/Sale.sol:Sale",
        "label": "totalTokenSupply",
        "offset": 0,
        "slot": "7",
        "type": "t_uint256"
      },
      {
        "astId": 2713,
        "contract": "contracts/Sale.sol:Sale",
        "label": "presaleId",
        "offset": 0,
        "slot": "8",
        "type": "t_uint256"
      },
      {
        "astId": 2715,
        "contract": "contracts/Sale.sol:Sale",
        "label": "USDT_MULTIPLIER",
        "offset": 0,
        "slot": "9",
        "type": "t_uint256"
      },
      {
        "astId": 2717,
        "contract": "contracts/Sale.sol:Sale",
        "label": "ETH_MULTIPLIER",
        "offset": 0,
        "slot": "10",
        "type": "t_uint256"
      },
      {
        "astId": 2719,
        "contract": "contracts/Sale.sol:Sale",
        "label": "fundReceiver",
        "offset": 0,
        "slot": "11",
        "type": "t_address"
      },
      {
        "astId": 2721,
        "contract": "contracts/Sale.sol:Sale",
        "label": "presaleTokens",
        "offset": 0,
        "slot": "12",
        "type": "t_uint256"
      },
      {
        "astId": 2723,
        "contract": "contracts/Sale.sol:Sale",
        "label": "maxReferralRewards",
        "offset": 0,
        "slot": "13",
        "type": "t_uint256"
      },
      {
        "astId": 2725,
        "contract": "contracts/Sale.sol:Sale",
        "label": "_maxStakingRewards",
        "offset": 0,
        "slot": "14",
        "type": "t_uint256"
      },
      {
        "astId": 2728,
        "contract": "contracts/Sale.sol:Sale",
        "label": "isTokenPreFunded",
        "offset": 0,
        "slot": "15",
        "type": "t_bool"
      },
      {
        "astId": 2731,
        "contract": "contracts/Sale.sol:Sale",
        "label": "USDTInterface",
        "offset": 1,
        "slot": "15",
        "type": "t_contract(IERC20Metadata)949"
      },
      {
        "astId": 2734,
        "contract": "contracts/Sale.sol:Sale",
        "label": "aggregatorInterface",
        "offset": 0,
        "slot": "16",
        "type": "t_contract(Aggregator)2692"
      },
      {
        "astId": 2738,
        "contract": "contracts/Sale.sol:Sale",
        "label": "paused",
        "offset": 0,
        "slot": "17",
        "type": "t_mapping(t_uint256,t_bool)"
      },
      {
        "astId": 2743,
        "contract": "contracts/Sale.sol:Sale",
        "label": "presale",
        "offset": 0,
        "slot": "18",
        "type": "t_mapping(t_uint256,t_struct(Presale)4786_storage)"
      },
      {
        "astId": 2750,
        "contract": "contracts/Sale.sol:Sale",
        "label": "userClaimData",
        "offset": 0,
        "slot": "19",
        "type": "t_mapping(t_address,t_mapping(t_uint256,t_struct(ClaimData)4793_storage))"
      },
      {
        "astId": 2754,
        "contract": "contracts/Sale.sol:Sale",
        "label": "isExcludeMinToken",
        "offset": 0,
        "slot": "20",
        "type": "t_mapping(t_address,t_bool)"
      },
      {
        "astId": 2758,
        "contract": "contracts/Sale.sol:Sale",
        "label": "isAdmin",
        "offset": 0,
        "slot": "21",
        "type": "t_mapping(t_address,t_bool)"
      },
      {
        "astId": 2763,
        "contract": "contracts/Sale.sol:Sale",
        "label": "users",
        "offset": 0,
        "slot": "22",
        "type": "t_mapping(t_address,t_struct(User)4765_storage)"
      },
      {
        "astId": 1176,
        "contract": "contracts/Sale.sol:Sale",
        "label": "referralRewardPercentage",
        "offset": 0,
        "slot": "23",
        "type": "t_uint8"
      },
      {
        "astId": 1178,
        "contract": "contracts/Sale.sol:Sale",
        "label": "totalReferralRewardsIssued",
        "offset": 0,
        "slot": "24",
        "type": "t_uint256"
      },
      {
        "astId": 1180,
        "contract": "contracts/Sale.sol:Sale",
        "label": "referralPercentageChangeTimeLock",
        "offset": 0,
        "slot": "25",
        "type": "t_uint256"
      },
      {
        "astId": 1185,
        "contract": "contracts/Sale.sol:Sale",
        "label": "referralData",
        "offset": 0,
        "slot": "26",
        "type": "t_mapping(t_address,t_struct(ReferralData)4804_storage)"
      },
      {
        "astId": 1189,
        "contract": "contracts/Sale.sol:Sale",
        "label": "hasQualifiedPurchase",
        "offset": 0,
        "slot": "27",
        "type": "t_mapping(t_address,t_bool)"
      },
      {
        "astId": 1193,
        "contract": "contracts/Sale.sol:Sale",
        "label": "hasUsedReferral",
        "offset": 0,
        "slot": "28",
        "type": "t_mapping(t_address,t_bool)"
      },
      {
        "astId": 1199,
        "contract": "contracts/Sale.sol:Sale",
        "label": "referredUserExists",
        "offset": 0,
        "slot": "29",
        "type": "t_mapping(t_address,t_mapping(t_address,t_bool))"
      },
      {
        "astId": 3772,
        "contract": "contracts/Sale.sol:Sale",
        "label": "totalStaked",
        "offset": 0,
        "slot": "30",
        "type": "t_uint256"
      },
      {
        "astId": 3774,
        "contract": "contracts/Sale.sol:Sale",
        "label": "stakingCap",
        "offset": 0,
        "slot": "31",
        "type": "t_uint256"
      },
      {
        "astId": 3776,
        "contract": "contracts/Sale.sol:Sale",
        "label": "stakingActive",
        "offset": 0,
        "slot": "32",
        "type": "t_bool"
      },
      {
        "astId": 3778,
        "contract": "contracts/Sale.sol:Sale",
        "label": "totalStakingRewardsIssued",
        "offset": 0,
        "slot": "33",
        "type": "t_uint256"
      },
      {
        "astId": 3783,
        "contract": "contracts/Sale.sol:Sale",
        "label": "userStakes",
        "offset": 0,
        "slot": "34",
        "type": "t_mapping(t_address,t_struct(StakeInfo)4813_storage)"
      },
      {
        "astId": 3787,
        "contract": "contracts/Sale.sol:Sale",
        "label": "userStakingIntent",
        "offset": 0,
        "slot": "35",
        "type": "t_mapping(t_address,t_bool)"
      }
    ],
    "types": {
      "t_address": {
        "encoding": "inplace",
        "label": "address",
        "numberOfBytes": "20"
      },
      "t_array(t_address)dyn_storage": {
        "base": "t_address",
        "encoding": "dynamic_array",
        "label": "address[]",
        "numberOfBytes": "32"
      },
      "t_bool": {
        "encoding": "inplace",
        "label": "bool",
        "numberOfBytes": "1"
      },
      "t_contract(Aggregator)2692": {
        "encoding": "inplace",
        "label": "contract Aggregator",
        "numberOfBytes": "20"
      },
      "t_contract(IERC20Metadata)949": {
        "encoding": "inplace",
        "label": "contract IERC20Metadata",
        "numberOfBytes": "20"
      },
      "t_mapping(t_address,t_bool)": {
        "encoding": "mapping",
        "key": "t_address",
        "label": "mapping(address => bool)",
        "numberOfBytes": "32",
        "value": "t_bool"
      },
      "t_mapping(t_address,t_mapping(t_address,t_bool))": {
        "encoding": "mapping",
        "key": "t_address",
        "label": "mapping(address => mapping(address => bool))",
        "numberOfBytes": "32",
        "value": "t_mapping(t_address,t_bool)"
      },
      "t_mapping(t_address,t_mapping(t_uint256,t_struct(ClaimData)4793_storage))": {
        "encoding": "mapping",
        "key": "t_address",
        "label": "mapping(address => mapping(uint256 => struct ISaleStructs.ClaimData))",
        "numberOfBytes": "32",
        "value": "t_mapping(t_uint256,t_struct(ClaimData)4793_storage)"
      },
      "t_mapping(t_address,t_struct(ReferralData)4804_storage)": {
        "encoding": "mapping",
        "key": "t_address",
        "label": "mapping(address => struct ISaleStructs.ReferralData)",
        "numberOfBytes": "32",
        "value": "t_struct(ReferralData)4804_storage"
      },
      "t_mapping(t_address,t_struct(StakeInfo)4813_storage)": {
        "encoding": "mapping",
        "key": "t_address",
        "label": "mapping(address => struct ISaleStructs.StakeInfo)",
        "numberOfBytes": "32",
        "value": "t_struct(StakeInfo)4813_storage"
      },
      "t_mapping(t_address,t_struct(User)4765_storage)": {
        "encoding": "mapping",
        "key": "t_address",
        "label": "mapping(address => struct ISaleStructs.User)",
        "numberOfBytes": "32",
        "value": "t_struct(User)4765_storage"
      },
      "t_mapping(t_uint256,t_bool)": {
        "encoding": "mapping",
        "key": "t_uint256",
        "label": "mapping(uint256 => bool)",
        "numberOfBytes": "32",
        "value": "t_bool"
      },
      "t_mapping(t_uint256,t_struct(ClaimData)4793_storage)": {
        "encoding": "mapping",
        "key": "t_uint256",
        "label": "mapping(uint256 => struct ISaleStructs.ClaimData)",
        "numberOfBytes": "32",
        "value": "t_struct(ClaimData)4793_storage"
      },
      "t_mapping(t_uint256,t_struct(Presale)4786_storage)": {
        "encoding": "mapping",
        "key": "t_uint256",
        "label": "mapping(uint256 => struct ISaleStructs.Presale)",
        "numberOfBytes": "32",
        "value": "t_struct(Presale)4786_storage"
      },
      "t_struct(ClaimData)4793_storage": {
        "encoding": "inplace",
        "label": "struct ISaleStructs.ClaimData",
        "members": [
          {
            "astId": 4788,
            "contract": "contracts/Sale.sol:Sale",
            "label": "claimAt",
            "offset": 0,
            "slot": "0",
            "type": "t_uint256"
          },
          {
            "astId": 4790,
            "contract": "contracts/Sale.sol:Sale",
            "label": "totalAmount",
            "offset": 0,
            "slot": "1",
            "type": "t_uint256"
          },
          {
            "astId": 4792,
            "contract": "contracts/Sale.sol:Sale",
            "label": "claimedAmount",
            "offset": 0,
            "slot": "2",
            "type": "t_uint256"
          }
        ],
        "numberOfBytes": "96"
      },
      "t_struct(Presale)4786_storage": {
        "encoding": "inplace",
        "label": "struct ISaleStructs.Presale",
        "members": [
          {
            "astId": 4767,
            "contract": "contracts/Sale.sol:Sale",
            "label": "startTime",
            "offset": 0,
            "slot": "0",
            "type": "t_uint256"
          },
          {
            "astId": 4769,
            "contract": "contracts/Sale.sol:Sale",
            "label": "endTime",
            "offset": 0,
            "slot": "1",
            "type": "t_uint256"
          },
          {
            "astId": 4771,
            "contract": "contracts/Sale.sol:Sale",
            "label": "price",
            "offset": 0,
            "slot": "2",
            "type": "t_uint256"
          },
          {
            "astId": 4773,
            "contract": "contracts/Sale.sol:Sale",
            "label": "nextStagePrice",
            "offset": 0,
            "slot": "3",
            "type": "t_uint256"
          },
          {
            "astId": 4775,
            "contract": "contracts/Sale.sol:Sale",
            "label": "Sold",
            "offset": 0,
            "slot": "4",
            "type": "t_uint256"
          },
          {
            "astId": 4777,
            "contract": "contracts/Sale.sol:Sale",
            "label": "tokensToSell",
            "offset": 0,
            "slot": "5",
            "type": "t_uint256"
          },
          {
            "astId": 4779,
            "contract": "contracts/Sale.sol:Sale",
            "label": "UsdtHardcap",
            "offset": 0,
            "slot": "6",
            "type": "t_uint256"
          },
          {
            "astId": 4781,
            "contract": "contracts/Sale.sol:Sale",
            "label": "amountRaised",
            "offset": 0,
            "slot": "7",
            "type": "t_uint256"
          },
          {
            "astId": 4783,
            "contract": "contracts/Sale.sol:Sale",
            "label": "Active",
            "offset": 0,
            "slot": "8",
            "type": "t_bool"
          },
          {
            "astId": 4785,
            "contract": "contracts/Sale.sol:Sale",
            "label": "isEnableClaim",
            "offset": 1,
            "slot": "8",
            "type": "t_bool"
          }
        ],
        "numberOfBytes": "288"
      },
      "t_struct(ReferralData)4804_storage": {
        "encoding": "inplace",
        "label": "struct ISaleStructs.ReferralData",
        "members": [
          {
            "astId": 4795,
            "contract": "contracts/Sale.sol:Sale",
            "label": "referrer",
            "offset": 0,
            "slot": "0",
            "type": "t_address"
          },
          {
            "astId": 4797,
            "contract": "contracts/Sale.sol:Sale",
            "label": "totalReferralRewards",
            "offset": 0,
            "slot": "1",
            "type": "t_uint256"
          },
          {
            "astId": 4799,
            "contract": "contracts/Sale.sol:Sale",
            "label": "claimedReferralRewards",
            "offset": 0,
            "slot": "2",
            "type": "t_uint256"
          },
          {
            "astId": 4801,
            "contract": "contracts/Sale.sol:Sale",
            "label": "hasReferred",
            "offset": 0,
            "slot": "3",
            "type": "t_bool"
          },
          {
            "astId": 4803,
            "contract": "contracts/Sale.sol:Sale",
            "label": "referralCount",
            "offset": 0,
            "slot": "4",
            "type": "t_uint256"
          }
        ],
        "numberOfBytes": "160"
      },
      "t_struct(StakeInfo)4813_storage": {
        "encoding": "inplace",
        "label": "struct ISaleStructs.StakeInfo",
        "members": [
          {
            "astId": 4806,
            "contract": "contracts/Sale.sol:Sale",
            "label": "stakedAmount",
            "offset": 0,
            "slot": "0",
            "type": "t_uint256"
          },
          {
            "astId": 4808,
            "contract": "contracts/Sale.sol:Sale",
            "label": "stakingTimestamp",
            "offset": 0,
            "slot": "1",
            "type": "t_uint256"
          },
          {
            "astId": 4810,
            "contract": "contracts/Sale.sol:Sale",
            "label": "unlockTimestamp",
            "offset": 0,
            "slot": "2",
            "type": "t_uint256"
          },
          {
            "astId": 4812,
            "contract": "contracts/Sale.sol:Sale",
            "label": "hasWithdrawn",
            "offset": 0,
            "slot": "3",
            "type": "t_bool"
          }
        ],
        "numberOfBytes": "128"
      },
      "t_struct(User)4765_storage": {
        "encoding": "inplace",
        "label": "struct ISaleStructs.User",
        "members": [
          {
            "astId": 4753,
            "contract": "contracts/Sale.sol:Sale",
            "label": "TotalBoughtTokens",
            "offset": 0,
            "slot": "0",
            "type": "t_uint256"
          },
          {
            "astId": 4755,
            "contract": "contracts/Sale.sol:Sale",
            "label": "TotalPaid",
            "offset": 0,
            "slot": "1",
            "type": "t_uint256"
          },
          {
            "astId": 4757,
            "contract": "contracts/Sale.sol:Sale",
            "label": "TotalCollectedReferral",
            "offset": 0,
            "slot": "2",
            "type": "t_uint256"
          },
          {
            "astId": 4759,
            "contract": "contracts/Sale.sol:Sale",
            "label": "lastClaimTime",
            "offset": 0,
            "slot": "3",
            "type": "t_uint256"
          },
          {
            "astId": 4762,
            "contract": "contracts/Sale.sol:Sale",
            "label": "referredUsers",
            "offset": 0,
            "slot": "4",
            "type": "t_array(t_address)dyn_storage"
          },
          {
            "astId": 4764,
            "contract": "contracts/Sale.sol:Sale",
            "label": "referrer",
            "offset": 0,
            "slot": "5",
            "type": "t_address"
          }
        ],
        "numberOfBytes": "192"
      },
      "t_uint256": {
        "encoding": "inplace",
        "label": "uint256",
        "numberOfBytes": "32"
      },
      "t_uint8": {
        "encoding": "inplace",
        "label": "uint8",
        "numberOfBytes": "1"
      }
    }
  }
}