{
  "address": "0xB759b0e893091a24c96907cCf6684664157e8401",
  "abi": [
    {
      "inputs": [
        {
          "internalType": "address",
          "name": "_oracle",
          "type": "address"
        },
        {
          "internalType": "address",
          "name": "_usdt",
          "type": "address"
        },
        {
          "internalType": "address",
          "name": "_SaleToken",
          "type": "address"
        },
        {
          "internalType": "uint256",
          "name": "_MinTokenTobuy",
          "type": "uint256"
        },
        {
          "internalType": "uint256",
          "name": "_totalTokenSupply",
          "type": "uint256"
        }
      ],
      "stateMutability": "nonpayable",
      "type": "constructor"
    },
    {
      "inputs": [],
      "name": "EnforcedPause",
      "type": "error"
    },
    {
      "inputs": [],
      "name": "ExpectedPause",
      "type": "error"
    },
    {
      "inputs": [
        {
          "internalType": "address",
          "name": "owner",
          "type": "address"
        }
      ],
      "name": "OwnableInvalidOwner",
      "type": "error"
    },
    {
      "inputs": [
        {
          "internalType": "address",
          "name": "account",
          "type": "address"
        }
      ],
      "name": "OwnableUnauthorizedAccount",
      "type": "error"
    },
    {
      "inputs": [],
      "name": "ReentrancyGuardReentrantCall",
      "type": "error"
    },
    {
      "anonymous": false,
      "inputs": [
        {
          "indexed": true,
          "internalType": "address",
          "name": "user",
          "type": "address"
        },
        {
          "indexed": false,
          "internalType": "bool",
          "name": "isAdmin",
          "type": "bool"
        },
        {
          "indexed": false,
          "internalType": "uint256",
          "name": "timestamp",
          "type": "uint256"
        }
      ],
      "name": "AdminStatusChanged",
      "type": "event"
    },
    {
      "anonymous": false,
      "inputs": [
        {
          "indexed": false,
          "internalType": "uint256",
          "name": "previousMinimum",
          "type": "uint256"
        },
        {
          "indexed": false,
          "internalType": "uint256",
          "name": "newMinimum",
          "type": "uint256"
        },
        {
          "indexed": false,
          "internalType": "uint256",
          "name": "timestamp",
          "type": "uint256"
        }
      ],
      "name": "MinTokensToUSDT",
      "type": "event"
    },
    {
      "anonymous": false,
      "inputs": [
        {
          "indexed": false,
          "internalType": "address",
          "name": "previousOracle",
          "type": "address"
        },
        {
          "indexed": false,
          "internalType": "address",
          "name": "newOracle",
          "type": "address"
        },
        {
          "indexed": false,
          "internalType": "uint256",
          "name": "timestamp",
          "type": "uint256"
        }
      ],
      "name": "OracleUpdated",
      "type": "event"
    },
    {
      "anonymous": false,
      "inputs": [
        {
          "indexed": true,
          "internalType": "address",
          "name": "previousOwner",
          "type": "address"
        },
        {
          "indexed": true,
          "internalType": "address",
          "name": "newOwner",
          "type": "address"
        }
      ],
      "name": "OwnershipTransferred",
      "type": "event"
    },
    {
      "anonymous": false,
      "inputs": [
        {
          "indexed": false,
          "internalType": "address",
          "name": "account",
          "type": "address"
        }
      ],
      "name": "Paused",
      "type": "event"
    },
    {
      "anonymous": false,
      "inputs": [
        {
          "indexed": false,
          "internalType": "uint256",
          "name": "presaleId",
          "type": "uint256"
        },
        {
          "indexed": false,
          "internalType": "bool",
          "name": "isClaimable",
          "type": "bool"
        },
        {
          "indexed": false,
          "internalType": "uint256",
          "name": "timestamp",
          "type": "uint256"
        }
      ],
      "name": "PresaleClaimableStatusChanged",
      "type": "event"
    },
    {
      "anonymous": false,
      "inputs": [
        {
          "indexed": false,
          "internalType": "uint256",
          "name": "presaleId",
          "type": "uint256"
        },
        {
          "indexed": false,
          "internalType": "bool",
          "name": "isClosed",
          "type": "bool"
        },
        {
          "indexed": false,
          "internalType": "uint256",
          "name": "timestamp",
          "type": "uint256"
        }
      ],
      "name": "PresaleClosedStatusChanged",
      "type": "event"
    },
    {
      "anonymous": false,
      "inputs": [
        {
          "indexed": true,
          "internalType": "uint256",
          "name": "_id",
          "type": "uint256"
        },
        {
          "indexed": false,
          "internalType": "uint256",
          "name": "_totalTokens",
          "type": "uint256"
        },
        {
          "indexed": false,
          "internalType": "uint256",
          "name": "_startTime",
          "type": "uint256"
        },
        {
          "indexed": false,
          "internalType": "uint256",
          "name": "_endTime",
          "type": "uint256"
        }
      ],
      "name": "PresaleCreated",
      "type": "event"
    },
    {
      "anonymous": false,
      "inputs": [
        {
          "indexed": false,
          "internalType": "uint256",
          "name": "presaleId",
          "type": "uint256"
        },
        {
          "indexed": false,
          "internalType": "uint256",
          "name": "endTime",
          "type": "uint256"
        }
      ],
      "name": "PresaleEnded",
      "type": "event"
    },
    {
      "anonymous": false,
      "inputs": [
        {
          "indexed": true,
          "internalType": "uint256",
          "name": "id",
          "type": "uint256"
        },
        {
          "indexed": false,
          "internalType": "uint256",
          "name": "timestamp",
          "type": "uint256"
        }
      ],
      "name": "PresalePaused",
      "type": "event"
    },
    {
      "anonymous": false,
      "inputs": [
        {
          "indexed": false,
          "internalType": "uint256",
          "name": "presaleId",
          "type": "uint256"
        },
        {
          "indexed": false,
          "internalType": "uint256",
          "name": "cap",
          "type": "uint256"
        },
        {
          "indexed": false,
          "internalType": "uint256",
          "name": "price",
          "type": "uint256"
        },
        {
          "indexed": false,
          "internalType": "uint256",
          "name": "startTime",
          "type": "uint256"
        },
        {
          "indexed": false,
          "internalType": "uint256",
          "name": "endTime",
          "type": "uint256"
        }
      ],
      "name": "PresaleStarted",
      "type": "event"
    },
    {
      "anonymous": false,
      "inputs": [
        {
          "indexed": true,
          "internalType": "address",
          "name": "prevValue",
          "type": "address"
        },
        {
          "indexed": true,
          "internalType": "address",
          "name": "newValue",
          "type": "address"
        },
        {
          "indexed": false,
          "internalType": "uint256",
          "name": "timestamp",
          "type": "uint256"
        }
      ],
      "name": "PresaleTokenAddressUpdated",
      "type": "event"
    },
    {
      "anonymous": false,
      "inputs": [
        {
          "indexed": true,
          "internalType": "uint256",
          "name": "id",
          "type": "uint256"
        },
        {
          "indexed": false,
          "internalType": "uint256",
          "name": "timestamp",
          "type": "uint256"
        }
      ],
      "name": "PresaleUnpaused",
      "type": "event"
    },
    {
      "anonymous": false,
      "inputs": [
        {
          "indexed": true,
          "internalType": "bytes32",
          "name": "key",
          "type": "bytes32"
        },
        {
          "indexed": false,
          "internalType": "uint256",
          "name": "prevValue",
          "type": "uint256"
        },
        {
          "indexed": false,
          "internalType": "uint256",
          "name": "newValue",
          "type": "uint256"
        },
        {
          "indexed": false,
          "internalType": "uint256",
          "name": "timestamp",
          "type": "uint256"
        }
      ],
      "name": "PresaleUpdated",
      "type": "event"
    },
    {
      "anonymous": false,
      "inputs": [
        {
          "indexed": false,
          "internalType": "uint256",
          "name": "previousPercentage",
          "type": "uint256"
        },
        {
          "indexed": false,
          "internalType": "uint256",
          "name": "newPercentage",
          "type": "uint256"
        },
        {
          "indexed": false,
          "internalType": "uint256",
          "name": "timestamp",
          "type": "uint256"
        }
      ],
      "name": "ReferralPercentageUpdated",
      "type": "event"
    },
    {
      "anonymous": false,
      "inputs": [
        {
          "indexed": true,
          "internalType": "address",
          "name": "referrer",
          "type": "address"
        },
        {
          "indexed": true,
          "internalType": "address",
          "name": "referred",
          "type": "address"
        },
        {
          "indexed": false,
          "internalType": "uint256",
          "name": "amount",
          "type": "uint256"
        }
      ],
      "name": "ReferralProcessed",
      "type": "event"
    },
    {
      "anonymous": false,
      "inputs": [
        {
          "indexed": true,
          "internalType": "address",
          "name": "referrer",
          "type": "address"
        },
        {
          "indexed": true,
          "internalType": "address",
          "name": "referee",
          "type": "address"
        },
        {
          "indexed": false,
          "internalType": "uint256",
          "name": "timestamp",
          "type": "uint256"
        }
      ],
      "name": "ReferralRecorded",
      "type": "event"
    },
    {
      "anonymous": false,
      "inputs": [
        {
          "indexed": true,
          "internalType": "address",
          "name": "referrer",
          "type": "address"
        },
        {
          "indexed": true,
          "internalType": "address",
          "name": "referee",
          "type": "address"
        },
        {
          "indexed": false,
          "internalType": "uint256",
          "name": "referrerReward",
          "type": "uint256"
        },
        {
          "indexed": false,
          "internalType": "uint256",
          "name": "refereeReward",
          "type": "uint256"
        },
        {
          "indexed": false,
          "internalType": "uint256",
          "name": "timestamp",
          "type": "uint256"
        }
      ],
      "name": "ReferralRewardsAdded",
      "type": "event"
    },
    {
      "anonymous": false,
      "inputs": [
        {
          "indexed": true,
          "internalType": "address",
          "name": "user",
          "type": "address"
        },
        {
          "indexed": false,
          "internalType": "uint256",
          "name": "amount",
          "type": "uint256"
        },
        {
          "indexed": false,
          "internalType": "uint256",
          "name": "timestamp",
          "type": "uint256"
        }
      ],
      "name": "ReferralRewardsClaimed",
      "type": "event"
    },
    {
      "anonymous": false,
      "inputs": [
        {
          "indexed": true,
          "internalType": "address",
          "name": "user",
          "type": "address"
        },
        {
          "indexed": false,
          "internalType": "uint256",
          "name": "stakedAmount",
          "type": "uint256"
        },
        {
          "indexed": false,
          "internalType": "uint256",
          "name": "rewardAmount",
          "type": "uint256"
        },
        {
          "indexed": false,
          "internalType": "uint256",
          "name": "timestamp",
          "type": "uint256"
        }
      ],
      "name": "StakeWithdrawn",
      "type": "event"
    },
    {
      "anonymous": false,
      "inputs": [
        {
          "indexed": false,
          "internalType": "uint256",
          "name": "previousCap",
          "type": "uint256"
        },
        {
          "indexed": false,
          "internalType": "uint256",
          "name": "newCap",
          "type": "uint256"
        },
        {
          "indexed": false,
          "internalType": "uint256",
          "name": "timestamp",
          "type": "uint256"
        }
      ],
      "name": "StakingCapUpdated",
      "type": "event"
    },
    {
      "anonymous": false,
      "inputs": [
        {
          "indexed": false,
          "internalType": "bool",
          "name": "isActive",
          "type": "bool"
        },
        {
          "indexed": false,
          "internalType": "uint256",
          "name": "timestamp",
          "type": "uint256"
        }
      ],
      "name": "StakingStatusChanged",
      "type": "event"
    },
    {
      "anonymous": false,
      "inputs": [
        {
          "indexed": true,
          "internalType": "address",
          "name": "user",
          "type": "address"
        },
        {
          "indexed": true,
          "internalType": "uint256",
          "name": "id",
          "type": "uint256"
        },
        {
          "indexed": true,
          "internalType": "address",
          "name": "purchaseToken",
          "type": "address"
        },
        {
          "indexed": false,
          "internalType": "uint256",
          "name": "tokensBought",
          "type": "uint256"
        },
        {
          "indexed": false,
          "internalType": "uint256",
          "name": "amountPaid",
          "type": "uint256"
        },
        {
          "indexed": false,
          "internalType": "uint256",
          "name": "timestamp",
          "type": "uint256"
        }
      ],
      "name": "TokensBought",
      "type": "event"
    },
    {
      "anonymous": false,
      "inputs": [
        {
          "indexed": true,
          "internalType": "address",
          "name": "user",
          "type": "address"
        },
        {
          "indexed": true,
          "internalType": "uint256",
          "name": "id",
          "type": "uint256"
        },
        {
          "indexed": false,
          "internalType": "uint256",
          "name": "amount",
          "type": "uint256"
        },
        {
          "indexed": false,
          "internalType": "uint256",
          "name": "timestamp",
          "type": "uint256"
        }
      ],
      "name": "TokensClaimed",
      "type": "event"
    },
    {
      "anonymous": false,
      "inputs": [
        {
          "indexed": true,
          "internalType": "address",
          "name": "user",
          "type": "address"
        },
        {
          "indexed": true,
          "internalType": "uint256",
          "name": "id",
          "type": "uint256"
        },
        {
          "indexed": false,
          "internalType": "uint256",
          "name": "amount",
          "type": "uint256"
        },
        {
          "indexed": false,
          "internalType": "uint256",
          "name": "timestamp",
          "type": "uint256"
        }
      ],
      "name": "TokensClaimedWithTimestamp",
      "type": "event"
    },
    {
      "anonymous": false,
      "inputs": [
        {
          "indexed": true,
          "internalType": "address",
          "name": "token",
          "type": "address"
        },
        {
          "indexed": false,
          "internalType": "uint256",
          "name": "amount",
          "type": "uint256"
        },
        {
          "indexed": false,
          "internalType": "uint256",
          "name": "timestamp",
          "type": "uint256"
        }
      ],
      "name": "TokensPreFunded",
      "type": "event"
    },
    {
      "anonymous": false,
      "inputs": [
        {
          "indexed": true,
          "internalType": "address",
          "name": "buyer",
          "type": "address"
        },
        {
          "indexed": false,
          "internalType": "uint256",
          "name": "presaleId",
          "type": "uint256"
        },
        {
          "indexed": false,
          "internalType": "uint256",
          "name": "amount",
          "type": "uint256"
        },
        {
          "indexed": false,
          "internalType": "uint256",
          "name": "usdtAmount",
          "type": "uint256"
        }
      ],
      "name": "TokensPurchased",
      "type": "event"
    },
    {
      "anonymous": false,
      "inputs": [
        {
          "indexed": true,
          "internalType": "address",
          "name": "user",
          "type": "address"
        },
        {
          "indexed": false,
          "internalType": "uint256",
          "name": "amount",
          "type": "uint256"
        },
        {
          "indexed": false,
          "internalType": "uint256",
          "name": "stakingTime",
          "type": "uint256"
        },
        {
          "indexed": false,
          "internalType": "uint256",
          "name": "unlockTime",
          "type": "uint256"
        }
      ],
      "name": "TokensStaked",
      "type": "event"
    },
    {
      "anonymous": false,
      "inputs": [
        {
          "indexed": false,
          "internalType": "address",
          "name": "account",
          "type": "address"
        }
      ],
      "name": "Unpaused",
      "type": "event"
    },
    {
      "anonymous": false,
      "inputs": [
        {
          "indexed": true,
          "internalType": "address",
          "name": "user",
          "type": "address"
        },
        {
          "indexed": false,
          "internalType": "bool",
          "name": "isWhitelisted",
          "type": "bool"
        },
        {
          "indexed": false,
          "internalType": "uint256",
          "name": "timestamp",
          "type": "uint256"
        }
      ],
      "name": "WhitelistStatusChanged",
      "type": "event"
    },
    {
      "inputs": [
        {
          "internalType": "address",
          "name": "_token",
          "type": "address"
        }
      ],
      "name": "ChangeTokenToSell",
      "outputs": [],
      "stateMutability": "nonpayable",
      "type": "function"
    },
    {
      "inputs": [
        {
          "internalType": "address",
          "name": "",
          "type": "address"
        },
        {
          "internalType": "uint256",
          "name": "",
          "type": "uint256"
        }
      ],
      "name": "Claimed",
      "outputs": [
        {
          "internalType": "bool",
          "name": "",
          "type": "bool"
        }
      ],
      "stateMutability": "view",
      "type": "function"
    },
    {
      "inputs": [],
      "name": "ETH_MULTIPLIER",
      "outputs": [
        {
          "internalType": "uint256",
          "name": "",
          "type": "uint256"
        }
      ],
      "stateMutability": "view",
      "type": "function"
    },
    {
      "inputs": [
        {
          "internalType": "uint256",
          "name": "_amount",
          "type": "uint256"
        }
      ],
      "name": "EditMinTokenToBuy",
      "outputs": [],
      "stateMutability": "nonpayable",
      "type": "function"
    },
    {
      "inputs": [
        {
          "internalType": "address",
          "name": "_user",
          "type": "address"
        },
        {
          "internalType": "bool",
          "name": "_status",
          "type": "bool"
        }
      ],
      "name": "ExcludeAccouctFromMinBuy",
      "outputs": [],
      "stateMutability": "nonpayable",
      "type": "function"
    },
    {
      "inputs": [],
      "name": "MAX_REFERRAL_PERCENTAGE",
      "outputs": [
        {
          "internalType": "uint256",
          "name": "",
          "type": "uint256"
        }
      ],
      "stateMutability": "view",
      "type": "function"
    },
    {
      "inputs": [],
      "name": "MINIMUM_PURCHASE_FOR_REFERRAL",
      "outputs": [
        {
          "internalType": "uint256",
          "name": "",
          "type": "uint256"
        }
      ],
      "stateMutability": "view",
      "type": "function"
    },
    {
      "inputs": [],
      "name": "MinTokenTobuy",
      "outputs": [
        {
          "internalType": "uint256",
          "name": "",
          "type": "uint256"
        }
      ],
      "stateMutability": "view",
      "type": "function"
    },
    {
      "inputs": [],
      "name": "PERCENT_DENOMINATOR",
      "outputs": [
        {
          "internalType": "uint256",
          "name": "",
          "type": "uint256"
        }
      ],
      "stateMutability": "view",
      "type": "function"
    },
    {
      "inputs": [],
      "name": "PRESALE_ALLOCATION_PERCENT",
      "outputs": [
        {
          "internalType": "uint256",
          "name": "",
          "type": "uint256"
        }
      ],
      "stateMutability": "view",
      "type": "function"
    },
    {
      "inputs": [],
      "name": "REFERRAL_ALLOCATION_PERCENT",
      "outputs": [
        {
          "internalType": "uint256",
          "name": "",
          "type": "uint256"
        }
      ],
      "stateMutability": "view",
      "type": "function"
    },
    {
      "inputs": [],
      "name": "REFERRAL_CHANGE_TIMELOCK",
      "outputs": [
        {
          "internalType": "uint256",
          "name": "",
          "type": "uint256"
        }
      ],
      "stateMutability": "view",
      "type": "function"
    },
    {
      "inputs": [],
      "name": "REFERRAL_DENOMINATOR",
      "outputs": [
        {
          "internalType": "uint256",
          "name": "",
          "type": "uint256"
        }
      ],
      "stateMutability": "view",
      "type": "function"
    },
    {
      "inputs": [],
      "name": "REFERRAL_PERCENTAGE",
      "outputs": [
        {
          "internalType": "uint256",
          "name": "",
          "type": "uint256"
        }
      ],
      "stateMutability": "view",
      "type": "function"
    },
    {
      "inputs": [],
      "name": "STAKING_ALLOCATION_PERCENT",
      "outputs": [
        {
          "internalType": "uint256",
          "name": "",
          "type": "uint256"
        }
      ],
      "stateMutability": "view",
      "type": "function"
    },
    {
      "inputs": [],
      "name": "STAKING_APY",
      "outputs": [
        {
          "internalType": "uint256",
          "name": "",
          "type": "uint256"
        }
      ],
      "stateMutability": "view",
      "type": "function"
    },
    {
      "inputs": [],
      "name": "STAKING_LOCK_PERIOD",
      "outputs": [
        {
          "internalType": "uint256",
          "name": "",
          "type": "uint256"
        }
      ],
      "stateMutability": "view",
      "type": "function"
    },
    {
      "inputs": [],
      "name": "SaleToken",
      "outputs": [
        {
          "internalType": "address",
          "name": "",
          "type": "address"
        }
      ],
      "stateMutability": "view",
      "type": "function"
    },
    {
      "inputs": [],
      "name": "TOKEN_DECIMALS",
      "outputs": [
        {
          "internalType": "uint256",
          "name": "",
          "type": "uint256"
        }
      ],
      "stateMutability": "view",
      "type": "function"
    },
    {
      "inputs": [],
      "name": "TotalAmountBought",
      "outputs": [
        {
          "internalType": "uint256",
          "name": "",
          "type": "uint256"
        }
      ],
      "stateMutability": "view",
      "type": "function"
    },
    {
      "inputs": [],
      "name": "TotalReferralAmount",
      "outputs": [
        {
          "internalType": "uint256",
          "name": "",
          "type": "uint256"
        }
      ],
      "stateMutability": "view",
      "type": "function"
    },
    {
      "inputs": [],
      "name": "TotalUSDTRaised",
      "outputs": [
        {
          "internalType": "uint256",
          "name": "",
          "type": "uint256"
        }
      ],
      "stateMutability": "view",
      "type": "function"
    },
    {
      "inputs": [],
      "name": "USDTInterface",
      "outputs": [
        {
          "internalType": "contract IERC20Metadata",
          "name": "",
          "type": "address"
        }
      ],
      "stateMutability": "view",
      "type": "function"
    },
    {
      "inputs": [],
      "name": "USDT_MULTIPLIER",
      "outputs": [
        {
          "internalType": "uint256",
          "name": "",
          "type": "uint256"
        }
      ],
      "stateMutability": "view",
      "type": "function"
    },
    {
      "inputs": [
        {
          "internalType": "address",
          "name": "",
          "type": "address"
        },
        {
          "internalType": "uint256",
          "name": "",
          "type": "uint256"
        }
      ],
      "name": "UserPresaleBuying",
      "outputs": [
        {
          "internalType": "uint256",
          "name": "",
          "type": "uint256"
        }
      ],
      "stateMutability": "view",
      "type": "function"
    },
    {
      "inputs": [
        {
          "internalType": "uint256",
          "name": "amount",
          "type": "uint256"
        }
      ],
      "name": "WithdrawContractFunds",
      "outputs": [],
      "stateMutability": "nonpayable",
      "type": "function"
    },
    {
      "inputs": [
        {
          "internalType": "address",
          "name": "_token",
          "type": "address"
        },
        {
          "internalType": "uint256",
          "name": "amount",
          "type": "uint256"
        }
      ],
      "name": "WithdrawTokens",
      "outputs": [],
      "stateMutability": "nonpayable",
      "type": "function"
    },
    {
      "inputs": [
        {
          "internalType": "address",
          "name": "referrer",
          "type": "address"
        },
        {
          "internalType": "bool",
          "name": "shouldStake",
          "type": "bool"
        }
      ],
      "name": "buyWithEth",
      "outputs": [
        {
          "internalType": "bool",
          "name": "",
          "type": "bool"
        }
      ],
      "stateMutability": "payable",
      "type": "function"
    },
    {
      "inputs": [
        {
          "internalType": "uint256",
          "name": "usdAmount",
          "type": "uint256"
        },
        {
          "internalType": "address",
          "name": "referrer",
          "type": "address"
        },
        {
          "internalType": "bool",
          "name": "shouldStake",
          "type": "bool"
        }
      ],
      "name": "buyWithUSDT",
      "outputs": [
        {
          "internalType": "bool",
          "name": "",
          "type": "bool"
        }
      ],
      "stateMutability": "nonpayable",
      "type": "function"
    },
    {
      "inputs": [
        {
          "internalType": "address",
          "name": "_user",
          "type": "address"
        }
      ],
      "name": "canReferOthers",
      "outputs": [
        {
          "internalType": "bool",
          "name": "",
          "type": "bool"
        }
      ],
      "stateMutability": "view",
      "type": "function"
    },
    {
      "inputs": [
        {
          "internalType": "address",
          "name": "_wallet",
          "type": "address"
        }
      ],
      "name": "changeFundWallet",
      "outputs": [],
      "stateMutability": "nonpayable",
      "type": "function"
    },
    {
      "inputs": [
        {
          "internalType": "address",
          "name": "_newAddress",
          "type": "address"
        }
      ],
      "name": "changeUSDTToken",
      "outputs": [],
      "stateMutability": "nonpayable",
      "type": "function"
    },
    {
      "inputs": [
        {
          "internalType": "uint256",
          "name": "_id",
          "type": "uint256"
        }
      ],
      "name": "claimAmount",
      "outputs": [
        {
          "internalType": "bool",
          "name": "",
          "type": "bool"
        }
      ],
      "stateMutability": "nonpayable",
      "type": "function"
    },
    {
      "inputs": [
        {
          "internalType": "uint256[]",
          "name": "_id",
          "type": "uint256[]"
        }
      ],
      "name": "claimMultiple",
      "outputs": [
        {
          "internalType": "bool",
          "name": "",
          "type": "bool"
        }
      ],
      "stateMutability": "nonpayable",
      "type": "function"
    },
    {
      "inputs": [],
      "name": "claimReferralRewards",
      "outputs": [
        {
          "internalType": "bool",
          "name": "",
          "type": "bool"
        }
      ],
      "stateMutability": "nonpayable",
      "type": "function"
    },
    {
      "inputs": [
        {
          "internalType": "address",
          "name": "user",
          "type": "address"
        },
        {
          "internalType": "uint256",
          "name": "_id",
          "type": "uint256"
        }
      ],
      "name": "claimableAmount",
      "outputs": [
        {
          "internalType": "uint256",
          "name": "",
          "type": "uint256"
        }
      ],
      "stateMutability": "view",
      "type": "function"
    },
    {
      "inputs": [
        {
          "internalType": "uint256",
          "name": "_price",
          "type": "uint256"
        },
        {
          "internalType": "uint256",
          "name": "_nextStagePrice",
          "type": "uint256"
        },
        {
          "internalType": "uint256",
          "name": "_tokensToSell",
          "type": "uint256"
        },
        {
          "internalType": "uint256",
          "name": "_UsdtHardcap",
          "type": "uint256"
        }
      ],
      "name": "createPresale",
      "outputs": [],
      "stateMutability": "nonpayable",
      "type": "function"
    },
    {
      "inputs": [
        {
          "internalType": "uint256",
          "name": "_id",
          "type": "uint256"
        },
        {
          "internalType": "bool",
          "name": "_status",
          "type": "bool"
        }
      ],
      "name": "enableClaim",
      "outputs": [],
      "stateMutability": "nonpayable",
      "type": "function"
    },
    {
      "inputs": [],
      "name": "endPresale",
      "outputs": [],
      "stateMutability": "nonpayable",
      "type": "function"
    },
    {
      "inputs": [
        {
          "internalType": "uint256",
          "name": "_id",
          "type": "uint256"
        },
        {
          "internalType": "uint256",
          "name": "amount",
          "type": "uint256"
        }
      ],
      "name": "ethBuyHelper",
      "outputs": [
        {
          "internalType": "uint256",
          "name": "ethAmount",
          "type": "uint256"
        }
      ],
      "stateMutability": "view",
      "type": "function"
    },
    {
      "inputs": [
        {
          "internalType": "uint256",
          "name": "_id",
          "type": "uint256"
        },
        {
          "internalType": "uint256",
          "name": "amount",
          "type": "uint256"
        }
      ],
      "name": "ethToTokens",
      "outputs": [
        {
          "internalType": "uint256",
          "name": "_tokens",
          "type": "uint256"
        }
      ],
      "stateMutability": "view",
      "type": "function"
    },
    {
      "inputs": [],
      "name": "fundReceiver",
      "outputs": [
        {
          "internalType": "address",
          "name": "",
          "type": "address"
        }
      ],
      "stateMutability": "view",
      "type": "function"
    },
    {
      "inputs": [
        {
          "internalType": "address",
          "name": "_user",
          "type": "address"
        }
      ],
      "name": "getClaimableReferralRewards",
      "outputs": [
        {
          "internalType": "uint256",
          "name": "",
          "type": "uint256"
        }
      ],
      "stateMutability": "view",
      "type": "function"
    },
    {
      "inputs": [],
      "name": "getLatestPrice",
      "outputs": [
        {
          "internalType": "uint256",
          "name": "",
          "type": "uint256"
        }
      ],
      "stateMutability": "view",
      "type": "function"
    },
    {
      "inputs": [],
      "name": "getReferralProgramStats",
      "outputs": [
        {
          "internalType": "uint256",
          "name": "currentPercentage",
          "type": "uint256"
        },
        {
          "internalType": "uint256",
          "name": "totalRewardsIssued",
          "type": "uint256"
        },
        {
          "internalType": "uint256",
          "name": "maxRewards",
          "type": "uint256"
        },
        {
          "internalType": "uint256",
          "name": "remainingRewards",
          "type": "uint256"
        },
        {
          "internalType": "uint256",
          "name": "nextPercentageChangeAllowed",
          "type": "uint256"
        }
      ],
      "stateMutability": "view",
      "type": "function"
    },
    {
      "inputs": [],
      "name": "getStakingAvailability",
      "outputs": [
        {
          "internalType": "bool",
          "name": "_canStake",
          "type": "bool"
        },
        {
          "internalType": "uint256",
          "name": "_remainingCapacity",
          "type": "uint256"
        },
        {
          "internalType": "uint256",
          "name": "_percentFilled",
          "type": "uint256"
        }
      ],
      "stateMutability": "view",
      "type": "function"
    },
    {
      "inputs": [],
      "name": "getStakingStats",
      "outputs": [
        {
          "internalType": "uint256",
          "name": "_totalStaked",
          "type": "uint256"
        },
        {
          "internalType": "uint256",
          "name": "_stakingCap",
          "type": "uint256"
        },
        {
          "internalType": "uint256",
          "name": "_stakingAPY",
          "type": "uint256"
        },
        {
          "internalType": "bool",
          "name": "_isActive",
          "type": "bool"
        },
        {
          "internalType": "uint256",
          "name": "_maxRewards",
          "type": "uint256"
        },
        {
          "internalType": "uint256",
          "name": "_totalRewardsCommitted",
          "type": "uint256"
        },
        {
          "internalType": "uint256",
          "name": "_remainingRewards",
          "type": "uint256"
        }
      ],
      "stateMutability": "view",
      "type": "function"
    },
    {
      "inputs": [
        {
          "internalType": "address",
          "name": "_user",
          "type": "address"
        }
      ],
      "name": "getUserReferralInfo",
      "outputs": [
        {
          "internalType": "address",
          "name": "referrer",
          "type": "address"
        },
        {
          "internalType": "uint256",
          "name": "totalRewards",
          "type": "uint256"
        },
        {
          "internalType": "uint256",
          "name": "claimedRewards",
          "type": "uint256"
        },
        {
          "internalType": "uint256",
          "name": "pendingRewards",
          "type": "uint256"
        },
        {
          "internalType": "bool",
          "name": "isQualifiedReferrer",
          "type": "bool"
        },
        {
          "internalType": "uint256",
          "name": "referralCount",
          "type": "uint256"
        }
      ],
      "stateMutability": "view",
      "type": "function"
    },
    {
      "inputs": [
        {
          "internalType": "address",
          "name": "_user",
          "type": "address"
        }
      ],
      "name": "getUserStakingInfo",
      "outputs": [
        {
          "internalType": "uint256",
          "name": "stakedAmount",
          "type": "uint256"
        },
        {
          "internalType": "uint256",
          "name": "stakingTime",
          "type": "uint256"
        },
        {
          "internalType": "uint256",
          "name": "unlockTime",
          "type": "uint256"
        },
        {
          "internalType": "bool",
          "name": "isLocked",
          "type": "bool"
        },
        {
          "internalType": "bool",
          "name": "hasWithdrawn",
          "type": "bool"
        },
        {
          "internalType": "uint256",
          "name": "potentialReward",
          "type": "uint256"
        },
        {
          "internalType": "uint256",
          "name": "totalClaimable",
          "type": "uint256"
        }
      ],
      "stateMutability": "view",
      "type": "function"
    },
    {
      "inputs": [
        {
          "internalType": "address",
          "name": "",
          "type": "address"
        }
      ],
      "name": "hasQualifiedPurchase",
      "outputs": [
        {
          "internalType": "bool",
          "name": "",
          "type": "bool"
        }
      ],
      "stateMutability": "view",
      "type": "function"
    },
    {
      "inputs": [
        {
          "internalType": "address",
          "name": "",
          "type": "address"
        }
      ],
      "name": "hasUsedReferral",
      "outputs": [
        {
          "internalType": "bool",
          "name": "",
          "type": "bool"
        }
      ],
      "stateMutability": "view",
      "type": "function"
    },
    {
      "inputs": [
        {
          "internalType": "address",
          "name": "",
          "type": "address"
        }
      ],
      "name": "isAdmin",
      "outputs": [
        {
          "internalType": "bool",
          "name": "",
          "type": "bool"
        }
      ],
      "stateMutability": "view",
      "type": "function"
    },
    {
      "inputs": [
        {
          "internalType": "address",
          "name": "",
          "type": "address"
        }
      ],
      "name": "isExcludeMinToken",
      "outputs": [
        {
          "internalType": "bool",
          "name": "",
          "type": "bool"
        }
      ],
      "stateMutability": "view",
      "type": "function"
    },
    {
      "inputs": [],
      "name": "isTokenPreFunded",
      "outputs": [
        {
          "internalType": "bool",
          "name": "",
          "type": "bool"
        }
      ],
      "stateMutability": "view",
      "type": "function"
    },
    {
      "inputs": [
        {
          "internalType": "address",
          "name": "",
          "type": "address"
        }
      ],
      "name": "isWhitelisted",
      "outputs": [
        {
          "internalType": "bool",
          "name": "",
          "type": "bool"
        }
      ],
      "stateMutability": "view",
      "type": "function"
    },
    {
      "inputs": [],
      "name": "maxReferralRewards",
      "outputs": [
        {
          "internalType": "uint256",
          "name": "",
          "type": "uint256"
        }
      ],
      "stateMutability": "view",
      "type": "function"
    },
    {
      "inputs": [],
      "name": "maxStakingRewards",
      "outputs": [
        {
          "internalType": "uint256",
          "name": "",
          "type": "uint256"
        }
      ],
      "stateMutability": "view",
      "type": "function"
    },
    {
      "inputs": [],
      "name": "oracle",
      "outputs": [
        {
          "internalType": "address",
          "name": "",
          "type": "address"
        }
      ],
      "stateMutability": "view",
      "type": "function"
    },
    {
      "inputs": [],
      "name": "owner",
      "outputs": [
        {
          "internalType": "address",
          "name": "",
          "type": "address"
        }
      ],
      "stateMutability": "view",
      "type": "function"
    },
    {
      "inputs": [
        {
          "internalType": "uint256",
          "name": "_id",
          "type": "uint256"
        }
      ],
      "name": "pausePresale",
      "outputs": [],
      "stateMutability": "nonpayable",
      "type": "function"
    },
    {
      "inputs": [
        {
          "internalType": "uint256",
          "name": "",
          "type": "uint256"
        }
      ],
      "name": "paused",
      "outputs": [
        {
          "internalType": "bool",
          "name": "",
          "type": "bool"
        }
      ],
      "stateMutability": "view",
      "type": "function"
    },
    {
      "inputs": [],
      "name": "paused",
      "outputs": [
        {
          "internalType": "bool",
          "name": "",
          "type": "bool"
        }
      ],
      "stateMutability": "view",
      "type": "function"
    },
    {
      "inputs": [],
      "name": "preFundContract",
      "outputs": [],
      "stateMutability": "nonpayable",
      "type": "function"
    },
    {
      "inputs": [
        {
          "internalType": "uint256",
          "name": "",
          "type": "uint256"
        }
      ],
      "name": "presale",
      "outputs": [
        {
          "internalType": "uint256",
          "name": "startTime",
          "type": "uint256"
        },
        {
          "internalType": "uint256",
          "name": "endTime",
          "type": "uint256"
        },
        {
          "internalType": "uint256",
          "name": "price",
          "type": "uint256"
        },
        {
          "internalType": "uint256",
          "name": "nextStagePrice",
          "type": "uint256"
        },
        {
          "internalType": "uint256",
          "name": "Sold",
          "type": "uint256"
        },
        {
          "internalType": "uint256",
          "name": "tokensToSell",
          "type": "uint256"
        },
        {
          "internalType": "uint256",
          "name": "UsdtHardcap",
          "type": "uint256"
        },
        {
          "internalType": "uint256",
          "name": "amountRaised",
          "type": "uint256"
        },
        {
          "internalType": "bool",
          "name": "Active",
          "type": "bool"
        },
        {
          "internalType": "bool",
          "name": "isEnableClaim",
          "type": "bool"
        }
      ],
      "stateMutability": "view",
      "type": "function"
    },
    {
      "inputs": [],
      "name": "presaleId",
      "outputs": [
        {
          "internalType": "uint256",
          "name": "",
          "type": "uint256"
        }
      ],
      "stateMutability": "view",
      "type": "function"
    },
    {
      "inputs": [],
      "name": "presaleTokens",
      "outputs": [
        {
          "internalType": "uint256",
          "name": "",
          "type": "uint256"
        }
      ],
      "stateMutability": "view",
      "type": "function"
    },
    {
      "inputs": [
        {
          "internalType": "uint256",
          "name": "",
          "type": "uint256"
        }
      ],
      "name": "presales",
      "outputs": [
        {
          "internalType": "uint256",
          "name": "cap",
          "type": "uint256"
        },
        {
          "internalType": "uint256",
          "name": "price",
          "type": "uint256"
        },
        {
          "internalType": "uint256",
          "name": "sold",
          "type": "uint256"
        },
        {
          "internalType": "uint256",
          "name": "startTime",
          "type": "uint256"
        },
        {
          "internalType": "uint256",
          "name": "endTime",
          "type": "uint256"
        },
        {
          "internalType": "bool",
          "name": "ClaimAble",
          "type": "bool"
        },
        {
          "internalType": "bool",
          "name": "isClosed",
          "type": "bool"
        }
      ],
      "stateMutability": "view",
      "type": "function"
    },
    {
      "inputs": [
        {
          "internalType": "address",
          "name": "",
          "type": "address"
        }
      ],
      "name": "referralData",
      "outputs": [
        {
          "internalType": "address",
          "name": "referrer",
          "type": "address"
        },
        {
          "internalType": "uint256",
          "name": "totalReferralRewards",
          "type": "uint256"
        },
        {
          "internalType": "uint256",
          "name": "claimedReferralRewards",
          "type": "uint256"
        },
        {
          "internalType": "bool",
          "name": "hasReferred",
          "type": "bool"
        },
        {
          "internalType": "uint256",
          "name": "referralCount",
          "type": "uint256"
        }
      ],
      "stateMutability": "view",
      "type": "function"
    },
    {
      "inputs": [],
      "name": "referralPercentageChangeTimeLock",
      "outputs": [
        {
          "internalType": "uint256",
          "name": "",
          "type": "uint256"
        }
      ],
      "stateMutability": "view",
      "type": "function"
    },
    {
      "inputs": [],
      "name": "referralRewardPercentage",
      "outputs": [
        {
          "internalType": "uint256",
          "name": "",
          "type": "uint256"
        }
      ],
      "stateMutability": "view",
      "type": "function"
    },
    {
      "inputs": [],
      "name": "renounceOwnership",
      "outputs": [],
      "stateMutability": "nonpayable",
      "type": "function"
    },
    {
      "inputs": [
        {
          "internalType": "address",
          "name": "_token",
          "type": "address"
        },
        {
          "internalType": "uint256",
          "name": "_amount",
          "type": "uint256"
        },
        {
          "internalType": "address",
          "name": "_recipient",
          "type": "address"
        }
      ],
      "name": "safeWithdraw",
      "outputs": [],
      "stateMutability": "nonpayable",
      "type": "function"
    },
    {
      "inputs": [
        {
          "internalType": "bool",
          "name": "_status",
          "type": "bool"
        }
      ],
      "name": "setStakingStatus",
      "outputs": [],
      "stateMutability": "nonpayable",
      "type": "function"
    },
    {
      "inputs": [
        {
          "internalType": "uint256",
          "name": "_amount",
          "type": "uint256"
        }
      ],
      "name": "stakeTokens",
      "outputs": [],
      "stateMutability": "nonpayable",
      "type": "function"
    },
    {
      "inputs": [],
      "name": "stakingActive",
      "outputs": [
        {
          "internalType": "bool",
          "name": "",
          "type": "bool"
        }
      ],
      "stateMutability": "view",
      "type": "function"
    },
    {
      "inputs": [],
      "name": "stakingCap",
      "outputs": [
        {
          "internalType": "uint256",
          "name": "",
          "type": "uint256"
        }
      ],
      "stateMutability": "view",
      "type": "function"
    },
    {
      "inputs": [],
      "name": "startPresale",
      "outputs": [],
      "stateMutability": "nonpayable",
      "type": "function"
    },
    {
      "inputs": [],
      "name": "totalReferralRewardsIssued",
      "outputs": [
        {
          "internalType": "uint256",
          "name": "",
          "type": "uint256"
        }
      ],
      "stateMutability": "view",
      "type": "function"
    },
    {
      "inputs": [],
      "name": "totalStaked",
      "outputs": [
        {
          "internalType": "uint256",
          "name": "",
          "type": "uint256"
        }
      ],
      "stateMutability": "view",
      "type": "function"
    },
    {
      "inputs": [],
      "name": "totalStakingRewardsIssued",
      "outputs": [
        {
          "internalType": "uint256",
          "name": "",
          "type": "uint256"
        }
      ],
      "stateMutability": "view",
      "type": "function"
    },
    {
      "inputs": [],
      "name": "totalTokenSupply",
      "outputs": [
        {
          "internalType": "uint256",
          "name": "",
          "type": "uint256"
        }
      ],
      "stateMutability": "view",
      "type": "function"
    },
    {
      "inputs": [
        {
          "internalType": "address",
          "name": "newOwner",
          "type": "address"
        }
      ],
      "name": "transferOwnership",
      "outputs": [],
      "stateMutability": "nonpayable",
      "type": "function"
    },
    {
      "inputs": [
        {
          "internalType": "uint256",
          "name": "_id",
          "type": "uint256"
        }
      ],
      "name": "unPausePresale",
      "outputs": [],
      "stateMutability": "nonpayable",
      "type": "function"
    },
    {
      "inputs": [
        {
          "internalType": "uint256",
          "name": "_id",
          "type": "uint256"
        }
      ],
      "name": "unlockToken",
      "outputs": [],
      "stateMutability": "view",
      "type": "function"
    },
    {
      "inputs": [
        {
          "internalType": "uint256",
          "name": "_totalSupply",
          "type": "uint256"
        }
      ],
      "name": "updateMaxReferralRewards",
      "outputs": [],
      "stateMutability": "nonpayable",
      "type": "function"
    },
    {
      "inputs": [
        {
          "internalType": "uint256",
          "name": "_id",
          "type": "uint256"
        },
        {
          "internalType": "uint256",
          "name": "_price",
          "type": "uint256"
        },
        {
          "internalType": "uint256",
          "name": "_nextStagePrice",
          "type": "uint256"
        },
        {
          "internalType": "uint256",
          "name": "_tokensToSell",
          "type": "uint256"
        },
        {
          "internalType": "uint256",
          "name": "_Hardcap",
          "type": "uint256"
        }
      ],
      "name": "updatePresale",
      "outputs": [],
      "stateMutability": "nonpayable",
      "type": "function"
    },
    {
      "inputs": [
        {
          "internalType": "uint256",
          "name": "_percentage",
          "type": "uint256"
        }
      ],
      "name": "updateReferralRewardPercentage",
      "outputs": [],
      "stateMutability": "nonpayable",
      "type": "function"
    },
    {
      "inputs": [
        {
          "internalType": "uint256",
          "name": "_newCap",
          "type": "uint256"
        }
      ],
      "name": "updateStakingCap",
      "outputs": [],
      "stateMutability": "nonpayable",
      "type": "function"
    },
    {
      "inputs": [],
      "name": "usdt",
      "outputs": [
        {
          "internalType": "address",
          "name": "",
          "type": "address"
        }
      ],
      "stateMutability": "view",
      "type": "function"
    },
    {
      "inputs": [
        {
          "internalType": "uint256",
          "name": "_id",
          "type": "uint256"
        },
        {
          "internalType": "uint256",
          "name": "amount",
          "type": "uint256"
        }
      ],
      "name": "usdtBuyHelper",
      "outputs": [
        {
          "internalType": "uint256",
          "name": "usdPrice",
          "type": "uint256"
        }
      ],
      "stateMutability": "view",
      "type": "function"
    },
    {
      "inputs": [
        {
          "internalType": "uint256",
          "name": "_id",
          "type": "uint256"
        },
        {
          "internalType": "uint256",
          "name": "amount",
          "type": "uint256"
        }
      ],
      "name": "usdtToTokens",
      "outputs": [
        {
          "internalType": "uint256",
          "name": "_tokens",
          "type": "uint256"
        }
      ],
      "stateMutability": "view",
      "type": "function"
    },
    {
      "inputs": [
        {
          "internalType": "address",
          "name": "",
          "type": "address"
        },
        {
          "internalType": "uint256",
          "name": "",
          "type": "uint256"
        }
      ],
      "name": "userClaimData",
      "outputs": [
        {
          "internalType": "uint256",
          "name": "claimAt",
          "type": "uint256"
        },
        {
          "internalType": "uint256",
          "name": "totalAmount",
          "type": "uint256"
        },
        {
          "internalType": "uint256",
          "name": "claimedAmount",
          "type": "uint256"
        }
      ],
      "stateMutability": "view",
      "type": "function"
    },
    {
      "inputs": [
        {
          "internalType": "address",
          "name": "",
          "type": "address"
        }
      ],
      "name": "userStakes",
      "outputs": [
        {
          "internalType": "uint256",
          "name": "stakedAmount",
          "type": "uint256"
        },
        {
          "internalType": "uint256",
          "name": "stakingTimestamp",
          "type": "uint256"
        },
        {
          "internalType": "uint256",
          "name": "unlockTimestamp",
          "type": "uint256"
        },
        {
          "internalType": "bool",
          "name": "hasWithdrawn",
          "type": "bool"
        }
      ],
      "stateMutability": "view",
      "type": "function"
    },
    {
      "inputs": [
        {
          "internalType": "address",
          "name": "",
          "type": "address"
        }
      ],
      "name": "userStakingIntent",
      "outputs": [
        {
          "internalType": "bool",
          "name": "",
          "type": "bool"
        }
      ],
      "stateMutability": "view",
      "type": "function"
    },
    {
      "inputs": [
        {
          "internalType": "address",
          "name": "",
          "type": "address"
        }
      ],
      "name": "users",
      "outputs": [
        {
          "internalType": "uint256",
          "name": "TotalBoughtTokens",
          "type": "uint256"
        },
        {
          "internalType": "uint256",
          "name": "TotalPaid",
          "type": "uint256"
        },
        {
          "internalType": "uint256",
          "name": "TotalCollectedReferral",
          "type": "uint256"
        },
        {
          "internalType": "uint256",
          "name": "lastClaimTime",
          "type": "uint256"
        },
        {
          "internalType": "address",
          "name": "referrer",
          "type": "address"
        }
      ],
      "stateMutability": "view",
      "type": "function"
    },
    {
      "inputs": [],
      "name": "withdrawStake",
      "outputs": [],
      "stateMutability": "nonpayable",
      "type": "function"
    }
  ],
  "transactionHash": "0xb73f9e032ebc035fe1e008f32239cc8d86a3e0ad26874dcf5405a0ef2ddf9b69",
  "args": [
    "0x694AA1769357215DE4FAC081bf1f309aDC325306",
    "0x1679B569c112C40fE04BA89C99D59326De278620",
    "0x49B2b993690134bf391b8A53DC6653a0EDeEeE82",
    "1000000000000000000000",
    "100000000000000000000000000000"
  ],
  "numDeployments": 1,
  "solcInputHash": "f5b244a461d4fbdde0f02651acc97824",
  "bytecode": "0x608060405260146017556024805460ff191690553480156200002057600080fd5b506040516200634a3803806200634a833981016040819052620000439162000405565b60016000558484848484848484848433806200007a57604051631e4fbdf760e01b8152600060048201526024015b60405180910390fd5b6200008581620000f4565b5062000095858585858562000146565b5050505050670de0b6b3a764000064018d5d42ab620000b5919062000462565b6026556027805460ff191660011790556064620000d482601462000462565b620000e091906200048e565b60295550620004b198505050505050505050565b600180546001600160a01b038381166001600160a01b0319831681179093556040519116919082907f8be0079c531659141344cd1fd0a4f28419497f9722a3daafe3b4186f6b6457e090600090a35050565b6001600160a01b0385166200019e5760405162461bcd60e51b815260206004820152601d60248201527f4f7261636c6520616464726573732063616e6e6f74206265207a65726f000000604482015260640162000071565b6001600160a01b038416620001f65760405162461bcd60e51b815260206004820152601b60248201527f5553445420616464726573732063616e6e6f74206265207a65726f0000000000604482015260640162000071565b6001600160a01b038316620002585760405162461bcd60e51b815260206004820152602160248201527f53616c6520746f6b656e20616464726573732063616e6e6f74206265207a65726044820152606f60f81b606482015260840162000071565b60008211620002c15760405162461bcd60e51b815260206004820152602e60248201527f4d696e696d756d20746f6b656e20746f20627579206d7573742062652067726560448201526d61746572207468616e207a65726f60901b606482015260840162000071565b60008111620003225760405162461bcd60e51b815260206004820152602660248201527f546f74616c20737570706c79206d7573742062652067726561746572207468616044820152656e207a65726f60d01b606482015260840162000071565b601b80546001600160a01b038088166001600160a01b031992831617909255600480548684169083161790556005849055601a805492871692821692909217909155670de0b6b3a7640000601255620f424060115560138054909116331790556009819055606462000396601e8362000462565b620003a291906200048e565b6014556064620003b460058362000462565b620003c091906200048e565b6015556064620003d260148362000462565b620003de91906200048e565b6016555050505050565b80516001600160a01b03811681146200040057600080fd5b919050565b600080600080600060a086880312156200041e57600080fd5b6200042986620003e8565b94506200043960208701620003e8565b93506200044960408701620003e8565b6060870151608090970151959894975095949392505050565b80820281158282048414176200048857634e487b7160e01b600052601160045260246000fd5b92915050565b600082620004ac57634e487b7160e01b600052601260045260246000fd5b500490565b615e8980620004c16000396000f3fe6080604052600436106106225760003560e01c806379b8d93811610322578063b2932c8d116101a5578063d63b05d1116100ec578063e6ab143411610095578063f597573f1161006f578063f597573f146113ff578063fb4aa0a11461141f578063fe9f676e1461143f57600080fd5b8063e6ab1434146112ff578063f2fde38b146113bf578063f309fed9146113df57600080fd5b8063d8ae8c8b116100c6578063d8ae8c8b14611290578063dd2e0ac0146112c9578063e18e84f9146112e957600080fd5b8063d63b05d114610bf3578063d6fd1c5214611240578063d8138f8a1461125557600080fd5b8063cc9fe9d31161014e578063d099850a11610128578063d099850a146111af578063d2f01a9b146111cf578063d3552712146111e757600080fd5b8063cc9fe9d31461113d578063cd1704a81461116f578063d01608c11461118f57600080fd5b8063c1dd60841161017f578063c1dd60841461102c578063c8b8232114611076578063c9c6b556146110b357600080fd5b8063b2932c8d14610fe1578063b8bec6a014610ff7578063bed9d8611461101757600080fd5b80638e15f47311610269578063a43be57b11610212578063a9c85ced116101ec578063a9c85ced14610f49578063aef6e26714610f5f578063b04c734614610f7f57600080fd5b8063a43be57b14610e96578063a6ac4b3514610eab578063a87430ba14610ec557600080fd5b80639752f3cb116102435780639752f3cb14610e615780639e6c2959146107b9578063a33a16d814610e8157600080fd5b80638e15f47314610e165780639051cce914610e2b578063920a253e14610e4b57600080fd5b8063817b1cd2116102cb5780638d79e66d116102a55780638d79e66d14610d7b5780638da5cb5b14610d915780638da7ad2314610daf57600080fd5b8063817b1cd214610d25578063833cde5214610d3b5780638561c31514610d5b57600080fd5b80637dc0d1d0116102fc5780637dc0d1d014610c985780638093360814610cb857806380a35dce14610d0f57600080fd5b806379b8d93814610c085780637c00675d14610c285780637dbfb36d14610c3f57600080fd5b806344c370d3116104aa578063670988a8116103f15780636ca952461161039a578063718a196211610374578063718a196214610bb35780637547c7a314610bd3578063796b155314610bf357600080fd5b80636ca9524614610b4e5780636fb4adff14610b7e578063715018a614610b9e57600080fd5b806368e94be8116103cb57806368e94be814610b045780636913b16214610b245780636b5526a314610b3957600080fd5b8063670988a814610aca578063680f2e4f14610ae4578063686edf8b1461070c57600080fd5b8063552a2d1411610453578063582b57231161042d578063582b572314610a5e5780635b7f415c14610a7e5780635c975abb14610a9a57600080fd5b8063552a2d14146109f8578063553ff7f514610a0e5780635632bce614610a2e57600080fd5b806348ff1a391161048457806348ff1a391461099857806349c7e7d2146109b85780634a6413f7146109d857600080fd5b806344c370d3146109595780634517c8a31461096f57806348bf4fcf1461098257600080fd5b80631ca8b6cb1161056e5780632bfcaac21161051757806339764363116104f157806339764363146108fd5780633af32abf146109135780633d7a63ca1461094357600080fd5b80632bfcaac21461089a5780632e8811a4146108b05780632f48ab7d146108c557600080fd5b806323b221a01161054857806323b221a01461083457806324d7806c146108545780632bef560f1461088457600080fd5b80631ca8b6cb146107ce5780631ed0c954146107e45780632127fe041461081457600080fd5b80630c2e05e0116105d05780630fbfcf37116105aa5780630fbfcf37146107795780630fcc4f57146107995780631577763a146107b957600080fd5b80630c2e05e01461070c5780630c6e2236146107215780630ec809a81461075957600080fd5b806305eaab4b1161060157806305eaab4b146106a357806309b5a33a146106b85780630a09815c146106e857600080fd5b8062dde10e1461062757806303fcd9ac1461066c57806304c98b2b1461068e575b600080fd5b34801561063357600080fd5b506106576106423660046158fc565b601c6020526000908152604090205460ff1681565b60405190151581526020015b60405180910390f35b34801561067857600080fd5b5061068c61068736600461593f565b61145f565b005b34801561069a57600080fd5b5061068c611492565b3480156106af57600080fd5b506106576114c5565b3480156106c457600080fd5b506106576106d3366004615976565b60226020526000908152604090205460ff1681565b3480156106f457600080fd5b506106fe60145481565b604051908152602001610663565b34801561071857600080fd5b506106fe600581565b34801561072d57600080fd5b506106fe61073c366004615991565b600b60209081526000928352604080842090915290825290205481565b34801561076557600080fd5b5061068c610774366004615976565b61173b565b34801561078557600080fd5b5061068c6107943660046159bb565b611772565b3480156107a557600080fd5b5061068c6107b43660046158fc565b6117f9565b3480156107c557600080fd5b506106fe606481565b3480156107da57600080fd5b506106fe60095481565b3480156107f057600080fd5b506106576107ff366004615976565b601f6020526000908152604090205460ff1681565b34801561082057600080fd5b506106fe61082f3660046159e0565b6118a3565b34801561084057600080fd5b5061065761084f3660046158fc565b6119cb565b34801561086057600080fd5b5061065761086f366004615976565b600f6020526000908152604090205460ff1681565b34801561089057600080fd5b506106fe60155481565b3480156108a657600080fd5b506106fe60185481565b3480156108bc57600080fd5b506106fe601e81565b3480156108d157600080fd5b506003546108e5906001600160a01b031681565b6040516001600160a01b039091168152602001610663565b34801561090957600080fd5b506106fe60125481565b34801561091f57600080fd5b5061065761092e366004615976565b600e6020526000908152604090205460ff1681565b34801561094f57600080fd5b506106fe60065481565b34801561096557600080fd5b506106fe60265481565b61065761097d36600461593f565b611d8e565b34801561098e57600080fd5b506106fe60115481565b3480156109a457600080fd5b506106576109b3366004615a02565b6123bf565b3480156109c457600080fd5b5061068c6109d33660046158fc565b612c0b565b3480156109e457600080fd5b5061068c6109f33660046158fc565b612d1a565b348015610a0457600080fd5b506106fe60195481565b348015610a1a57600080fd5b506106fe610a29366004615976565b612e2e565b348015610a3a57600080fd5b50610657610a49366004615976565b60216020526000908152604090205460ff1681565b348015610a6a57600080fd5b5061068c610a793660046158fc565b612e98565b348015610a8a57600080fd5b506106fe670de0b6b3a764000081565b348015610aa657600080fd5b5060015474010000000000000000000000000000000000000000900460ff16610657565b348015610ad657600080fd5b506024546106579060ff1681565b348015610af057600080fd5b5061068c610aff366004615991565b612eb9565b348015610b1057600080fd5b5061068c610b1f3660046158fc565b6130c9565b348015610b3057600080fd5b5061068c61313e565b348015610b4557600080fd5b506029546106fe565b348015610b5a57600080fd5b50610657610b69366004615976565b60236020526000908152604090205460ff1681565b348015610b8a57600080fd5b5061068c610b99366004615976565b613326565b348015610baa57600080fd5b5061068c6133b3565b348015610bbf57600080fd5b506106fe610bce3660046159e0565b6133c7565b348015610bdf57600080fd5b5061068c610bee3660046158fc565b613417565b348015610bff57600080fd5b506106fe601481565b348015610c1457600080fd5b506106fe610c23366004615991565b613b01565b348015610c3457600080fd5b506106fe6201518081565b348015610c4b57600080fd5b50610c5f610c5a3660046158fc565b613c53565b6040805197885260208801969096529486019390935260608501919091526080840152151560a0830152151560c082015260e001610663565b348015610ca457600080fd5b506002546108e5906001600160a01b031681565b348015610cc457600080fd5b50610cd8610cd3366004615976565b613ca5565b6040805197885260208801969096529486019390935290151560608501521515608084015260a083015260c082015260e001610663565b348015610d1b57600080fd5b506106fe60085481565b348015610d3157600080fd5b506106fe60255481565b348015610d4757600080fd5b506004546108e5906001600160a01b031681565b348015610d6757600080fd5b5061068c610d76366004615976565b613d46565b348015610d8757600080fd5b506106fe60055481565b348015610d9d57600080fd5b506001546001600160a01b03166108e5565b348015610dbb57600080fd5b50610df4610dca366004615976565b602a6020526000908152604090208054600182015460028301546003909301549192909160ff1684565b6040805194855260208501939093529183015215156060820152608001610663565b348015610e2257600080fd5b506106fe613dd3565b348015610e3757600080fd5b50610657610e46366004615a42565b613e6a565b348015610e5757600080fd5b506106fe60175481565b348015610e6d57600080fd5b5061068c610e7c366004615ab7565b613f4d565b348015610e8d57600080fd5b506106fe614074565b348015610ea257600080fd5b5061068c61408b565b348015610eb757600080fd5b506027546106579060ff1681565b348015610ed157600080fd5b50610f18610ee0366004615976565b600d6020526000908152604090208054600182015460028301546003840154600590940154929391929091906001600160a01b031685565b6040805195865260208601949094529284019190915260608301526001600160a01b0316608082015260a001610663565b348015610f5557600080fd5b506106fe60285481565b348015610f6b57600080fd5b5061068c610f7a366004615af2565b614128565b348015610f8b57600080fd5b50610fc6610f9a366004615991565b601e60209081526000928352604080842090915290825290208054600182015460029092015490919083565b60408051938452602084019290925290820152606001610663565b348015610fed57600080fd5b506106fe60075481565b34801561100357600080fd5b5061068c611012366004615b2e565b614380565b34801561102357600080fd5b5061068c6143d4565b34801561103857600080fd5b5061104161470f565b604080519788526020880196909652948601939093529015156060850152608084015260a083015260c082015260e001610663565b34801561108257600080fd5b5061108b614768565b604080519586526020860194909452928401919091526060830152608082015260a001610663565b3480156110bf57600080fd5b506111096110ce366004615976565b6020805260009081526040902080546001820154600283015460038401546004909401546001600160a01b03909316939192909160ff169085565b604080516001600160a01b03909616865260208601949094529284019190915215156060830152608082015260a001610663565b34801561114957600080fd5b5061115261479d565b604080519315158452602084019290925290820152606001610663565b34801561117b57600080fd5b5061068c61118a3660046158fc565b61480e565b34801561119b57600080fd5b5061068c6111aa3660046158fc565b61481b565b3480156111bb57600080fd5b5061068c6111ca366004615b4b565b61491f565b3480156111db57600080fd5b506106fe6301e1338081565b3480156111f357600080fd5b50611207611202366004615976565b614b5f565b604080516001600160a01b03909716875260208701959095529385019290925260608401521515608083015260a082015260c001610663565b34801561124c57600080fd5b506106fe60c881565b34801561126157600080fd5b50610657611270366004615991565b600c60209081526000928352604080842090915290825290205460ff1681565b34801561129c57600080fd5b506106576112ab366004615976565b6001600160a01b031660009081526021602052604090205460ff1690565b3480156112d557600080fd5b5061068c6112e43660046158fc565b614c0c565b3480156112f557600080fd5b506106fe60105481565b34801561130b57600080fd5b5061137161131a3660046158fc565b601d6020526000908152604090208054600182015460028301546003840154600485015460058601546006870154600788015460089098015496979596949593949293919290919060ff808216916101009004168a565b604080519a8b5260208b0199909952978901969096526060880194909452608087019290925260a086015260c085015260e08401521515610100830152151561012082015261014001610663565b3480156113cb57600080fd5b5061068c6113da366004615976565b614ccd565b3480156113eb57600080fd5b506106fe6113fa3660046159e0565b614d21565b34801561140b57600080fd5b50601a546108e5906001600160a01b031681565b34801561142b57600080fd5b506013546108e5906001600160a01b031681565b34801561144b57600080fd5b506106fe61145a3660046159e0565b614da0565b611467614ea1565b6001600160a01b03919091166000908152601f60205260409020805460ff1916911515919091179055565b61149a614ea1565b601080546000908152601d60205260408082204290559154815220600801805460ff19166001179055565b60006114cf614ee7565b60006114da33612e2e565b9050600081116115315760405162461bcd60e51b815260206004820152601360248201527f4e6f207265776172647320746f20636c61696d0000000000000000000000000060448201526064015b60405180910390fd5b600480546040516370a0823160e01b815230928101929092526001600160a01b0316906370a0823190602401602060405180830381865afa15801561157a573d6000803e3d6000fd5b505050506040513d601f19601f8201168201806040525081019061159e9190615b7d565b8111156115f75760405162461bcd60e51b815260206004820152602160248201527f4e6f7420656e6f75676820746f6b656e7320696e2074686520636f6e747261636044820152601d60fa1b6064820152608401611528565b336000908152602080526040902060020154611614908290615bac565b3360008181526020805260408082206002019390935560048054935163a9059cbb60e01b81529081019290925260248201849052916001600160a01b03169063a9059cbb906044016020604051808303816000875af115801561167b573d6000803e3d6000fd5b505050506040513d601f19601f8201168201806040525081019061169f9190615bbf565b9050806116ee5760405162461bcd60e51b815260206004820152601560248201527f546f6b656e207472616e73666572206661696c656400000000000000000000006044820152606401611528565b6040805183815242602082015233917fea940d727b98f74071145844b731b12fccfc03b1e58a738235234c176a43e299910160405180910390a26001925050506117386001600055565b90565b611743614ea1565b6004805473ffffffffffffffffffffffffffffffffffffffff19166001600160a01b0392909216919091179055565b8160008111801561178557506010548111155b6117c65760405162461bcd60e51b8152602060048201526012602482015271125b9d985b1a59081c1c995cd85b19481a5960721b6044820152606401611528565b6117ce614ea1565b506000918252601d602052604090912060080180549115156101000261ff0019909216919091179055565b611801614ea1565b6025548110156118535760405162461bcd60e51b815260206004820152601f60248201527f4e657720636170206d757374206265203e3d20746f74616c207374616b6564006044820152606401611528565b6026805490829055604080518281526020810184905242918101919091527f69184c671db9747cef69bb2ee0e6ce0dfeec4b4562bf75185241b8927ab000f3906060015b60405180910390a15050565b6000826000811180156118b857506010548111155b6118f95760405162461bcd60e51b8152602060048201526012602482015271125b9d985b1a59081c1c995cd85b19481a5960721b6044820152606401611528565b6000848152601d60205260408120600201546119159085615bdc565b9050600460009054906101000a90046001600160a01b03166001600160a01b031663313ce5676040518163ffffffff1660e01b8152600401602060405180830381865afa15801561196a573d6000803e3d6000fd5b505050506040513d601f19601f8201168201806040525081019061198e9190615bf3565b61199990600a615cfa565b6119a1613dd3565b6119ab9190615bdc565b6012546119b89083615bdc565b6119c29190615d09565b95945050505050565b6000816000811180156119e057506010548111155b611a215760405162461bcd60e51b8152602060048201526012602482015271125b9d985b1a59081c1c995cd85b19481a5960721b6044820152606401611528565b6000611a2d3385613b01565b905060008111611a7f5760405162461bcd60e51b815260206004820152601160248201527f5a65726f20636c61696d20616d6f756e740000000000000000000000000000006044820152606401611528565b6004546001600160a01b0316611ad75760405162461bcd60e51b815260206004820152601d60248201527f50726573616c6520746f6b656e2061646472657373206e6f74207365740000006044820152606401611528565b600480546040516370a0823160e01b815230928101929092526001600160a01b0316906370a0823190602401602060405180830381865afa158015611b20573d6000803e3d6000fd5b505050506040513d601f19601f82011682018060405250810190611b449190615b7d565b811115611b9d5760405162461bcd60e51b815260206004820152602160248201527f4e6f7420656e6f75676820746f6b656e7320696e2074686520636f6e747261636044820152601d60fa1b6064820152608401611528565b6000848152601d602052604090206008015460ff610100909104161515600114611c095760405162461bcd60e51b815260206004820152601360248201527f436c61696d206973206e6f7420656e61626c65000000000000000000000000006044820152606401611528565b336000908152601e6020908152604080832087845290915281204281556002018054839290611c39908490615bac565b90915550503360009081526023602052604090205460ff1615611c7c57611c603382614f2a565b336000908152602360205260409020805460ff19169055611d48565b6004805460405163a9059cbb60e01b81523392810192909252602482018390526000916001600160a01b039091169063a9059cbb906044016020604051808303816000875af1158015611cd3573d6000803e3d6000fd5b505050506040513d601f19601f82011682018060405250810190611cf79190615bbf565b905080611d465760405162461bcd60e51b815260206004820152601560248201527f546f6b656e207472616e73666572206661696c656400000000000000000000006044820152606401611528565b505b60408051828152426020820152859133917fc259a362e59c3fd12f739a3baa0fe06c78d12af06ec0eec656fca929a2b2ee84910160405180910390a35060019392505050565b6000601054600081118015611da557506010548111155b611de65760405162461bcd60e51b8152602060048201526012602482015271125b9d985b1a59081c1c995cd85b19481a5960721b6044820152606401611528565b601054611df381346133c7565b6000828152601d60205260409020544210801590611e2757506000828152601d602052604090206008015460ff1615156001145b611e735760405162461bcd60e51b815260206004820152601760248201527f496e76616c69642074696d6520666f7220627579696e670000000000000000006044820152606401611528565b600081118015611ea557506000828152601d602052604090206004810154600590910154611ea19190615d2b565b8111155b611ef15760405162461bcd60e51b815260206004820152601360248201527f496e76616c69642073616c6520616d6f756e74000000000000000000000000006044820152606401611528565b611ef9614ee7565b60245460ff16611f715760405162461bcd60e51b815260206004820152602360248201527f436f6e7472616374206e6f74207072652d66756e646564207769746820746f6b60448201527f656e7300000000000000000000000000000000000000000000000000000000006064820152608401611528565b601254600090611f819080615bdc565b601154611f8c613dd3565b611f969034615bdc565b611fa09190615bdc565b611faa9190615d09565b6010546000908152601d60205260409020600681015460079091015491925090611fd5908390615bac565b11156120495760405162461bcd60e51b815260206004820152602660248201527f416d6f756e742073686f756c64206265206c657373207468616e206c6566744860448201527f61726463617000000000000000000000000000000000000000000000000000006064820152608401611528565b6010546000908152601c602052604090205460ff16156120ab5760405162461bcd60e51b815260206004820152600e60248201527f50726573616c65207061757365640000000000000000000000000000000000006044820152606401611528565b6010546000908152601d602052604090206008015460ff1615156001146121145760405162461bcd60e51b815260206004820152601960248201527f50726573616c65206973206e6f742061637469766520796574000000000000006044820152606401611528565b6001600160a01b0387161561218157863b63ffffffff16156121785760405162461bcd60e51b815260206004820152601d60248201527f52656665727265722063616e6e6f74206265206120636f6e74726163740000006044820152606401611528565b612181876153d5565b600061218f60105483614d21565b336000908152601f602052604081205491925060ff90911615159003612201576005548110156122015760405162461bcd60e51b815260206004820152601460248201527f496e73756666696369656e7420616d6f756e74210000000000000000000000006044820152606401611528565b6010546000908152601d602052604081206004018054839290612225908490615bac565b90915550506010546000908152601d60205260408120600701805484929061224e908490615bac565b90915550506001600160a01b0388161561226c5761226c3382615609565b86156122815761227c3382614f2a565b612349565b336000908152601e602090815260408083206010548452909152902060010154156122e057336000908152601e602090815260408083206010548452909152812060010180548392906122d5908490615bac565b909155506123499050565b6040518060600160405280600081526020018281526020016000815250601e60006123083390565b6001600160a01b0316815260208082019290925260409081016000908120601054825283528190208351815591830151600183015591909101516002909101555b60135461235f906001600160a01b0316346157aa565b60105460408051838152346020820152428183015290516000929133917f4d8aead3491b7eba4b5c7a65fc17e493b9e63f9e433522fc5f6a85a168fc9d369181900360600190a46001955050506123b66001600055565b50505092915050565b60006010546000811180156123d657506010548111155b6124175760405162461bcd60e51b8152602060048201526012602482015271125b9d985b1a59081c1c995cd85b19481a5960721b6044820152606401611528565b6010546124248187614d21565b6000828152601d6020526040902054421080159061245857506000828152601d602052604090206008015460ff1615156001145b6124a45760405162461bcd60e51b815260206004820152601760248201527f496e76616c69642074696d6520666f7220627579696e670000000000000000006044820152606401611528565b6000811180156124d657506000828152601d6020526040902060048101546005909101546124d29190615d2b565b8111155b6125225760405162461bcd60e51b815260206004820152601360248201527f496e76616c69642073616c6520616d6f756e74000000000000000000000000006044820152606401611528565b61252a614ee7565b60245460ff166125a25760405162461bcd60e51b815260206004820152602360248201527f436f6e7472616374206e6f74207072652d66756e646564207769746820746f6b60448201527f656e7300000000000000000000000000000000000000000000000000000000006064820152608401611528565b6010546000908152601c602052604090205460ff16156126045760405162461bcd60e51b815260206004820152600e60248201527f50726573616c65207061757365640000000000000000000000000000000000006044820152606401611528565b6010546000908152601d602052604090206008015460ff16151560011461266d5760405162461bcd60e51b815260206004820152601960248201527f50726573616c65206973206e6f742061637469766520796574000000000000006044820152606401611528565b6010546000908152601d602052604090206006810154600790910154612694908990615bac565b11156127085760405162461bcd60e51b815260206004820152602660248201527f416d6f756e742073686f756c64206265206c657373207468616e206c6566744860448201527f61726463617000000000000000000000000000000000000000000000000000006064820152608401611528565b6001600160a01b0386161561277557853b63ffffffff161561276c5760405162461bcd60e51b815260206004820152601d60248201527f52656665727265722063616e6e6f74206265206120636f6e74726163740000006044820152606401611528565b612775866153d5565b600061278360105489614d21565b905080601d6000601054815260200190815260200160002060040160008282546127ad9190615bac565b90915550506010546000908152601d6020526040812060070180548a92906127d6908490615bac565b9091555050336000908152601f602052604081205460ff1615159003612848576005548110156128485760405162461bcd60e51b815260206004820152601460248201527f4c657373207468616e206d696e20616d6f756e740000000000000000000000006044820152606401611528565b601a546000906001600160a01b031663dd62ed3e336040517fffffffff0000000000000000000000000000000000000000000000000000000060e084901b1681526001600160a01b039091166004820152306024820152604401602060405180830381865afa1580156128bf573d6000803e3d6000fd5b505050506040513d601f19601f820116820180604052508101906128e39190615b7d565b90508089111561295b5760405162461bcd60e51b815260206004820152602160248201527f4d616b65207375726520746f2061646420656e6f75676820616c6c6f77616e6360448201527f65000000000000000000000000000000000000000000000000000000000000006064820152608401611528565b601a546000906001600160a01b0316336013546040516001600160a01b03928316602482015291166044820152606481018c9052608401604080517fffffffffffffffffffffffffffffffffffffffffffffffffffffffffffffffe08184030181529181526020820180517bffffffffffffffffffffffffffffffffffffffffffffffffffffffff167f23b872dd0000000000000000000000000000000000000000000000000000000017905251612a139190615d3e565b6000604051808303816000865af19150503d8060008114612a50576040519150601f19603f3d011682016040523d82523d6000602084013e612a55565b606091505b5050905080612aa65760405162461bcd60e51b815260206004820152601460248201527f546f6b656e207061796d656e74206661696c65640000000000000000000000006044820152606401611528565b6001600160a01b03891615612abf57612abf3384615609565b8715612ad457612acf3384614f2a565b612b9c565b336000908152601e60209081526040808320601054845290915290206001015415612b3357336000908152601e60209081526040808320601054845290915281206001018054859290612b28908490615bac565b90915550612b9c9050565b6040518060600160405280600081526020018481526020016000815250601e6000612b5b3390565b6001600160a01b0316815260208082019290925260409081016000908120601054825283528190208351815591830151600183015591909101516002909101555b601a5460105460408051868152602081018e9052428183015290516001600160a01b039093169233917f4d8aead3491b7eba4b5c7a65fc17e493b9e63f9e433522fc5f6a85a168fc9d36919081900360600190a460019650505050612c016001600055565b5050509392505050565b612c13614ea1565b600081118015612c24575060148111155b612c705760405162461bcd60e51b815260206004820152601260248201527f496e76616c69642070657263656e7461676500000000000000000000000000006044820152606401611528565b601954421015612cc25760405162461bcd60e51b815260206004820152600f60248201527f54696d656c6f636b2061637469766500000000000000000000000000000000006044820152606401611528565b612ccf6201518042615bac565b6019556017805490829055604080518281526020810184905242918101919091527f05de795d533c83a69716d09a7d87c97b9ace14242301047692a6ccc1b8f3d14c90606001611897565b80600081118015612d2d57506010548111155b612d6e5760405162461bcd60e51b8152602060048201526012602482015271125b9d985b1a59081c1c995cd85b19481a5960721b6044820152606401611528565b612d76614ea1565b6000828152601c602052604090205460ff1615612dd55760405162461bcd60e51b815260206004820152600e60248201527f416c7265616479207061757365640000000000000000000000000000000000006044820152606401611528565b6000828152601c602052604090819020805460ff191660011790555182907f927e6cd2dce24f32508868820cdc35f09d9de0f4b44e945114110125196fba9f90612e229042815260200190565b60405180910390a25050565b6001600160a01b03808216600090815260208080526040808320815160a0810183528154909516855260018101549285018390526002810154918501829052600381015460ff1615156060860152600401546080850152919291612e9191615d2b565b9392505050565b612ea0614ea1565b601354612eb6906001600160a01b0316826157aa565b50565b612ec1614ea1565b6004546001600160a01b0390811690831603612ffc5760006064612ee660c882615bac565b602554612ef39190615bdc565b612efd9190615d09565b601854612f0a9190615bac565b6040516370a0823160e01b81523060048201529091506000906001600160a01b038516906370a0823190602401602060405180830381865afa158015612f54573d6000803e3d6000fd5b505050506040513d601f19601f82011682018060405250810190612f789190615b7d565b905081612f858483615d2b565b1015612ff95760405162461bcd60e51b815260206004820152602b60248201527f43616e6e6f7420776974686472617720746f6b656e732072657365727665642060448201527f666f7220726577617264730000000000000000000000000000000000000000006064820152608401611528565b50505b60135460405163a9059cbb60e01b81526001600160a01b0391821660048201526024810183905260009184169063a9059cbb906044016020604051808303816000875af1158015613051573d6000803e3d6000fd5b505050506040513d601f19601f820116820180604052508101906130759190615bbf565b9050806130c45760405162461bcd60e51b815260206004820152601560248201527f546f6b656e207472616e73666572206661696c656400000000000000000000006044820152606401611528565b505050565b6130d1614ea1565b600081116131215760405162461bcd60e51b815260206004820152601460248201527f496e76616c696420746f74616c20737570706c790000000000000000000000006044820152606401611528565b606461312e600583615bdc565b6131389190615d09565b60155550565b613146614ea1565b60245460ff16156131995760405162461bcd60e51b815260206004820152601b60248201527f436f6e747261637420616c7265616479207072652d66756e64656400000000006044820152606401611528565b6004546001600160a01b03166131f15760405162461bcd60e51b815260206004820152601260248201527f53616c6520746f6b656e206e6f742073657400000000000000000000000000006044820152606401611528565b60006016546015546014546132069190615bac565b6132109190615bac565b600480546040516370a0823160e01b815230928101929092529192506000916001600160a01b0316906370a0823190602401602060405180830381865afa15801561325f573d6000803e3d6000fd5b505050506040513d601f19601f820116820180604052508101906132839190615b7d565b9050818110156132d55760405162461bcd60e51b815260206004820152601a60248201527f496e73756666696369656e7420746f6b656e2062616c616e63650000000000006044820152606401611528565b6024805460ff19166001179055600454604080518381524260208201526001600160a01b03909216917fa87af714d03c932d084d64774397d6d857ba204899b9d02dc2a79c9a5aec207e9101612e22565b61332e614ea1565b6001600160a01b0381166133845760405162461bcd60e51b815260206004820152601260248201527f496e76616c696420706172616d657465727300000000000000000000000000006044820152606401611528565b6013805473ffffffffffffffffffffffffffffffffffffffff19166001600160a01b0392909216919091179055565b6133bb614ea1565b6133c5600061589d565b565b6000806012546012546133da9190615bdc565b6011546133e5613dd3565b6133ef9086615bdc565b6133f99190615bdc565b6134039190615d09565b905061340f8482614d21565b949350505050565b61341f614ee7565b60275460ff166134715760405162461bcd60e51b815260206004820152601560248201527f5374616b696e67206973206e6f742061637469766500000000000000000000006044820152606401611528565b600081116134c15760405162461bcd60e51b815260206004820152601860248201527f43616e6e6f74207374616b65207a65726f20616d6f756e7400000000000000006044820152606401611528565b602654816025546134d29190615bac565b11156135205760405162461bcd60e51b815260206004820152601d60248201527f5374616b696e672063617020776f756c642062652065786365656465640000006044820152606401611528565b6000606461352f60c884615bdc565b6135399190615d09565b905061354460295490565b816028546135529190615bac565b11156135c65760405162461bcd60e51b815260206004820152602c60248201527f4e6f7420656e6f75676820746f6b656e7320696e20746865207374616b696e6760448201527f2072657761726420706f6f6c00000000000000000000000000000000000000006064820152608401611528565b816025546135d49190615bac565b6025556028546135e5908290615bac565b60285560265460255410613637576027805460ff1916905560408051600081524260208201527fb7d83b7e094cfcfa7dd295e685a79a100995b6110e9708b6c36d9242b3945450910160405180910390a15b336000908152602a6020526040902080541580159061365b5750600381015460ff16155b1561382f5780600201544210156136da5760405162461bcd60e51b815260206004820152602960248201527f43616e6e6f742061646420746f206578697374696e67207374616b652077686960448201527f6c65206c6f636b656400000000000000000000000000000000000000000000006064820152608401611528565b8054600060646136eb60c884615bdc565b6136f59190615d09565b60038401805460ff191660011790556004549091506000906001600160a01b031663a9059cbb336137268587615bac565b6040517fffffffff0000000000000000000000000000000000000000000000000000000060e085901b1681526001600160a01b03909216600483015260248201526044016020604051808303816000875af1158015613789573d6000803e3d6000fd5b505050506040513d601f19601f820116820180604052508101906137ad9190615bbf565b9050806137fc5760405162461bcd60e51b815260206004820152601560248201527f546f6b656e207472616e73666572206661696c656400000000000000000000006044820152606401611528565b8584554260018501819055613816906301e1338090615bac565b600285015550505060038101805460ff1916905561385b565b8281554260018201819055613849906301e1338090615bac565b600282015560038101805460ff191690555b600480546040516370a0823160e01b815230928101929092526000916001600160a01b03909116906370a0823190602401602060405180830381865afa1580156138a9573d6000803e3d6000fd5b505050506040513d601f19601f820116820180604052508101906138cd9190615b7d565b600480546040517f23b872dd0000000000000000000000000000000000000000000000000000000081523392810192909252306024830152604482018790529192506000916001600160a01b0316906323b872dd906064016020604051808303816000875af1158015613944573d6000803e3d6000fd5b505050506040513d601f19601f820116820180604052508101906139689190615bbf565b9050806139b75760405162461bcd60e51b815260206004820152601560248201527f546f6b656e207472616e73666572206661696c656400000000000000000000006044820152606401611528565b600480546040516370a0823160e01b815230928101929092526000916001600160a01b03909116906370a0823190602401602060405180830381865afa158015613a05573d6000803e3d6000fd5b505050506040513d601f19601f82011682018060405250810190613a299190615b7d565b9050613a358684615bac565b811015613aaa5760405162461bcd60e51b815260206004820152602360248201527f496e636f727265637420616d6f756e74206f6620746f6b656e7320726563656960448201527f76656400000000000000000000000000000000000000000000000000000000006064820152608401611528565b6002840154604080518881524260208201529081019190915233907f0fc5b1bac0416800b42a669229a346b6e5a15db3896339dbdc5fa376e1e4570a9060600160405180910390a25050505050612eb66001600055565b600081600081118015613b1657506010548111155b613b575760405162461bcd60e51b8152602060048201526012602482015271125b9d985b1a59081c1c995cd85b19481a5960721b6044820152606401611528565b6001600160a01b0384166000908152601e60209081526040808320868452825291829020825160608101845281548152600182015492810183905260029091015492810192909252613beb5760405162461bcd60e51b815260206004820152601060248201527f4e6f7468696e6720746f20636c61696d000000000000000000000000000000006044820152606401611528565b600081604001518260200151613c019190615d2b565b9050600081116119c25760405162461bcd60e51b815260206004820152600f60248201527f416c726561647920636c61696d656400000000000000000000000000000000006044820152606401611528565b600a8181548110613c6357600080fd5b60009182526020909120600690910201805460018201546002830154600384015460048501546005909501549395509193909260ff8082169161010090041687565b6001600160a01b0381166000908152602a60205260408120600281015481548392839283928392839283924291909110908390606490613ce79060c890615bdc565b613cf19190615d09565b83546001850154600286015460038701549394509192909190859060ff168581613d27578854613d22908890615bac565b613d2a565b60005b9950995099509950995099509950505050919395979092949650565b613d4e614ea1565b6001600160a01b038116613da45760405162461bcd60e51b815260206004820152601260248201527f5a65726f20746f6b656e206164647265737300000000000000000000000000006044820152606401611528565b601a805473ffffffffffffffffffffffffffffffffffffffff19166001600160a01b0392909216919091179055565b600080601b60009054906101000a90046001600160a01b03166001600160a01b031663feaf968c6040518163ffffffff1660e01b815260040160a060405180830381865afa158015613e29573d6000803e3d6000fd5b505050506040513d601f19601f82011682018060405250810190613e4d9190615d87565b505050915050806402540be400613e649190615dd7565b92915050565b600081613eb95760405162461bcd60e51b815260206004820152600e60248201527f5a65726f204944206c656e6774680000000000000000000000000000000000006044820152606401611528565b60005b82811015613f4357613ee5848483818110613ed957613ed9615e23565b905060200201356119cb565b613f315760405162461bcd60e51b815260206004820152600c60248201527f436c61696d206661696c656400000000000000000000000000000000000000006044820152606401611528565b80613f3b81615e39565b915050613ebc565b5060019392505050565b84600081118015613f6057506010548111155b613fa15760405162461bcd60e51b8152602060048201526012602482015271125b9d985b1a59081c1c995cd85b19481a5960721b6044820152606401611528565b613fa9614ea1565b60008511613ff95760405162461bcd60e51b815260206004820152600a60248201527f5a65726f207072696365000000000000000000000000000000000000000000006044820152606401611528565b600083116140495760405162461bcd60e51b815260206004820152601360248201527f5a65726f20746f6b656e7320746f2073656c6c000000000000000000000000006044820152606401611528565b506000948552601d602052604090942060028101939093556003830191909155600582015560060155565b614088670de0b6b3a76400006103e8615bdc565b81565b614093614ea1565b6010546000908152601d602052604090206008015460ff1615156001146140fc5760405162461bcd60e51b815260206004820181905260248201527f546869732070726573616c6520697320616c726561647920496e6163746976656044820152606401611528565b601080546000908152601d6020526040808220426001909101559154815220600801805460ff19169055565b614130614ea1565b6001600160a01b0381166141865760405162461bcd60e51b815260206004820152601f60248201527f43616e6e6f7420776974686472617720746f207a65726f2061646472657373006044820152606401611528565b6004546001600160a01b03908116908416036142b457600060646141ab60c882615bac565b6025546141b89190615bdc565b6141c29190615d09565b6040516370a0823160e01b81523060048201529091506000906001600160a01b038616906370a0823190602401602060405180830381865afa15801561420c573d6000803e3d6000fd5b505050506040513d601f19601f820116820180604052508101906142309190615b7d565b90508161423d8583615d2b565b10156142b15760405162461bcd60e51b815260206004820152603360248201527f43616e6e6f7420776974686472617720746f6b656e732072657365727665642060448201527f666f72207374616b696e672072657761726473000000000000000000000000006064820152608401611528565b50505b60405163a9059cbb60e01b81526001600160a01b038281166004830152602482018490526000919085169063a9059cbb906044016020604051808303816000875af1158015614307573d6000803e3d6000fd5b505050506040513d601f19601f8201168201806040525081019061432b9190615bbf565b90508061437a5760405162461bcd60e51b815260206004820152601560248201527f546f6b656e207472616e73666572206661696c656400000000000000000000006044820152606401611528565b50505050565b614388614ea1565b6027805460ff1916821515908117909155604080519182524260208301527fb7d83b7e094cfcfa7dd295e685a79a100995b6110e9708b6c36d9242b3945450910160405180910390a150565b6143dc614ee7565b336000908152602a6020526040902080546144395760405162461bcd60e51b815260206004820152600e60248201527f4e6f207374616b6520666f756e640000000000000000000000000000000000006044820152606401611528565b600381015460ff161561448e5760405162461bcd60e51b815260206004820152601160248201527f416c72656164792077697468647261776e0000000000000000000000000000006044820152606401611528565b80600201544210156144e25760405162461bcd60e51b815260206004820152601560248201527f5374616b65206973207374696c6c206c6f636b656400000000000000000000006044820152606401611528565b8054600060646144f360c884615bdc565b6144fd9190615d09565b9050600061450b8284615bac565b60038501805460ff1916600117905560255490915061452b908490615d2b565b602555600480546040516370a0823160e01b815230928101929092526001600160a01b0316906370a0823190602401602060405180830381865afa158015614577573d6000803e3d6000fd5b505050506040513d601f19601f8201168201806040525081019061459b9190615b7d565b8111156145f45760405162461bcd60e51b815260206004820152602160248201527f4e6f7420656e6f75676820746f6b656e7320696e2074686520636f6e747261636044820152601d60fa1b6064820152608401611528565b6004805460405163a9059cbb60e01b81523392810192909252602482018390526000916001600160a01b039091169063a9059cbb906044016020604051808303816000875af115801561464b573d6000803e3d6000fd5b505050506040513d601f19601f8201168201806040525081019061466f9190615bbf565b9050806146be5760405162461bcd60e51b815260206004820152601560248201527f546f6b656e207472616e73666572206661696c656400000000000000000000006044820152606401611528565b60408051858152602081018590524281830152905133917f88d1c46373223a4f1f60db2badc985b05ec9c2b2eab4537f0f8e1291b78b6e37919081900360600190a250505050506133c56001600055565b600080600080600080600060255460265460c8602760009054906101000a900460ff1661473b60295490565b6028548061474860295490565b6147529190615d2b565b959d949c50929a50909850965094509092509050565b60008060008060006017546018546015546018546015546147899190615d2b565b601954945094509450945094509091929394565b60275460009081908190819060ff1680156147bb5750602654602554105b90506000602554602654116147d15760006147e1565b6025546026546147e19190615d2b565b9050600060265460255460646147f79190615bdc565b6148019190615d09565b9296919550919350915050565b614816614ea1565b600555565b8060008111801561482e57506010548111155b61486f5760405162461bcd60e51b8152602060048201526012602482015271125b9d985b1a59081c1c995cd85b19481a5960721b6044820152606401611528565b614877614ea1565b6000828152601c602052604090205460ff166148d55760405162461bcd60e51b815260206004820152600a60248201527f4e6f7420706175736564000000000000000000000000000000000000000000006044820152606401611528565b6000828152601c602052604090819020805460ff191690555182907ff608654a6d8e1785594639dd55babb61d7ae157382015f904a24224e50333b1d90612e229042815260200190565b614927614ea1565b600084116149775760405162461bcd60e51b815260206004820152600a60248201527f5a65726f207072696365000000000000000000000000000000000000000000006044820152606401611528565b600082116149c75760405162461bcd60e51b815260206004820152601360248201527f5a65726f20746f6b656e7320746f2073656c6c000000000000000000000000006044820152606401611528565b6010546000908152601d602052604090206008015460ff1615614a2c5760405162461bcd60e51b815260206004820152601760248201527f50726576696f75732053616c65206973204163746976650000000000000000006044820152606401611528565b60108054906000614a3c83615e39565b909155505060408051610140810182526000808252602080830182815283850189815260608086018a81526080870186815260a088018b815260c089018b815260e08a01898152610100808c018b81526101208d018c8152601080548e52601d8d528f8e209e518f559a5160018f0155985160028e0155955160038d0155935160048c0155915160058b01555160068a015551600789015590516008909701805493517fffffffffffffffffffffffffffffffffffffffffffffffffffffffffffff000090941697151561ff001916979097179215150291909117909455548451878152918201839052938101919091527f6a00651728a92841411081673eaa4eddbed06d102a590e050c22def40d4dd0b891015b60405180910390a250505050565b6001600160a01b03808216600090815260208080526040808320815160a081018352815490951680865260018201549386018490526002820154928601839052600382015460ff1615156060870152600490910154608086015292938493849384938493849390929091614bd38183615d2b565b6001600160a01b039b909b1660009081526021602052604090205460809490940151929b919a909950975060ff90921695509350915050565b80600081118015614c1f57506010548111155b614c605760405162461bcd60e51b8152602060048201526012602482015271125b9d985b1a59081c1c995cd85b19481a5960721b6044820152606401611528565b614c68614ea1565b6000828152601d6020526040902060010154421015614cc95760405162461bcd60e51b815260206004820152601f60248201527f596f752063616e206f6e6c7920756e6c6f636b206f6e2066696e616c697a65006044820152606401611528565b5050565b614cd5614ea1565b6001600160a01b038116614d18576040517f1e4fbdf700000000000000000000000000000000000000000000000000000000815260006004820152602401611528565b612eb68161589d565b600082600081118015614d3657506010548111155b614d775760405162461bcd60e51b8152602060048201526012602482015271125b9d985b1a59081c1c995cd85b19481a5960721b6044820152606401611528565b6011546000858152601d6020526040902060020154614d969085615bdc565b61340f9190615d09565b600082600081118015614db557506010548111155b614df65760405162461bcd60e51b8152602060048201526012602482015271125b9d985b1a59081c1c995cd85b19481a5960721b6044820152606401611528565b60048054604080517f313ce56700000000000000000000000000000000000000000000000000000000815290516001600160a01b039092169263313ce5679282820192602092908290030181865afa158015614e56573d6000803e3d6000fd5b505050506040513d601f19601f82011682018060405250810190614e7a9190615bf3565b614e8590600a615cfa565b6000858152601d6020526040902060020154614d969085615bdc565b6001546001600160a01b031633146133c5576040517f118cdaa7000000000000000000000000000000000000000000000000000000008152336004820152602401611528565b600260005403614f23576040517f3ee5aeb500000000000000000000000000000000000000000000000000000000815260040160405180910390fd5b6002600055565b60275460ff16614f7c5760405162461bcd60e51b815260206004820152601560248201527f5374616b696e67206973206e6f742061637469766500000000000000000000006044820152606401611528565b60008111614fcc5760405162461bcd60e51b815260206004820152601860248201527f43616e6e6f74207374616b65207a65726f20616d6f756e7400000000000000006044820152606401611528565b60265481602554614fdd9190615bac565b111561502b5760405162461bcd60e51b815260206004820152601d60248201527f5374616b696e672063617020776f756c642062652065786365656465640000006044820152606401611528565b6000606461503a60c884615bdc565b6150449190615d09565b905061504f60295490565b8160285461505d9190615bac565b11156150d15760405162461bcd60e51b815260206004820152602c60248201527f4e6f7420656e6f75676820746f6b656e7320696e20746865207374616b696e6760448201527f2072657761726420706f6f6c00000000000000000000000000000000000000006064820152608401611528565b816025546150df9190615bac565b6025556028546150f0908290615bac565b60285560265460255410615142576027805460ff1916905560408051600081524260208201527fb7d83b7e094cfcfa7dd295e685a79a100995b6110e9708b6c36d9242b3945450910160405180910390a15b6001600160a01b0383166000908152602a6020526040902080541580159061516f5750600381015460ff16155b1561535f5780600201544210156151ee5760405162461bcd60e51b815260206004820152602960248201527f43616e6e6f74207374616b65207768656e20796f7520686176652061206c6f6360448201527f6b6564207374616b6500000000000000000000000000000000000000000000006064820152608401611528565b8054600060646151ff60c884615bdc565b6152099190615d09565b60038401805460ff191660011790556004549091506000906001600160a01b031663a9059cbb8861523a8587615bac565b6040517fffffffff0000000000000000000000000000000000000000000000000000000060e085901b1681526001600160a01b03909216600483015260248201526044016020604051808303816000875af115801561529d573d6000803e3d6000fd5b505050506040513d601f19601f820116820180604052508101906152c19190615bbf565b9050806153105760405162461bcd60e51b815260206004820152601760248201527f5374616b65207769746864726177616c206661696c65640000000000000000006044820152606401611528565b6040805184815260208101849052428183015290516001600160a01b038916917f88d1c46373223a4f1f60db2badc985b05ec9c2b2eab4537f0f8e1291b78b6e37919081900360600190a25050505b8281554260018201819055615379906301e1338090615bac565b6002820181905560038201805460ff1916905560408051858152426020820152908101919091526001600160a01b038516907f0fc5b1bac0416800b42a669229a346b6e5a15db3896339dbdc5fa376e1e4570a90606001614b51565b6001600160a01b03811661542b5760405162461bcd60e51b815260206004820152601060248201527f496e76616c6964207265666572726572000000000000000000000000000000006044820152606401611528565b336001600160a01b038216036154835760405162461bcd60e51b815260206004820152601560248201527f43616e6e6f7420726566657220796f757273656c6600000000000000000000006044820152606401611528565b3360009081526022602052604090205460ff16156154e35760405162461bcd60e51b815260206004820152601760248201527f416c72656164792075736564206120726566657272616c0000000000000000006044820152606401611528565b6001600160a01b03811660009081526021602052604090205460ff1661554b5760405162461bcd60e51b815260206004820152601a60248201527f526566657272657220686173206e6f74207175616c69666965640000000000006044820152606401611528565b33600090815260208080526040808320805473ffffffffffffffffffffffffffffffffffffffff19166001600160a01b03861690811790915560228352818420805460ff19908116600190811790925591855292805290832060038101805490921690921790556004018054916155c183615e39565b909155505060405142815233906001600160a01b038316907ff36afc48438e7a543cc47977b2ea45ca912bc74fd7e92126efea2f47c961eb7d9060200160405180910390a350565b61561d670de0b6b3a76400006103e8615bdc565b8110615647576001600160a01b0382166000908152602160205260409020805460ff191660011790555b6001600160a01b038083166000908152602080526040902054168015801590615683575061567f670de0b6b3a76400006103e8615bdc565b8210155b156130c457600060646017548461569a9190615bdc565b6156a49190615d09565b90508060006156b38280615bac565b9050601554816018546156c69190615bac565b116157a2576001600160a01b03841660009081526020805260409020600101546156f1908490615bac565b6001600160a01b0380861660009081526020805260408082206001908101949094559189168152200154615726908390615bac565b6001600160a01b038716600090815260208052604090206001015560185461574f908290615bac565b6018556040805184815260208101849052428183015290516001600160a01b0388811692908716917f5660d47451868f1bb42f832a92e54d7670a64411d1074b64dfab5bec5f29c2319181900360600190a35b505050505050565b804710156157fa5760405162461bcd60e51b815260206004820152600b60248201527f4c6f772062616c616e63650000000000000000000000000000000000000000006044820152606401611528565b6000826001600160a01b03168260405160006040518083038185875af1925050503d8060008114615847576040519150601f19603f3d011682016040523d82523d6000602084013e61584c565b606091505b50509050806130c45760405162461bcd60e51b815260206004820152601260248201527f455448205061796d656e74206661696c656400000000000000000000000000006044820152606401611528565b600180546001600160a01b0383811673ffffffffffffffffffffffffffffffffffffffff19831681179093556040519116919082907f8be0079c531659141344cd1fd0a4f28419497f9722a3daafe3b4186f6b6457e090600090a35050565b60006020828403121561590e57600080fd5b5035919050565b80356001600160a01b038116811461592c57600080fd5b919050565b8015158114612eb657600080fd5b6000806040838503121561595257600080fd5b61595b83615915565b9150602083013561596b81615931565b809150509250929050565b60006020828403121561598857600080fd5b612e9182615915565b600080604083850312156159a457600080fd5b6159ad83615915565b946020939093013593505050565b600080604083850312156159ce57600080fd5b82359150602083013561596b81615931565b600080604083850312156159f357600080fd5b50508035926020909101359150565b600080600060608486031215615a1757600080fd5b83359250615a2760208501615915565b91506040840135615a3781615931565b809150509250925092565b60008060208385031215615a5557600080fd5b823567ffffffffffffffff80821115615a6d57600080fd5b818501915085601f830112615a8157600080fd5b813581811115615a9057600080fd5b8660208260051b8501011115615aa557600080fd5b60209290920196919550909350505050565b600080600080600060a08688031215615acf57600080fd5b505083359560208501359550604085013594606081013594506080013592509050565b600080600060608486031215615b0757600080fd5b615b1084615915565b925060208401359150615b2560408501615915565b90509250925092565b600060208284031215615b4057600080fd5b8135612e9181615931565b60008060008060808587031215615b6157600080fd5b5050823594602084013594506040840135936060013592509050565b600060208284031215615b8f57600080fd5b5051919050565b634e487b7160e01b600052601160045260246000fd5b80820180821115613e6457613e64615b96565b600060208284031215615bd157600080fd5b8151612e9181615931565b8082028115828204841417613e6457613e64615b96565b600060208284031215615c0557600080fd5b815160ff81168114612e9157600080fd5b600181815b80851115615c51578160001904821115615c3757615c37615b96565b80851615615c4457918102915b93841c9390800290615c1b565b509250929050565b600082615c6857506001613e64565b81615c7557506000613e64565b8160018114615c8b5760028114615c9557615cb1565b6001915050613e64565b60ff841115615ca657615ca6615b96565b50506001821b613e64565b5060208310610133831016604e8410600b8410161715615cd4575081810a613e64565b615cde8383615c16565b8060001904821115615cf257615cf2615b96565b029392505050565b6000612e9160ff841683615c59565b600082615d2657634e487b7160e01b600052601260045260246000fd5b500490565b81810381811115613e6457613e64615b96565b6000825160005b81811015615d5f5760208186018101518583015201615d45565b506000920191825250919050565b805169ffffffffffffffffffff8116811461592c57600080fd5b600080600080600060a08688031215615d9f57600080fd5b615da886615d6d565b9450602086015193506040860151925060608601519150615dcb60808701615d6d565b90509295509295909350565b808202600082127f800000000000000000000000000000000000000000000000000000000000000084141615615e0f57615e0f615b96565b8181058314821517613e6457613e64615b96565b634e487b7160e01b600052603260045260246000fd5b60006000198203615e4c57615e4c615b96565b506001019056fea26469706673582212209017efd5abf72a1d03481079f57a1132bc650e83629fe6f94da1d32a450be8d264736f6c63430008140033",
  "devdoc": {
    "details": "All tokens (presale, referral, staking) must be sent to the contract before starting Token Allocation: - 30% for presale (30,000,000,000 tokens) - 5% for referral rewards (5,000,000,000 tokens) - 20% for staking rewards (20,000,000,000 tokens) Total: 55% of total supply must be transferred to this contract",
    "errors": {
      "EnforcedPause()": [
        {
          "details": "The operation failed because the contract is paused."
        }
      ],
      "ExpectedPause()": [
        {
          "details": "The operation failed because the contract is not paused."
        }
      ],
      "OwnableInvalidOwner(address)": [
        {
          "details": "The owner is not a valid owner account. (eg. `address(0)`)"
        }
      ],
      "OwnableUnauthorizedAccount(address)": [
        {
          "details": "The caller account is not authorized to perform an operation."
        }
      ],
      "ReentrancyGuardReentrantCall()": [
        {
          "details": "Unauthorized reentrant call."
        }
      ]
    },
    "events": {
      "Paused(address)": {
        "details": "Emitted when the pause is triggered by `account`."
      },
      "Unpaused(address)": {
        "details": "Emitted when the pause is lifted by `account`."
      }
    },
    "kind": "dev",
    "methods": {
      "buyWithEth(address,bool)": {
        "details": "To buy into a presale using ETH with option for immediate staking",
        "params": {
          "referrer": "Referrer address (optional, use address(0) for no referrer)",
          "shouldStake": "If true, tokens are immediately staked for 1 year with 200% APY"
        }
      },
      "buyWithUSDT(uint256,address,bool)": {
        "details": "To buy into a presale using USDT with option for immediate staking",
        "params": {
          "referrer": "Referrer address (optional, use address(0) for no referrer)",
          "shouldStake": "If true, tokens are immediately staked for 1 year with 200% APY",
          "usdAmount": "USDT amount to buy tokens"
        }
      },
      "changeFundWallet(address)": {
        "details": "To update the fund receiving wallet",
        "params": {
          "_wallet": "address of wallet to update"
        }
      },
      "changeUSDTToken(address)": {
        "details": "To update the USDT Token address",
        "params": {
          "_newAddress": "Sale token address"
        }
      },
      "claimAmount(uint256)": {
        "details": "Modified claim function to handle only non-staked tokens",
        "params": {
          "_id": "Presale id"
        }
      },
      "claimMultiple(uint256[])": {
        "details": "To claim tokens from a multiple presale",
        "params": {
          "_id": "Presale id"
        }
      },
      "claimReferralRewards()": {
        "details": "Claim referral rewards"
      },
      "claimableAmount(address,uint256)": {
        "details": "Helper funtion to get claimable tokens for a given presale.",
        "params": {
          "_id": "Presale id",
          "user": "User address"
        }
      },
      "constructor": {
        "details": "Constructor sets up the contract parameters",
        "params": {
          "_MinTokenTobuy": "Minimum tokens that can be purchased",
          "_SaleToken": "Sale token address",
          "_oracle": "Chainlink oracle for ETH price feed",
          "_totalTokenSupply": "Total token supply (100,000,000,000)",
          "_usdt": "USDT token address"
        }
      },
      "ethBuyHelper(uint256,uint256)": {
        "details": "Helper funtion to get ETH price for given amount",
        "params": {
          "_id": "Presale id",
          "amount": "No of tokens to buy"
        }
      },
      "ethToTokens(uint256,uint256)": {
        "details": "Helper funtion to get tokens for eth amount",
        "params": {
          "_id": "Presale id",
          "amount": "No of eth"
        }
      },
      "getClaimableReferralRewards(address)": {
        "details": "Get claimable referral rewards for a user",
        "params": {
          "_user": "Address of the user"
        }
      },
      "getLatestPrice()": {
        "details": "To get latest ethereum price in 10**18 format"
      },
      "getStakingAvailability()": {
        "details": "Quick check if staking is available and capacity info",
        "returns": {
          "_canStake": "True if staking is active and cap not reached",
          "_percentFilled": "Percentage of staking capacity filled (0-100)",
          "_remainingCapacity": "Remaining capacity for staking"
        }
      },
      "getStakingStats()": {
        "details": "Get staking program statistics"
      },
      "getUserStakingInfo(address)": {
        "details": "Get user staking information",
        "params": {
          "_user": "Address of the user"
        }
      },
      "maxStakingRewards()": {
        "details": "Maximum available tokens for staking rewards (20% of total supply)",
        "returns": {
          "_0": "The maximum number of tokens available for staking rewards"
        }
      },
      "owner()": {
        "details": "Returns the address of the current owner."
      },
      "pausePresale(uint256)": {
        "details": "To pause the presale",
        "params": {
          "_id": "Presale id to update"
        }
      },
      "paused()": {
        "details": "Returns true if the contract is paused, and false otherwise."
      },
      "preFundContract()": {
        "details": "Pre-fund the contract with tokens for presale, referrals, and staking"
      },
      "renounceOwnership()": {
        "details": "Leaves the contract without owner. It will not be possible to call `onlyOwner` functions. Can only be called by the current owner. NOTE: Renouncing ownership will leave the contract without an owner, thereby disabling any functionality that is only available to the owner."
      },
      "safeWithdraw(address,uint256,address)": {
        "details": "Safe withdrawal function for accumulated tokens",
        "params": {
          "_amount": "Amount to withdraw",
          "_recipient": "Recipient address",
          "_token": "Token address"
        }
      },
      "setStakingStatus(bool)": {
        "details": "Toggle staking status (active/inactive)",
        "params": {
          "_status": "New staking status"
        }
      },
      "stakeTokens(uint256)": {
        "details": "Stake tokens with 1-year lock and 200% APY",
        "params": {
          "_amount": "Amount of tokens to stake"
        }
      },
      "transferOwnership(address)": {
        "details": "Transfers ownership of the contract to a new account (`newOwner`). Can only be called by the current owner."
      },
      "unPausePresale(uint256)": {
        "details": "To unpause the presale",
        "params": {
          "_id": "Presale id to update"
        }
      },
      "updateMaxReferralRewards(uint256)": {
        "details": "Update the maximum referral rewards (5% of total supply)",
        "params": {
          "_totalSupply": "The total token supply to calculate 5% from"
        }
      },
      "updateReferralRewardPercentage(uint256)": {
        "details": "Change referral reward percentage with timelock protection",
        "params": {
          "_percentage": "New percentage (1-20)"
        }
      },
      "updateStakingCap(uint256)": {
        "details": "Update staking cap",
        "params": {
          "_newCap": "New staking cap"
        }
      },
      "usdtBuyHelper(uint256,uint256)": {
        "details": "Helper funtion to get USDT price for given amount",
        "params": {
          "_id": "Presale id",
          "amount": "No of tokens to buy"
        }
      },
      "usdtToTokens(uint256,uint256)": {
        "details": "Helper funtion to get tokens for given usdt amount",
        "params": {
          "_id": "Presale id",
          "amount": "No of usdt"
        }
      },
      "withdrawStake()": {
        "details": "Withdraw staked tokens and rewards after lock period"
      }
    },
    "title": "PreSale and Staking Contract",
    "version": 1
  },
  "userdoc": {
    "kind": "user",
    "methods": {
      "preFundContract()": {
        "notice": "Before calling this function: 1. Deploy the token contract 2. Transfer 55% of total supply to this contract address 3. Call this function to verify and activate the pre-funding This marks the contract as ready for presale with tokens available for: - Direct distribution for non-staking purchases - Immediate staking during purchase (no need to claim first) - Referral reward distribution"
      }
    },
    "notice": "This contract handles token presale, referral rewards, and staking functionality",
    "version": 1
  },
  "storageLayout": {
    "storage": [
      {
        "astId": 1652,
        "contract": "contracts/Sale.sol:Sale",
        "label": "_status",
        "offset": 0,
        "slot": "0",
        "type": "t_uint256"
      },
      {
        "astId": 54,
        "contract": "contracts/Sale.sol:Sale",
        "label": "_owner",
        "offset": 0,
        "slot": "1",
        "type": "t_address"
      },
      {
        "astId": 1542,
        "contract": "contracts/Sale.sol:Sale",
        "label": "_paused",
        "offset": 20,
        "slot": "1",
        "type": "t_bool"
      },
      {
        "astId": 2460,
        "contract": "contracts/Sale.sol:Sale",
        "label": "oracle",
        "offset": 0,
        "slot": "2",
        "type": "t_address"
      },
      {
        "astId": 2462,
        "contract": "contracts/Sale.sol:Sale",
        "label": "usdt",
        "offset": 0,
        "slot": "3",
        "type": "t_address"
      },
      {
        "astId": 2464,
        "contract": "contracts/Sale.sol:Sale",
        "label": "SaleToken",
        "offset": 0,
        "slot": "4",
        "type": "t_address"
      },
      {
        "astId": 2466,
        "contract": "contracts/Sale.sol:Sale",
        "label": "MinTokenTobuy",
        "offset": 0,
        "slot": "5",
        "type": "t_uint256"
      },
      {
        "astId": 2468,
        "contract": "contracts/Sale.sol:Sale",
        "label": "TotalAmountBought",
        "offset": 0,
        "slot": "6",
        "type": "t_uint256"
      },
      {
        "astId": 2470,
        "contract": "contracts/Sale.sol:Sale",
        "label": "TotalUSDTRaised",
        "offset": 0,
        "slot": "7",
        "type": "t_uint256"
      },
      {
        "astId": 2472,
        "contract": "contracts/Sale.sol:Sale",
        "label": "TotalReferralAmount",
        "offset": 0,
        "slot": "8",
        "type": "t_uint256"
      },
      {
        "astId": 2474,
        "contract": "contracts/Sale.sol:Sale",
        "label": "totalTokenSupply",
        "offset": 0,
        "slot": "9",
        "type": "t_uint256"
      },
      {
        "astId": 2507,
        "contract": "contracts/Sale.sol:Sale",
        "label": "presales",
        "offset": 0,
        "slot": "10",
        "type": "t_array(t_struct(PresaleInfo)2489_storage)dyn_storage"
      },
      {
        "astId": 2513,
        "contract": "contracts/Sale.sol:Sale",
        "label": "UserPresaleBuying",
        "offset": 0,
        "slot": "11",
        "type": "t_mapping(t_address,t_mapping(t_uint256,t_uint256))"
      },
      {
        "astId": 2519,
        "contract": "contracts/Sale.sol:Sale",
        "label": "Claimed",
        "offset": 0,
        "slot": "12",
        "type": "t_mapping(t_address,t_mapping(t_uint256,t_bool))"
      },
      {
        "astId": 2524,
        "contract": "contracts/Sale.sol:Sale",
        "label": "users",
        "offset": 0,
        "slot": "13",
        "type": "t_mapping(t_address,t_struct(User)2503_storage)"
      },
      {
        "astId": 2528,
        "contract": "contracts/Sale.sol:Sale",
        "label": "isWhitelisted",
        "offset": 0,
        "slot": "14",
        "type": "t_mapping(t_address,t_bool)"
      },
      {
        "astId": 2532,
        "contract": "contracts/Sale.sol:Sale",
        "label": "isAdmin",
        "offset": 0,
        "slot": "15",
        "type": "t_mapping(t_address,t_bool)"
      },
      {
        "astId": 2628,
        "contract": "contracts/Sale.sol:Sale",
        "label": "presaleId",
        "offset": 0,
        "slot": "16",
        "type": "t_uint256"
      },
      {
        "astId": 2630,
        "contract": "contracts/Sale.sol:Sale",
        "label": "USDT_MULTIPLIER",
        "offset": 0,
        "slot": "17",
        "type": "t_uint256"
      },
      {
        "astId": 2632,
        "contract": "contracts/Sale.sol:Sale",
        "label": "ETH_MULTIPLIER",
        "offset": 0,
        "slot": "18",
        "type": "t_uint256"
      },
      {
        "astId": 2634,
        "contract": "contracts/Sale.sol:Sale",
        "label": "fundReceiver",
        "offset": 0,
        "slot": "19",
        "type": "t_address"
      },
      {
        "astId": 2645,
        "contract": "contracts/Sale.sol:Sale",
        "label": "presaleTokens",
        "offset": 0,
        "slot": "20",
        "type": "t_uint256"
      },
      {
        "astId": 2647,
        "contract": "contracts/Sale.sol:Sale",
        "label": "maxReferralRewards",
        "offset": 0,
        "slot": "21",
        "type": "t_uint256"
      },
      {
        "astId": 2649,
        "contract": "contracts/Sale.sol:Sale",
        "label": "_maxStakingRewards",
        "offset": 0,
        "slot": "22",
        "type": "t_uint256"
      },
      {
        "astId": 2657,
        "contract": "contracts/Sale.sol:Sale",
        "label": "referralRewardPercentage",
        "offset": 0,
        "slot": "23",
        "type": "t_uint256"
      },
      {
        "astId": 2662,
        "contract": "contracts/Sale.sol:Sale",
        "label": "totalReferralRewardsIssued",
        "offset": 0,
        "slot": "24",
        "type": "t_uint256"
      },
      {
        "astId": 2667,
        "contract": "contracts/Sale.sol:Sale",
        "label": "referralPercentageChangeTimeLock",
        "offset": 0,
        "slot": "25",
        "type": "t_uint256"
      },
      {
        "astId": 2712,
        "contract": "contracts/Sale.sol:Sale",
        "label": "USDTInterface",
        "offset": 0,
        "slot": "26",
        "type": "t_contract(IERC20Metadata)1039"
      },
      {
        "astId": 2715,
        "contract": "contracts/Sale.sol:Sale",
        "label": "aggregatorInterface",
        "offset": 0,
        "slot": "27",
        "type": "t_contract(Aggregator)2431"
      },
      {
        "astId": 2719,
        "contract": "contracts/Sale.sol:Sale",
        "label": "paused",
        "offset": 0,
        "slot": "28",
        "type": "t_mapping(t_uint256,t_bool)"
      },
      {
        "astId": 2724,
        "contract": "contracts/Sale.sol:Sale",
        "label": "presale",
        "offset": 0,
        "slot": "29",
        "type": "t_mapping(t_uint256,t_struct(Presale)2691_storage)"
      },
      {
        "astId": 2731,
        "contract": "contracts/Sale.sol:Sale",
        "label": "userClaimData",
        "offset": 0,
        "slot": "30",
        "type": "t_mapping(t_address,t_mapping(t_uint256,t_struct(ClaimData)2698_storage))"
      },
      {
        "astId": 2735,
        "contract": "contracts/Sale.sol:Sale",
        "label": "isExcludeMinToken",
        "offset": 0,
        "slot": "31",
        "type": "t_mapping(t_address,t_bool)"
      },
      {
        "astId": 2740,
        "contract": "contracts/Sale.sol:Sale",
        "label": "referralData",
        "offset": 0,
        "slot": "32",
        "type": "t_mapping(t_address,t_struct(ReferralData)2709_storage)"
      },
      {
        "astId": 2744,
        "contract": "contracts/Sale.sol:Sale",
        "label": "hasQualifiedPurchase",
        "offset": 0,
        "slot": "33",
        "type": "t_mapping(t_address,t_bool)"
      },
      {
        "astId": 2748,
        "contract": "contracts/Sale.sol:Sale",
        "label": "hasUsedReferral",
        "offset": 0,
        "slot": "34",
        "type": "t_mapping(t_address,t_bool)"
      },
      {
        "astId": 2752,
        "contract": "contracts/Sale.sol:Sale",
        "label": "userStakingIntent",
        "offset": 0,
        "slot": "35",
        "type": "t_mapping(t_address,t_bool)"
      },
      {
        "astId": 2755,
        "contract": "contracts/Sale.sol:Sale",
        "label": "isTokenPreFunded",
        "offset": 0,
        "slot": "36",
        "type": "t_bool"
      },
      {
        "astId": 4451,
        "contract": "contracts/Sale.sol:Sale",
        "label": "totalStaked",
        "offset": 0,
        "slot": "37",
        "type": "t_uint256"
      },
      {
        "astId": 4453,
        "contract": "contracts/Sale.sol:Sale",
        "label": "stakingCap",
        "offset": 0,
        "slot": "38",
        "type": "t_uint256"
      },
      {
        "astId": 4455,
        "contract": "contracts/Sale.sol:Sale",
        "label": "stakingActive",
        "offset": 0,
        "slot": "39",
        "type": "t_bool"
      },
      {
        "astId": 4457,
        "contract": "contracts/Sale.sol:Sale",
        "label": "totalStakingRewardsIssued",
        "offset": 0,
        "slot": "40",
        "type": "t_uint256"
      },
      {
        "astId": 4459,
        "contract": "contracts/Sale.sol:Sale",
        "label": "_maxStakingRewards",
        "offset": 0,
        "slot": "41",
        "type": "t_uint256"
      },
      {
        "astId": 4473,
        "contract": "contracts/Sale.sol:Sale",
        "label": "userStakes",
        "offset": 0,
        "slot": "42",
        "type": "t_mapping(t_address,t_struct(StakeInfo)4468_storage)"
      }
    ],
    "types": {
      "t_address": {
        "encoding": "inplace",
        "label": "address",
        "numberOfBytes": "20"
      },
      "t_array(t_address)dyn_storage": {
        "base": "t_address",
        "encoding": "dynamic_array",
        "label": "address[]",
        "numberOfBytes": "32"
      },
      "t_array(t_struct(PresaleInfo)2489_storage)dyn_storage": {
        "base": "t_struct(PresaleInfo)2489_storage",
        "encoding": "dynamic_array",
        "label": "struct SaleBase.PresaleInfo[]",
        "numberOfBytes": "32"
      },
      "t_bool": {
        "encoding": "inplace",
        "label": "bool",
        "numberOfBytes": "1"
      },
      "t_contract(Aggregator)2431": {
        "encoding": "inplace",
        "label": "contract Aggregator",
        "numberOfBytes": "20"
      },
      "t_contract(IERC20Metadata)1039": {
        "encoding": "inplace",
        "label": "contract IERC20Metadata",
        "numberOfBytes": "20"
      },
      "t_mapping(t_address,t_bool)": {
        "encoding": "mapping",
        "key": "t_address",
        "label": "mapping(address => bool)",
        "numberOfBytes": "32",
        "value": "t_bool"
      },
      "t_mapping(t_address,t_mapping(t_uint256,t_bool))": {
        "encoding": "mapping",
        "key": "t_address",
        "label": "mapping(address => mapping(uint256 => bool))",
        "numberOfBytes": "32",
        "value": "t_mapping(t_uint256,t_bool)"
      },
      "t_mapping(t_address,t_mapping(t_uint256,t_struct(ClaimData)2698_storage))": {
        "encoding": "mapping",
        "key": "t_address",
        "label": "mapping(address => mapping(uint256 => struct SaleBase.ClaimData))",
        "numberOfBytes": "32",
        "value": "t_mapping(t_uint256,t_struct(ClaimData)2698_storage)"
      },
      "t_mapping(t_address,t_mapping(t_uint256,t_uint256))": {
        "encoding": "mapping",
        "key": "t_address",
        "label": "mapping(address => mapping(uint256 => uint256))",
        "numberOfBytes": "32",
        "value": "t_mapping(t_uint256,t_uint256)"
      },
      "t_mapping(t_address,t_struct(ReferralData)2709_storage)": {
        "encoding": "mapping",
        "key": "t_address",
        "label": "mapping(address => struct SaleBase.ReferralData)",
        "numberOfBytes": "32",
        "value": "t_struct(ReferralData)2709_storage"
      },
      "t_mapping(t_address,t_struct(StakeInfo)4468_storage)": {
        "encoding": "mapping",
        "key": "t_address",
        "label": "mapping(address => struct StakingManager.StakeInfo)",
        "numberOfBytes": "32",
        "value": "t_struct(StakeInfo)4468_storage"
      },
      "t_mapping(t_address,t_struct(User)2503_storage)": {
        "encoding": "mapping",
        "key": "t_address",
        "label": "mapping(address => struct SaleBase.User)",
        "numberOfBytes": "32",
        "value": "t_struct(User)2503_storage"
      },
      "t_mapping(t_uint256,t_bool)": {
        "encoding": "mapping",
        "key": "t_uint256",
        "label": "mapping(uint256 => bool)",
        "numberOfBytes": "32",
        "value": "t_bool"
      },
      "t_mapping(t_uint256,t_struct(ClaimData)2698_storage)": {
        "encoding": "mapping",
        "key": "t_uint256",
        "label": "mapping(uint256 => struct SaleBase.ClaimData)",
        "numberOfBytes": "32",
        "value": "t_struct(ClaimData)2698_storage"
      },
      "t_mapping(t_uint256,t_struct(Presale)2691_storage)": {
        "encoding": "mapping",
        "key": "t_uint256",
        "label": "mapping(uint256 => struct SaleBase.Presale)",
        "numberOfBytes": "32",
        "value": "t_struct(Presale)2691_storage"
      },
      "t_mapping(t_uint256,t_uint256)": {
        "encoding": "mapping",
        "key": "t_uint256",
        "label": "mapping(uint256 => uint256)",
        "numberOfBytes": "32",
        "value": "t_uint256"
      },
      "t_struct(ClaimData)2698_storage": {
        "encoding": "inplace",
        "label": "struct SaleBase.ClaimData",
        "members": [
          {
            "astId": 2693,
            "contract": "contracts/Sale.sol:Sale",
            "label": "claimAt",
            "offset": 0,
            "slot": "0",
            "type": "t_uint256"
          },
          {
            "astId": 2695,
            "contract": "contracts/Sale.sol:Sale",
            "label": "totalAmount",
            "offset": 0,
            "slot": "1",
            "type": "t_uint256"
          },
          {
            "astId": 2697,
            "contract": "contracts/Sale.sol:Sale",
            "label": "claimedAmount",
            "offset": 0,
            "slot": "2",
            "type": "t_uint256"
          }
        ],
        "numberOfBytes": "96"
      },
      "t_struct(Presale)2691_storage": {
        "encoding": "inplace",
        "label": "struct SaleBase.Presale",
        "members": [
          {
            "astId": 2672,
            "contract": "contracts/Sale.sol:Sale",
            "label": "startTime",
            "offset": 0,
            "slot": "0",
            "type": "t_uint256"
          },
          {
            "astId": 2674,
            "contract": "contracts/Sale.sol:Sale",
            "label": "endTime",
            "offset": 0,
            "slot": "1",
            "type": "t_uint256"
          },
          {
            "astId": 2676,
            "contract": "contracts/Sale.sol:Sale",
            "label": "price",
            "offset": 0,
            "slot": "2",
            "type": "t_uint256"
          },
          {
            "astId": 2678,
            "contract": "contracts/Sale.sol:Sale",
            "label": "nextStagePrice",
            "offset": 0,
            "slot": "3",
            "type": "t_uint256"
          },
          {
            "astId": 2680,
            "contract": "contracts/Sale.sol:Sale",
            "label": "Sold",
            "offset": 0,
            "slot": "4",
            "type": "t_uint256"
          },
          {
            "astId": 2682,
            "contract": "contracts/Sale.sol:Sale",
            "label": "tokensToSell",
            "offset": 0,
            "slot": "5",
            "type": "t_uint256"
          },
          {
            "astId": 2684,
            "contract": "contracts/Sale.sol:Sale",
            "label": "UsdtHardcap",
            "offset": 0,
            "slot": "6",
            "type": "t_uint256"
          },
          {
            "astId": 2686,
            "contract": "contracts/Sale.sol:Sale",
            "label": "amountRaised",
            "offset": 0,
            "slot": "7",
            "type": "t_uint256"
          },
          {
            "astId": 2688,
            "contract": "contracts/Sale.sol:Sale",
            "label": "Active",
            "offset": 0,
            "slot": "8",
            "type": "t_bool"
          },
          {
            "astId": 2690,
            "contract": "contracts/Sale.sol:Sale",
            "label": "isEnableClaim",
            "offset": 1,
            "slot": "8",
            "type": "t_bool"
          }
        ],
        "numberOfBytes": "288"
      },
      "t_struct(PresaleInfo)2489_storage": {
        "encoding": "inplace",
        "label": "struct SaleBase.PresaleInfo",
        "members": [
          {
            "astId": 2476,
            "contract": "contracts/Sale.sol:Sale",
            "label": "cap",
            "offset": 0,
            "slot": "0",
            "type": "t_uint256"
          },
          {
            "astId": 2478,
            "contract": "contracts/Sale.sol:Sale",
            "label": "price",
            "offset": 0,
            "slot": "1",
            "type": "t_uint256"
          },
          {
            "astId": 2480,
            "contract": "contracts/Sale.sol:Sale",
            "label": "sold",
            "offset": 0,
            "slot": "2",
            "type": "t_uint256"
          },
          {
            "astId": 2482,
            "contract": "contracts/Sale.sol:Sale",
            "label": "startTime",
            "offset": 0,
            "slot": "3",
            "type": "t_uint256"
          },
          {
            "astId": 2484,
            "contract": "contracts/Sale.sol:Sale",
            "label": "endTime",
            "offset": 0,
            "slot": "4",
            "type": "t_uint256"
          },
          {
            "astId": 2486,
            "contract": "contracts/Sale.sol:Sale",
            "label": "ClaimAble",
            "offset": 0,
            "slot": "5",
            "type": "t_bool"
          },
          {
            "astId": 2488,
            "contract": "contracts/Sale.sol:Sale",
            "label": "isClosed",
            "offset": 1,
            "slot": "5",
            "type": "t_bool"
          }
        ],
        "numberOfBytes": "192"
      },
      "t_struct(ReferralData)2709_storage": {
        "encoding": "inplace",
        "label": "struct SaleBase.ReferralData",
        "members": [
          {
            "astId": 2700,
            "contract": "contracts/Sale.sol:Sale",
            "label": "referrer",
            "offset": 0,
            "slot": "0",
            "type": "t_address"
          },
          {
            "astId": 2702,
            "contract": "contracts/Sale.sol:Sale",
            "label": "totalReferralRewards",
            "offset": 0,
            "slot": "1",
            "type": "t_uint256"
          },
          {
            "astId": 2704,
            "contract": "contracts/Sale.sol:Sale",
            "label": "claimedReferralRewards",
            "offset": 0,
            "slot": "2",
            "type": "t_uint256"
          },
          {
            "astId": 2706,
            "contract": "contracts/Sale.sol:Sale",
            "label": "hasReferred",
            "offset": 0,
            "slot": "3",
            "type": "t_bool"
          },
          {
            "astId": 2708,
            "contract": "contracts/Sale.sol:Sale",
            "label": "referralCount",
            "offset": 0,
            "slot": "4",
            "type": "t_uint256"
          }
        ],
        "numberOfBytes": "160"
      },
      "t_struct(StakeInfo)4468_storage": {
        "encoding": "inplace",
        "label": "struct StakingManager.StakeInfo",
        "members": [
          {
            "astId": 4461,
            "contract": "contracts/Sale.sol:Sale",
            "label": "stakedAmount",
            "offset": 0,
            "slot": "0",
            "type": "t_uint256"
          },
          {
            "astId": 4463,
            "contract": "contracts/Sale.sol:Sale",
            "label": "stakingTimestamp",
            "offset": 0,
            "slot": "1",
            "type": "t_uint256"
          },
          {
            "astId": 4465,
            "contract": "contracts/Sale.sol:Sale",
            "label": "unlockTimestamp",
            "offset": 0,
            "slot": "2",
            "type": "t_uint256"
          },
          {
            "astId": 4467,
            "contract": "contracts/Sale.sol:Sale",
            "label": "hasWithdrawn",
            "offset": 0,
            "slot": "3",
            "type": "t_bool"
          }
        ],
        "numberOfBytes": "128"
      },
      "t_struct(User)2503_storage": {
        "encoding": "inplace",
        "label": "struct SaleBase.User",
        "members": [
          {
            "astId": 2491,
            "contract": "contracts/Sale.sol:Sale",
            "label": "TotalBoughtTokens",
            "offset": 0,
            "slot": "0",
            "type": "t_uint256"
          },
          {
            "astId": 2493,
            "contract": "contracts/Sale.sol:Sale",
            "label": "TotalPaid",
            "offset": 0,
            "slot": "1",
            "type": "t_uint256"
          },
          {
            "astId": 2495,
            "contract": "contracts/Sale.sol:Sale",
            "label": "TotalCollectedReferral",
            "offset": 0,
            "slot": "2",
            "type": "t_uint256"
          },
          {
            "astId": 2497,
            "contract": "contracts/Sale.sol:Sale",
            "label": "lastClaimTime",
            "offset": 0,
            "slot": "3",
            "type": "t_uint256"
          },
          {
            "astId": 2500,
            "contract": "contracts/Sale.sol:Sale",
            "label": "referredUsers",
            "offset": 0,
            "slot": "4",
            "type": "t_array(t_address)dyn_storage"
          },
          {
            "astId": 2502,
            "contract": "contracts/Sale.sol:Sale",
            "label": "referrer",
            "offset": 0,
            "slot": "5",
            "type": "t_address"
          }
        ],
        "numberOfBytes": "192"
      },
      "t_uint256": {
        "encoding": "inplace",
        "label": "uint256",
        "numberOfBytes": "32"
      }
    }
  }
}